{
	"data": {
		"bytecode": {
			"linkReferences": {},
			"object": "608060405260405180608001604052806056815260200162002e5e60569139600990816200002e91906200036c565b503480156200003b575f80fd5b5060405162002eb438038062002eb4833981810160405281019062000061919062000483565b6040518060400160405280600781526020017f4d79546f6b656e000000000000000000000000000000000000000000000000008152506040518060400160405280600381526020017f4d544b0000000000000000000000000000000000000000000000000000000000815250815f9081620000dd91906200036c565b508060019081620000ef91906200036c565b50505081600781905550806008819055505050620004c8565b5f81519050919050565b7f4e487b71000000000000000000000000000000000000000000000000000000005f52604160045260245ffd5b7f4e487b71000000000000000000000000000000000000000000000000000000005f52602260045260245ffd5b5f60028204905060018216806200018457607f821691505b6020821081036200019a57620001996200013f565b5b50919050565b5f819050815f5260205f209050919050565b5f6020601f8301049050919050565b5f82821b905092915050565b5f60088302620001fe7fffffffffffffffffffffffffffffffffffffffffffffffffffffffffffffffff82620001c1565b6200020a8683620001c1565b95508019841693508086168417925050509392505050565b5f819050919050565b5f819050919050565b5f620002546200024e620002488462000222565b6200022b565b62000222565b9050919050565b5f819050919050565b6200026f8362000234565b620002876200027e826200025b565b848454620001cd565b825550505050565b5f90565b6200029d6200028f565b620002aa81848462000264565b505050565b5b81811015620002d157620002c55f8262000293565b600181019050620002b0565b5050565b601f8211156200032057620002ea81620001a0565b620002f584620001b2565b8101602085101562000305578190505b6200031d6200031485620001b2565b830182620002af565b50505b505050565b5f82821c905092915050565b5f620003425f198460080262000325565b1980831691505092915050565b5f6200035c838362000331565b9150826002028217905092915050565b620003778262000108565b67ffffffffffffffff81111562000393576200039262000112565b5b6200039f82546200016c565b620003ac828285620002d5565b5f60209050601f831160018114620003e2575f8415620003cd578287015190505b620003d985826200034f565b86555062000448565b601f198416620003f286620001a0565b5f5b828110156200041b57848901518255600182019150602085019450602081019050620003f4565b868310156200043b578489015162000437601f89168262000331565b8355505b6001600288020188555050505b505050505050565b5f80fd5b6200045f8162000222565b81146200046a575f80fd5b50565b5f815190506200047d8162000454565b92915050565b5f80604083850312156200049c576200049b62000450565b5b5f620004ab858286016200046d565b9250506020620004be858286016200046d565b9150509250929050565b61298880620004d65f395ff3fe608060405260043610610134575f3560e01c8063474ebdea116100aa578063994dddcd1161006e578063994dddcd14610404578063a22cb4651461042e578063b88d4fde14610456578063c87b56dd1461047e578063e985e9c5146104ba578063eddd0d9c146104f657610134565b8063474ebdea146103105780636352211e14610338578063658707891461037457806370a082311461039e57806395d89b41146103da57610134565b80631e576912116100fc5780631e5769121461022c57806323b872dd146102485780632890e0d714610270578063309596431461029857806342842e0e146102c057806342966c68146102e857610134565b806301ffc9a71461013857806306fdde0314610174578063081812fc1461019e578063095ea7b3146101da57806313966db514610202575b5f80fd5b348015610143575f80fd5b5061015e60048036038101906101599190611cc4565b61051e565b60405161016b9190611d09565b60405180910390f35b34801561017f575f80fd5b5061018861052f565b6040516101959190611dac565b60405180910390f35b3480156101a9575f80fd5b506101c460048036038101906101bf9190611dff565b6105be565b6040516101d19190611e69565b60405180910390f35b3480156101e5575f80fd5b5061020060048036038101906101fb9190611eac565b6105d9565b005b34801561020d575f80fd5b506102166105ef565b6040516102239190611ef9565b60405180910390f35b6102466004803603810190610241919061203e565b6105f5565b005b348015610253575f80fd5b5061026e600480360381019061026991906120aa565b61065d565b005b34801561027b575f80fd5b5061029660048036038101906102919190611dff565b61075c565b005b3480156102a3575f80fd5b506102be60048036038101906102b99190611dff565b61084e565b005b3480156102cb575f80fd5b506102e660048036038101906102e191906120aa565b610858565b005b3480156102f3575f80fd5b5061030e60048036038101906103099190611dff565b610877565b005b34801561031b575f80fd5b50610336600480360381019061033191906120fa565b61088d565b005b348015610343575f80fd5b5061035e60048036038101906103599190611dff565b6108a0565b60405161036b9190611e69565b60405180910390f35b34801561037f575f80fd5b506103886108b1565b6040516103959190611dac565b60405180910390f35b3480156103a9575f80fd5b506103c460048036038101906103bf9190612141565b61093d565b6040516103d19190611ef9565b60405180910390f35b3480156103e5575f80fd5b506103ee6109f3565b6040516103fb9190611dac565b60405180910390f35b34801561040f575f80fd5b50610418610a83565b6040516104259190611ef9565b60405180910390f35b348015610439575f80fd5b50610454600480360381019061044f9190612196565b610a89565b005b348015610461575f80fd5b5061047c60048036038101906104779190612272565b610a9f565b005b348015610489575f80fd5b506104a4600480360381019061049f9190611dff565b610abc565b6040516104b19190611dac565b60405180910390f35b3480156104c5575f80fd5b506104e060048036038101906104db91906122f2565b610ace565b6040516104ed9190611d09565b60405180910390f35b348015610501575f80fd5b5061051c60048036038101906105179190611dff565b610b5c565b005b5f61052882610b66565b9050919050565b60605f805461053d9061235d565b80601f01602080910402602001604051908101604052809291908181526020018280546105699061235d565b80156105b45780601f1061058b576101008083540402835291602001916105b4565b820191905f5260205f20905b81548152906001019060200180831161059757829003601f168201915b5050505050905090565b5f6105c882610bc6565b506105d282610c4c565b9050919050565b6105eb82826105e6610c85565b610c8c565b5050565b60075481565b60075434101561063a576040517f08c379a0000000000000000000000000000000000000000000000000000000008152600401610631906123d7565b60405180910390fd5b6106448383610c9e565b61064e8282610cbb565b6106588383610d15565b505050565b5f73ffffffffffffffffffffffffffffffffffffffff168273ffffffffffffffffffffffffffffffffffffffff16036106cd575f6040517f64a0ae920000000000000000000000000000000000000000000000000000000081526004016106c49190611e69565b60405180910390fd5b5f6106e083836106db610c85565b610d41565b90508373ffffffffffffffffffffffffffffffffffffffff168173ffffffffffffffffffffffffffffffffffffffff1614610756578382826040517f64283d7b00000000000000000000000000000000000000000000000000000000815260040161074d939291906123f5565b60405180910390fd5b50505050565b3373ffffffffffffffffffffffffffffffffffffffff1661077c826108a0565b73ffffffffffffffffffffffffffffffffffffffff16146107d2576040517f08c379a00000000000000000000000000000000000000000000000000000000081526004016107c990612474565b60405180910390fd5b5f600a5f8381526020019081526020015f205414158015610803575042600a5f8381526020019081526020015f2054105b610842576040517f08c379a0000000000000000000000000000000000000000000000000000000008152600401610839906124dc565b60405180910390fd5b61084b81610f4c565b50565b8060088190555050565b61087283838360405180602001604052805f815250610a9f565b505050565b6108895f82610884610c85565b610d41565b5050565b806009908161089c9190612697565b5050565b5f6108aa82610bc6565b9050919050565b600980546108be9061235d565b80601f01602080910402602001604051908101604052809291908181526020018280546108ea9061235d565b80156109355780601f1061090c57610100808354040283529160200191610935565b820191905f5260205f20905b81548152906001019060200180831161091857829003601f168201915b505050505081565b5f8073ffffffffffffffffffffffffffffffffffffffff168273ffffffffffffffffffffffffffffffffffffffff16036109ae575f6040517f89c62b640000000000000000000000000000000000000000000000000000000081526004016109a59190611e69565b60405180910390fd5b60035f8373ffffffffffffffffffffffffffffffffffffffff1673ffffffffffffffffffffffffffffffffffffffff1681526020019081526020015f20549050919050565b606060018054610a029061235d565b80601f0160208091040260200160405190810160405280929190818152602001828054610a2e9061235d565b8015610a795780601f10610a5057610100808354040283529160200191610a79565b820191905f5260205f20905b815481529060010190602001808311610a5c57829003601f168201915b5050505050905090565b60085481565b610a9b610a94610c85565b8383610fce565b5050565b610aaa84848461065d565b610ab684848484611137565b50505050565b6060610ac7826112e9565b9050919050565b5f60055f8473ffffffffffffffffffffffffffffffffffffffff1673ffffffffffffffffffffffffffffffffffffffff1681526020019081526020015f205f8373ffffffffffffffffffffffffffffffffffffffff1673ffffffffffffffffffffffffffffffffffffffff1681526020019081526020015f205f9054906101000a900460ff16905092915050565b8060078190555050565b5f634906490660e01b7bffffffffffffffffffffffffffffffffffffffffffffffffffffffff1916827bffffffffffffffffffffffffffffffffffffffffffffffffffffffff19161480610bbf5750610bbe826113f4565b5b9050919050565b5f80610bd1836114d5565b90505f73ffffffffffffffffffffffffffffffffffffffff168173ffffffffffffffffffffffffffffffffffffffff1603610c4357826040517f7e273289000000000000000000000000000000000000000000000000000000008152600401610c3a9190611ef9565b60405180910390fd5b80915050919050565b5f60045f8381526020019081526020015f205f9054906101000a900473ffffffffffffffffffffffffffffffffffffffff169050919050565b5f33905090565b610c99838383600161150e565b505050565b610cb7828260405180602001604052805f8152506116cd565b5050565b8060065f8481526020019081526020015f209081610cd99190612697565b507ff8e1a15aba9398e019f0b49df1a4fde98ee17ae345cb5f6b5e2c27f5033e8ce782604051610d099190611ef9565b60405180910390a15050565b5f60085442610d249190612793565b905080600a5f8481526020019081526020015f2081905550505050565b5f80610d4c846114d5565b90505f73ffffffffffffffffffffffffffffffffffffffff168373ffffffffffffffffffffffffffffffffffffffff1614610d8d57610d8c8184866116e8565b5b5f73ffffffffffffffffffffffffffffffffffffffff168173ffffffffffffffffffffffffffffffffffffffff1614610e1857610dcc5f855f8061150e565b600160035f8373ffffffffffffffffffffffffffffffffffffffff1673ffffffffffffffffffffffffffffffffffffffff1681526020019081526020015f205f82825403925050819055505b5f73ffffffffffffffffffffffffffffffffffffffff168573ffffffffffffffffffffffffffffffffffffffff1614610e9757600160035f8773ffffffffffffffffffffffffffffffffffffffff1673ffffffffffffffffffffffffffffffffffffffff1681526020019081526020015f205f82825401925050819055505b8460025f8681526020019081526020015f205f6101000a81548173ffffffffffffffffffffffffffffffffffffffff021916908373ffffffffffffffffffffffffffffffffffffffff160217905550838573ffffffffffffffffffffffffffffffffffffffff168273ffffffffffffffffffffffffffffffffffffffff167fddf252ad1be2c89b69c2b068fc378daa952ba7f163c4a11628f55a4df523b3ef60405160405180910390a4809150509392505050565b5f610f585f835f610d41565b90505f73ffffffffffffffffffffffffffffffffffffffff168173ffffffffffffffffffffffffffffffffffffffff1603610fca57816040517f7e273289000000000000000000000000000000000000000000000000000000008152600401610fc19190611ef9565b60405180910390fd5b5050565b5f73ffffffffffffffffffffffffffffffffffffffff168273ffffffffffffffffffffffffffffffffffffffff160361103e57816040517f5b08ba180000000000000000000000000000000000000000000000000000000081526004016110359190611e69565b60405180910390fd5b8060055f8573ffffffffffffffffffffffffffffffffffffffff1673ffffffffffffffffffffffffffffffffffffffff1681526020019081526020015f205f8473ffffffffffffffffffffffffffffffffffffffff1673ffffffffffffffffffffffffffffffffffffffff1681526020019081526020015f205f6101000a81548160ff0219169083151502179055508173ffffffffffffffffffffffffffffffffffffffff168373ffffffffffffffffffffffffffffffffffffffff167f17307eab39ab6107e8899845ad3d59bd9653f200f220920489ca2b5937696c318360405161112a9190611d09565b60405180910390a3505050565b5f8373ffffffffffffffffffffffffffffffffffffffff163b11156112e3578273ffffffffffffffffffffffffffffffffffffffff1663150b7a0261117a610c85565b8685856040518563ffffffff1660e01b815260040161119c9493929190612818565b6020604051808303815f875af19250505080156111d757506040513d601f19601f820116820180604052508101906111d49190612876565b60015b611258573d805f8114611205576040519150601f19603f3d011682016040523d82523d5f602084013e61120a565b606091505b505f81510361125057836040517f64a0ae920000000000000000000000000000000000000000000000000000000081526004016112479190611e69565b60405180910390fd5b805181602001fd5b63150b7a0260e01b7bffffffffffffffffffffffffffffffffffffffffffffffffffffffff1916817bffffffffffffffffffffffffffffffffffffffffffffffffffffffff1916146112e157836040517f64a0ae920000000000000000000000000000000000000000000000000000000081526004016112d89190611e69565b60405180910390fd5b505b50505050565b60606112f482610bc6565b505f60065f8481526020019081526020015f2080546113129061235d565b80601f016020809104026020016040519081016040528092919081815260200182805461133e9061235d565b80156113895780601f1061136057610100808354040283529160200191611389565b820191905f5260205f20905b81548152906001019060200180831161136c57829003601f168201915b505050505090505f6113996117ab565b90505f8151036113ad5781925050506113ef565b5f825111156113e15780826040516020016113c99291906128db565b604051602081830303815290604052925050506113ef565b6113ea846117c1565b925050505b919050565b5f7f80ac58cd000000000000000000000000000000000000000000000000000000007bffffffffffffffffffffffffffffffffffffffffffffffffffffffff1916827bffffffffffffffffffffffffffffffffffffffffffffffffffffffff191614806114be57507f5b5e139f000000000000000000000000000000000000000000000000000000007bffffffffffffffffffffffffffffffffffffffffffffffffffffffff1916827bffffffffffffffffffffffffffffffffffffffffffffffffffffffff1916145b806114ce57506114cd82611827565b5b9050919050565b5f60025f8381526020019081526020015f205f9054906101000a900473ffffffffffffffffffffffffffffffffffffffff169050919050565b808061154657505f73ffffffffffffffffffffffffffffffffffffffff168273ffffffffffffffffffffffffffffffffffffffff1614155b15611678575f61155584610bc6565b90505f73ffffffffffffffffffffffffffffffffffffffff168373ffffffffffffffffffffffffffffffffffffffff16141580156115bf57508273ffffffffffffffffffffffffffffffffffffffff168173ffffffffffffffffffffffffffffffffffffffff1614155b80156115d257506115d08184610ace565b155b1561161457826040517fa9fbf51f00000000000000000000000000000000000000000000000000000000815260040161160b9190611e69565b60405180910390fd5b811561167657838573ffffffffffffffffffffffffffffffffffffffff168273ffffffffffffffffffffffffffffffffffffffff167f8c5be1e5ebec7d5bd14f71427d1e84f3dd0314c0f7b2291e5b200ac8c7c3b92560405160405180910390a45b505b8360045f8581526020019081526020015f205f6101000a81548173ffffffffffffffffffffffffffffffffffffffff021916908373ffffffffffffffffffffffffffffffffffffffff16021790555050505050565b6116d78383611890565b6116e35f848484611137565b505050565b6116f3838383611983565b6117a6575f73ffffffffffffffffffffffffffffffffffffffff168373ffffffffffffffffffffffffffffffffffffffff160361176757806040517f7e27328900000000000000000000000000000000000000000000000000000000815260040161175e9190611ef9565b60405180910390fd5b81816040517f177e802f00000000000000000000000000000000000000000000000000000000815260040161179d9291906128fe565b60405180910390fd5b505050565b606060405180602001604052805f815250905090565b60606117cc82610bc6565b505f6117d66117ab565b90505f8151116117f45760405180602001604052805f81525061181f565b806117fe84611a43565b60405160200161180f9291906128db565b6040516020818303038152906040525b915050919050565b5f7f01ffc9a7000000000000000000000000000000000000000000000000000000007bffffffffffffffffffffffffffffffffffffffffffffffffffffffff1916827bffffffffffffffffffffffffffffffffffffffffffffffffffffffff1916149050919050565b5f73ffffffffffffffffffffffffffffffffffffffff168273ffffffffffffffffffffffffffffffffffffffff1603611900575f6040517f64a0ae920000000000000000000000000000000000000000000000000000000081526004016118f79190611e69565b60405180910390fd5b5f61190c83835f610d41565b90505f73ffffffffffffffffffffffffffffffffffffffff168173ffffffffffffffffffffffffffffffffffffffff161461197e575f6040517f73c6ac6e0000000000000000000000000000000000000000000000000000000081526004016119759190611e69565b60405180910390fd5b505050565b5f8073ffffffffffffffffffffffffffffffffffffffff168373ffffffffffffffffffffffffffffffffffffffff1614158015611a3a57508273ffffffffffffffffffffffffffffffffffffffff168473ffffffffffffffffffffffffffffffffffffffff1614806119fb57506119fa8484610ace565b5b80611a3957508273ffffffffffffffffffffffffffffffffffffffff16611a2183610c4c565b73ffffffffffffffffffffffffffffffffffffffff16145b5b90509392505050565b60605f6001611a5184611b0d565b0190505f8167ffffffffffffffff811115611a6f57611a6e611f1a565b5b6040519080825280601f01601f191660200182016040528015611aa15781602001600182028036833780820191505090505b5090505f82602001820190505b600115611b02578080600190039150507f3031323334353637383961626364656600000000000000000000000000000000600a86061a8153600a8581611af757611af6612925565b5b0494505f8503611aae575b819350505050919050565b5f805f90507a184f03e93ff9f4daa797ed6e38ed64bf6a1f0100000000000000008310611b69577a184f03e93ff9f4daa797ed6e38ed64bf6a1f0100000000000000008381611b5f57611b5e612925565b5b0492506040810190505b6d04ee2d6d415b85acef81000000008310611ba6576d04ee2d6d415b85acef81000000008381611b9c57611b9b612925565b5b0492506020810190505b662386f26fc100008310611bd557662386f26fc100008381611bcb57611bca612925565b5b0492506010810190505b6305f5e1008310611bfe576305f5e1008381611bf457611bf3612925565b5b0492506008810190505b6127108310611c23576127108381611c1957611c18612925565b5b0492506004810190505b60648310611c465760648381611c3c57611c3b612925565b5b0492506002810190505b600a8310611c55576001810190505b80915050919050565b5f604051905090565b5f80fd5b5f80fd5b5f7fffffffff0000000000000000000000000000000000000000000000000000000082169050919050565b611ca381611c6f565b8114611cad575f80fd5b50565b5f81359050611cbe81611c9a565b92915050565b5f60208284031215611cd957611cd8611c67565b5b5f611ce684828501611cb0565b91505092915050565b5f8115159050919050565b611d0381611cef565b82525050565b5f602082019050611d1c5f830184611cfa565b92915050565b5f81519050919050565b5f82825260208201905092915050565b5f5b83811015611d59578082015181840152602081019050611d3e565b5f8484015250505050565b5f601f19601f8301169050919050565b5f611d7e82611d22565b611d888185611d2c565b9350611d98818560208601611d3c565b611da181611d64565b840191505092915050565b5f6020820190508181035f830152611dc48184611d74565b905092915050565b5f819050919050565b611dde81611dcc565b8114611de8575f80fd5b50565b5f81359050611df981611dd5565b92915050565b5f60208284031215611e1457611e13611c67565b5b5f611e2184828501611deb565b91505092915050565b5f73ffffffffffffffffffffffffffffffffffffffff82169050919050565b5f611e5382611e2a565b9050919050565b611e6381611e49565b82525050565b5f602082019050611e7c5f830184611e5a565b92915050565b611e8b81611e49565b8114611e95575f80fd5b50565b5f81359050611ea681611e82565b92915050565b5f8060408385031215611ec257611ec1611c67565b5b5f611ecf85828601611e98565b9250506020611ee085828601611deb565b9150509250929050565b611ef381611dcc565b82525050565b5f602082019050611f0c5f830184611eea565b92915050565b5f80fd5b5f80fd5b7f4e487b71000000000000000000000000000000000000000000000000000000005f52604160045260245ffd5b611f5082611d64565b810181811067ffffffffffffffff82111715611f6f57611f6e611f1a565b5b80604052505050565b5f611f81611c5e565b9050611f8d8282611f47565b919050565b5f67ffffffffffffffff821115611fac57611fab611f1a565b5b611fb582611d64565b9050602081019050919050565b828183375f83830152505050565b5f611fe2611fdd84611f92565b611f78565b905082815260208101848484011115611ffe57611ffd611f16565b5b612009848285611fc2565b509392505050565b5f82601f83011261202557612024611f12565b5b8135612035848260208601611fd0565b91505092915050565b5f805f6060848603121561205557612054611c67565b5b5f61206286828701611e98565b935050602061207386828701611deb565b925050604084013567ffffffffffffffff81111561209457612093611c6b565b5b6120a086828701612011565b9150509250925092565b5f805f606084860312156120c1576120c0611c67565b5b5f6120ce86828701611e98565b93505060206120df86828701611e98565b92505060406120f086828701611deb565b9150509250925092565b5f6020828403121561210f5761210e611c67565b5b5f82013567ffffffffffffffff81111561212c5761212b611c6b565b5b61213884828501612011565b91505092915050565b5f6020828403121561215657612155611c67565b5b5f61216384828501611e98565b91505092915050565b61217581611cef565b811461217f575f80fd5b50565b5f813590506121908161216c565b92915050565b5f80604083850312156121ac576121ab611c67565b5b5f6121b985828601611e98565b92505060206121ca85828601612182565b9150509250929050565b5f67ffffffffffffffff8211156121ee576121ed611f1a565b5b6121f782611d64565b9050602081019050919050565b5f612216612211846121d4565b611f78565b90508281526020810184848401111561223257612231611f16565b5b61223d848285611fc2565b509392505050565b5f82601f83011261225957612258611f12565b5b8135612269848260208601612204565b91505092915050565b5f805f806080858703121561228a57612289611c67565b5b5f61229787828801611e98565b94505060206122a887828801611e98565b93505060406122b987828801611deb565b925050606085013567ffffffffffffffff8111156122da576122d9611c6b565b5b6122e687828801612245565b91505092959194509250565b5f806040838503121561230857612307611c67565b5b5f61231585828601611e98565b925050602061232685828601611e98565b9150509250929050565b7f4e487b71000000000000000000000000000000000000000000000000000000005f52602260045260245ffd5b5f600282049050600182168061237457607f821691505b60208210810361238757612386612330565b5b50919050565b7f496e73756666696369656e74207061796d656e740000000000000000000000005f82015250565b5f6123c1601483611d2c565b91506123cc8261238d565b602082019050919050565b5f6020820190508181035f8301526123ee816123b5565b9050919050565b5f6060820190506124085f830186611e5a565b6124156020830185611eea565b6124226040830184611e5a565b949350505050565b7f596f7520646f6e2774206f776e2074686973204e4654000000000000000000005f82015250565b5f61245e601683611d2c565b91506124698261242a565b602082019050919050565b5f6020820190508181035f83015261248b81612452565b9050919050565b7f4e46542063616e6e6f74206265206275726e65642079657400000000000000005f82015250565b5f6124c6601883611d2c565b91506124d182612492565b602082019050919050565b5f6020820190508181035f8301526124f3816124ba565b9050919050565b5f819050815f5260205f209050919050565b5f6020601f8301049050919050565b5f82821b905092915050565b5f600883026125567fffffffffffffffffffffffffffffffffffffffffffffffffffffffffffffffff8261251b565b612560868361251b565b95508019841693508086168417925050509392505050565b5f819050919050565b5f61259b61259661259184611dcc565b612578565b611dcc565b9050919050565b5f819050919050565b6125b483612581565b6125c86125c0826125a2565b848454612527565b825550505050565b5f90565b6125dc6125d0565b6125e78184846125ab565b505050565b5b8181101561260a576125ff5f826125d4565b6001810190506125ed565b5050565b601f82111561264f57612620816124fa565b6126298461250c565b81016020851015612638578190505b61264c6126448561250c565b8301826125ec565b50505b505050565b5f82821c905092915050565b5f61266f5f1984600802612654565b1980831691505092915050565b5f6126878383612660565b9150826002028217905092915050565b6126a082611d22565b67ffffffffffffffff8111156126b9576126b8611f1a565b5b6126c3825461235d565b6126ce82828561260e565b5f60209050601f8311600181146126ff575f84156126ed578287015190505b6126f7858261267c565b86555061275e565b601f19841661270d866124fa565b5f5b828110156127345784890151825560018201915060208501945060208101905061270f565b86831015612751578489015161274d601f891682612660565b8355505b6001600288020188555050505b505050505050565b7f4e487b71000000000000000000000000000000000000000000000000000000005f52601160045260245ffd5b5f61279d82611dcc565b91506127a883611dcc565b92508282019050808211156127c0576127bf612766565b5b92915050565b5f81519050919050565b5f82825260208201905092915050565b5f6127ea826127c6565b6127f481856127d0565b9350612804818560208601611d3c565b61280d81611d64565b840191505092915050565b5f60808201905061282b5f830187611e5a565b6128386020830186611e5a565b6128456040830185611eea565b818103606083015261285781846127e0565b905095945050505050565b5f8151905061287081611c9a565b92915050565b5f6020828403121561288b5761288a611c67565b5b5f61289884828501612862565b91505092915050565b5f81905092915050565b5f6128b582611d22565b6128bf81856128a1565b93506128cf818560208601611d3c565b80840191505092915050565b5f6128e682856128ab565b91506128f282846128ab565b91508190509392505050565b5f6040820190506129115f830185611e5a565b61291e6020830184611eea565b9392505050565b7f4e487b71000000000000000000000000000000000000000000000000000000005f52601260045260245ffdfea26469706673582212203c2757cc01f317757597d8471e9860bd495eac826f71672205c0f56266ebd7aa64736f6c6343000814003368747470733a2f2f676174657761792e70696e6174612e636c6f75642f697066732f516d6238684b534b616b4771566b37683837377864797a564a686e6236636d7a666a70566653367843464c714e672f302e6a7067",
			"opcodes": "PUSH1 0x80 PUSH1 0x40 MSTORE PUSH1 0x40 MLOAD DUP1 PUSH1 0x80 ADD PUSH1 0x40 MSTORE DUP1 PUSH1 0x56 DUP2 MSTORE PUSH1 0x20 ADD PUSH3 0x2E5E PUSH1 0x56 SWAP2 CODECOPY PUSH1 0x9 SWAP1 DUP2 PUSH3 0x2E SWAP2 SWAP1 PUSH3 0x36C JUMP JUMPDEST POP CALLVALUE DUP1 ISZERO PUSH3 0x3B JUMPI PUSH0 DUP1 REVERT JUMPDEST POP PUSH1 0x40 MLOAD PUSH3 0x2EB4 CODESIZE SUB DUP1 PUSH3 0x2EB4 DUP4 CODECOPY DUP2 DUP2 ADD PUSH1 0x40 MSTORE DUP2 ADD SWAP1 PUSH3 0x61 SWAP2 SWAP1 PUSH3 0x483 JUMP JUMPDEST PUSH1 0x40 MLOAD DUP1 PUSH1 0x40 ADD PUSH1 0x40 MSTORE DUP1 PUSH1 0x7 DUP2 MSTORE PUSH1 0x20 ADD PUSH32 0x4D79546F6B656E00000000000000000000000000000000000000000000000000 DUP2 MSTORE POP PUSH1 0x40 MLOAD DUP1 PUSH1 0x40 ADD PUSH1 0x40 MSTORE DUP1 PUSH1 0x3 DUP2 MSTORE PUSH1 0x20 ADD PUSH32 0x4D544B0000000000000000000000000000000000000000000000000000000000 DUP2 MSTORE POP DUP2 PUSH0 SWAP1 DUP2 PUSH3 0xDD SWAP2 SWAP1 PUSH3 0x36C JUMP JUMPDEST POP DUP1 PUSH1 0x1 SWAP1 DUP2 PUSH3 0xEF SWAP2 SWAP1 PUSH3 0x36C JUMP JUMPDEST POP POP POP DUP2 PUSH1 0x7 DUP2 SWAP1 SSTORE POP DUP1 PUSH1 0x8 DUP2 SWAP1 SSTORE POP POP POP PUSH3 0x4C8 JUMP JUMPDEST PUSH0 DUP2 MLOAD SWAP1 POP SWAP2 SWAP1 POP JUMP JUMPDEST PUSH32 0x4E487B7100000000000000000000000000000000000000000000000000000000 PUSH0 MSTORE PUSH1 0x41 PUSH1 0x4 MSTORE PUSH1 0x24 PUSH0 REVERT JUMPDEST PUSH32 0x4E487B7100000000000000000000000000000000000000000000000000000000 PUSH0 MSTORE PUSH1 0x22 PUSH1 0x4 MSTORE PUSH1 0x24 PUSH0 REVERT JUMPDEST PUSH0 PUSH1 0x2 DUP3 DIV SWAP1 POP PUSH1 0x1 DUP3 AND DUP1 PUSH3 0x184 JUMPI PUSH1 0x7F DUP3 AND SWAP2 POP JUMPDEST PUSH1 0x20 DUP3 LT DUP2 SUB PUSH3 0x19A JUMPI PUSH3 0x199 PUSH3 0x13F JUMP JUMPDEST JUMPDEST POP SWAP2 SWAP1 POP JUMP JUMPDEST PUSH0 DUP2 SWAP1 POP DUP2 PUSH0 MSTORE PUSH1 0x20 PUSH0 KECCAK256 SWAP1 POP SWAP2 SWAP1 POP JUMP JUMPDEST PUSH0 PUSH1 0x20 PUSH1 0x1F DUP4 ADD DIV SWAP1 POP SWAP2 SWAP1 POP JUMP JUMPDEST PUSH0 DUP3 DUP3 SHL SWAP1 POP SWAP3 SWAP2 POP POP JUMP JUMPDEST PUSH0 PUSH1 0x8 DUP4 MUL PUSH3 0x1FE PUSH32 0xFFFFFFFFFFFFFFFFFFFFFFFFFFFFFFFFFFFFFFFFFFFFFFFFFFFFFFFFFFFFFFFF DUP3 PUSH3 0x1C1 JUMP JUMPDEST PUSH3 0x20A DUP7 DUP4 PUSH3 0x1C1 JUMP JUMPDEST SWAP6 POP DUP1 NOT DUP5 AND SWAP4 POP DUP1 DUP7 AND DUP5 OR SWAP3 POP POP POP SWAP4 SWAP3 POP POP POP JUMP JUMPDEST PUSH0 DUP2 SWAP1 POP SWAP2 SWAP1 POP JUMP JUMPDEST PUSH0 DUP2 SWAP1 POP SWAP2 SWAP1 POP JUMP JUMPDEST PUSH0 PUSH3 0x254 PUSH3 0x24E PUSH3 0x248 DUP5 PUSH3 0x222 JUMP JUMPDEST PUSH3 0x22B JUMP JUMPDEST PUSH3 0x222 JUMP JUMPDEST SWAP1 POP SWAP2 SWAP1 POP JUMP JUMPDEST PUSH0 DUP2 SWAP1 POP SWAP2 SWAP1 POP JUMP JUMPDEST PUSH3 0x26F DUP4 PUSH3 0x234 JUMP JUMPDEST PUSH3 0x287 PUSH3 0x27E DUP3 PUSH3 0x25B JUMP JUMPDEST DUP5 DUP5 SLOAD PUSH3 0x1CD JUMP JUMPDEST DUP3 SSTORE POP POP POP POP JUMP JUMPDEST PUSH0 SWAP1 JUMP JUMPDEST PUSH3 0x29D PUSH3 0x28F JUMP JUMPDEST PUSH3 0x2AA DUP2 DUP5 DUP5 PUSH3 0x264 JUMP JUMPDEST POP POP POP JUMP JUMPDEST JUMPDEST DUP2 DUP2 LT ISZERO PUSH3 0x2D1 JUMPI PUSH3 0x2C5 PUSH0 DUP3 PUSH3 0x293 JUMP JUMPDEST PUSH1 0x1 DUP2 ADD SWAP1 POP PUSH3 0x2B0 JUMP JUMPDEST POP POP JUMP JUMPDEST PUSH1 0x1F DUP3 GT ISZERO PUSH3 0x320 JUMPI PUSH3 0x2EA DUP2 PUSH3 0x1A0 JUMP JUMPDEST PUSH3 0x2F5 DUP5 PUSH3 0x1B2 JUMP JUMPDEST DUP2 ADD PUSH1 0x20 DUP6 LT ISZERO PUSH3 0x305 JUMPI DUP2 SWAP1 POP JUMPDEST PUSH3 0x31D PUSH3 0x314 DUP6 PUSH3 0x1B2 JUMP JUMPDEST DUP4 ADD DUP3 PUSH3 0x2AF JUMP JUMPDEST POP POP JUMPDEST POP POP POP JUMP JUMPDEST PUSH0 DUP3 DUP3 SHR SWAP1 POP SWAP3 SWAP2 POP POP JUMP JUMPDEST PUSH0 PUSH3 0x342 PUSH0 NOT DUP5 PUSH1 0x8 MUL PUSH3 0x325 JUMP JUMPDEST NOT DUP1 DUP4 AND SWAP2 POP POP SWAP3 SWAP2 POP POP JUMP JUMPDEST PUSH0 PUSH3 0x35C DUP4 DUP4 PUSH3 0x331 JUMP JUMPDEST SWAP2 POP DUP3 PUSH1 0x2 MUL DUP3 OR SWAP1 POP SWAP3 SWAP2 POP POP JUMP JUMPDEST PUSH3 0x377 DUP3 PUSH3 0x108 JUMP JUMPDEST PUSH8 0xFFFFFFFFFFFFFFFF DUP2 GT ISZERO PUSH3 0x393 JUMPI PUSH3 0x392 PUSH3 0x112 JUMP JUMPDEST JUMPDEST PUSH3 0x39F DUP3 SLOAD PUSH3 0x16C JUMP JUMPDEST PUSH3 0x3AC DUP3 DUP3 DUP6 PUSH3 0x2D5 JUMP JUMPDEST PUSH0 PUSH1 0x20 SWAP1 POP PUSH1 0x1F DUP4 GT PUSH1 0x1 DUP2 EQ PUSH3 0x3E2 JUMPI PUSH0 DUP5 ISZERO PUSH3 0x3CD JUMPI DUP3 DUP8 ADD MLOAD SWAP1 POP JUMPDEST PUSH3 0x3D9 DUP6 DUP3 PUSH3 0x34F JUMP JUMPDEST DUP7 SSTORE POP PUSH3 0x448 JUMP JUMPDEST PUSH1 0x1F NOT DUP5 AND PUSH3 0x3F2 DUP7 PUSH3 0x1A0 JUMP JUMPDEST PUSH0 JUMPDEST DUP3 DUP2 LT ISZERO PUSH3 0x41B JUMPI DUP5 DUP10 ADD MLOAD DUP3 SSTORE PUSH1 0x1 DUP3 ADD SWAP2 POP PUSH1 0x20 DUP6 ADD SWAP5 POP PUSH1 0x20 DUP2 ADD SWAP1 POP PUSH3 0x3F4 JUMP JUMPDEST DUP7 DUP4 LT ISZERO PUSH3 0x43B JUMPI DUP5 DUP10 ADD MLOAD PUSH3 0x437 PUSH1 0x1F DUP10 AND DUP3 PUSH3 0x331 JUMP JUMPDEST DUP4 SSTORE POP JUMPDEST PUSH1 0x1 PUSH1 0x2 DUP9 MUL ADD DUP9 SSTORE POP POP POP JUMPDEST POP POP POP POP POP POP JUMP JUMPDEST PUSH0 DUP1 REVERT JUMPDEST PUSH3 0x45F DUP2 PUSH3 0x222 JUMP JUMPDEST DUP2 EQ PUSH3 0x46A JUMPI PUSH0 DUP1 REVERT JUMPDEST POP JUMP JUMPDEST PUSH0 DUP2 MLOAD SWAP1 POP PUSH3 0x47D DUP2 PUSH3 0x454 JUMP JUMPDEST SWAP3 SWAP2 POP POP JUMP JUMPDEST PUSH0 DUP1 PUSH1 0x40 DUP4 DUP6 SUB SLT ISZERO PUSH3 0x49C JUMPI PUSH3 0x49B PUSH3 0x450 JUMP JUMPDEST JUMPDEST PUSH0 PUSH3 0x4AB DUP6 DUP3 DUP7 ADD PUSH3 0x46D JUMP JUMPDEST SWAP3 POP POP PUSH1 0x20 PUSH3 0x4BE DUP6 DUP3 DUP7 ADD PUSH3 0x46D JUMP JUMPDEST SWAP2 POP POP SWAP3 POP SWAP3 SWAP1 POP JUMP JUMPDEST PUSH2 0x2988 DUP1 PUSH3 0x4D6 PUSH0 CODECOPY PUSH0 RETURN INVALID PUSH1 0x80 PUSH1 0x40 MSTORE PUSH1 0x4 CALLDATASIZE LT PUSH2 0x134 JUMPI PUSH0 CALLDATALOAD PUSH1 0xE0 SHR DUP1 PUSH4 0x474EBDEA GT PUSH2 0xAA JUMPI DUP1 PUSH4 0x994DDDCD GT PUSH2 0x6E JUMPI DUP1 PUSH4 0x994DDDCD EQ PUSH2 0x404 JUMPI DUP1 PUSH4 0xA22CB465 EQ PUSH2 0x42E JUMPI DUP1 PUSH4 0xB88D4FDE EQ PUSH2 0x456 JUMPI DUP1 PUSH4 0xC87B56DD EQ PUSH2 0x47E JUMPI DUP1 PUSH4 0xE985E9C5 EQ PUSH2 0x4BA JUMPI DUP1 PUSH4 0xEDDD0D9C EQ PUSH2 0x4F6 JUMPI PUSH2 0x134 JUMP JUMPDEST DUP1 PUSH4 0x474EBDEA EQ PUSH2 0x310 JUMPI DUP1 PUSH4 0x6352211E EQ PUSH2 0x338 JUMPI DUP1 PUSH4 0x65870789 EQ PUSH2 0x374 JUMPI DUP1 PUSH4 0x70A08231 EQ PUSH2 0x39E JUMPI DUP1 PUSH4 0x95D89B41 EQ PUSH2 0x3DA JUMPI PUSH2 0x134 JUMP JUMPDEST DUP1 PUSH4 0x1E576912 GT PUSH2 0xFC JUMPI DUP1 PUSH4 0x1E576912 EQ PUSH2 0x22C JUMPI DUP1 PUSH4 0x23B872DD EQ PUSH2 0x248 JUMPI DUP1 PUSH4 0x2890E0D7 EQ PUSH2 0x270 JUMPI DUP1 PUSH4 0x30959643 EQ PUSH2 0x298 JUMPI DUP1 PUSH4 0x42842E0E EQ PUSH2 0x2C0 JUMPI DUP1 PUSH4 0x42966C68 EQ PUSH2 0x2E8 JUMPI PUSH2 0x134 JUMP JUMPDEST DUP1 PUSH4 0x1FFC9A7 EQ PUSH2 0x138 JUMPI DUP1 PUSH4 0x6FDDE03 EQ PUSH2 0x174 JUMPI DUP1 PUSH4 0x81812FC EQ PUSH2 0x19E JUMPI DUP1 PUSH4 0x95EA7B3 EQ PUSH2 0x1DA JUMPI DUP1 PUSH4 0x13966DB5 EQ PUSH2 0x202 JUMPI JUMPDEST PUSH0 DUP1 REVERT JUMPDEST CALLVALUE DUP1 ISZERO PUSH2 0x143 JUMPI PUSH0 DUP1 REVERT JUMPDEST POP PUSH2 0x15E PUSH1 0x4 DUP1 CALLDATASIZE SUB DUP2 ADD SWAP1 PUSH2 0x159 SWAP2 SWAP1 PUSH2 0x1CC4 JUMP JUMPDEST PUSH2 0x51E JUMP JUMPDEST PUSH1 0x40 MLOAD PUSH2 0x16B SWAP2 SWAP1 PUSH2 0x1D09 JUMP JUMPDEST PUSH1 0x40 MLOAD DUP1 SWAP2 SUB SWAP1 RETURN JUMPDEST CALLVALUE DUP1 ISZERO PUSH2 0x17F JUMPI PUSH0 DUP1 REVERT JUMPDEST POP PUSH2 0x188 PUSH2 0x52F JUMP JUMPDEST PUSH1 0x40 MLOAD PUSH2 0x195 SWAP2 SWAP1 PUSH2 0x1DAC JUMP JUMPDEST PUSH1 0x40 MLOAD DUP1 SWAP2 SUB SWAP1 RETURN JUMPDEST CALLVALUE DUP1 ISZERO PUSH2 0x1A9 JUMPI PUSH0 DUP1 REVERT JUMPDEST POP PUSH2 0x1C4 PUSH1 0x4 DUP1 CALLDATASIZE SUB DUP2 ADD SWAP1 PUSH2 0x1BF SWAP2 SWAP1 PUSH2 0x1DFF JUMP JUMPDEST PUSH2 0x5BE JUMP JUMPDEST PUSH1 0x40 MLOAD PUSH2 0x1D1 SWAP2 SWAP1 PUSH2 0x1E69 JUMP JUMPDEST PUSH1 0x40 MLOAD DUP1 SWAP2 SUB SWAP1 RETURN JUMPDEST CALLVALUE DUP1 ISZERO PUSH2 0x1E5 JUMPI PUSH0 DUP1 REVERT JUMPDEST POP PUSH2 0x200 PUSH1 0x4 DUP1 CALLDATASIZE SUB DUP2 ADD SWAP1 PUSH2 0x1FB SWAP2 SWAP1 PUSH2 0x1EAC JUMP JUMPDEST PUSH2 0x5D9 JUMP JUMPDEST STOP JUMPDEST CALLVALUE DUP1 ISZERO PUSH2 0x20D JUMPI PUSH0 DUP1 REVERT JUMPDEST POP PUSH2 0x216 PUSH2 0x5EF JUMP JUMPDEST PUSH1 0x40 MLOAD PUSH2 0x223 SWAP2 SWAP1 PUSH2 0x1EF9 JUMP JUMPDEST PUSH1 0x40 MLOAD DUP1 SWAP2 SUB SWAP1 RETURN JUMPDEST PUSH2 0x246 PUSH1 0x4 DUP1 CALLDATASIZE SUB DUP2 ADD SWAP1 PUSH2 0x241 SWAP2 SWAP1 PUSH2 0x203E JUMP JUMPDEST PUSH2 0x5F5 JUMP JUMPDEST STOP JUMPDEST CALLVALUE DUP1 ISZERO PUSH2 0x253 JUMPI PUSH0 DUP1 REVERT JUMPDEST POP PUSH2 0x26E PUSH1 0x4 DUP1 CALLDATASIZE SUB DUP2 ADD SWAP1 PUSH2 0x269 SWAP2 SWAP1 PUSH2 0x20AA JUMP JUMPDEST PUSH2 0x65D JUMP JUMPDEST STOP JUMPDEST CALLVALUE DUP1 ISZERO PUSH2 0x27B JUMPI PUSH0 DUP1 REVERT JUMPDEST POP PUSH2 0x296 PUSH1 0x4 DUP1 CALLDATASIZE SUB DUP2 ADD SWAP1 PUSH2 0x291 SWAP2 SWAP1 PUSH2 0x1DFF JUMP JUMPDEST PUSH2 0x75C JUMP JUMPDEST STOP JUMPDEST CALLVALUE DUP1 ISZERO PUSH2 0x2A3 JUMPI PUSH0 DUP1 REVERT JUMPDEST POP PUSH2 0x2BE PUSH1 0x4 DUP1 CALLDATASIZE SUB DUP2 ADD SWAP1 PUSH2 0x2B9 SWAP2 SWAP1 PUSH2 0x1DFF JUMP JUMPDEST PUSH2 0x84E JUMP JUMPDEST STOP JUMPDEST CALLVALUE DUP1 ISZERO PUSH2 0x2CB JUMPI PUSH0 DUP1 REVERT JUMPDEST POP PUSH2 0x2E6 PUSH1 0x4 DUP1 CALLDATASIZE SUB DUP2 ADD SWAP1 PUSH2 0x2E1 SWAP2 SWAP1 PUSH2 0x20AA JUMP JUMPDEST PUSH2 0x858 JUMP JUMPDEST STOP JUMPDEST CALLVALUE DUP1 ISZERO PUSH2 0x2F3 JUMPI PUSH0 DUP1 REVERT JUMPDEST POP PUSH2 0x30E PUSH1 0x4 DUP1 CALLDATASIZE SUB DUP2 ADD SWAP1 PUSH2 0x309 SWAP2 SWAP1 PUSH2 0x1DFF JUMP JUMPDEST PUSH2 0x877 JUMP JUMPDEST STOP JUMPDEST CALLVALUE DUP1 ISZERO PUSH2 0x31B JUMPI PUSH0 DUP1 REVERT JUMPDEST POP PUSH2 0x336 PUSH1 0x4 DUP1 CALLDATASIZE SUB DUP2 ADD SWAP1 PUSH2 0x331 SWAP2 SWAP1 PUSH2 0x20FA JUMP JUMPDEST PUSH2 0x88D JUMP JUMPDEST STOP JUMPDEST CALLVALUE DUP1 ISZERO PUSH2 0x343 JUMPI PUSH0 DUP1 REVERT JUMPDEST POP PUSH2 0x35E PUSH1 0x4 DUP1 CALLDATASIZE SUB DUP2 ADD SWAP1 PUSH2 0x359 SWAP2 SWAP1 PUSH2 0x1DFF JUMP JUMPDEST PUSH2 0x8A0 JUMP JUMPDEST PUSH1 0x40 MLOAD PUSH2 0x36B SWAP2 SWAP1 PUSH2 0x1E69 JUMP JUMPDEST PUSH1 0x40 MLOAD DUP1 SWAP2 SUB SWAP1 RETURN JUMPDEST CALLVALUE DUP1 ISZERO PUSH2 0x37F JUMPI PUSH0 DUP1 REVERT JUMPDEST POP PUSH2 0x388 PUSH2 0x8B1 JUMP JUMPDEST PUSH1 0x40 MLOAD PUSH2 0x395 SWAP2 SWAP1 PUSH2 0x1DAC JUMP JUMPDEST PUSH1 0x40 MLOAD DUP1 SWAP2 SUB SWAP1 RETURN JUMPDEST CALLVALUE DUP1 ISZERO PUSH2 0x3A9 JUMPI PUSH0 DUP1 REVERT JUMPDEST POP PUSH2 0x3C4 PUSH1 0x4 DUP1 CALLDATASIZE SUB DUP2 ADD SWAP1 PUSH2 0x3BF SWAP2 SWAP1 PUSH2 0x2141 JUMP JUMPDEST PUSH2 0x93D JUMP JUMPDEST PUSH1 0x40 MLOAD PUSH2 0x3D1 SWAP2 SWAP1 PUSH2 0x1EF9 JUMP JUMPDEST PUSH1 0x40 MLOAD DUP1 SWAP2 SUB SWAP1 RETURN JUMPDEST CALLVALUE DUP1 ISZERO PUSH2 0x3E5 JUMPI PUSH0 DUP1 REVERT JUMPDEST POP PUSH2 0x3EE PUSH2 0x9F3 JUMP JUMPDEST PUSH1 0x40 MLOAD PUSH2 0x3FB SWAP2 SWAP1 PUSH2 0x1DAC JUMP JUMPDEST PUSH1 0x40 MLOAD DUP1 SWAP2 SUB SWAP1 RETURN JUMPDEST CALLVALUE DUP1 ISZERO PUSH2 0x40F JUMPI PUSH0 DUP1 REVERT JUMPDEST POP PUSH2 0x418 PUSH2 0xA83 JUMP JUMPDEST PUSH1 0x40 MLOAD PUSH2 0x425 SWAP2 SWAP1 PUSH2 0x1EF9 JUMP JUMPDEST PUSH1 0x40 MLOAD DUP1 SWAP2 SUB SWAP1 RETURN JUMPDEST CALLVALUE DUP1 ISZERO PUSH2 0x439 JUMPI PUSH0 DUP1 REVERT JUMPDEST POP PUSH2 0x454 PUSH1 0x4 DUP1 CALLDATASIZE SUB DUP2 ADD SWAP1 PUSH2 0x44F SWAP2 SWAP1 PUSH2 0x2196 JUMP JUMPDEST PUSH2 0xA89 JUMP JUMPDEST STOP JUMPDEST CALLVALUE DUP1 ISZERO PUSH2 0x461 JUMPI PUSH0 DUP1 REVERT JUMPDEST POP PUSH2 0x47C PUSH1 0x4 DUP1 CALLDATASIZE SUB DUP2 ADD SWAP1 PUSH2 0x477 SWAP2 SWAP1 PUSH2 0x2272 JUMP JUMPDEST PUSH2 0xA9F JUMP JUMPDEST STOP JUMPDEST CALLVALUE DUP1 ISZERO PUSH2 0x489 JUMPI PUSH0 DUP1 REVERT JUMPDEST POP PUSH2 0x4A4 PUSH1 0x4 DUP1 CALLDATASIZE SUB DUP2 ADD SWAP1 PUSH2 0x49F SWAP2 SWAP1 PUSH2 0x1DFF JUMP JUMPDEST PUSH2 0xABC JUMP JUMPDEST PUSH1 0x40 MLOAD PUSH2 0x4B1 SWAP2 SWAP1 PUSH2 0x1DAC JUMP JUMPDEST PUSH1 0x40 MLOAD DUP1 SWAP2 SUB SWAP1 RETURN JUMPDEST CALLVALUE DUP1 ISZERO PUSH2 0x4C5 JUMPI PUSH0 DUP1 REVERT JUMPDEST POP PUSH2 0x4E0 PUSH1 0x4 DUP1 CALLDATASIZE SUB DUP2 ADD SWAP1 PUSH2 0x4DB SWAP2 SWAP1 PUSH2 0x22F2 JUMP JUMPDEST PUSH2 0xACE JUMP JUMPDEST PUSH1 0x40 MLOAD PUSH2 0x4ED SWAP2 SWAP1 PUSH2 0x1D09 JUMP JUMPDEST PUSH1 0x40 MLOAD DUP1 SWAP2 SUB SWAP1 RETURN JUMPDEST CALLVALUE DUP1 ISZERO PUSH2 0x501 JUMPI PUSH0 DUP1 REVERT JUMPDEST POP PUSH2 0x51C PUSH1 0x4 DUP1 CALLDATASIZE SUB DUP2 ADD SWAP1 PUSH2 0x517 SWAP2 SWAP1 PUSH2 0x1DFF JUMP JUMPDEST PUSH2 0xB5C JUMP JUMPDEST STOP JUMPDEST PUSH0 PUSH2 0x528 DUP3 PUSH2 0xB66 JUMP JUMPDEST SWAP1 POP SWAP2 SWAP1 POP JUMP JUMPDEST PUSH1 0x60 PUSH0 DUP1 SLOAD PUSH2 0x53D SWAP1 PUSH2 0x235D JUMP JUMPDEST DUP1 PUSH1 0x1F ADD PUSH1 0x20 DUP1 SWAP2 DIV MUL PUSH1 0x20 ADD PUSH1 0x40 MLOAD SWAP1 DUP2 ADD PUSH1 0x40 MSTORE DUP1 SWAP3 SWAP2 SWAP1 DUP2 DUP2 MSTORE PUSH1 0x20 ADD DUP3 DUP1 SLOAD PUSH2 0x569 SWAP1 PUSH2 0x235D JUMP JUMPDEST DUP1 ISZERO PUSH2 0x5B4 JUMPI DUP1 PUSH1 0x1F LT PUSH2 0x58B JUMPI PUSH2 0x100 DUP1 DUP4 SLOAD DIV MUL DUP4 MSTORE SWAP2 PUSH1 0x20 ADD SWAP2 PUSH2 0x5B4 JUMP JUMPDEST DUP3 ADD SWAP2 SWAP1 PUSH0 MSTORE PUSH1 0x20 PUSH0 KECCAK256 SWAP1 JUMPDEST DUP2 SLOAD DUP2 MSTORE SWAP1 PUSH1 0x1 ADD SWAP1 PUSH1 0x20 ADD DUP1 DUP4 GT PUSH2 0x597 JUMPI DUP3 SWAP1 SUB PUSH1 0x1F AND DUP3 ADD SWAP2 JUMPDEST POP POP POP POP POP SWAP1 POP SWAP1 JUMP JUMPDEST PUSH0 PUSH2 0x5C8 DUP3 PUSH2 0xBC6 JUMP JUMPDEST POP PUSH2 0x5D2 DUP3 PUSH2 0xC4C JUMP JUMPDEST SWAP1 POP SWAP2 SWAP1 POP JUMP JUMPDEST PUSH2 0x5EB DUP3 DUP3 PUSH2 0x5E6 PUSH2 0xC85 JUMP JUMPDEST PUSH2 0xC8C JUMP JUMPDEST POP POP JUMP JUMPDEST PUSH1 0x7 SLOAD DUP2 JUMP JUMPDEST PUSH1 0x7 SLOAD CALLVALUE LT ISZERO PUSH2 0x63A JUMPI PUSH1 0x40 MLOAD PUSH32 0x8C379A000000000000000000000000000000000000000000000000000000000 DUP2 MSTORE PUSH1 0x4 ADD PUSH2 0x631 SWAP1 PUSH2 0x23D7 JUMP JUMPDEST PUSH1 0x40 MLOAD DUP1 SWAP2 SUB SWAP1 REVERT JUMPDEST PUSH2 0x644 DUP4 DUP4 PUSH2 0xC9E JUMP JUMPDEST PUSH2 0x64E DUP3 DUP3 PUSH2 0xCBB JUMP JUMPDEST PUSH2 0x658 DUP4 DUP4 PUSH2 0xD15 JUMP JUMPDEST POP POP POP JUMP JUMPDEST PUSH0 PUSH20 0xFFFFFFFFFFFFFFFFFFFFFFFFFFFFFFFFFFFFFFFF AND DUP3 PUSH20 0xFFFFFFFFFFFFFFFFFFFFFFFFFFFFFFFFFFFFFFFF AND SUB PUSH2 0x6CD JUMPI PUSH0 PUSH1 0x40 MLOAD PUSH32 0x64A0AE9200000000000000000000000000000000000000000000000000000000 DUP2 MSTORE PUSH1 0x4 ADD PUSH2 0x6C4 SWAP2 SWAP1 PUSH2 0x1E69 JUMP JUMPDEST PUSH1 0x40 MLOAD DUP1 SWAP2 SUB SWAP1 REVERT JUMPDEST PUSH0 PUSH2 0x6E0 DUP4 DUP4 PUSH2 0x6DB PUSH2 0xC85 JUMP JUMPDEST PUSH2 0xD41 JUMP JUMPDEST SWAP1 POP DUP4 PUSH20 0xFFFFFFFFFFFFFFFFFFFFFFFFFFFFFFFFFFFFFFFF AND DUP2 PUSH20 0xFFFFFFFFFFFFFFFFFFFFFFFFFFFFFFFFFFFFFFFF AND EQ PUSH2 0x756 JUMPI DUP4 DUP3 DUP3 PUSH1 0x40 MLOAD PUSH32 0x64283D7B00000000000000000000000000000000000000000000000000000000 DUP2 MSTORE PUSH1 0x4 ADD PUSH2 0x74D SWAP4 SWAP3 SWAP2 SWAP1 PUSH2 0x23F5 JUMP JUMPDEST PUSH1 0x40 MLOAD DUP1 SWAP2 SUB SWAP1 REVERT JUMPDEST POP POP POP POP JUMP JUMPDEST CALLER PUSH20 0xFFFFFFFFFFFFFFFFFFFFFFFFFFFFFFFFFFFFFFFF AND PUSH2 0x77C DUP3 PUSH2 0x8A0 JUMP JUMPDEST PUSH20 0xFFFFFFFFFFFFFFFFFFFFFFFFFFFFFFFFFFFFFFFF AND EQ PUSH2 0x7D2 JUMPI PUSH1 0x40 MLOAD PUSH32 0x8C379A000000000000000000000000000000000000000000000000000000000 DUP2 MSTORE PUSH1 0x4 ADD PUSH2 0x7C9 SWAP1 PUSH2 0x2474 JUMP JUMPDEST PUSH1 0x40 MLOAD DUP1 SWAP2 SUB SWAP1 REVERT JUMPDEST PUSH0 PUSH1 0xA PUSH0 DUP4 DUP2 MSTORE PUSH1 0x20 ADD SWAP1 DUP2 MSTORE PUSH1 0x20 ADD PUSH0 KECCAK256 SLOAD EQ ISZERO DUP1 ISZERO PUSH2 0x803 JUMPI POP TIMESTAMP PUSH1 0xA PUSH0 DUP4 DUP2 MSTORE PUSH1 0x20 ADD SWAP1 DUP2 MSTORE PUSH1 0x20 ADD PUSH0 KECCAK256 SLOAD LT JUMPDEST PUSH2 0x842 JUMPI PUSH1 0x40 MLOAD PUSH32 0x8C379A000000000000000000000000000000000000000000000000000000000 DUP2 MSTORE PUSH1 0x4 ADD PUSH2 0x839 SWAP1 PUSH2 0x24DC JUMP JUMPDEST PUSH1 0x40 MLOAD DUP1 SWAP2 SUB SWAP1 REVERT JUMPDEST PUSH2 0x84B DUP2 PUSH2 0xF4C JUMP JUMPDEST POP JUMP JUMPDEST DUP1 PUSH1 0x8 DUP2 SWAP1 SSTORE POP POP JUMP JUMPDEST PUSH2 0x872 DUP4 DUP4 DUP4 PUSH1 0x40 MLOAD DUP1 PUSH1 0x20 ADD PUSH1 0x40 MSTORE DUP1 PUSH0 DUP2 MSTORE POP PUSH2 0xA9F JUMP JUMPDEST POP POP POP JUMP JUMPDEST PUSH2 0x889 PUSH0 DUP3 PUSH2 0x884 PUSH2 0xC85 JUMP JUMPDEST PUSH2 0xD41 JUMP JUMPDEST POP POP JUMP JUMPDEST DUP1 PUSH1 0x9 SWAP1 DUP2 PUSH2 0x89C SWAP2 SWAP1 PUSH2 0x2697 JUMP JUMPDEST POP POP JUMP JUMPDEST PUSH0 PUSH2 0x8AA DUP3 PUSH2 0xBC6 JUMP JUMPDEST SWAP1 POP SWAP2 SWAP1 POP JUMP JUMPDEST PUSH1 0x9 DUP1 SLOAD PUSH2 0x8BE SWAP1 PUSH2 0x235D JUMP JUMPDEST DUP1 PUSH1 0x1F ADD PUSH1 0x20 DUP1 SWAP2 DIV MUL PUSH1 0x20 ADD PUSH1 0x40 MLOAD SWAP1 DUP2 ADD PUSH1 0x40 MSTORE DUP1 SWAP3 SWAP2 SWAP1 DUP2 DUP2 MSTORE PUSH1 0x20 ADD DUP3 DUP1 SLOAD PUSH2 0x8EA SWAP1 PUSH2 0x235D JUMP JUMPDEST DUP1 ISZERO PUSH2 0x935 JUMPI DUP1 PUSH1 0x1F LT PUSH2 0x90C JUMPI PUSH2 0x100 DUP1 DUP4 SLOAD DIV MUL DUP4 MSTORE SWAP2 PUSH1 0x20 ADD SWAP2 PUSH2 0x935 JUMP JUMPDEST DUP3 ADD SWAP2 SWAP1 PUSH0 MSTORE PUSH1 0x20 PUSH0 KECCAK256 SWAP1 JUMPDEST DUP2 SLOAD DUP2 MSTORE SWAP1 PUSH1 0x1 ADD SWAP1 PUSH1 0x20 ADD DUP1 DUP4 GT PUSH2 0x918 JUMPI DUP3 SWAP1 SUB PUSH1 0x1F AND DUP3 ADD SWAP2 JUMPDEST POP POP POP POP POP DUP2 JUMP JUMPDEST PUSH0 DUP1 PUSH20 0xFFFFFFFFFFFFFFFFFFFFFFFFFFFFFFFFFFFFFFFF AND DUP3 PUSH20 0xFFFFFFFFFFFFFFFFFFFFFFFFFFFFFFFFFFFFFFFF AND SUB PUSH2 0x9AE JUMPI PUSH0 PUSH1 0x40 MLOAD PUSH32 0x89C62B6400000000000000000000000000000000000000000000000000000000 DUP2 MSTORE PUSH1 0x4 ADD PUSH2 0x9A5 SWAP2 SWAP1 PUSH2 0x1E69 JUMP JUMPDEST PUSH1 0x40 MLOAD DUP1 SWAP2 SUB SWAP1 REVERT JUMPDEST PUSH1 0x3 PUSH0 DUP4 PUSH20 0xFFFFFFFFFFFFFFFFFFFFFFFFFFFFFFFFFFFFFFFF AND PUSH20 0xFFFFFFFFFFFFFFFFFFFFFFFFFFFFFFFFFFFFFFFF AND DUP2 MSTORE PUSH1 0x20 ADD SWAP1 DUP2 MSTORE PUSH1 0x20 ADD PUSH0 KECCAK256 SLOAD SWAP1 POP SWAP2 SWAP1 POP JUMP JUMPDEST PUSH1 0x60 PUSH1 0x1 DUP1 SLOAD PUSH2 0xA02 SWAP1 PUSH2 0x235D JUMP JUMPDEST DUP1 PUSH1 0x1F ADD PUSH1 0x20 DUP1 SWAP2 DIV MUL PUSH1 0x20 ADD PUSH1 0x40 MLOAD SWAP1 DUP2 ADD PUSH1 0x40 MSTORE DUP1 SWAP3 SWAP2 SWAP1 DUP2 DUP2 MSTORE PUSH1 0x20 ADD DUP3 DUP1 SLOAD PUSH2 0xA2E SWAP1 PUSH2 0x235D JUMP JUMPDEST DUP1 ISZERO PUSH2 0xA79 JUMPI DUP1 PUSH1 0x1F LT PUSH2 0xA50 JUMPI PUSH2 0x100 DUP1 DUP4 SLOAD DIV MUL DUP4 MSTORE SWAP2 PUSH1 0x20 ADD SWAP2 PUSH2 0xA79 JUMP JUMPDEST DUP3 ADD SWAP2 SWAP1 PUSH0 MSTORE PUSH1 0x20 PUSH0 KECCAK256 SWAP1 JUMPDEST DUP2 SLOAD DUP2 MSTORE SWAP1 PUSH1 0x1 ADD SWAP1 PUSH1 0x20 ADD DUP1 DUP4 GT PUSH2 0xA5C JUMPI DUP3 SWAP1 SUB PUSH1 0x1F AND DUP3 ADD SWAP2 JUMPDEST POP POP POP POP POP SWAP1 POP SWAP1 JUMP JUMPDEST PUSH1 0x8 SLOAD DUP2 JUMP JUMPDEST PUSH2 0xA9B PUSH2 0xA94 PUSH2 0xC85 JUMP JUMPDEST DUP4 DUP4 PUSH2 0xFCE JUMP JUMPDEST POP POP JUMP JUMPDEST PUSH2 0xAAA DUP5 DUP5 DUP5 PUSH2 0x65D JUMP JUMPDEST PUSH2 0xAB6 DUP5 DUP5 DUP5 DUP5 PUSH2 0x1137 JUMP JUMPDEST POP POP POP POP JUMP JUMPDEST PUSH1 0x60 PUSH2 0xAC7 DUP3 PUSH2 0x12E9 JUMP JUMPDEST SWAP1 POP SWAP2 SWAP1 POP JUMP JUMPDEST PUSH0 PUSH1 0x5 PUSH0 DUP5 PUSH20 0xFFFFFFFFFFFFFFFFFFFFFFFFFFFFFFFFFFFFFFFF AND PUSH20 0xFFFFFFFFFFFFFFFFFFFFFFFFFFFFFFFFFFFFFFFF AND DUP2 MSTORE PUSH1 0x20 ADD SWAP1 DUP2 MSTORE PUSH1 0x20 ADD PUSH0 KECCAK256 PUSH0 DUP4 PUSH20 0xFFFFFFFFFFFFFFFFFFFFFFFFFFFFFFFFFFFFFFFF AND PUSH20 0xFFFFFFFFFFFFFFFFFFFFFFFFFFFFFFFFFFFFFFFF AND DUP2 MSTORE PUSH1 0x20 ADD SWAP1 DUP2 MSTORE PUSH1 0x20 ADD PUSH0 KECCAK256 PUSH0 SWAP1 SLOAD SWAP1 PUSH2 0x100 EXP SWAP1 DIV PUSH1 0xFF AND SWAP1 POP SWAP3 SWAP2 POP POP JUMP JUMPDEST DUP1 PUSH1 0x7 DUP2 SWAP1 SSTORE POP POP JUMP JUMPDEST PUSH0 PUSH4 0x49064906 PUSH1 0xE0 SHL PUSH28 0xFFFFFFFFFFFFFFFFFFFFFFFFFFFFFFFFFFFFFFFFFFFFFFFFFFFFFFFF NOT AND DUP3 PUSH28 0xFFFFFFFFFFFFFFFFFFFFFFFFFFFFFFFFFFFFFFFFFFFFFFFFFFFFFFFF NOT AND EQ DUP1 PUSH2 0xBBF JUMPI POP PUSH2 0xBBE DUP3 PUSH2 0x13F4 JUMP JUMPDEST JUMPDEST SWAP1 POP SWAP2 SWAP1 POP JUMP JUMPDEST PUSH0 DUP1 PUSH2 0xBD1 DUP4 PUSH2 0x14D5 JUMP JUMPDEST SWAP1 POP PUSH0 PUSH20 0xFFFFFFFFFFFFFFFFFFFFFFFFFFFFFFFFFFFFFFFF AND DUP2 PUSH20 0xFFFFFFFFFFFFFFFFFFFFFFFFFFFFFFFFFFFFFFFF AND SUB PUSH2 0xC43 JUMPI DUP3 PUSH1 0x40 MLOAD PUSH32 0x7E27328900000000000000000000000000000000000000000000000000000000 DUP2 MSTORE PUSH1 0x4 ADD PUSH2 0xC3A SWAP2 SWAP1 PUSH2 0x1EF9 JUMP JUMPDEST PUSH1 0x40 MLOAD DUP1 SWAP2 SUB SWAP1 REVERT JUMPDEST DUP1 SWAP2 POP POP SWAP2 SWAP1 POP JUMP JUMPDEST PUSH0 PUSH1 0x4 PUSH0 DUP4 DUP2 MSTORE PUSH1 0x20 ADD SWAP1 DUP2 MSTORE PUSH1 0x20 ADD PUSH0 KECCAK256 PUSH0 SWAP1 SLOAD SWAP1 PUSH2 0x100 EXP SWAP1 DIV PUSH20 0xFFFFFFFFFFFFFFFFFFFFFFFFFFFFFFFFFFFFFFFF AND SWAP1 POP SWAP2 SWAP1 POP JUMP JUMPDEST PUSH0 CALLER SWAP1 POP SWAP1 JUMP JUMPDEST PUSH2 0xC99 DUP4 DUP4 DUP4 PUSH1 0x1 PUSH2 0x150E JUMP JUMPDEST POP POP POP JUMP JUMPDEST PUSH2 0xCB7 DUP3 DUP3 PUSH1 0x40 MLOAD DUP1 PUSH1 0x20 ADD PUSH1 0x40 MSTORE DUP1 PUSH0 DUP2 MSTORE POP PUSH2 0x16CD JUMP JUMPDEST POP POP JUMP JUMPDEST DUP1 PUSH1 0x6 PUSH0 DUP5 DUP2 MSTORE PUSH1 0x20 ADD SWAP1 DUP2 MSTORE PUSH1 0x20 ADD PUSH0 KECCAK256 SWAP1 DUP2 PUSH2 0xCD9 SWAP2 SWAP1 PUSH2 0x2697 JUMP JUMPDEST POP PUSH32 0xF8E1A15ABA9398E019F0B49DF1A4FDE98EE17AE345CB5F6B5E2C27F5033E8CE7 DUP3 PUSH1 0x40 MLOAD PUSH2 0xD09 SWAP2 SWAP1 PUSH2 0x1EF9 JUMP JUMPDEST PUSH1 0x40 MLOAD DUP1 SWAP2 SUB SWAP1 LOG1 POP POP JUMP JUMPDEST PUSH0 PUSH1 0x8 SLOAD TIMESTAMP PUSH2 0xD24 SWAP2 SWAP1 PUSH2 0x2793 JUMP JUMPDEST SWAP1 POP DUP1 PUSH1 0xA PUSH0 DUP5 DUP2 MSTORE PUSH1 0x20 ADD SWAP1 DUP2 MSTORE PUSH1 0x20 ADD PUSH0 KECCAK256 DUP2 SWAP1 SSTORE POP POP POP POP JUMP JUMPDEST PUSH0 DUP1 PUSH2 0xD4C DUP5 PUSH2 0x14D5 JUMP JUMPDEST SWAP1 POP PUSH0 PUSH20 0xFFFFFFFFFFFFFFFFFFFFFFFFFFFFFFFFFFFFFFFF AND DUP4 PUSH20 0xFFFFFFFFFFFFFFFFFFFFFFFFFFFFFFFFFFFFFFFF AND EQ PUSH2 0xD8D JUMPI PUSH2 0xD8C DUP2 DUP5 DUP7 PUSH2 0x16E8 JUMP JUMPDEST JUMPDEST PUSH0 PUSH20 0xFFFFFFFFFFFFFFFFFFFFFFFFFFFFFFFFFFFFFFFF AND DUP2 PUSH20 0xFFFFFFFFFFFFFFFFFFFFFFFFFFFFFFFFFFFFFFFF AND EQ PUSH2 0xE18 JUMPI PUSH2 0xDCC PUSH0 DUP6 PUSH0 DUP1 PUSH2 0x150E JUMP JUMPDEST PUSH1 0x1 PUSH1 0x3 PUSH0 DUP4 PUSH20 0xFFFFFFFFFFFFFFFFFFFFFFFFFFFFFFFFFFFFFFFF AND PUSH20 0xFFFFFFFFFFFFFFFFFFFFFFFFFFFFFFFFFFFFFFFF AND DUP2 MSTORE PUSH1 0x20 ADD SWAP1 DUP2 MSTORE PUSH1 0x20 ADD PUSH0 KECCAK256 PUSH0 DUP3 DUP3 SLOAD SUB SWAP3 POP POP DUP2 SWAP1 SSTORE POP JUMPDEST PUSH0 PUSH20 0xFFFFFFFFFFFFFFFFFFFFFFFFFFFFFFFFFFFFFFFF AND DUP6 PUSH20 0xFFFFFFFFFFFFFFFFFFFFFFFFFFFFFFFFFFFFFFFF AND EQ PUSH2 0xE97 JUMPI PUSH1 0x1 PUSH1 0x3 PUSH0 DUP8 PUSH20 0xFFFFFFFFFFFFFFFFFFFFFFFFFFFFFFFFFFFFFFFF AND PUSH20 0xFFFFFFFFFFFFFFFFFFFFFFFFFFFFFFFFFFFFFFFF AND DUP2 MSTORE PUSH1 0x20 ADD SWAP1 DUP2 MSTORE PUSH1 0x20 ADD PUSH0 KECCAK256 PUSH0 DUP3 DUP3 SLOAD ADD SWAP3 POP POP DUP2 SWAP1 SSTORE POP JUMPDEST DUP5 PUSH1 0x2 PUSH0 DUP7 DUP2 MSTORE PUSH1 0x20 ADD SWAP1 DUP2 MSTORE PUSH1 0x20 ADD PUSH0 KECCAK256 PUSH0 PUSH2 0x100 EXP DUP2 SLOAD DUP2 PUSH20 0xFFFFFFFFFFFFFFFFFFFFFFFFFFFFFFFFFFFFFFFF MUL NOT AND SWAP1 DUP4 PUSH20 0xFFFFFFFFFFFFFFFFFFFFFFFFFFFFFFFFFFFFFFFF AND MUL OR SWAP1 SSTORE POP DUP4 DUP6 PUSH20 0xFFFFFFFFFFFFFFFFFFFFFFFFFFFFFFFFFFFFFFFF AND DUP3 PUSH20 0xFFFFFFFFFFFFFFFFFFFFFFFFFFFFFFFFFFFFFFFF AND PUSH32 0xDDF252AD1BE2C89B69C2B068FC378DAA952BA7F163C4A11628F55A4DF523B3EF PUSH1 0x40 MLOAD PUSH1 0x40 MLOAD DUP1 SWAP2 SUB SWAP1 LOG4 DUP1 SWAP2 POP POP SWAP4 SWAP3 POP POP POP JUMP JUMPDEST PUSH0 PUSH2 0xF58 PUSH0 DUP4 PUSH0 PUSH2 0xD41 JUMP JUMPDEST SWAP1 POP PUSH0 PUSH20 0xFFFFFFFFFFFFFFFFFFFFFFFFFFFFFFFFFFFFFFFF AND DUP2 PUSH20 0xFFFFFFFFFFFFFFFFFFFFFFFFFFFFFFFFFFFFFFFF AND SUB PUSH2 0xFCA JUMPI DUP2 PUSH1 0x40 MLOAD PUSH32 0x7E27328900000000000000000000000000000000000000000000000000000000 DUP2 MSTORE PUSH1 0x4 ADD PUSH2 0xFC1 SWAP2 SWAP1 PUSH2 0x1EF9 JUMP JUMPDEST PUSH1 0x40 MLOAD DUP1 SWAP2 SUB SWAP1 REVERT JUMPDEST POP POP JUMP JUMPDEST PUSH0 PUSH20 0xFFFFFFFFFFFFFFFFFFFFFFFFFFFFFFFFFFFFFFFF AND DUP3 PUSH20 0xFFFFFFFFFFFFFFFFFFFFFFFFFFFFFFFFFFFFFFFF AND SUB PUSH2 0x103E JUMPI DUP2 PUSH1 0x40 MLOAD PUSH32 0x5B08BA1800000000000000000000000000000000000000000000000000000000 DUP2 MSTORE PUSH1 0x4 ADD PUSH2 0x1035 SWAP2 SWAP1 PUSH2 0x1E69 JUMP JUMPDEST PUSH1 0x40 MLOAD DUP1 SWAP2 SUB SWAP1 REVERT JUMPDEST DUP1 PUSH1 0x5 PUSH0 DUP6 PUSH20 0xFFFFFFFFFFFFFFFFFFFFFFFFFFFFFFFFFFFFFFFF AND PUSH20 0xFFFFFFFFFFFFFFFFFFFFFFFFFFFFFFFFFFFFFFFF AND DUP2 MSTORE PUSH1 0x20 ADD SWAP1 DUP2 MSTORE PUSH1 0x20 ADD PUSH0 KECCAK256 PUSH0 DUP5 PUSH20 0xFFFFFFFFFFFFFFFFFFFFFFFFFFFFFFFFFFFFFFFF AND PUSH20 0xFFFFFFFFFFFFFFFFFFFFFFFFFFFFFFFFFFFFFFFF AND DUP2 MSTORE PUSH1 0x20 ADD SWAP1 DUP2 MSTORE PUSH1 0x20 ADD PUSH0 KECCAK256 PUSH0 PUSH2 0x100 EXP DUP2 SLOAD DUP2 PUSH1 0xFF MUL NOT AND SWAP1 DUP4 ISZERO ISZERO MUL OR SWAP1 SSTORE POP DUP2 PUSH20 0xFFFFFFFFFFFFFFFFFFFFFFFFFFFFFFFFFFFFFFFF AND DUP4 PUSH20 0xFFFFFFFFFFFFFFFFFFFFFFFFFFFFFFFFFFFFFFFF AND PUSH32 0x17307EAB39AB6107E8899845AD3D59BD9653F200F220920489CA2B5937696C31 DUP4 PUSH1 0x40 MLOAD PUSH2 0x112A SWAP2 SWAP1 PUSH2 0x1D09 JUMP JUMPDEST PUSH1 0x40 MLOAD DUP1 SWAP2 SUB SWAP1 LOG3 POP POP POP JUMP JUMPDEST PUSH0 DUP4 PUSH20 0xFFFFFFFFFFFFFFFFFFFFFFFFFFFFFFFFFFFFFFFF AND EXTCODESIZE GT ISZERO PUSH2 0x12E3 JUMPI DUP3 PUSH20 0xFFFFFFFFFFFFFFFFFFFFFFFFFFFFFFFFFFFFFFFF AND PUSH4 0x150B7A02 PUSH2 0x117A PUSH2 0xC85 JUMP JUMPDEST DUP7 DUP6 DUP6 PUSH1 0x40 MLOAD DUP6 PUSH4 0xFFFFFFFF AND PUSH1 0xE0 SHL DUP2 MSTORE PUSH1 0x4 ADD PUSH2 0x119C SWAP5 SWAP4 SWAP3 SWAP2 SWAP1 PUSH2 0x2818 JUMP JUMPDEST PUSH1 0x20 PUSH1 0x40 MLOAD DUP1 DUP4 SUB DUP2 PUSH0 DUP8 GAS CALL SWAP3 POP POP POP DUP1 ISZERO PUSH2 0x11D7 JUMPI POP PUSH1 0x40 MLOAD RETURNDATASIZE PUSH1 0x1F NOT PUSH1 0x1F DUP3 ADD AND DUP3 ADD DUP1 PUSH1 0x40 MSTORE POP DUP2 ADD SWAP1 PUSH2 0x11D4 SWAP2 SWAP1 PUSH2 0x2876 JUMP JUMPDEST PUSH1 0x1 JUMPDEST PUSH2 0x1258 JUMPI RETURNDATASIZE DUP1 PUSH0 DUP2 EQ PUSH2 0x1205 JUMPI PUSH1 0x40 MLOAD SWAP2 POP PUSH1 0x1F NOT PUSH1 0x3F RETURNDATASIZE ADD AND DUP3 ADD PUSH1 0x40 MSTORE RETURNDATASIZE DUP3 MSTORE RETURNDATASIZE PUSH0 PUSH1 0x20 DUP5 ADD RETURNDATACOPY PUSH2 0x120A JUMP JUMPDEST PUSH1 0x60 SWAP2 POP JUMPDEST POP PUSH0 DUP2 MLOAD SUB PUSH2 0x1250 JUMPI DUP4 PUSH1 0x40 MLOAD PUSH32 0x64A0AE9200000000000000000000000000000000000000000000000000000000 DUP2 MSTORE PUSH1 0x4 ADD PUSH2 0x1247 SWAP2 SWAP1 PUSH2 0x1E69 JUMP JUMPDEST PUSH1 0x40 MLOAD DUP1 SWAP2 SUB SWAP1 REVERT JUMPDEST DUP1 MLOAD DUP2 PUSH1 0x20 ADD REVERT JUMPDEST PUSH4 0x150B7A02 PUSH1 0xE0 SHL PUSH28 0xFFFFFFFFFFFFFFFFFFFFFFFFFFFFFFFFFFFFFFFFFFFFFFFFFFFFFFFF NOT AND DUP2 PUSH28 0xFFFFFFFFFFFFFFFFFFFFFFFFFFFFFFFFFFFFFFFFFFFFFFFFFFFFFFFF NOT AND EQ PUSH2 0x12E1 JUMPI DUP4 PUSH1 0x40 MLOAD PUSH32 0x64A0AE9200000000000000000000000000000000000000000000000000000000 DUP2 MSTORE PUSH1 0x4 ADD PUSH2 0x12D8 SWAP2 SWAP1 PUSH2 0x1E69 JUMP JUMPDEST PUSH1 0x40 MLOAD DUP1 SWAP2 SUB SWAP1 REVERT JUMPDEST POP JUMPDEST POP POP POP POP JUMP JUMPDEST PUSH1 0x60 PUSH2 0x12F4 DUP3 PUSH2 0xBC6 JUMP JUMPDEST POP PUSH0 PUSH1 0x6 PUSH0 DUP5 DUP2 MSTORE PUSH1 0x20 ADD SWAP1 DUP2 MSTORE PUSH1 0x20 ADD PUSH0 KECCAK256 DUP1 SLOAD PUSH2 0x1312 SWAP1 PUSH2 0x235D JUMP JUMPDEST DUP1 PUSH1 0x1F ADD PUSH1 0x20 DUP1 SWAP2 DIV MUL PUSH1 0x20 ADD PUSH1 0x40 MLOAD SWAP1 DUP2 ADD PUSH1 0x40 MSTORE DUP1 SWAP3 SWAP2 SWAP1 DUP2 DUP2 MSTORE PUSH1 0x20 ADD DUP3 DUP1 SLOAD PUSH2 0x133E SWAP1 PUSH2 0x235D JUMP JUMPDEST DUP1 ISZERO PUSH2 0x1389 JUMPI DUP1 PUSH1 0x1F LT PUSH2 0x1360 JUMPI PUSH2 0x100 DUP1 DUP4 SLOAD DIV MUL DUP4 MSTORE SWAP2 PUSH1 0x20 ADD SWAP2 PUSH2 0x1389 JUMP JUMPDEST DUP3 ADD SWAP2 SWAP1 PUSH0 MSTORE PUSH1 0x20 PUSH0 KECCAK256 SWAP1 JUMPDEST DUP2 SLOAD DUP2 MSTORE SWAP1 PUSH1 0x1 ADD SWAP1 PUSH1 0x20 ADD DUP1 DUP4 GT PUSH2 0x136C JUMPI DUP3 SWAP1 SUB PUSH1 0x1F AND DUP3 ADD SWAP2 JUMPDEST POP POP POP POP POP SWAP1 POP PUSH0 PUSH2 0x1399 PUSH2 0x17AB JUMP JUMPDEST SWAP1 POP PUSH0 DUP2 MLOAD SUB PUSH2 0x13AD JUMPI DUP2 SWAP3 POP POP POP PUSH2 0x13EF JUMP JUMPDEST PUSH0 DUP3 MLOAD GT ISZERO PUSH2 0x13E1 JUMPI DUP1 DUP3 PUSH1 0x40 MLOAD PUSH1 0x20 ADD PUSH2 0x13C9 SWAP3 SWAP2 SWAP1 PUSH2 0x28DB JUMP JUMPDEST PUSH1 0x40 MLOAD PUSH1 0x20 DUP2 DUP4 SUB SUB DUP2 MSTORE SWAP1 PUSH1 0x40 MSTORE SWAP3 POP POP POP PUSH2 0x13EF JUMP JUMPDEST PUSH2 0x13EA DUP5 PUSH2 0x17C1 JUMP JUMPDEST SWAP3 POP POP POP JUMPDEST SWAP2 SWAP1 POP JUMP JUMPDEST PUSH0 PUSH32 0x80AC58CD00000000000000000000000000000000000000000000000000000000 PUSH28 0xFFFFFFFFFFFFFFFFFFFFFFFFFFFFFFFFFFFFFFFFFFFFFFFFFFFFFFFF NOT AND DUP3 PUSH28 0xFFFFFFFFFFFFFFFFFFFFFFFFFFFFFFFFFFFFFFFFFFFFFFFFFFFFFFFF NOT AND EQ DUP1 PUSH2 0x14BE JUMPI POP PUSH32 0x5B5E139F00000000000000000000000000000000000000000000000000000000 PUSH28 0xFFFFFFFFFFFFFFFFFFFFFFFFFFFFFFFFFFFFFFFFFFFFFFFFFFFFFFFF NOT AND DUP3 PUSH28 0xFFFFFFFFFFFFFFFFFFFFFFFFFFFFFFFFFFFFFFFFFFFFFFFFFFFFFFFF NOT AND EQ JUMPDEST DUP1 PUSH2 0x14CE JUMPI POP PUSH2 0x14CD DUP3 PUSH2 0x1827 JUMP JUMPDEST JUMPDEST SWAP1 POP SWAP2 SWAP1 POP JUMP JUMPDEST PUSH0 PUSH1 0x2 PUSH0 DUP4 DUP2 MSTORE PUSH1 0x20 ADD SWAP1 DUP2 MSTORE PUSH1 0x20 ADD PUSH0 KECCAK256 PUSH0 SWAP1 SLOAD SWAP1 PUSH2 0x100 EXP SWAP1 DIV PUSH20 0xFFFFFFFFFFFFFFFFFFFFFFFFFFFFFFFFFFFFFFFF AND SWAP1 POP SWAP2 SWAP1 POP JUMP JUMPDEST DUP1 DUP1 PUSH2 0x1546 JUMPI POP PUSH0 PUSH20 0xFFFFFFFFFFFFFFFFFFFFFFFFFFFFFFFFFFFFFFFF AND DUP3 PUSH20 0xFFFFFFFFFFFFFFFFFFFFFFFFFFFFFFFFFFFFFFFF AND EQ ISZERO JUMPDEST ISZERO PUSH2 0x1678 JUMPI PUSH0 PUSH2 0x1555 DUP5 PUSH2 0xBC6 JUMP JUMPDEST SWAP1 POP PUSH0 PUSH20 0xFFFFFFFFFFFFFFFFFFFFFFFFFFFFFFFFFFFFFFFF AND DUP4 PUSH20 0xFFFFFFFFFFFFFFFFFFFFFFFFFFFFFFFFFFFFFFFF AND EQ ISZERO DUP1 ISZERO PUSH2 0x15BF JUMPI POP DUP3 PUSH20 0xFFFFFFFFFFFFFFFFFFFFFFFFFFFFFFFFFFFFFFFF AND DUP2 PUSH20 0xFFFFFFFFFFFFFFFFFFFFFFFFFFFFFFFFFFFFFFFF AND EQ ISZERO JUMPDEST DUP1 ISZERO PUSH2 0x15D2 JUMPI POP PUSH2 0x15D0 DUP2 DUP5 PUSH2 0xACE JUMP JUMPDEST ISZERO JUMPDEST ISZERO PUSH2 0x1614 JUMPI DUP3 PUSH1 0x40 MLOAD PUSH32 0xA9FBF51F00000000000000000000000000000000000000000000000000000000 DUP2 MSTORE PUSH1 0x4 ADD PUSH2 0x160B SWAP2 SWAP1 PUSH2 0x1E69 JUMP JUMPDEST PUSH1 0x40 MLOAD DUP1 SWAP2 SUB SWAP1 REVERT JUMPDEST DUP2 ISZERO PUSH2 0x1676 JUMPI DUP4 DUP6 PUSH20 0xFFFFFFFFFFFFFFFFFFFFFFFFFFFFFFFFFFFFFFFF AND DUP3 PUSH20 0xFFFFFFFFFFFFFFFFFFFFFFFFFFFFFFFFFFFFFFFF AND PUSH32 0x8C5BE1E5EBEC7D5BD14F71427D1E84F3DD0314C0F7B2291E5B200AC8C7C3B925 PUSH1 0x40 MLOAD PUSH1 0x40 MLOAD DUP1 SWAP2 SUB SWAP1 LOG4 JUMPDEST POP JUMPDEST DUP4 PUSH1 0x4 PUSH0 DUP6 DUP2 MSTORE PUSH1 0x20 ADD SWAP1 DUP2 MSTORE PUSH1 0x20 ADD PUSH0 KECCAK256 PUSH0 PUSH2 0x100 EXP DUP2 SLOAD DUP2 PUSH20 0xFFFFFFFFFFFFFFFFFFFFFFFFFFFFFFFFFFFFFFFF MUL NOT AND SWAP1 DUP4 PUSH20 0xFFFFFFFFFFFFFFFFFFFFFFFFFFFFFFFFFFFFFFFF AND MUL OR SWAP1 SSTORE POP POP POP POP POP JUMP JUMPDEST PUSH2 0x16D7 DUP4 DUP4 PUSH2 0x1890 JUMP JUMPDEST PUSH2 0x16E3 PUSH0 DUP5 DUP5 DUP5 PUSH2 0x1137 JUMP JUMPDEST POP POP POP JUMP JUMPDEST PUSH2 0x16F3 DUP4 DUP4 DUP4 PUSH2 0x1983 JUMP JUMPDEST PUSH2 0x17A6 JUMPI PUSH0 PUSH20 0xFFFFFFFFFFFFFFFFFFFFFFFFFFFFFFFFFFFFFFFF AND DUP4 PUSH20 0xFFFFFFFFFFFFFFFFFFFFFFFFFFFFFFFFFFFFFFFF AND SUB PUSH2 0x1767 JUMPI DUP1 PUSH1 0x40 MLOAD PUSH32 0x7E27328900000000000000000000000000000000000000000000000000000000 DUP2 MSTORE PUSH1 0x4 ADD PUSH2 0x175E SWAP2 SWAP1 PUSH2 0x1EF9 JUMP JUMPDEST PUSH1 0x40 MLOAD DUP1 SWAP2 SUB SWAP1 REVERT JUMPDEST DUP2 DUP2 PUSH1 0x40 MLOAD PUSH32 0x177E802F00000000000000000000000000000000000000000000000000000000 DUP2 MSTORE PUSH1 0x4 ADD PUSH2 0x179D SWAP3 SWAP2 SWAP1 PUSH2 0x28FE JUMP JUMPDEST PUSH1 0x40 MLOAD DUP1 SWAP2 SUB SWAP1 REVERT JUMPDEST POP POP POP JUMP JUMPDEST PUSH1 0x60 PUSH1 0x40 MLOAD DUP1 PUSH1 0x20 ADD PUSH1 0x40 MSTORE DUP1 PUSH0 DUP2 MSTORE POP SWAP1 POP SWAP1 JUMP JUMPDEST PUSH1 0x60 PUSH2 0x17CC DUP3 PUSH2 0xBC6 JUMP JUMPDEST POP PUSH0 PUSH2 0x17D6 PUSH2 0x17AB JUMP JUMPDEST SWAP1 POP PUSH0 DUP2 MLOAD GT PUSH2 0x17F4 JUMPI PUSH1 0x40 MLOAD DUP1 PUSH1 0x20 ADD PUSH1 0x40 MSTORE DUP1 PUSH0 DUP2 MSTORE POP PUSH2 0x181F JUMP JUMPDEST DUP1 PUSH2 0x17FE DUP5 PUSH2 0x1A43 JUMP JUMPDEST PUSH1 0x40 MLOAD PUSH1 0x20 ADD PUSH2 0x180F SWAP3 SWAP2 SWAP1 PUSH2 0x28DB JUMP JUMPDEST PUSH1 0x40 MLOAD PUSH1 0x20 DUP2 DUP4 SUB SUB DUP2 MSTORE SWAP1 PUSH1 0x40 MSTORE JUMPDEST SWAP2 POP POP SWAP2 SWAP1 POP JUMP JUMPDEST PUSH0 PUSH32 0x1FFC9A700000000000000000000000000000000000000000000000000000000 PUSH28 0xFFFFFFFFFFFFFFFFFFFFFFFFFFFFFFFFFFFFFFFFFFFFFFFFFFFFFFFF NOT AND DUP3 PUSH28 0xFFFFFFFFFFFFFFFFFFFFFFFFFFFFFFFFFFFFFFFFFFFFFFFFFFFFFFFF NOT AND EQ SWAP1 POP SWAP2 SWAP1 POP JUMP JUMPDEST PUSH0 PUSH20 0xFFFFFFFFFFFFFFFFFFFFFFFFFFFFFFFFFFFFFFFF AND DUP3 PUSH20 0xFFFFFFFFFFFFFFFFFFFFFFFFFFFFFFFFFFFFFFFF AND SUB PUSH2 0x1900 JUMPI PUSH0 PUSH1 0x40 MLOAD PUSH32 0x64A0AE9200000000000000000000000000000000000000000000000000000000 DUP2 MSTORE PUSH1 0x4 ADD PUSH2 0x18F7 SWAP2 SWAP1 PUSH2 0x1E69 JUMP JUMPDEST PUSH1 0x40 MLOAD DUP1 SWAP2 SUB SWAP1 REVERT JUMPDEST PUSH0 PUSH2 0x190C DUP4 DUP4 PUSH0 PUSH2 0xD41 JUMP JUMPDEST SWAP1 POP PUSH0 PUSH20 0xFFFFFFFFFFFFFFFFFFFFFFFFFFFFFFFFFFFFFFFF AND DUP2 PUSH20 0xFFFFFFFFFFFFFFFFFFFFFFFFFFFFFFFFFFFFFFFF AND EQ PUSH2 0x197E JUMPI PUSH0 PUSH1 0x40 MLOAD PUSH32 0x73C6AC6E00000000000000000000000000000000000000000000000000000000 DUP2 MSTORE PUSH1 0x4 ADD PUSH2 0x1975 SWAP2 SWAP1 PUSH2 0x1E69 JUMP JUMPDEST PUSH1 0x40 MLOAD DUP1 SWAP2 SUB SWAP1 REVERT JUMPDEST POP POP POP JUMP JUMPDEST PUSH0 DUP1 PUSH20 0xFFFFFFFFFFFFFFFFFFFFFFFFFFFFFFFFFFFFFFFF AND DUP4 PUSH20 0xFFFFFFFFFFFFFFFFFFFFFFFFFFFFFFFFFFFFFFFF AND EQ ISZERO DUP1 ISZERO PUSH2 0x1A3A JUMPI POP DUP3 PUSH20 0xFFFFFFFFFFFFFFFFFFFFFFFFFFFFFFFFFFFFFFFF AND DUP5 PUSH20 0xFFFFFFFFFFFFFFFFFFFFFFFFFFFFFFFFFFFFFFFF AND EQ DUP1 PUSH2 0x19FB JUMPI POP PUSH2 0x19FA DUP5 DUP5 PUSH2 0xACE JUMP JUMPDEST JUMPDEST DUP1 PUSH2 0x1A39 JUMPI POP DUP3 PUSH20 0xFFFFFFFFFFFFFFFFFFFFFFFFFFFFFFFFFFFFFFFF AND PUSH2 0x1A21 DUP4 PUSH2 0xC4C JUMP JUMPDEST PUSH20 0xFFFFFFFFFFFFFFFFFFFFFFFFFFFFFFFFFFFFFFFF AND EQ JUMPDEST JUMPDEST SWAP1 POP SWAP4 SWAP3 POP POP POP JUMP JUMPDEST PUSH1 0x60 PUSH0 PUSH1 0x1 PUSH2 0x1A51 DUP5 PUSH2 0x1B0D JUMP JUMPDEST ADD SWAP1 POP PUSH0 DUP2 PUSH8 0xFFFFFFFFFFFFFFFF DUP2 GT ISZERO PUSH2 0x1A6F JUMPI PUSH2 0x1A6E PUSH2 0x1F1A JUMP JUMPDEST JUMPDEST PUSH1 0x40 MLOAD SWAP1 DUP1 DUP3 MSTORE DUP1 PUSH1 0x1F ADD PUSH1 0x1F NOT AND PUSH1 0x20 ADD DUP3 ADD PUSH1 0x40 MSTORE DUP1 ISZERO PUSH2 0x1AA1 JUMPI DUP2 PUSH1 0x20 ADD PUSH1 0x1 DUP3 MUL DUP1 CALLDATASIZE DUP4 CALLDATACOPY DUP1 DUP3 ADD SWAP2 POP POP SWAP1 POP JUMPDEST POP SWAP1 POP PUSH0 DUP3 PUSH1 0x20 ADD DUP3 ADD SWAP1 POP JUMPDEST PUSH1 0x1 ISZERO PUSH2 0x1B02 JUMPI DUP1 DUP1 PUSH1 0x1 SWAP1 SUB SWAP2 POP POP PUSH32 0x3031323334353637383961626364656600000000000000000000000000000000 PUSH1 0xA DUP7 MOD BYTE DUP2 MSTORE8 PUSH1 0xA DUP6 DUP2 PUSH2 0x1AF7 JUMPI PUSH2 0x1AF6 PUSH2 0x2925 JUMP JUMPDEST JUMPDEST DIV SWAP5 POP PUSH0 DUP6 SUB PUSH2 0x1AAE JUMPI JUMPDEST DUP2 SWAP4 POP POP POP POP SWAP2 SWAP1 POP JUMP JUMPDEST PUSH0 DUP1 PUSH0 SWAP1 POP PUSH27 0x184F03E93FF9F4DAA797ED6E38ED64BF6A1F010000000000000000 DUP4 LT PUSH2 0x1B69 JUMPI PUSH27 0x184F03E93FF9F4DAA797ED6E38ED64BF6A1F010000000000000000 DUP4 DUP2 PUSH2 0x1B5F JUMPI PUSH2 0x1B5E PUSH2 0x2925 JUMP JUMPDEST JUMPDEST DIV SWAP3 POP PUSH1 0x40 DUP2 ADD SWAP1 POP JUMPDEST PUSH14 0x4EE2D6D415B85ACEF8100000000 DUP4 LT PUSH2 0x1BA6 JUMPI PUSH14 0x4EE2D6D415B85ACEF8100000000 DUP4 DUP2 PUSH2 0x1B9C JUMPI PUSH2 0x1B9B PUSH2 0x2925 JUMP JUMPDEST JUMPDEST DIV SWAP3 POP PUSH1 0x20 DUP2 ADD SWAP1 POP JUMPDEST PUSH7 0x2386F26FC10000 DUP4 LT PUSH2 0x1BD5 JUMPI PUSH7 0x2386F26FC10000 DUP4 DUP2 PUSH2 0x1BCB JUMPI PUSH2 0x1BCA PUSH2 0x2925 JUMP JUMPDEST JUMPDEST DIV SWAP3 POP PUSH1 0x10 DUP2 ADD SWAP1 POP JUMPDEST PUSH4 0x5F5E100 DUP4 LT PUSH2 0x1BFE JUMPI PUSH4 0x5F5E100 DUP4 DUP2 PUSH2 0x1BF4 JUMPI PUSH2 0x1BF3 PUSH2 0x2925 JUMP JUMPDEST JUMPDEST DIV SWAP3 POP PUSH1 0x8 DUP2 ADD SWAP1 POP JUMPDEST PUSH2 0x2710 DUP4 LT PUSH2 0x1C23 JUMPI PUSH2 0x2710 DUP4 DUP2 PUSH2 0x1C19 JUMPI PUSH2 0x1C18 PUSH2 0x2925 JUMP JUMPDEST JUMPDEST DIV SWAP3 POP PUSH1 0x4 DUP2 ADD SWAP1 POP JUMPDEST PUSH1 0x64 DUP4 LT PUSH2 0x1C46 JUMPI PUSH1 0x64 DUP4 DUP2 PUSH2 0x1C3C JUMPI PUSH2 0x1C3B PUSH2 0x2925 JUMP JUMPDEST JUMPDEST DIV SWAP3 POP PUSH1 0x2 DUP2 ADD SWAP1 POP JUMPDEST PUSH1 0xA DUP4 LT PUSH2 0x1C55 JUMPI PUSH1 0x1 DUP2 ADD SWAP1 POP JUMPDEST DUP1 SWAP2 POP POP SWAP2 SWAP1 POP JUMP JUMPDEST PUSH0 PUSH1 0x40 MLOAD SWAP1 POP SWAP1 JUMP JUMPDEST PUSH0 DUP1 REVERT JUMPDEST PUSH0 DUP1 REVERT JUMPDEST PUSH0 PUSH32 0xFFFFFFFF00000000000000000000000000000000000000000000000000000000 DUP3 AND SWAP1 POP SWAP2 SWAP1 POP JUMP JUMPDEST PUSH2 0x1CA3 DUP2 PUSH2 0x1C6F JUMP JUMPDEST DUP2 EQ PUSH2 0x1CAD JUMPI PUSH0 DUP1 REVERT JUMPDEST POP JUMP JUMPDEST PUSH0 DUP2 CALLDATALOAD SWAP1 POP PUSH2 0x1CBE DUP2 PUSH2 0x1C9A JUMP JUMPDEST SWAP3 SWAP2 POP POP JUMP JUMPDEST PUSH0 PUSH1 0x20 DUP3 DUP5 SUB SLT ISZERO PUSH2 0x1CD9 JUMPI PUSH2 0x1CD8 PUSH2 0x1C67 JUMP JUMPDEST JUMPDEST PUSH0 PUSH2 0x1CE6 DUP5 DUP3 DUP6 ADD PUSH2 0x1CB0 JUMP JUMPDEST SWAP2 POP POP SWAP3 SWAP2 POP POP JUMP JUMPDEST PUSH0 DUP2 ISZERO ISZERO SWAP1 POP SWAP2 SWAP1 POP JUMP JUMPDEST PUSH2 0x1D03 DUP2 PUSH2 0x1CEF JUMP JUMPDEST DUP3 MSTORE POP POP JUMP JUMPDEST PUSH0 PUSH1 0x20 DUP3 ADD SWAP1 POP PUSH2 0x1D1C PUSH0 DUP4 ADD DUP5 PUSH2 0x1CFA JUMP JUMPDEST SWAP3 SWAP2 POP POP JUMP JUMPDEST PUSH0 DUP2 MLOAD SWAP1 POP SWAP2 SWAP1 POP JUMP JUMPDEST PUSH0 DUP3 DUP3 MSTORE PUSH1 0x20 DUP3 ADD SWAP1 POP SWAP3 SWAP2 POP POP JUMP JUMPDEST PUSH0 JUMPDEST DUP4 DUP2 LT ISZERO PUSH2 0x1D59 JUMPI DUP1 DUP3 ADD MLOAD DUP2 DUP5 ADD MSTORE PUSH1 0x20 DUP2 ADD SWAP1 POP PUSH2 0x1D3E JUMP JUMPDEST PUSH0 DUP5 DUP5 ADD MSTORE POP POP POP POP JUMP JUMPDEST PUSH0 PUSH1 0x1F NOT PUSH1 0x1F DUP4 ADD AND SWAP1 POP SWAP2 SWAP1 POP JUMP JUMPDEST PUSH0 PUSH2 0x1D7E DUP3 PUSH2 0x1D22 JUMP JUMPDEST PUSH2 0x1D88 DUP2 DUP6 PUSH2 0x1D2C JUMP JUMPDEST SWAP4 POP PUSH2 0x1D98 DUP2 DUP6 PUSH1 0x20 DUP7 ADD PUSH2 0x1D3C JUMP JUMPDEST PUSH2 0x1DA1 DUP2 PUSH2 0x1D64 JUMP JUMPDEST DUP5 ADD SWAP2 POP POP SWAP3 SWAP2 POP POP JUMP JUMPDEST PUSH0 PUSH1 0x20 DUP3 ADD SWAP1 POP DUP2 DUP2 SUB PUSH0 DUP4 ADD MSTORE PUSH2 0x1DC4 DUP2 DUP5 PUSH2 0x1D74 JUMP JUMPDEST SWAP1 POP SWAP3 SWAP2 POP POP JUMP JUMPDEST PUSH0 DUP2 SWAP1 POP SWAP2 SWAP1 POP JUMP JUMPDEST PUSH2 0x1DDE DUP2 PUSH2 0x1DCC JUMP JUMPDEST DUP2 EQ PUSH2 0x1DE8 JUMPI PUSH0 DUP1 REVERT JUMPDEST POP JUMP JUMPDEST PUSH0 DUP2 CALLDATALOAD SWAP1 POP PUSH2 0x1DF9 DUP2 PUSH2 0x1DD5 JUMP JUMPDEST SWAP3 SWAP2 POP POP JUMP JUMPDEST PUSH0 PUSH1 0x20 DUP3 DUP5 SUB SLT ISZERO PUSH2 0x1E14 JUMPI PUSH2 0x1E13 PUSH2 0x1C67 JUMP JUMPDEST JUMPDEST PUSH0 PUSH2 0x1E21 DUP5 DUP3 DUP6 ADD PUSH2 0x1DEB JUMP JUMPDEST SWAP2 POP POP SWAP3 SWAP2 POP POP JUMP JUMPDEST PUSH0 PUSH20 0xFFFFFFFFFFFFFFFFFFFFFFFFFFFFFFFFFFFFFFFF DUP3 AND SWAP1 POP SWAP2 SWAP1 POP JUMP JUMPDEST PUSH0 PUSH2 0x1E53 DUP3 PUSH2 0x1E2A JUMP JUMPDEST SWAP1 POP SWAP2 SWAP1 POP JUMP JUMPDEST PUSH2 0x1E63 DUP2 PUSH2 0x1E49 JUMP JUMPDEST DUP3 MSTORE POP POP JUMP JUMPDEST PUSH0 PUSH1 0x20 DUP3 ADD SWAP1 POP PUSH2 0x1E7C PUSH0 DUP4 ADD DUP5 PUSH2 0x1E5A JUMP JUMPDEST SWAP3 SWAP2 POP POP JUMP JUMPDEST PUSH2 0x1E8B DUP2 PUSH2 0x1E49 JUMP JUMPDEST DUP2 EQ PUSH2 0x1E95 JUMPI PUSH0 DUP1 REVERT JUMPDEST POP JUMP JUMPDEST PUSH0 DUP2 CALLDATALOAD SWAP1 POP PUSH2 0x1EA6 DUP2 PUSH2 0x1E82 JUMP JUMPDEST SWAP3 SWAP2 POP POP JUMP JUMPDEST PUSH0 DUP1 PUSH1 0x40 DUP4 DUP6 SUB SLT ISZERO PUSH2 0x1EC2 JUMPI PUSH2 0x1EC1 PUSH2 0x1C67 JUMP JUMPDEST JUMPDEST PUSH0 PUSH2 0x1ECF DUP6 DUP3 DUP7 ADD PUSH2 0x1E98 JUMP JUMPDEST SWAP3 POP POP PUSH1 0x20 PUSH2 0x1EE0 DUP6 DUP3 DUP7 ADD PUSH2 0x1DEB JUMP JUMPDEST SWAP2 POP POP SWAP3 POP SWAP3 SWAP1 POP JUMP JUMPDEST PUSH2 0x1EF3 DUP2 PUSH2 0x1DCC JUMP JUMPDEST DUP3 MSTORE POP POP JUMP JUMPDEST PUSH0 PUSH1 0x20 DUP3 ADD SWAP1 POP PUSH2 0x1F0C PUSH0 DUP4 ADD DUP5 PUSH2 0x1EEA JUMP JUMPDEST SWAP3 SWAP2 POP POP JUMP JUMPDEST PUSH0 DUP1 REVERT JUMPDEST PUSH0 DUP1 REVERT JUMPDEST PUSH32 0x4E487B7100000000000000000000000000000000000000000000000000000000 PUSH0 MSTORE PUSH1 0x41 PUSH1 0x4 MSTORE PUSH1 0x24 PUSH0 REVERT JUMPDEST PUSH2 0x1F50 DUP3 PUSH2 0x1D64 JUMP JUMPDEST DUP2 ADD DUP2 DUP2 LT PUSH8 0xFFFFFFFFFFFFFFFF DUP3 GT OR ISZERO PUSH2 0x1F6F JUMPI PUSH2 0x1F6E PUSH2 0x1F1A JUMP JUMPDEST JUMPDEST DUP1 PUSH1 0x40 MSTORE POP POP POP JUMP JUMPDEST PUSH0 PUSH2 0x1F81 PUSH2 0x1C5E JUMP JUMPDEST SWAP1 POP PUSH2 0x1F8D DUP3 DUP3 PUSH2 0x1F47 JUMP JUMPDEST SWAP2 SWAP1 POP JUMP JUMPDEST PUSH0 PUSH8 0xFFFFFFFFFFFFFFFF DUP3 GT ISZERO PUSH2 0x1FAC JUMPI PUSH2 0x1FAB PUSH2 0x1F1A JUMP JUMPDEST JUMPDEST PUSH2 0x1FB5 DUP3 PUSH2 0x1D64 JUMP JUMPDEST SWAP1 POP PUSH1 0x20 DUP2 ADD SWAP1 POP SWAP2 SWAP1 POP JUMP JUMPDEST DUP3 DUP2 DUP4 CALLDATACOPY PUSH0 DUP4 DUP4 ADD MSTORE POP POP POP JUMP JUMPDEST PUSH0 PUSH2 0x1FE2 PUSH2 0x1FDD DUP5 PUSH2 0x1F92 JUMP JUMPDEST PUSH2 0x1F78 JUMP JUMPDEST SWAP1 POP DUP3 DUP2 MSTORE PUSH1 0x20 DUP2 ADD DUP5 DUP5 DUP5 ADD GT ISZERO PUSH2 0x1FFE JUMPI PUSH2 0x1FFD PUSH2 0x1F16 JUMP JUMPDEST JUMPDEST PUSH2 0x2009 DUP5 DUP3 DUP6 PUSH2 0x1FC2 JUMP JUMPDEST POP SWAP4 SWAP3 POP POP POP JUMP JUMPDEST PUSH0 DUP3 PUSH1 0x1F DUP4 ADD SLT PUSH2 0x2025 JUMPI PUSH2 0x2024 PUSH2 0x1F12 JUMP JUMPDEST JUMPDEST DUP2 CALLDATALOAD PUSH2 0x2035 DUP5 DUP3 PUSH1 0x20 DUP7 ADD PUSH2 0x1FD0 JUMP JUMPDEST SWAP2 POP POP SWAP3 SWAP2 POP POP JUMP JUMPDEST PUSH0 DUP1 PUSH0 PUSH1 0x60 DUP5 DUP7 SUB SLT ISZERO PUSH2 0x2055 JUMPI PUSH2 0x2054 PUSH2 0x1C67 JUMP JUMPDEST JUMPDEST PUSH0 PUSH2 0x2062 DUP7 DUP3 DUP8 ADD PUSH2 0x1E98 JUMP JUMPDEST SWAP4 POP POP PUSH1 0x20 PUSH2 0x2073 DUP7 DUP3 DUP8 ADD PUSH2 0x1DEB JUMP JUMPDEST SWAP3 POP POP PUSH1 0x40 DUP5 ADD CALLDATALOAD PUSH8 0xFFFFFFFFFFFFFFFF DUP2 GT ISZERO PUSH2 0x2094 JUMPI PUSH2 0x2093 PUSH2 0x1C6B JUMP JUMPDEST JUMPDEST PUSH2 0x20A0 DUP7 DUP3 DUP8 ADD PUSH2 0x2011 JUMP JUMPDEST SWAP2 POP POP SWAP3 POP SWAP3 POP SWAP3 JUMP JUMPDEST PUSH0 DUP1 PUSH0 PUSH1 0x60 DUP5 DUP7 SUB SLT ISZERO PUSH2 0x20C1 JUMPI PUSH2 0x20C0 PUSH2 0x1C67 JUMP JUMPDEST JUMPDEST PUSH0 PUSH2 0x20CE DUP7 DUP3 DUP8 ADD PUSH2 0x1E98 JUMP JUMPDEST SWAP4 POP POP PUSH1 0x20 PUSH2 0x20DF DUP7 DUP3 DUP8 ADD PUSH2 0x1E98 JUMP JUMPDEST SWAP3 POP POP PUSH1 0x40 PUSH2 0x20F0 DUP7 DUP3 DUP8 ADD PUSH2 0x1DEB JUMP JUMPDEST SWAP2 POP POP SWAP3 POP SWAP3 POP SWAP3 JUMP JUMPDEST PUSH0 PUSH1 0x20 DUP3 DUP5 SUB SLT ISZERO PUSH2 0x210F JUMPI PUSH2 0x210E PUSH2 0x1C67 JUMP JUMPDEST JUMPDEST PUSH0 DUP3 ADD CALLDATALOAD PUSH8 0xFFFFFFFFFFFFFFFF DUP2 GT ISZERO PUSH2 0x212C JUMPI PUSH2 0x212B PUSH2 0x1C6B JUMP JUMPDEST JUMPDEST PUSH2 0x2138 DUP5 DUP3 DUP6 ADD PUSH2 0x2011 JUMP JUMPDEST SWAP2 POP POP SWAP3 SWAP2 POP POP JUMP JUMPDEST PUSH0 PUSH1 0x20 DUP3 DUP5 SUB SLT ISZERO PUSH2 0x2156 JUMPI PUSH2 0x2155 PUSH2 0x1C67 JUMP JUMPDEST JUMPDEST PUSH0 PUSH2 0x2163 DUP5 DUP3 DUP6 ADD PUSH2 0x1E98 JUMP JUMPDEST SWAP2 POP POP SWAP3 SWAP2 POP POP JUMP JUMPDEST PUSH2 0x2175 DUP2 PUSH2 0x1CEF JUMP JUMPDEST DUP2 EQ PUSH2 0x217F JUMPI PUSH0 DUP1 REVERT JUMPDEST POP JUMP JUMPDEST PUSH0 DUP2 CALLDATALOAD SWAP1 POP PUSH2 0x2190 DUP2 PUSH2 0x216C JUMP JUMPDEST SWAP3 SWAP2 POP POP JUMP JUMPDEST PUSH0 DUP1 PUSH1 0x40 DUP4 DUP6 SUB SLT ISZERO PUSH2 0x21AC JUMPI PUSH2 0x21AB PUSH2 0x1C67 JUMP JUMPDEST JUMPDEST PUSH0 PUSH2 0x21B9 DUP6 DUP3 DUP7 ADD PUSH2 0x1E98 JUMP JUMPDEST SWAP3 POP POP PUSH1 0x20 PUSH2 0x21CA DUP6 DUP3 DUP7 ADD PUSH2 0x2182 JUMP JUMPDEST SWAP2 POP POP SWAP3 POP SWAP3 SWAP1 POP JUMP JUMPDEST PUSH0 PUSH8 0xFFFFFFFFFFFFFFFF DUP3 GT ISZERO PUSH2 0x21EE JUMPI PUSH2 0x21ED PUSH2 0x1F1A JUMP JUMPDEST JUMPDEST PUSH2 0x21F7 DUP3 PUSH2 0x1D64 JUMP JUMPDEST SWAP1 POP PUSH1 0x20 DUP2 ADD SWAP1 POP SWAP2 SWAP1 POP JUMP JUMPDEST PUSH0 PUSH2 0x2216 PUSH2 0x2211 DUP5 PUSH2 0x21D4 JUMP JUMPDEST PUSH2 0x1F78 JUMP JUMPDEST SWAP1 POP DUP3 DUP2 MSTORE PUSH1 0x20 DUP2 ADD DUP5 DUP5 DUP5 ADD GT ISZERO PUSH2 0x2232 JUMPI PUSH2 0x2231 PUSH2 0x1F16 JUMP JUMPDEST JUMPDEST PUSH2 0x223D DUP5 DUP3 DUP6 PUSH2 0x1FC2 JUMP JUMPDEST POP SWAP4 SWAP3 POP POP POP JUMP JUMPDEST PUSH0 DUP3 PUSH1 0x1F DUP4 ADD SLT PUSH2 0x2259 JUMPI PUSH2 0x2258 PUSH2 0x1F12 JUMP JUMPDEST JUMPDEST DUP2 CALLDATALOAD PUSH2 0x2269 DUP5 DUP3 PUSH1 0x20 DUP7 ADD PUSH2 0x2204 JUMP JUMPDEST SWAP2 POP POP SWAP3 SWAP2 POP POP JUMP JUMPDEST PUSH0 DUP1 PUSH0 DUP1 PUSH1 0x80 DUP6 DUP8 SUB SLT ISZERO PUSH2 0x228A JUMPI PUSH2 0x2289 PUSH2 0x1C67 JUMP JUMPDEST JUMPDEST PUSH0 PUSH2 0x2297 DUP8 DUP3 DUP9 ADD PUSH2 0x1E98 JUMP JUMPDEST SWAP5 POP POP PUSH1 0x20 PUSH2 0x22A8 DUP8 DUP3 DUP9 ADD PUSH2 0x1E98 JUMP JUMPDEST SWAP4 POP POP PUSH1 0x40 PUSH2 0x22B9 DUP8 DUP3 DUP9 ADD PUSH2 0x1DEB JUMP JUMPDEST SWAP3 POP POP PUSH1 0x60 DUP6 ADD CALLDATALOAD PUSH8 0xFFFFFFFFFFFFFFFF DUP2 GT ISZERO PUSH2 0x22DA JUMPI PUSH2 0x22D9 PUSH2 0x1C6B JUMP JUMPDEST JUMPDEST PUSH2 0x22E6 DUP8 DUP3 DUP9 ADD PUSH2 0x2245 JUMP JUMPDEST SWAP2 POP POP SWAP3 SWAP6 SWAP2 SWAP5 POP SWAP3 POP JUMP JUMPDEST PUSH0 DUP1 PUSH1 0x40 DUP4 DUP6 SUB SLT ISZERO PUSH2 0x2308 JUMPI PUSH2 0x2307 PUSH2 0x1C67 JUMP JUMPDEST JUMPDEST PUSH0 PUSH2 0x2315 DUP6 DUP3 DUP7 ADD PUSH2 0x1E98 JUMP JUMPDEST SWAP3 POP POP PUSH1 0x20 PUSH2 0x2326 DUP6 DUP3 DUP7 ADD PUSH2 0x1E98 JUMP JUMPDEST SWAP2 POP POP SWAP3 POP SWAP3 SWAP1 POP JUMP JUMPDEST PUSH32 0x4E487B7100000000000000000000000000000000000000000000000000000000 PUSH0 MSTORE PUSH1 0x22 PUSH1 0x4 MSTORE PUSH1 0x24 PUSH0 REVERT JUMPDEST PUSH0 PUSH1 0x2 DUP3 DIV SWAP1 POP PUSH1 0x1 DUP3 AND DUP1 PUSH2 0x2374 JUMPI PUSH1 0x7F DUP3 AND SWAP2 POP JUMPDEST PUSH1 0x20 DUP3 LT DUP2 SUB PUSH2 0x2387 JUMPI PUSH2 0x2386 PUSH2 0x2330 JUMP JUMPDEST JUMPDEST POP SWAP2 SWAP1 POP JUMP JUMPDEST PUSH32 0x496E73756666696369656E74207061796D656E74000000000000000000000000 PUSH0 DUP3 ADD MSTORE POP JUMP JUMPDEST PUSH0 PUSH2 0x23C1 PUSH1 0x14 DUP4 PUSH2 0x1D2C JUMP JUMPDEST SWAP2 POP PUSH2 0x23CC DUP3 PUSH2 0x238D JUMP JUMPDEST PUSH1 0x20 DUP3 ADD SWAP1 POP SWAP2 SWAP1 POP JUMP JUMPDEST PUSH0 PUSH1 0x20 DUP3 ADD SWAP1 POP DUP2 DUP2 SUB PUSH0 DUP4 ADD MSTORE PUSH2 0x23EE DUP2 PUSH2 0x23B5 JUMP JUMPDEST SWAP1 POP SWAP2 SWAP1 POP JUMP JUMPDEST PUSH0 PUSH1 0x60 DUP3 ADD SWAP1 POP PUSH2 0x2408 PUSH0 DUP4 ADD DUP7 PUSH2 0x1E5A JUMP JUMPDEST PUSH2 0x2415 PUSH1 0x20 DUP4 ADD DUP6 PUSH2 0x1EEA JUMP JUMPDEST PUSH2 0x2422 PUSH1 0x40 DUP4 ADD DUP5 PUSH2 0x1E5A JUMP JUMPDEST SWAP5 SWAP4 POP POP POP POP JUMP JUMPDEST PUSH32 0x596F7520646F6E2774206F776E2074686973204E465400000000000000000000 PUSH0 DUP3 ADD MSTORE POP JUMP JUMPDEST PUSH0 PUSH2 0x245E PUSH1 0x16 DUP4 PUSH2 0x1D2C JUMP JUMPDEST SWAP2 POP PUSH2 0x2469 DUP3 PUSH2 0x242A JUMP JUMPDEST PUSH1 0x20 DUP3 ADD SWAP1 POP SWAP2 SWAP1 POP JUMP JUMPDEST PUSH0 PUSH1 0x20 DUP3 ADD SWAP1 POP DUP2 DUP2 SUB PUSH0 DUP4 ADD MSTORE PUSH2 0x248B DUP2 PUSH2 0x2452 JUMP JUMPDEST SWAP1 POP SWAP2 SWAP1 POP JUMP JUMPDEST PUSH32 0x4E46542063616E6E6F74206265206275726E6564207965740000000000000000 PUSH0 DUP3 ADD MSTORE POP JUMP JUMPDEST PUSH0 PUSH2 0x24C6 PUSH1 0x18 DUP4 PUSH2 0x1D2C JUMP JUMPDEST SWAP2 POP PUSH2 0x24D1 DUP3 PUSH2 0x2492 JUMP JUMPDEST PUSH1 0x20 DUP3 ADD SWAP1 POP SWAP2 SWAP1 POP JUMP JUMPDEST PUSH0 PUSH1 0x20 DUP3 ADD SWAP1 POP DUP2 DUP2 SUB PUSH0 DUP4 ADD MSTORE PUSH2 0x24F3 DUP2 PUSH2 0x24BA JUMP JUMPDEST SWAP1 POP SWAP2 SWAP1 POP JUMP JUMPDEST PUSH0 DUP2 SWAP1 POP DUP2 PUSH0 MSTORE PUSH1 0x20 PUSH0 KECCAK256 SWAP1 POP SWAP2 SWAP1 POP JUMP JUMPDEST PUSH0 PUSH1 0x20 PUSH1 0x1F DUP4 ADD DIV SWAP1 POP SWAP2 SWAP1 POP JUMP JUMPDEST PUSH0 DUP3 DUP3 SHL SWAP1 POP SWAP3 SWAP2 POP POP JUMP JUMPDEST PUSH0 PUSH1 0x8 DUP4 MUL PUSH2 0x2556 PUSH32 0xFFFFFFFFFFFFFFFFFFFFFFFFFFFFFFFFFFFFFFFFFFFFFFFFFFFFFFFFFFFFFFFF DUP3 PUSH2 0x251B JUMP JUMPDEST PUSH2 0x2560 DUP7 DUP4 PUSH2 0x251B JUMP JUMPDEST SWAP6 POP DUP1 NOT DUP5 AND SWAP4 POP DUP1 DUP7 AND DUP5 OR SWAP3 POP POP POP SWAP4 SWAP3 POP POP POP JUMP JUMPDEST PUSH0 DUP2 SWAP1 POP SWAP2 SWAP1 POP JUMP JUMPDEST PUSH0 PUSH2 0x259B PUSH2 0x2596 PUSH2 0x2591 DUP5 PUSH2 0x1DCC JUMP JUMPDEST PUSH2 0x2578 JUMP JUMPDEST PUSH2 0x1DCC JUMP JUMPDEST SWAP1 POP SWAP2 SWAP1 POP JUMP JUMPDEST PUSH0 DUP2 SWAP1 POP SWAP2 SWAP1 POP JUMP JUMPDEST PUSH2 0x25B4 DUP4 PUSH2 0x2581 JUMP JUMPDEST PUSH2 0x25C8 PUSH2 0x25C0 DUP3 PUSH2 0x25A2 JUMP JUMPDEST DUP5 DUP5 SLOAD PUSH2 0x2527 JUMP JUMPDEST DUP3 SSTORE POP POP POP POP JUMP JUMPDEST PUSH0 SWAP1 JUMP JUMPDEST PUSH2 0x25DC PUSH2 0x25D0 JUMP JUMPDEST PUSH2 0x25E7 DUP2 DUP5 DUP5 PUSH2 0x25AB JUMP JUMPDEST POP POP POP JUMP JUMPDEST JUMPDEST DUP2 DUP2 LT ISZERO PUSH2 0x260A JUMPI PUSH2 0x25FF PUSH0 DUP3 PUSH2 0x25D4 JUMP JUMPDEST PUSH1 0x1 DUP2 ADD SWAP1 POP PUSH2 0x25ED JUMP JUMPDEST POP POP JUMP JUMPDEST PUSH1 0x1F DUP3 GT ISZERO PUSH2 0x264F JUMPI PUSH2 0x2620 DUP2 PUSH2 0x24FA JUMP JUMPDEST PUSH2 0x2629 DUP5 PUSH2 0x250C JUMP JUMPDEST DUP2 ADD PUSH1 0x20 DUP6 LT ISZERO PUSH2 0x2638 JUMPI DUP2 SWAP1 POP JUMPDEST PUSH2 0x264C PUSH2 0x2644 DUP6 PUSH2 0x250C JUMP JUMPDEST DUP4 ADD DUP3 PUSH2 0x25EC JUMP JUMPDEST POP POP JUMPDEST POP POP POP JUMP JUMPDEST PUSH0 DUP3 DUP3 SHR SWAP1 POP SWAP3 SWAP2 POP POP JUMP JUMPDEST PUSH0 PUSH2 0x266F PUSH0 NOT DUP5 PUSH1 0x8 MUL PUSH2 0x2654 JUMP JUMPDEST NOT DUP1 DUP4 AND SWAP2 POP POP SWAP3 SWAP2 POP POP JUMP JUMPDEST PUSH0 PUSH2 0x2687 DUP4 DUP4 PUSH2 0x2660 JUMP JUMPDEST SWAP2 POP DUP3 PUSH1 0x2 MUL DUP3 OR SWAP1 POP SWAP3 SWAP2 POP POP JUMP JUMPDEST PUSH2 0x26A0 DUP3 PUSH2 0x1D22 JUMP JUMPDEST PUSH8 0xFFFFFFFFFFFFFFFF DUP2 GT ISZERO PUSH2 0x26B9 JUMPI PUSH2 0x26B8 PUSH2 0x1F1A JUMP JUMPDEST JUMPDEST PUSH2 0x26C3 DUP3 SLOAD PUSH2 0x235D JUMP JUMPDEST PUSH2 0x26CE DUP3 DUP3 DUP6 PUSH2 0x260E JUMP JUMPDEST PUSH0 PUSH1 0x20 SWAP1 POP PUSH1 0x1F DUP4 GT PUSH1 0x1 DUP2 EQ PUSH2 0x26FF JUMPI PUSH0 DUP5 ISZERO PUSH2 0x26ED JUMPI DUP3 DUP8 ADD MLOAD SWAP1 POP JUMPDEST PUSH2 0x26F7 DUP6 DUP3 PUSH2 0x267C JUMP JUMPDEST DUP7 SSTORE POP PUSH2 0x275E JUMP JUMPDEST PUSH1 0x1F NOT DUP5 AND PUSH2 0x270D DUP7 PUSH2 0x24FA JUMP JUMPDEST PUSH0 JUMPDEST DUP3 DUP2 LT ISZERO PUSH2 0x2734 JUMPI DUP5 DUP10 ADD MLOAD DUP3 SSTORE PUSH1 0x1 DUP3 ADD SWAP2 POP PUSH1 0x20 DUP6 ADD SWAP5 POP PUSH1 0x20 DUP2 ADD SWAP1 POP PUSH2 0x270F JUMP JUMPDEST DUP7 DUP4 LT ISZERO PUSH2 0x2751 JUMPI DUP5 DUP10 ADD MLOAD PUSH2 0x274D PUSH1 0x1F DUP10 AND DUP3 PUSH2 0x2660 JUMP JUMPDEST DUP4 SSTORE POP JUMPDEST PUSH1 0x1 PUSH1 0x2 DUP9 MUL ADD DUP9 SSTORE POP POP POP JUMPDEST POP POP POP POP POP POP JUMP JUMPDEST PUSH32 0x4E487B7100000000000000000000000000000000000000000000000000000000 PUSH0 MSTORE PUSH1 0x11 PUSH1 0x4 MSTORE PUSH1 0x24 PUSH0 REVERT JUMPDEST PUSH0 PUSH2 0x279D DUP3 PUSH2 0x1DCC JUMP JUMPDEST SWAP2 POP PUSH2 0x27A8 DUP4 PUSH2 0x1DCC JUMP JUMPDEST SWAP3 POP DUP3 DUP3 ADD SWAP1 POP DUP1 DUP3 GT ISZERO PUSH2 0x27C0 JUMPI PUSH2 0x27BF PUSH2 0x2766 JUMP JUMPDEST JUMPDEST SWAP3 SWAP2 POP POP JUMP JUMPDEST PUSH0 DUP2 MLOAD SWAP1 POP SWAP2 SWAP1 POP JUMP JUMPDEST PUSH0 DUP3 DUP3 MSTORE PUSH1 0x20 DUP3 ADD SWAP1 POP SWAP3 SWAP2 POP POP JUMP JUMPDEST PUSH0 PUSH2 0x27EA DUP3 PUSH2 0x27C6 JUMP JUMPDEST PUSH2 0x27F4 DUP2 DUP6 PUSH2 0x27D0 JUMP JUMPDEST SWAP4 POP PUSH2 0x2804 DUP2 DUP6 PUSH1 0x20 DUP7 ADD PUSH2 0x1D3C JUMP JUMPDEST PUSH2 0x280D DUP2 PUSH2 0x1D64 JUMP JUMPDEST DUP5 ADD SWAP2 POP POP SWAP3 SWAP2 POP POP JUMP JUMPDEST PUSH0 PUSH1 0x80 DUP3 ADD SWAP1 POP PUSH2 0x282B PUSH0 DUP4 ADD DUP8 PUSH2 0x1E5A JUMP JUMPDEST PUSH2 0x2838 PUSH1 0x20 DUP4 ADD DUP7 PUSH2 0x1E5A JUMP JUMPDEST PUSH2 0x2845 PUSH1 0x40 DUP4 ADD DUP6 PUSH2 0x1EEA JUMP JUMPDEST DUP2 DUP2 SUB PUSH1 0x60 DUP4 ADD MSTORE PUSH2 0x2857 DUP2 DUP5 PUSH2 0x27E0 JUMP JUMPDEST SWAP1 POP SWAP6 SWAP5 POP POP POP POP POP JUMP JUMPDEST PUSH0 DUP2 MLOAD SWAP1 POP PUSH2 0x2870 DUP2 PUSH2 0x1C9A JUMP JUMPDEST SWAP3 SWAP2 POP POP JUMP JUMPDEST PUSH0 PUSH1 0x20 DUP3 DUP5 SUB SLT ISZERO PUSH2 0x288B JUMPI PUSH2 0x288A PUSH2 0x1C67 JUMP JUMPDEST JUMPDEST PUSH0 PUSH2 0x2898 DUP5 DUP3 DUP6 ADD PUSH2 0x2862 JUMP JUMPDEST SWAP2 POP POP SWAP3 SWAP2 POP POP JUMP JUMPDEST PUSH0 DUP2 SWAP1 POP SWAP3 SWAP2 POP POP JUMP JUMPDEST PUSH0 PUSH2 0x28B5 DUP3 PUSH2 0x1D22 JUMP JUMPDEST PUSH2 0x28BF DUP2 DUP6 PUSH2 0x28A1 JUMP JUMPDEST SWAP4 POP PUSH2 0x28CF DUP2 DUP6 PUSH1 0x20 DUP7 ADD PUSH2 0x1D3C JUMP JUMPDEST DUP1 DUP5 ADD SWAP2 POP POP SWAP3 SWAP2 POP POP JUMP JUMPDEST PUSH0 PUSH2 0x28E6 DUP3 DUP6 PUSH2 0x28AB JUMP JUMPDEST SWAP2 POP PUSH2 0x28F2 DUP3 DUP5 PUSH2 0x28AB JUMP JUMPDEST SWAP2 POP DUP2 SWAP1 POP SWAP4 SWAP3 POP POP POP JUMP JUMPDEST PUSH0 PUSH1 0x40 DUP3 ADD SWAP1 POP PUSH2 0x2911 PUSH0 DUP4 ADD DUP6 PUSH2 0x1E5A JUMP JUMPDEST PUSH2 0x291E PUSH1 0x20 DUP4 ADD DUP5 PUSH2 0x1EEA JUMP JUMPDEST SWAP4 SWAP3 POP POP POP JUMP JUMPDEST PUSH32 0x4E487B7100000000000000000000000000000000000000000000000000000000 PUSH0 MSTORE PUSH1 0x12 PUSH1 0x4 MSTORE PUSH1 0x24 PUSH0 REVERT INVALID LOG2 PUSH5 0x6970667358 0x22 SLT KECCAK256 EXTCODECOPY 0x27 JUMPI 0xCC ADD RETURN OR PUSH22 0x7597D8471E9860BD495EAC826F71672205C0F56266EB 0xD7 0xAA PUSH5 0x736F6C6343 STOP ADDMOD EQ STOP CALLER PUSH9 0x747470733A2F2F6761 PUSH21 0x657761792E70696E6174612E636C6F75642F697066 PUSH20 0x2F516D6238684B534B616B4771566B3768383737 PUSH25 0x64797A564A686E6236636D7A666A70566653367843464C714E PUSH8 0x2F302E6A70670000 "
		},
		"gasEstimates": {
			"creation": {
				"codeDepositCost": "2126400",
				"executionCost": "infinite",
				"totalCost": "infinite"
			},
			"external": {
				"approve(address,uint256)": "infinite",
				"balanceOf(address)": "infinite",
				"burn(uint256)": "infinite",
				"burnNFT(uint256)": "infinite",
				"fixedImageURI()": "infinite",
				"getApproved(uint256)": "infinite",
				"isApprovedForAll(address,address)": "infinite",
				"mintFee()": "2537",
				"mintNFT(address,uint256,string)": "infinite",
				"mintTimeout()": "2447",
				"name()": "infinite",
				"ownerOf(uint256)": "infinite",
				"safeTransferFrom(address,address,uint256)": "infinite",
				"safeTransferFrom(address,address,uint256,bytes)": "infinite",
				"setApprovalForAll(address,bool)": "infinite",
				"setFixedImageURI(string)": "infinite",
				"setMintFee(uint256)": "22647",
				"setMintTimeout(uint256)": "22604",
				"supportsInterface(bytes4)": "923",
				"symbol()": "infinite",
				"tokenURI(uint256)": "infinite",
				"transferFrom(address,address,uint256)": "infinite"
			},
			"internal": {
				"_burnAfterTimeout(address,uint256)": "infinite"
			}
		},
		"methodIdentifiers": {
			"approve(address,uint256)": "095ea7b3",
			"balanceOf(address)": "70a08231",
			"burn(uint256)": "42966c68",
			"burnNFT(uint256)": "2890e0d7",
			"fixedImageURI()": "65870789",
			"getApproved(uint256)": "081812fc",
			"isApprovedForAll(address,address)": "e985e9c5",
			"mintFee()": "13966db5",
			"mintNFT(address,uint256,string)": "1e576912",
			"mintTimeout()": "994dddcd",
			"name()": "06fdde03",
			"ownerOf(uint256)": "6352211e",
			"safeTransferFrom(address,address,uint256)": "42842e0e",
			"safeTransferFrom(address,address,uint256,bytes)": "b88d4fde",
			"setApprovalForAll(address,bool)": "a22cb465",
			"setFixedImageURI(string)": "474ebdea",
			"setMintFee(uint256)": "eddd0d9c",
			"setMintTimeout(uint256)": "30959643",
			"supportsInterface(bytes4)": "01ffc9a7",
			"symbol()": "95d89b41",
			"tokenURI(uint256)": "c87b56dd",
			"transferFrom(address,address,uint256)": "23b872dd"
		}
	},
	"abi": [
		{
			"inputs": [
				{
					"internalType": "uint256",
					"name": "_mintFee",
					"type": "uint256"
				},
				{
					"internalType": "uint256",
					"name": "_mintTimeout",
					"type": "uint256"
				}
			],
			"stateMutability": "nonpayable",
			"type": "constructor"
		},
		{
			"inputs": [
				{
					"internalType": "address",
					"name": "sender",
					"type": "address"
				},
				{
					"internalType": "uint256",
					"name": "tokenId",
					"type": "uint256"
				},
				{
					"internalType": "address",
					"name": "owner",
					"type": "address"
				}
			],
			"name": "ERC721IncorrectOwner",
			"type": "error"
		},
		{
			"inputs": [
				{
					"internalType": "address",
					"name": "operator",
					"type": "address"
				},
				{
					"internalType": "uint256",
					"name": "tokenId",
					"type": "uint256"
				}
			],
			"name": "ERC721InsufficientApproval",
			"type": "error"
		},
		{
			"inputs": [
				{
					"internalType": "address",
					"name": "approver",
					"type": "address"
				}
			],
			"name": "ERC721InvalidApprover",
			"type": "error"
		},
		{
			"inputs": [
				{
					"internalType": "address",
					"name": "operator",
					"type": "address"
				}
			],
			"name": "ERC721InvalidOperator",
			"type": "error"
		},
		{
			"inputs": [
				{
					"internalType": "address",
					"name": "owner",
					"type": "address"
				}
			],
			"name": "ERC721InvalidOwner",
			"type": "error"
		},
		{
			"inputs": [
				{
					"internalType": "address",
					"name": "receiver",
					"type": "address"
				}
			],
			"name": "ERC721InvalidReceiver",
			"type": "error"
		},
		{
			"inputs": [
				{
					"internalType": "address",
					"name": "sender",
					"type": "address"
				}
			],
			"name": "ERC721InvalidSender",
			"type": "error"
		},
		{
			"inputs": [
				{
					"internalType": "uint256",
					"name": "tokenId",
					"type": "uint256"
				}
			],
			"name": "ERC721NonexistentToken",
			"type": "error"
		},
		{
			"anonymous": false,
			"inputs": [
				{
					"indexed": true,
					"internalType": "address",
					"name": "owner",
					"type": "address"
				},
				{
					"indexed": true,
					"internalType": "address",
					"name": "approved",
					"type": "address"
				},
				{
					"indexed": true,
					"internalType": "uint256",
					"name": "tokenId",
					"type": "uint256"
				}
			],
			"name": "Approval",
			"type": "event"
		},
		{
			"anonymous": false,
			"inputs": [
				{
					"indexed": true,
					"internalType": "address",
					"name": "owner",
					"type": "address"
				},
				{
					"indexed": true,
					"internalType": "address",
					"name": "operator",
					"type": "address"
				},
				{
					"indexed": false,
					"internalType": "bool",
					"name": "approved",
					"type": "bool"
				}
			],
			"name": "ApprovalForAll",
			"type": "event"
		},
		{
			"anonymous": false,
			"inputs": [
				{
					"indexed": false,
					"internalType": "uint256",
					"name": "_fromTokenId",
					"type": "uint256"
				},
				{
					"indexed": false,
					"internalType": "uint256",
					"name": "_toTokenId",
					"type": "uint256"
				}
			],
			"name": "BatchMetadataUpdate",
			"type": "event"
		},
		{
			"anonymous": false,
			"inputs": [
				{
					"indexed": false,
					"internalType": "uint256",
					"name": "_tokenId",
					"type": "uint256"
				}
			],
			"name": "MetadataUpdate",
			"type": "event"
		},
		{
			"anonymous": false,
			"inputs": [
				{
					"indexed": true,
					"internalType": "address",
					"name": "from",
					"type": "address"
				},
				{
					"indexed": true,
					"internalType": "address",
					"name": "to",
					"type": "address"
				},
				{
					"indexed": true,
					"internalType": "uint256",
					"name": "tokenId",
					"type": "uint256"
				}
			],
			"name": "Transfer",
			"type": "event"
		},
		{
			"inputs": [
				{
					"internalType": "address",
					"name": "to",
					"type": "address"
				},
				{
					"internalType": "uint256",
					"name": "tokenId",
					"type": "uint256"
				}
			],
			"name": "approve",
			"outputs": [],
			"stateMutability": "nonpayable",
			"type": "function"
		},
		{
			"inputs": [
				{
					"internalType": "address",
					"name": "owner",
					"type": "address"
				}
			],
			"name": "balanceOf",
			"outputs": [
				{
					"internalType": "uint256",
					"name": "",
					"type": "uint256"
				}
			],
			"stateMutability": "view",
			"type": "function"
		},
		{
			"inputs": [
				{
					"internalType": "uint256",
					"name": "tokenId",
					"type": "uint256"
				}
			],
			"name": "burn",
			"outputs": [],
			"stateMutability": "nonpayable",
			"type": "function"
		},
		{
			"inputs": [
				{
					"internalType": "uint256",
					"name": "tokenId",
					"type": "uint256"
				}
			],
			"name": "burnNFT",
			"outputs": [],
			"stateMutability": "nonpayable",
			"type": "function"
		},
		{
			"inputs": [],
			"name": "fixedImageURI",
			"outputs": [
				{
					"internalType": "string",
					"name": "",
					"type": "string"
				}
			],
			"stateMutability": "view",
			"type": "function"
		},
		{
			"inputs": [
				{
					"internalType": "uint256",
					"name": "tokenId",
					"type": "uint256"
				}
			],
			"name": "getApproved",
			"outputs": [
				{
					"internalType": "address",
					"name": "",
					"type": "address"
				}
			],
			"stateMutability": "view",
			"type": "function"
		},
		{
			"inputs": [
				{
					"internalType": "address",
					"name": "owner",
					"type": "address"
				},
				{
					"internalType": "address",
					"name": "operator",
					"type": "address"
				}
			],
			"name": "isApprovedForAll",
			"outputs": [
				{
					"internalType": "bool",
					"name": "",
					"type": "bool"
				}
			],
			"stateMutability": "view",
			"type": "function"
		},
		{
			"inputs": [],
			"name": "mintFee",
			"outputs": [
				{
					"internalType": "uint256",
					"name": "",
					"type": "uint256"
				}
			],
			"stateMutability": "view",
			"type": "function"
		},
		{
			"inputs": [
				{
					"internalType": "address",
					"name": "to",
					"type": "address"
				},
				{
					"internalType": "uint256",
					"name": "tokenId",
					"type": "uint256"
				},
				{
					"internalType": "string",
					"name": "metadata",
					"type": "string"
				}
			],
			"name": "mintNFT",
			"outputs": [],
			"stateMutability": "payable",
			"type": "function"
		},
		{
			"inputs": [],
			"name": "mintTimeout",
			"outputs": [
				{
					"internalType": "uint256",
					"name": "",
					"type": "uint256"
				}
			],
			"stateMutability": "view",
			"type": "function"
		},
		{
			"inputs": [],
			"name": "name",
			"outputs": [
				{
					"internalType": "string",
					"name": "",
					"type": "string"
				}
			],
			"stateMutability": "view",
			"type": "function"
		},
		{
			"inputs": [
				{
					"internalType": "uint256",
					"name": "tokenId",
					"type": "uint256"
				}
			],
			"name": "ownerOf",
			"outputs": [
				{
					"internalType": "address",
					"name": "",
					"type": "address"
				}
			],
			"stateMutability": "view",
			"type": "function"
		},
		{
			"inputs": [
				{
					"internalType": "address",
					"name": "from",
					"type": "address"
				},
				{
					"internalType": "address",
					"name": "to",
					"type": "address"
				},
				{
					"internalType": "uint256",
					"name": "tokenId",
					"type": "uint256"
				}
			],
			"name": "safeTransferFrom",
			"outputs": [],
			"stateMutability": "nonpayable",
			"type": "function"
		},
		{
			"inputs": [
				{
					"internalType": "address",
					"name": "from",
					"type": "address"
				},
				{
					"internalType": "address",
					"name": "to",
					"type": "address"
				},
				{
					"internalType": "uint256",
					"name": "tokenId",
					"type": "uint256"
				},
				{
					"internalType": "bytes",
					"name": "data",
					"type": "bytes"
				}
			],
			"name": "safeTransferFrom",
			"outputs": [],
			"stateMutability": "nonpayable",
			"type": "function"
		},
		{
			"inputs": [
				{
					"internalType": "address",
					"name": "operator",
					"type": "address"
				},
				{
					"internalType": "bool",
					"name": "approved",
					"type": "bool"
				}
			],
			"name": "setApprovalForAll",
			"outputs": [],
			"stateMutability": "nonpayable",
			"type": "function"
		},
		{
			"inputs": [
				{
					"internalType": "string",
					"name": "_newImageURI",
					"type": "string"
				}
			],
			"name": "setFixedImageURI",
			"outputs": [],
			"stateMutability": "nonpayable",
			"type": "function"
		},
		{
			"inputs": [
				{
					"internalType": "uint256",
					"name": "_newMintFee",
					"type": "uint256"
				}
			],
			"name": "setMintFee",
			"outputs": [],
			"stateMutability": "nonpayable",
			"type": "function"
		},
		{
			"inputs": [
				{
					"internalType": "uint256",
					"name": "_newMintTimeout",
					"type": "uint256"
				}
			],
			"name": "setMintTimeout",
			"outputs": [],
			"stateMutability": "nonpayable",
			"type": "function"
		},
		{
			"inputs": [
				{
					"internalType": "bytes4",
					"name": "interfaceId",
					"type": "bytes4"
				}
			],
			"name": "supportsInterface",
			"outputs": [
				{
					"internalType": "bool",
					"name": "",
					"type": "bool"
				}
			],
			"stateMutability": "view",
			"type": "function"
		},
		{
			"inputs": [],
			"name": "symbol",
			"outputs": [
				{
					"internalType": "string",
					"name": "",
					"type": "string"
				}
			],
			"stateMutability": "view",
			"type": "function"
		},
		{
			"inputs": [
				{
					"internalType": "uint256",
					"name": "tokenId",
					"type": "uint256"
				}
			],
			"name": "tokenURI",
			"outputs": [
				{
					"internalType": "string",
					"name": "",
					"type": "string"
				}
			],
			"stateMutability": "view",
			"type": "function"
		},
		{
			"inputs": [
				{
					"internalType": "address",
					"name": "from",
					"type": "address"
				},
				{
					"internalType": "address",
					"name": "to",
					"type": "address"
				},
				{
					"internalType": "uint256",
					"name": "tokenId",
					"type": "uint256"
				}
			],
			"name": "transferFrom",
			"outputs": [],
			"stateMutability": "nonpayable",
			"type": "function"
		}
	]
}