{
	"contracts/MyToken.sol": {
		"MyToken": {
			"abi": [
				{
					"inputs": [
						{
							"internalType": "uint256",
							"name": "_mintFee",
							"type": "uint256"
						},
						{
							"internalType": "uint256",
							"name": "_mintTimeout",
							"type": "uint256"
						}
					],
					"stateMutability": "nonpayable",
					"type": "constructor"
				},
				{
					"inputs": [
						{
							"internalType": "address",
							"name": "sender",
							"type": "address"
						},
						{
							"internalType": "uint256",
							"name": "tokenId",
							"type": "uint256"
						},
						{
							"internalType": "address",
							"name": "owner",
							"type": "address"
						}
					],
					"name": "ERC721IncorrectOwner",
					"type": "error"
				},
				{
					"inputs": [
						{
							"internalType": "address",
							"name": "operator",
							"type": "address"
						},
						{
							"internalType": "uint256",
							"name": "tokenId",
							"type": "uint256"
						}
					],
					"name": "ERC721InsufficientApproval",
					"type": "error"
				},
				{
					"inputs": [
						{
							"internalType": "address",
							"name": "approver",
							"type": "address"
						}
					],
					"name": "ERC721InvalidApprover",
					"type": "error"
				},
				{
					"inputs": [
						{
							"internalType": "address",
							"name": "operator",
							"type": "address"
						}
					],
					"name": "ERC721InvalidOperator",
					"type": "error"
				},
				{
					"inputs": [
						{
							"internalType": "address",
							"name": "owner",
							"type": "address"
						}
					],
					"name": "ERC721InvalidOwner",
					"type": "error"
				},
				{
					"inputs": [
						{
							"internalType": "address",
							"name": "receiver",
							"type": "address"
						}
					],
					"name": "ERC721InvalidReceiver",
					"type": "error"
				},
				{
					"inputs": [
						{
							"internalType": "address",
							"name": "sender",
							"type": "address"
						}
					],
					"name": "ERC721InvalidSender",
					"type": "error"
				},
				{
					"inputs": [
						{
							"internalType": "uint256",
							"name": "tokenId",
							"type": "uint256"
						}
					],
					"name": "ERC721NonexistentToken",
					"type": "error"
				},
				{
					"anonymous": false,
					"inputs": [
						{
							"indexed": true,
							"internalType": "address",
							"name": "owner",
							"type": "address"
						},
						{
							"indexed": true,
							"internalType": "address",
							"name": "approved",
							"type": "address"
						},
						{
							"indexed": true,
							"internalType": "uint256",
							"name": "tokenId",
							"type": "uint256"
						}
					],
					"name": "Approval",
					"type": "event"
				},
				{
					"anonymous": false,
					"inputs": [
						{
							"indexed": true,
							"internalType": "address",
							"name": "owner",
							"type": "address"
						},
						{
							"indexed": true,
							"internalType": "address",
							"name": "operator",
							"type": "address"
						},
						{
							"indexed": false,
							"internalType": "bool",
							"name": "approved",
							"type": "bool"
						}
					],
					"name": "ApprovalForAll",
					"type": "event"
				},
				{
					"anonymous": false,
					"inputs": [
						{
							"indexed": false,
							"internalType": "uint256",
							"name": "_fromTokenId",
							"type": "uint256"
						},
						{
							"indexed": false,
							"internalType": "uint256",
							"name": "_toTokenId",
							"type": "uint256"
						}
					],
					"name": "BatchMetadataUpdate",
					"type": "event"
				},
				{
					"anonymous": false,
					"inputs": [
						{
							"indexed": false,
							"internalType": "uint256",
							"name": "_tokenId",
							"type": "uint256"
						}
					],
					"name": "MetadataUpdate",
					"type": "event"
				},
				{
					"anonymous": false,
					"inputs": [
						{
							"indexed": true,
							"internalType": "address",
							"name": "from",
							"type": "address"
						},
						{
							"indexed": true,
							"internalType": "address",
							"name": "to",
							"type": "address"
						},
						{
							"indexed": true,
							"internalType": "uint256",
							"name": "tokenId",
							"type": "uint256"
						}
					],
					"name": "Transfer",
					"type": "event"
				},
				{
					"inputs": [
						{
							"internalType": "address",
							"name": "to",
							"type": "address"
						},
						{
							"internalType": "uint256",
							"name": "tokenId",
							"type": "uint256"
						}
					],
					"name": "approve",
					"outputs": [],
					"stateMutability": "nonpayable",
					"type": "function"
				},
				{
					"inputs": [
						{
							"internalType": "address",
							"name": "owner",
							"type": "address"
						}
					],
					"name": "balanceOf",
					"outputs": [
						{
							"internalType": "uint256",
							"name": "",
							"type": "uint256"
						}
					],
					"stateMutability": "view",
					"type": "function"
				},
				{
					"inputs": [
						{
							"internalType": "uint256",
							"name": "tokenId",
							"type": "uint256"
						}
					],
					"name": "burn",
					"outputs": [],
					"stateMutability": "nonpayable",
					"type": "function"
				},
				{
					"inputs": [
						{
							"internalType": "uint256",
							"name": "tokenId",
							"type": "uint256"
						}
					],
					"name": "burnNFT",
					"outputs": [],
					"stateMutability": "nonpayable",
					"type": "function"
				},
				{
					"inputs": [],
					"name": "fixedImageURI",
					"outputs": [
						{
							"internalType": "string",
							"name": "",
							"type": "string"
						}
					],
					"stateMutability": "view",
					"type": "function"
				},
				{
					"inputs": [
						{
							"internalType": "uint256",
							"name": "tokenId",
							"type": "uint256"
						}
					],
					"name": "getApproved",
					"outputs": [
						{
							"internalType": "address",
							"name": "",
							"type": "address"
						}
					],
					"stateMutability": "view",
					"type": "function"
				},
				{
					"inputs": [
						{
							"internalType": "address",
							"name": "owner",
							"type": "address"
						},
						{
							"internalType": "address",
							"name": "operator",
							"type": "address"
						}
					],
					"name": "isApprovedForAll",
					"outputs": [
						{
							"internalType": "bool",
							"name": "",
							"type": "bool"
						}
					],
					"stateMutability": "view",
					"type": "function"
				},
				{
					"inputs": [],
					"name": "mintFee",
					"outputs": [
						{
							"internalType": "uint256",
							"name": "",
							"type": "uint256"
						}
					],
					"stateMutability": "view",
					"type": "function"
				},
				{
					"inputs": [
						{
							"internalType": "address",
							"name": "to",
							"type": "address"
						},
						{
							"internalType": "uint256",
							"name": "tokenId",
							"type": "uint256"
						},
						{
							"internalType": "string",
							"name": "metadata",
							"type": "string"
						}
					],
					"name": "mintNFT",
					"outputs": [],
					"stateMutability": "payable",
					"type": "function"
				},
				{
					"inputs": [],
					"name": "mintTimeout",
					"outputs": [
						{
							"internalType": "uint256",
							"name": "",
							"type": "uint256"
						}
					],
					"stateMutability": "view",
					"type": "function"
				},
				{
					"inputs": [],
					"name": "name",
					"outputs": [
						{
							"internalType": "string",
							"name": "",
							"type": "string"
						}
					],
					"stateMutability": "view",
					"type": "function"
				},
				{
					"inputs": [
						{
							"internalType": "uint256",
							"name": "tokenId",
							"type": "uint256"
						}
					],
					"name": "ownerOf",
					"outputs": [
						{
							"internalType": "address",
							"name": "",
							"type": "address"
						}
					],
					"stateMutability": "view",
					"type": "function"
				},
				{
					"inputs": [
						{
							"internalType": "address",
							"name": "from",
							"type": "address"
						},
						{
							"internalType": "address",
							"name": "to",
							"type": "address"
						},
						{
							"internalType": "uint256",
							"name": "tokenId",
							"type": "uint256"
						}
					],
					"name": "safeTransferFrom",
					"outputs": [],
					"stateMutability": "nonpayable",
					"type": "function"
				},
				{
					"inputs": [
						{
							"internalType": "address",
							"name": "from",
							"type": "address"
						},
						{
							"internalType": "address",
							"name": "to",
							"type": "address"
						},
						{
							"internalType": "uint256",
							"name": "tokenId",
							"type": "uint256"
						},
						{
							"internalType": "bytes",
							"name": "data",
							"type": "bytes"
						}
					],
					"name": "safeTransferFrom",
					"outputs": [],
					"stateMutability": "nonpayable",
					"type": "function"
				},
				{
					"inputs": [
						{
							"internalType": "address",
							"name": "operator",
							"type": "address"
						},
						{
							"internalType": "bool",
							"name": "approved",
							"type": "bool"
						}
					],
					"name": "setApprovalForAll",
					"outputs": [],
					"stateMutability": "nonpayable",
					"type": "function"
				},
				{
					"inputs": [
						{
							"internalType": "string",
							"name": "_newImageURI",
							"type": "string"
						}
					],
					"name": "setFixedImageURI",
					"outputs": [],
					"stateMutability": "nonpayable",
					"type": "function"
				},
				{
					"inputs": [
						{
							"internalType": "uint256",
							"name": "_newMintFee",
							"type": "uint256"
						}
					],
					"name": "setMintFee",
					"outputs": [],
					"stateMutability": "nonpayable",
					"type": "function"
				},
				{
					"inputs": [
						{
							"internalType": "uint256",
							"name": "_newMintTimeout",
							"type": "uint256"
						}
					],
					"name": "setMintTimeout",
					"outputs": [],
					"stateMutability": "nonpayable",
					"type": "function"
				},
				{
					"inputs": [
						{
							"internalType": "bytes4",
							"name": "interfaceId",
							"type": "bytes4"
						}
					],
					"name": "supportsInterface",
					"outputs": [
						{
							"internalType": "bool",
							"name": "",
							"type": "bool"
						}
					],
					"stateMutability": "view",
					"type": "function"
				},
				{
					"inputs": [],
					"name": "symbol",
					"outputs": [
						{
							"internalType": "string",
							"name": "",
							"type": "string"
						}
					],
					"stateMutability": "view",
					"type": "function"
				},
				{
					"inputs": [
						{
							"internalType": "uint256",
							"name": "tokenId",
							"type": "uint256"
						}
					],
					"name": "tokenURI",
					"outputs": [
						{
							"internalType": "string",
							"name": "",
							"type": "string"
						}
					],
					"stateMutability": "view",
					"type": "function"
				},
				{
					"inputs": [
						{
							"internalType": "address",
							"name": "from",
							"type": "address"
						},
						{
							"internalType": "address",
							"name": "to",
							"type": "address"
						},
						{
							"internalType": "uint256",
							"name": "tokenId",
							"type": "uint256"
						}
					],
					"name": "transferFrom",
					"outputs": [],
					"stateMutability": "nonpayable",
					"type": "function"
				}
			],
			"devdoc": {
				"errors": {
					"ERC721IncorrectOwner(address,uint256,address)": [
						{
							"details": "Indicates an error related to the ownership over a particular token. Used in transfers.",
							"params": {
								"owner": "Address of the current owner of a token.",
								"sender": "Address whose tokens are being transferred.",
								"tokenId": "Identifier number of a token."
							}
						}
					],
					"ERC721InsufficientApproval(address,uint256)": [
						{
							"details": "Indicates a failure with the `operator`’s approval. Used in transfers.",
							"params": {
								"operator": "Address that may be allowed to operate on tokens without being their owner.",
								"tokenId": "Identifier number of a token."
							}
						}
					],
					"ERC721InvalidApprover(address)": [
						{
							"details": "Indicates a failure with the `approver` of a token to be approved. Used in approvals.",
							"params": {
								"approver": "Address initiating an approval operation."
							}
						}
					],
					"ERC721InvalidOperator(address)": [
						{
							"details": "Indicates a failure with the `operator` to be approved. Used in approvals.",
							"params": {
								"operator": "Address that may be allowed to operate on tokens without being their owner."
							}
						}
					],
					"ERC721InvalidOwner(address)": [
						{
							"details": "Indicates that an address can't be an owner. For example, `address(0)` is a forbidden owner in EIP-20. Used in balance queries.",
							"params": {
								"owner": "Address of the current owner of a token."
							}
						}
					],
					"ERC721InvalidReceiver(address)": [
						{
							"details": "Indicates a failure with the token `receiver`. Used in transfers.",
							"params": {
								"receiver": "Address to which tokens are being transferred."
							}
						}
					],
					"ERC721InvalidSender(address)": [
						{
							"details": "Indicates a failure with the token `sender`. Used in transfers.",
							"params": {
								"sender": "Address whose tokens are being transferred."
							}
						}
					],
					"ERC721NonexistentToken(uint256)": [
						{
							"details": "Indicates a `tokenId` whose `owner` is the zero address.",
							"params": {
								"tokenId": "Identifier number of a token."
							}
						}
					]
				},
				"events": {
					"Approval(address,address,uint256)": {
						"details": "Emitted when `owner` enables `approved` to manage the `tokenId` token."
					},
					"ApprovalForAll(address,address,bool)": {
						"details": "Emitted when `owner` enables or disables (`approved`) `operator` to manage all of its assets."
					},
					"BatchMetadataUpdate(uint256,uint256)": {
						"details": "This event emits when the metadata of a range of tokens is changed. So that the third-party platforms such as NFT market could timely update the images and related attributes of the NFTs."
					},
					"MetadataUpdate(uint256)": {
						"details": "This event emits when the metadata of a token is changed. So that the third-party platforms such as NFT market could timely update the images and related attributes of the NFT."
					},
					"Transfer(address,address,uint256)": {
						"details": "Emitted when `tokenId` token is transferred from `from` to `to`."
					}
				},
				"kind": "dev",
				"methods": {
					"approve(address,uint256)": {
						"details": "See {IERC721-approve}."
					},
					"balanceOf(address)": {
						"details": "See {IERC721-balanceOf}."
					},
					"burn(uint256)": {
						"details": "Burns `tokenId`. See {ERC721-_burn}. Requirements: - The caller must own `tokenId` or be an approved operator."
					},
					"getApproved(uint256)": {
						"details": "See {IERC721-getApproved}."
					},
					"isApprovedForAll(address,address)": {
						"details": "See {IERC721-isApprovedForAll}."
					},
					"name()": {
						"details": "See {IERC721Metadata-name}."
					},
					"ownerOf(uint256)": {
						"details": "See {IERC721-ownerOf}."
					},
					"safeTransferFrom(address,address,uint256)": {
						"details": "See {IERC721-safeTransferFrom}."
					},
					"safeTransferFrom(address,address,uint256,bytes)": {
						"details": "See {IERC721-safeTransferFrom}."
					},
					"setApprovalForAll(address,bool)": {
						"details": "See {IERC721-setApprovalForAll}."
					},
					"symbol()": {
						"details": "See {IERC721Metadata-symbol}."
					},
					"transferFrom(address,address,uint256)": {
						"details": "See {IERC721-transferFrom}."
					}
				},
				"version": 1
			},
			"evm": {
				"assembly": "    /* \"contracts/MyToken.sol\":329:2534  contract MyToken is ERC721, ERC721URIStorage, ERC721Burnable {... */\n  mstore(0x40, 0x80)\n    /* \"contracts/MyToken.sol\":550:668  string public fixedImageURI = \"https://gateway.pinata.cloud/ipfs/Qmb8hKSKakGqVk7h877xdyzVJhnb6cmzfjpVfS6xCFLqNg/0.jpg\" */\n  mload(0x40)\n  dup1\n  0x80\n  add\n  0x40\n  mstore\n  dup1\n  0x56\n  dup2\n  mstore\n  0x20\n  add\n  data_ae229f18654bdf016b624967129d81cad9998dc1031cb7741cdf9da25185f8f8\n  0x56\n  swap2\n  codecopy\n  0x09\n  swap1\n  dup2\n  tag_1\n  swap2\n  swap1\n  tag_2\n  jump\t// in\ntag_1:\n  pop\n    /* \"contracts/MyToken.sol\":709:849  constructor(uint256 _mintFee, uint256 _mintTimeout)... */\n  callvalue\n  dup1\n  iszero\n  tag_3\n  jumpi\n  0x00\n  dup1\n  revert\ntag_3:\n  pop\n  mload(0x40)\n  sub(codesize, bytecodeSize)\n  dup1\n  bytecodeSize\n  dup4\n  codecopy\n  dup2\n  dup2\n  add\n  0x40\n  mstore\n  dup2\n  add\n  swap1\n  tag_4\n  swap2\n  swap1\n  tag_5\n  jump\t// in\ntag_4:\n    /* \"@openzeppelin/contracts/token/ERC721/ERC721.sol\":1381:1494  constructor(string memory name_, string memory symbol_) {... */\n  mload(0x40)\n  dup1\n  0x40\n  add\n  0x40\n  mstore\n  dup1\n  0x07\n  dup2\n  mstore\n  0x20\n  add\n  0x4d79546f6b656e00000000000000000000000000000000000000000000000000\n  dup2\n  mstore\n  pop\n  mload(0x40)\n  dup1\n  0x40\n  add\n  0x40\n  mstore\n  dup1\n  0x03\n  dup2\n  mstore\n  0x20\n  add\n  0x4d544b0000000000000000000000000000000000000000000000000000000000\n  dup2\n  mstore\n  pop\n    /* \"@openzeppelin/contracts/token/ERC721/ERC721.sol\":1455:1460  name_ */\n  dup2\n    /* \"@openzeppelin/contracts/token/ERC721/ERC721.sol\":1447:1452  _name */\n  0x00\n    /* \"@openzeppelin/contracts/token/ERC721/ERC721.sol\":1447:1460  _name = name_ */\n  swap1\n  dup2\n  tag_9\n  swap2\n  swap1\n  tag_2\n  jump\t// in\ntag_9:\n  pop\n    /* \"@openzeppelin/contracts/token/ERC721/ERC721.sol\":1480:1487  symbol_ */\n  dup1\n    /* \"@openzeppelin/contracts/token/ERC721/ERC721.sol\":1470:1477  _symbol */\n  0x01\n    /* \"@openzeppelin/contracts/token/ERC721/ERC721.sol\":1470:1487  _symbol = symbol_ */\n  swap1\n  dup2\n  tag_10\n  swap2\n  swap1\n  tag_2\n  jump\t// in\ntag_10:\n  pop\n    /* \"@openzeppelin/contracts/token/ERC721/ERC721.sol\":1381:1494  constructor(string memory name_, string memory symbol_) {... */\n  pop\n  pop\n    /* \"contracts/MyToken.sol\":806:814  _mintFee */\n  dup2\n    /* \"contracts/MyToken.sol\":796:803  mintFee */\n  0x07\n    /* \"contracts/MyToken.sol\":796:814  mintFee = _mintFee */\n  dup2\n  swap1\n  sstore\n  pop\n    /* \"contracts/MyToken.sol\":834:846  _mintTimeout */\n  dup1\n    /* \"contracts/MyToken.sol\":820:831  mintTimeout */\n  0x08\n    /* \"contracts/MyToken.sol\":820:846  mintTimeout = _mintTimeout */\n  dup2\n  swap1\n  sstore\n  pop\n    /* \"contracts/MyToken.sol\":709:849  constructor(uint256 _mintFee, uint256 _mintTimeout)... */\n  pop\n  pop\n    /* \"contracts/MyToken.sol\":329:2534  contract MyToken is ERC721, ERC721URIStorage, ERC721Burnable {... */\n  jump(tag_12)\n    /* \"#utility.yul\":7:106   */\ntag_13:\n    /* \"#utility.yul\":59:65   */\n  0x00\n    /* \"#utility.yul\":93:98   */\n  dup2\n    /* \"#utility.yul\":87:99   */\n  mload\n    /* \"#utility.yul\":77:99   */\n  swap1\n  pop\n    /* \"#utility.yul\":7:106   */\n  swap2\n  swap1\n  pop\n  jump\t// out\n    /* \"#utility.yul\":112:292   */\ntag_14:\n    /* \"#utility.yul\":160:237   */\n  0x4e487b7100000000000000000000000000000000000000000000000000000000\n    /* \"#utility.yul\":157:158   */\n  0x00\n    /* \"#utility.yul\":150:238   */\n  mstore\n    /* \"#utility.yul\":257:261   */\n  0x41\n    /* \"#utility.yul\":254:255   */\n  0x04\n    /* \"#utility.yul\":247:262   */\n  mstore\n    /* \"#utility.yul\":281:285   */\n  0x24\n    /* \"#utility.yul\":278:279   */\n  0x00\n    /* \"#utility.yul\":271:286   */\n  revert\n    /* \"#utility.yul\":298:478   */\ntag_15:\n    /* \"#utility.yul\":346:423   */\n  0x4e487b7100000000000000000000000000000000000000000000000000000000\n    /* \"#utility.yul\":343:344   */\n  0x00\n    /* \"#utility.yul\":336:424   */\n  mstore\n    /* \"#utility.yul\":443:447   */\n  0x22\n    /* \"#utility.yul\":440:441   */\n  0x04\n    /* \"#utility.yul\":433:448   */\n  mstore\n    /* \"#utility.yul\":467:471   */\n  0x24\n    /* \"#utility.yul\":464:465   */\n  0x00\n    /* \"#utility.yul\":457:472   */\n  revert\n    /* \"#utility.yul\":484:804   */\ntag_16:\n    /* \"#utility.yul\":528:534   */\n  0x00\n    /* \"#utility.yul\":565:566   */\n  0x02\n    /* \"#utility.yul\":559:563   */\n  dup3\n    /* \"#utility.yul\":555:567   */\n  div\n    /* \"#utility.yul\":545:567   */\n  swap1\n  pop\n    /* \"#utility.yul\":612:613   */\n  0x01\n    /* \"#utility.yul\":606:610   */\n  dup3\n    /* \"#utility.yul\":602:614   */\n  and\n    /* \"#utility.yul\":633:651   */\n  dup1\n    /* \"#utility.yul\":623:704   */\n  tag_43\n  jumpi\n    /* \"#utility.yul\":689:693   */\n  0x7f\n    /* \"#utility.yul\":681:687   */\n  dup3\n    /* \"#utility.yul\":677:694   */\n  and\n    /* \"#utility.yul\":667:694   */\n  swap2\n  pop\n    /* \"#utility.yul\":623:704   */\ntag_43:\n    /* \"#utility.yul\":751:753   */\n  0x20\n    /* \"#utility.yul\":743:749   */\n  dup3\n    /* \"#utility.yul\":740:754   */\n  lt\n    /* \"#utility.yul\":720:738   */\n  dup2\n    /* \"#utility.yul\":717:755   */\n  sub\n    /* \"#utility.yul\":714:798   */\n  tag_44\n  jumpi\n    /* \"#utility.yul\":770:788   */\n  tag_45\n  tag_15\n  jump\t// in\ntag_45:\n    /* \"#utility.yul\":714:798   */\ntag_44:\n    /* \"#utility.yul\":535:804   */\n  pop\n    /* \"#utility.yul\":484:804   */\n  swap2\n  swap1\n  pop\n  jump\t// out\n    /* \"#utility.yul\":810:951   */\ntag_17:\n    /* \"#utility.yul\":859:863   */\n  0x00\n    /* \"#utility.yul\":882:885   */\n  dup2\n    /* \"#utility.yul\":874:885   */\n  swap1\n  pop\n    /* \"#utility.yul\":905:908   */\n  dup2\n    /* \"#utility.yul\":902:903   */\n  0x00\n    /* \"#utility.yul\":895:909   */\n  mstore\n    /* \"#utility.yul\":939:943   */\n  0x20\n    /* \"#utility.yul\":936:937   */\n  0x00\n    /* \"#utility.yul\":926:944   */\n  keccak256\n    /* \"#utility.yul\":918:944   */\n  swap1\n  pop\n    /* \"#utility.yul\":810:951   */\n  swap2\n  swap1\n  pop\n  jump\t// out\n    /* \"#utility.yul\":957:1050   */\ntag_18:\n    /* \"#utility.yul\":994:1000   */\n  0x00\n    /* \"#utility.yul\":1041:1043   */\n  0x20\n    /* \"#utility.yul\":1036:1038   */\n  0x1f\n    /* \"#utility.yul\":1029:1034   */\n  dup4\n    /* \"#utility.yul\":1025:1039   */\n  add\n    /* \"#utility.yul\":1021:1044   */\n  div\n    /* \"#utility.yul\":1011:1044   */\n  swap1\n  pop\n    /* \"#utility.yul\":957:1050   */\n  swap2\n  swap1\n  pop\n  jump\t// out\n    /* \"#utility.yul\":1056:1163   */\ntag_19:\n    /* \"#utility.yul\":1100:1108   */\n  0x00\n    /* \"#utility.yul\":1150:1155   */\n  dup3\n    /* \"#utility.yul\":1144:1148   */\n  dup3\n    /* \"#utility.yul\":1140:1156   */\n  shl\n    /* \"#utility.yul\":1119:1156   */\n  swap1\n  pop\n    /* \"#utility.yul\":1056:1163   */\n  swap3\n  swap2\n  pop\n  pop\n  jump\t// out\n    /* \"#utility.yul\":1169:1562   */\ntag_20:\n    /* \"#utility.yul\":1238:1244   */\n  0x00\n    /* \"#utility.yul\":1288:1289   */\n  0x08\n    /* \"#utility.yul\":1276:1286   */\n  dup4\n    /* \"#utility.yul\":1272:1290   */\n  mul\n    /* \"#utility.yul\":1311:1408   */\n  tag_50\n    /* \"#utility.yul\":1341:1407   */\n  0xffffffffffffffffffffffffffffffffffffffffffffffffffffffffffffffff\n    /* \"#utility.yul\":1330:1339   */\n  dup3\n    /* \"#utility.yul\":1311:1408   */\n  tag_19\n  jump\t// in\ntag_50:\n    /* \"#utility.yul\":1429:1468   */\n  tag_51\n    /* \"#utility.yul\":1459:1467   */\n  dup7\n    /* \"#utility.yul\":1448:1457   */\n  dup4\n    /* \"#utility.yul\":1429:1468   */\n  tag_19\n  jump\t// in\ntag_51:\n    /* \"#utility.yul\":1417:1468   */\n  swap6\n  pop\n    /* \"#utility.yul\":1501:1505   */\n  dup1\n    /* \"#utility.yul\":1497:1506   */\n  not\n    /* \"#utility.yul\":1490:1495   */\n  dup5\n    /* \"#utility.yul\":1486:1507   */\n  and\n    /* \"#utility.yul\":1477:1507   */\n  swap4\n  pop\n    /* \"#utility.yul\":1550:1554   */\n  dup1\n    /* \"#utility.yul\":1540:1548   */\n  dup7\n    /* \"#utility.yul\":1536:1555   */\n  and\n    /* \"#utility.yul\":1529:1534   */\n  dup5\n    /* \"#utility.yul\":1526:1556   */\n  or\n    /* \"#utility.yul\":1516:1556   */\n  swap3\n  pop\n    /* \"#utility.yul\":1245:1562   */\n  pop\n  pop\n    /* \"#utility.yul\":1169:1562   */\n  swap4\n  swap3\n  pop\n  pop\n  pop\n  jump\t// out\n    /* \"#utility.yul\":1568:1645   */\ntag_21:\n    /* \"#utility.yul\":1605:1612   */\n  0x00\n    /* \"#utility.yul\":1634:1639   */\n  dup2\n    /* \"#utility.yul\":1623:1639   */\n  swap1\n  pop\n    /* \"#utility.yul\":1568:1645   */\n  swap2\n  swap1\n  pop\n  jump\t// out\n    /* \"#utility.yul\":1651:1711   */\ntag_22:\n    /* \"#utility.yul\":1679:1682   */\n  0x00\n    /* \"#utility.yul\":1700:1705   */\n  dup2\n    /* \"#utility.yul\":1693:1705   */\n  swap1\n  pop\n    /* \"#utility.yul\":1651:1711   */\n  swap2\n  swap1\n  pop\n  jump\t// out\n    /* \"#utility.yul\":1717:1859   */\ntag_23:\n    /* \"#utility.yul\":1767:1776   */\n  0x00\n    /* \"#utility.yul\":1800:1853   */\n  tag_55\n    /* \"#utility.yul\":1818:1852   */\n  tag_56\n    /* \"#utility.yul\":1827:1851   */\n  tag_57\n    /* \"#utility.yul\":1845:1850   */\n  dup5\n    /* \"#utility.yul\":1827:1851   */\n  tag_21\n  jump\t// in\ntag_57:\n    /* \"#utility.yul\":1818:1852   */\n  tag_22\n  jump\t// in\ntag_56:\n    /* \"#utility.yul\":1800:1853   */\n  tag_21\n  jump\t// in\ntag_55:\n    /* \"#utility.yul\":1787:1853   */\n  swap1\n  pop\n    /* \"#utility.yul\":1717:1859   */\n  swap2\n  swap1\n  pop\n  jump\t// out\n    /* \"#utility.yul\":1865:1940   */\ntag_24:\n    /* \"#utility.yul\":1908:1911   */\n  0x00\n    /* \"#utility.yul\":1929:1934   */\n  dup2\n    /* \"#utility.yul\":1922:1934   */\n  swap1\n  pop\n    /* \"#utility.yul\":1865:1940   */\n  swap2\n  swap1\n  pop\n  jump\t// out\n    /* \"#utility.yul\":1946:2215   */\ntag_25:\n    /* \"#utility.yul\":2056:2095   */\n  tag_60\n    /* \"#utility.yul\":2087:2094   */\n  dup4\n    /* \"#utility.yul\":2056:2095   */\n  tag_23\n  jump\t// in\ntag_60:\n    /* \"#utility.yul\":2117:2208   */\n  tag_61\n    /* \"#utility.yul\":2166:2207   */\n  tag_62\n    /* \"#utility.yul\":2190:2206   */\n  dup3\n    /* \"#utility.yul\":2166:2207   */\n  tag_24\n  jump\t// in\ntag_62:\n    /* \"#utility.yul\":2158:2164   */\n  dup5\n    /* \"#utility.yul\":2151:2155   */\n  dup5\n    /* \"#utility.yul\":2145:2156   */\n  sload\n    /* \"#utility.yul\":2117:2208   */\n  tag_20\n  jump\t// in\ntag_61:\n    /* \"#utility.yul\":2111:2115   */\n  dup3\n    /* \"#utility.yul\":2104:2209   */\n  sstore\n    /* \"#utility.yul\":2022:2215   */\n  pop\n    /* \"#utility.yul\":1946:2215   */\n  pop\n  pop\n  pop\n  jump\t// out\n    /* \"#utility.yul\":2221:2294   */\ntag_26:\n    /* \"#utility.yul\":2266:2269   */\n  0x00\n    /* \"#utility.yul\":2221:2294   */\n  swap1\n  jump\t// out\n    /* \"#utility.yul\":2300:2489   */\ntag_27:\n    /* \"#utility.yul\":2377:2409   */\n  tag_65\n  tag_26\n  jump\t// in\ntag_65:\n    /* \"#utility.yul\":2418:2483   */\n  tag_66\n    /* \"#utility.yul\":2476:2482   */\n  dup2\n    /* \"#utility.yul\":2468:2474   */\n  dup5\n    /* \"#utility.yul\":2462:2466   */\n  dup5\n    /* \"#utility.yul\":2418:2483   */\n  tag_25\n  jump\t// in\ntag_66:\n    /* \"#utility.yul\":2353:2489   */\n  pop\n    /* \"#utility.yul\":2300:2489   */\n  pop\n  pop\n  jump\t// out\n    /* \"#utility.yul\":2495:2681   */\ntag_28:\n    /* \"#utility.yul\":2555:2675   */\ntag_68:\n    /* \"#utility.yul\":2572:2575   */\n  dup2\n    /* \"#utility.yul\":2565:2570   */\n  dup2\n    /* \"#utility.yul\":2562:2576   */\n  lt\n    /* \"#utility.yul\":2555:2675   */\n  iszero\n  tag_70\n  jumpi\n    /* \"#utility.yul\":2626:2665   */\n  tag_71\n    /* \"#utility.yul\":2663:2664   */\n  0x00\n    /* \"#utility.yul\":2656:2661   */\n  dup3\n    /* \"#utility.yul\":2626:2665   */\n  tag_27\n  jump\t// in\ntag_71:\n    /* \"#utility.yul\":2599:2600   */\n  0x01\n    /* \"#utility.yul\":2592:2597   */\n  dup2\n    /* \"#utility.yul\":2588:2601   */\n  add\n    /* \"#utility.yul\":2579:2601   */\n  swap1\n  pop\n    /* \"#utility.yul\":2555:2675   */\n  jump(tag_68)\ntag_70:\n    /* \"#utility.yul\":2495:2681   */\n  pop\n  pop\n  jump\t// out\n    /* \"#utility.yul\":2687:3230   */\ntag_29:\n    /* \"#utility.yul\":2788:2790   */\n  0x1f\n    /* \"#utility.yul\":2783:2786   */\n  dup3\n    /* \"#utility.yul\":2780:2791   */\n  gt\n    /* \"#utility.yul\":2777:3223   */\n  iszero\n  tag_73\n  jumpi\n    /* \"#utility.yul\":2822:2860   */\n  tag_74\n    /* \"#utility.yul\":2854:2859   */\n  dup2\n    /* \"#utility.yul\":2822:2860   */\n  tag_17\n  jump\t// in\ntag_74:\n    /* \"#utility.yul\":2906:2935   */\n  tag_75\n    /* \"#utility.yul\":2924:2934   */\n  dup5\n    /* \"#utility.yul\":2906:2935   */\n  tag_18\n  jump\t// in\ntag_75:\n    /* \"#utility.yul\":2896:2904   */\n  dup2\n    /* \"#utility.yul\":2892:2936   */\n  add\n    /* \"#utility.yul\":3089:3091   */\n  0x20\n    /* \"#utility.yul\":3077:3087   */\n  dup6\n    /* \"#utility.yul\":3074:3092   */\n  lt\n    /* \"#utility.yul\":3071:3120   */\n  iszero\n  tag_76\n  jumpi\n    /* \"#utility.yul\":3110:3118   */\n  dup2\n    /* \"#utility.yul\":3095:3118   */\n  swap1\n  pop\n    /* \"#utility.yul\":3071:3120   */\ntag_76:\n    /* \"#utility.yul\":3133:3213   */\n  tag_77\n    /* \"#utility.yul\":3189:3211   */\n  tag_78\n    /* \"#utility.yul\":3207:3210   */\n  dup6\n    /* \"#utility.yul\":3189:3211   */\n  tag_18\n  jump\t// in\ntag_78:\n    /* \"#utility.yul\":3179:3187   */\n  dup4\n    /* \"#utility.yul\":3175:3212   */\n  add\n    /* \"#utility.yul\":3162:3173   */\n  dup3\n    /* \"#utility.yul\":3133:3213   */\n  tag_28\n  jump\t// in\ntag_77:\n    /* \"#utility.yul\":2792:3223   */\n  pop\n  pop\n    /* \"#utility.yul\":2777:3223   */\ntag_73:\n    /* \"#utility.yul\":2687:3230   */\n  pop\n  pop\n  pop\n  jump\t// out\n    /* \"#utility.yul\":3236:3353   */\ntag_30:\n    /* \"#utility.yul\":3290:3298   */\n  0x00\n    /* \"#utility.yul\":3340:3345   */\n  dup3\n    /* \"#utility.yul\":3334:3338   */\n  dup3\n    /* \"#utility.yul\":3330:3346   */\n  shr\n    /* \"#utility.yul\":3309:3346   */\n  swap1\n  pop\n    /* \"#utility.yul\":3236:3353   */\n  swap3\n  swap2\n  pop\n  pop\n  jump\t// out\n    /* \"#utility.yul\":3359:3528   */\ntag_31:\n    /* \"#utility.yul\":3403:3409   */\n  0x00\n    /* \"#utility.yul\":3436:3487   */\n  tag_81\n    /* \"#utility.yul\":3484:3485   */\n  0x00\n    /* \"#utility.yul\":3480:3486   */\n  not\n    /* \"#utility.yul\":3472:3477   */\n  dup5\n    /* \"#utility.yul\":3469:3470   */\n  0x08\n    /* \"#utility.yul\":3465:3478   */\n  mul\n    /* \"#utility.yul\":3436:3487   */\n  tag_30\n  jump\t// in\ntag_81:\n    /* \"#utility.yul\":3432:3488   */\n  not\n    /* \"#utility.yul\":3517:3521   */\n  dup1\n    /* \"#utility.yul\":3511:3515   */\n  dup4\n    /* \"#utility.yul\":3507:3522   */\n  and\n    /* \"#utility.yul\":3497:3522   */\n  swap2\n  pop\n    /* \"#utility.yul\":3410:3528   */\n  pop\n    /* \"#utility.yul\":3359:3528   */\n  swap3\n  swap2\n  pop\n  pop\n  jump\t// out\n    /* \"#utility.yul\":3533:3828   */\ntag_32:\n    /* \"#utility.yul\":3609:3613   */\n  0x00\n    /* \"#utility.yul\":3755:3784   */\n  tag_83\n    /* \"#utility.yul\":3780:3783   */\n  dup4\n    /* \"#utility.yul\":3774:3778   */\n  dup4\n    /* \"#utility.yul\":3755:3784   */\n  tag_31\n  jump\t// in\ntag_83:\n    /* \"#utility.yul\":3747:3784   */\n  swap2\n  pop\n    /* \"#utility.yul\":3817:3820   */\n  dup3\n    /* \"#utility.yul\":3814:3815   */\n  0x02\n    /* \"#utility.yul\":3810:3821   */\n  mul\n    /* \"#utility.yul\":3804:3808   */\n  dup3\n    /* \"#utility.yul\":3801:3822   */\n  or\n    /* \"#utility.yul\":3793:3822   */\n  swap1\n  pop\n    /* \"#utility.yul\":3533:3828   */\n  swap3\n  swap2\n  pop\n  pop\n  jump\t// out\n    /* \"#utility.yul\":3833:5228   */\ntag_2:\n    /* \"#utility.yul\":3950:3987   */\n  tag_85\n    /* \"#utility.yul\":3983:3986   */\n  dup3\n    /* \"#utility.yul\":3950:3987   */\n  tag_13\n  jump\t// in\ntag_85:\n    /* \"#utility.yul\":4052:4070   */\n  0xffffffffffffffff\n    /* \"#utility.yul\":4044:4050   */\n  dup2\n    /* \"#utility.yul\":4041:4071   */\n  gt\n    /* \"#utility.yul\":4038:4094   */\n  iszero\n  tag_86\n  jumpi\n    /* \"#utility.yul\":4074:4092   */\n  tag_87\n  tag_14\n  jump\t// in\ntag_87:\n    /* \"#utility.yul\":4038:4094   */\ntag_86:\n    /* \"#utility.yul\":4118:4156   */\n  tag_88\n    /* \"#utility.yul\":4150:4154   */\n  dup3\n    /* \"#utility.yul\":4144:4155   */\n  sload\n    /* \"#utility.yul\":4118:4156   */\n  tag_16\n  jump\t// in\ntag_88:\n    /* \"#utility.yul\":4203:4270   */\n  tag_89\n    /* \"#utility.yul\":4263:4269   */\n  dup3\n    /* \"#utility.yul\":4255:4261   */\n  dup3\n    /* \"#utility.yul\":4249:4253   */\n  dup6\n    /* \"#utility.yul\":4203:4270   */\n  tag_29\n  jump\t// in\ntag_89:\n    /* \"#utility.yul\":4297:4298   */\n  0x00\n    /* \"#utility.yul\":4321:4325   */\n  0x20\n    /* \"#utility.yul\":4308:4325   */\n  swap1\n  pop\n    /* \"#utility.yul\":4353:4355   */\n  0x1f\n    /* \"#utility.yul\":4345:4351   */\n  dup4\n    /* \"#utility.yul\":4342:4356   */\n  gt\n    /* \"#utility.yul\":4370:4371   */\n  0x01\n    /* \"#utility.yul\":4365:4983   */\n  dup2\n  eq\n  tag_91\n  jumpi\n    /* \"#utility.yul\":5027:5028   */\n  0x00\n    /* \"#utility.yul\":5044:5050   */\n  dup5\n    /* \"#utility.yul\":5041:5118   */\n  iszero\n  tag_92\n  jumpi\n    /* \"#utility.yul\":5093:5102   */\n  dup3\n    /* \"#utility.yul\":5088:5091   */\n  dup8\n    /* \"#utility.yul\":5084:5103   */\n  add\n    /* \"#utility.yul\":5078:5104   */\n  mload\n    /* \"#utility.yul\":5069:5104   */\n  swap1\n  pop\n    /* \"#utility.yul\":5041:5118   */\ntag_92:\n    /* \"#utility.yul\":5144:5211   */\n  tag_93\n    /* \"#utility.yul\":5204:5210   */\n  dup6\n    /* \"#utility.yul\":5197:5202   */\n  dup3\n    /* \"#utility.yul\":5144:5211   */\n  tag_32\n  jump\t// in\ntag_93:\n    /* \"#utility.yul\":5138:5142   */\n  dup7\n    /* \"#utility.yul\":5131:5212   */\n  sstore\n    /* \"#utility.yul\":5000:5222   */\n  pop\n    /* \"#utility.yul\":4335:5222   */\n  jump(tag_90)\n    /* \"#utility.yul\":4365:4983   */\ntag_91:\n    /* \"#utility.yul\":4417:4421   */\n  0x1f\n    /* \"#utility.yul\":4413:4422   */\n  not\n    /* \"#utility.yul\":4405:4411   */\n  dup5\n    /* \"#utility.yul\":4401:4423   */\n  and\n    /* \"#utility.yul\":4451:4488   */\n  tag_94\n    /* \"#utility.yul\":4483:4487   */\n  dup7\n    /* \"#utility.yul\":4451:4488   */\n  tag_17\n  jump\t// in\ntag_94:\n    /* \"#utility.yul\":4510:4511   */\n  0x00\n    /* \"#utility.yul\":4524:4732   */\ntag_95:\n    /* \"#utility.yul\":4538:4545   */\n  dup3\n    /* \"#utility.yul\":4535:4536   */\n  dup2\n    /* \"#utility.yul\":4532:4546   */\n  lt\n    /* \"#utility.yul\":4524:4732   */\n  iszero\n  tag_97\n  jumpi\n    /* \"#utility.yul\":4617:4626   */\n  dup5\n    /* \"#utility.yul\":4612:4615   */\n  dup10\n    /* \"#utility.yul\":4608:4627   */\n  add\n    /* \"#utility.yul\":4602:4628   */\n  mload\n    /* \"#utility.yul\":4594:4600   */\n  dup3\n    /* \"#utility.yul\":4587:4629   */\n  sstore\n    /* \"#utility.yul\":4668:4669   */\n  0x01\n    /* \"#utility.yul\":4660:4666   */\n  dup3\n    /* \"#utility.yul\":4656:4670   */\n  add\n    /* \"#utility.yul\":4646:4670   */\n  swap2\n  pop\n    /* \"#utility.yul\":4715:4717   */\n  0x20\n    /* \"#utility.yul\":4704:4713   */\n  dup6\n    /* \"#utility.yul\":4700:4718   */\n  add\n    /* \"#utility.yul\":4687:4718   */\n  swap5\n  pop\n    /* \"#utility.yul\":4561:4565   */\n  0x20\n    /* \"#utility.yul\":4558:4559   */\n  dup2\n    /* \"#utility.yul\":4554:4566   */\n  add\n    /* \"#utility.yul\":4549:4566   */\n  swap1\n  pop\n    /* \"#utility.yul\":4524:4732   */\n  jump(tag_95)\ntag_97:\n    /* \"#utility.yul\":4760:4766   */\n  dup7\n    /* \"#utility.yul\":4751:4758   */\n  dup4\n    /* \"#utility.yul\":4748:4767   */\n  lt\n    /* \"#utility.yul\":4745:4924   */\n  iszero\n  tag_98\n  jumpi\n    /* \"#utility.yul\":4818:4827   */\n  dup5\n    /* \"#utility.yul\":4813:4816   */\n  dup10\n    /* \"#utility.yul\":4809:4828   */\n  add\n    /* \"#utility.yul\":4803:4829   */\n  mload\n    /* \"#utility.yul\":4861:4909   */\n  tag_99\n    /* \"#utility.yul\":4903:4907   */\n  0x1f\n    /* \"#utility.yul\":4895:4901   */\n  dup10\n    /* \"#utility.yul\":4891:4908   */\n  and\n    /* \"#utility.yul\":4880:4889   */\n  dup3\n    /* \"#utility.yul\":4861:4909   */\n  tag_31\n  jump\t// in\ntag_99:\n    /* \"#utility.yul\":4853:4859   */\n  dup4\n    /* \"#utility.yul\":4846:4910   */\n  sstore\n    /* \"#utility.yul\":4768:4924   */\n  pop\n    /* \"#utility.yul\":4745:4924   */\ntag_98:\n    /* \"#utility.yul\":4970:4971   */\n  0x01\n    /* \"#utility.yul\":4966:4967   */\n  0x02\n    /* \"#utility.yul\":4958:4964   */\n  dup9\n    /* \"#utility.yul\":4954:4968   */\n  mul\n    /* \"#utility.yul\":4950:4972   */\n  add\n    /* \"#utility.yul\":4944:4948   */\n  dup9\n    /* \"#utility.yul\":4937:4973   */\n  sstore\n    /* \"#utility.yul\":4372:4983   */\n  pop\n  pop\n  pop\n    /* \"#utility.yul\":4335:5222   */\ntag_90:\n  pop\n    /* \"#utility.yul\":3925:5228   */\n  pop\n  pop\n  pop\n    /* \"#utility.yul\":3833:5228   */\n  pop\n  pop\n  jump\t// out\n    /* \"#utility.yul\":5315:5432   */\ntag_34:\n    /* \"#utility.yul\":5424:5425   */\n  0x00\n    /* \"#utility.yul\":5421:5422   */\n  dup1\n    /* \"#utility.yul\":5414:5426   */\n  revert\n    /* \"#utility.yul\":5561:5683   */\ntag_36:\n    /* \"#utility.yul\":5634:5658   */\n  tag_104\n    /* \"#utility.yul\":5652:5657   */\n  dup2\n    /* \"#utility.yul\":5634:5658   */\n  tag_21\n  jump\t// in\ntag_104:\n    /* \"#utility.yul\":5627:5632   */\n  dup2\n    /* \"#utility.yul\":5624:5659   */\n  eq\n    /* \"#utility.yul\":5614:5677   */\n  tag_105\n  jumpi\n    /* \"#utility.yul\":5673:5674   */\n  0x00\n    /* \"#utility.yul\":5670:5671   */\n  dup1\n    /* \"#utility.yul\":5663:5675   */\n  revert\n    /* \"#utility.yul\":5614:5677   */\ntag_105:\n    /* \"#utility.yul\":5561:5683   */\n  pop\n  jump\t// out\n    /* \"#utility.yul\":5689:5832   */\ntag_37:\n    /* \"#utility.yul\":5746:5751   */\n  0x00\n    /* \"#utility.yul\":5777:5783   */\n  dup2\n    /* \"#utility.yul\":5771:5784   */\n  mload\n    /* \"#utility.yul\":5762:5784   */\n  swap1\n  pop\n    /* \"#utility.yul\":5793:5826   */\n  tag_107\n    /* \"#utility.yul\":5820:5825   */\n  dup2\n    /* \"#utility.yul\":5793:5826   */\n  tag_36\n  jump\t// in\ntag_107:\n    /* \"#utility.yul\":5689:5832   */\n  swap3\n  swap2\n  pop\n  pop\n  jump\t// out\n    /* \"#utility.yul\":5838:6345   */\ntag_5:\n    /* \"#utility.yul\":5917:5923   */\n  0x00\n    /* \"#utility.yul\":5925:5931   */\n  dup1\n    /* \"#utility.yul\":5974:5976   */\n  0x40\n    /* \"#utility.yul\":5962:5971   */\n  dup4\n    /* \"#utility.yul\":5953:5960   */\n  dup6\n    /* \"#utility.yul\":5949:5972   */\n  sub\n    /* \"#utility.yul\":5945:5977   */\n  slt\n    /* \"#utility.yul\":5942:6061   */\n  iszero\n  tag_109\n  jumpi\n    /* \"#utility.yul\":5980:6059   */\n  tag_110\n  tag_34\n  jump\t// in\ntag_110:\n    /* \"#utility.yul\":5942:6061   */\ntag_109:\n    /* \"#utility.yul\":6100:6101   */\n  0x00\n    /* \"#utility.yul\":6125:6189   */\n  tag_111\n    /* \"#utility.yul\":6181:6188   */\n  dup6\n    /* \"#utility.yul\":6172:6178   */\n  dup3\n    /* \"#utility.yul\":6161:6170   */\n  dup7\n    /* \"#utility.yul\":6157:6179   */\n  add\n    /* \"#utility.yul\":6125:6189   */\n  tag_37\n  jump\t// in\ntag_111:\n    /* \"#utility.yul\":6115:6189   */\n  swap3\n  pop\n    /* \"#utility.yul\":6071:6199   */\n  pop\n    /* \"#utility.yul\":6238:6240   */\n  0x20\n    /* \"#utility.yul\":6264:6328   */\n  tag_112\n    /* \"#utility.yul\":6320:6327   */\n  dup6\n    /* \"#utility.yul\":6311:6317   */\n  dup3\n    /* \"#utility.yul\":6300:6309   */\n  dup7\n    /* \"#utility.yul\":6296:6318   */\n  add\n    /* \"#utility.yul\":6264:6328   */\n  tag_37\n  jump\t// in\ntag_112:\n    /* \"#utility.yul\":6254:6328   */\n  swap2\n  pop\n    /* \"#utility.yul\":6209:6338   */\n  pop\n    /* \"#utility.yul\":5838:6345   */\n  swap3\n  pop\n  swap3\n  swap1\n  pop\n  jump\t// out\n    /* \"contracts/MyToken.sol\":329:2534  contract MyToken is ERC721, ERC721URIStorage, ERC721Burnable {... */\ntag_12:\n  dataSize(sub_0)\n  dup1\n  dataOffset(sub_0)\n  0x00\n  codecopy\n  0x00\n  return\nstop\ndata_ae229f18654bdf016b624967129d81cad9998dc1031cb7741cdf9da25185f8f8 68747470733a2f2f676174657761792e70696e6174612e636c6f75642f697066732f516d6238684b534b616b4771566b37683837377864797a564a686e6236636d7a666a70566653367843464c714e672f302e6a7067\n\nsub_0: assembly {\n        /* \"contracts/MyToken.sol\":329:2534  contract MyToken is ERC721, ERC721URIStorage, ERC721Burnable {... */\n      mstore(0x40, 0x80)\n      jumpi(tag_1, lt(calldatasize, 0x04))\n      shr(0xe0, calldataload(0x00))\n      dup1\n      0x474ebdea\n      gt\n      tag_24\n      jumpi\n      dup1\n      0x994dddcd\n      gt\n      tag_25\n      jumpi\n      dup1\n      0x994dddcd\n      eq\n      tag_18\n      jumpi\n      dup1\n      0xa22cb465\n      eq\n      tag_19\n      jumpi\n      dup1\n      0xb88d4fde\n      eq\n      tag_20\n      jumpi\n      dup1\n      0xc87b56dd\n      eq\n      tag_21\n      jumpi\n      dup1\n      0xe985e9c5\n      eq\n      tag_22\n      jumpi\n      dup1\n      0xeddd0d9c\n      eq\n      tag_23\n      jumpi\n      jump(tag_1)\n    tag_25:\n      dup1\n      0x474ebdea\n      eq\n      tag_13\n      jumpi\n      dup1\n      0x6352211e\n      eq\n      tag_14\n      jumpi\n      dup1\n      0x65870789\n      eq\n      tag_15\n      jumpi\n      dup1\n      0x70a08231\n      eq\n      tag_16\n      jumpi\n      dup1\n      0x95d89b41\n      eq\n      tag_17\n      jumpi\n      jump(tag_1)\n    tag_24:\n      dup1\n      0x1e576912\n      gt\n      tag_26\n      jumpi\n      dup1\n      0x1e576912\n      eq\n      tag_7\n      jumpi\n      dup1\n      0x23b872dd\n      eq\n      tag_8\n      jumpi\n      dup1\n      0x2890e0d7\n      eq\n      tag_9\n      jumpi\n      dup1\n      0x30959643\n      eq\n      tag_10\n      jumpi\n      dup1\n      0x42842e0e\n      eq\n      tag_11\n      jumpi\n      dup1\n      0x42966c68\n      eq\n      tag_12\n      jumpi\n      jump(tag_1)\n    tag_26:\n      dup1\n      0x01ffc9a7\n      eq\n      tag_2\n      jumpi\n      dup1\n      0x06fdde03\n      eq\n      tag_3\n      jumpi\n      dup1\n      0x081812fc\n      eq\n      tag_4\n      jumpi\n      dup1\n      0x095ea7b3\n      eq\n      tag_5\n      jumpi\n      dup1\n      0x13966db5\n      eq\n      tag_6\n      jumpi\n    tag_1:\n      0x00\n      dup1\n      revert\n        /* \"contracts/MyToken.sol\":2238:2443  function supportsInterface(bytes4 interfaceId)... */\n    tag_2:\n      callvalue\n      dup1\n      iszero\n      tag_27\n      jumpi\n      0x00\n      dup1\n      revert\n    tag_27:\n      pop\n      tag_28\n      0x04\n      dup1\n      calldatasize\n      sub\n      dup2\n      add\n      swap1\n      tag_29\n      swap2\n      swap1\n      tag_30\n      jump\t// in\n    tag_29:\n      tag_31\n      jump\t// in\n    tag_28:\n      mload(0x40)\n      tag_32\n      swap2\n      swap1\n      tag_33\n      jump\t// in\n    tag_32:\n      mload(0x40)\n      dup1\n      swap2\n      sub\n      swap1\n      return\n        /* \"@openzeppelin/contracts/token/ERC721/ERC721.sol\":2365:2454  function name() public view virtual returns (string memory) {... */\n    tag_3:\n      callvalue\n      dup1\n      iszero\n      tag_34\n      jumpi\n      0x00\n      dup1\n      revert\n    tag_34:\n      pop\n      tag_35\n      tag_36\n      jump\t// in\n    tag_35:\n      mload(0x40)\n      tag_37\n      swap2\n      swap1\n      tag_38\n      jump\t// in\n    tag_37:\n      mload(0x40)\n      dup1\n      swap2\n      sub\n      swap1\n      return\n        /* \"@openzeppelin/contracts/token/ERC721/ERC721.sol\":3497:3651  function getApproved(uint256 tokenId) public view virtual returns (address) {... */\n    tag_4:\n      callvalue\n      dup1\n      iszero\n      tag_39\n      jumpi\n      0x00\n      dup1\n      revert\n    tag_39:\n      pop\n      tag_40\n      0x04\n      dup1\n      calldatasize\n      sub\n      dup2\n      add\n      swap1\n      tag_41\n      swap2\n      swap1\n      tag_42\n      jump\t// in\n    tag_41:\n      tag_43\n      jump\t// in\n    tag_40:\n      mload(0x40)\n      tag_44\n      swap2\n      swap1\n      tag_45\n      jump\t// in\n    tag_44:\n      mload(0x40)\n      dup1\n      swap2\n      sub\n      swap1\n      return\n        /* \"@openzeppelin/contracts/token/ERC721/ERC721.sol\":3323:3436  function approve(address to, uint256 tokenId) public virtual {... */\n    tag_5:\n      callvalue\n      dup1\n      iszero\n      tag_46\n      jumpi\n      0x00\n      dup1\n      revert\n    tag_46:\n      pop\n      tag_47\n      0x04\n      dup1\n      calldatasize\n      sub\n      dup2\n      add\n      swap1\n      tag_48\n      swap2\n      swap1\n      tag_49\n      jump\t// in\n    tag_48:\n      tag_50\n      jump\t// in\n    tag_47:\n      stop\n        /* \"contracts/MyToken.sol\":396:418  uint256 public mintFee */\n    tag_6:\n      callvalue\n      dup1\n      iszero\n      tag_51\n      jumpi\n      0x00\n      dup1\n      revert\n    tag_51:\n      pop\n      tag_52\n      tag_53\n      jump\t// in\n    tag_52:\n      mload(0x40)\n      tag_54\n      swap2\n      swap1\n      tag_55\n      jump\t// in\n    tag_54:\n      mload(0x40)\n      dup1\n      swap2\n      sub\n      swap1\n      return\n        /* \"contracts/MyToken.sol\":1170:1517  function mintNFT(address to, uint256 tokenId, string memory metadata)... */\n    tag_7:\n      tag_56\n      0x04\n      dup1\n      calldatasize\n      sub\n      dup2\n      add\n      swap1\n      tag_57\n      swap2\n      swap1\n      tag_58\n      jump\t// in\n    tag_57:\n      tag_59\n      jump\t// in\n    tag_56:\n      stop\n        /* \"@openzeppelin/contracts/token/ERC721/ERC721.sol\":4143:4721  function transferFrom(address from, address to, uint256 tokenId) public virtual {... */\n    tag_8:\n      callvalue\n      dup1\n      iszero\n      tag_60\n      jumpi\n      0x00\n      dup1\n      revert\n    tag_60:\n      pop\n      tag_61\n      0x04\n      dup1\n      calldatasize\n      sub\n      dup2\n      add\n      swap1\n      tag_62\n      swap2\n      swap1\n      tag_63\n      jump\t// in\n    tag_62:\n      tag_64\n      jump\t// in\n    tag_61:\n      stop\n        /* \"contracts/MyToken.sol\":1705:1970  function burnNFT(uint256 tokenId) public {... */\n    tag_9:\n      callvalue\n      dup1\n      iszero\n      tag_65\n      jumpi\n      0x00\n      dup1\n      revert\n    tag_65:\n      pop\n      tag_66\n      0x04\n      dup1\n      calldatasize\n      sub\n      dup2\n      add\n      swap1\n      tag_67\n      swap2\n      swap1\n      tag_42\n      jump\t// in\n    tag_67:\n      tag_68\n      jump\t// in\n    tag_66:\n      stop\n        /* \"contracts/MyToken.sol\":948:1051  function setMintTimeout(uint256 _newMintTimeout) public  {... */\n    tag_10:\n      callvalue\n      dup1\n      iszero\n      tag_69\n      jumpi\n      0x00\n      dup1\n      revert\n    tag_69:\n      pop\n      tag_70\n      0x04\n      dup1\n      calldatasize\n      sub\n      dup2\n      add\n      swap1\n      tag_71\n      swap2\n      swap1\n      tag_42\n      jump\t// in\n    tag_71:\n      tag_72\n      jump\t// in\n    tag_70:\n      stop\n        /* \"@openzeppelin/contracts/token/ERC721/ERC721.sol\":4787:4919  function safeTransferFrom(address from, address to, uint256 tokenId) public {... */\n    tag_11:\n      callvalue\n      dup1\n      iszero\n      tag_73\n      jumpi\n      0x00\n      dup1\n      revert\n    tag_73:\n      pop\n      tag_74\n      0x04\n      dup1\n      calldatasize\n      sub\n      dup2\n      add\n      swap1\n      tag_75\n      swap2\n      swap1\n      tag_63\n      jump\t// in\n    tag_75:\n      tag_76\n      jump\t// in\n    tag_74:\n      stop\n        /* \"@openzeppelin/contracts/token/ERC721/extensions/ERC721Burnable.sol\":561:875  function burn(uint256 tokenId) public virtual {... */\n    tag_12:\n      callvalue\n      dup1\n      iszero\n      tag_77\n      jumpi\n      0x00\n      dup1\n      revert\n    tag_77:\n      pop\n      tag_78\n      0x04\n      dup1\n      calldatasize\n      sub\n      dup2\n      add\n      swap1\n      tag_79\n      swap2\n      swap1\n      tag_42\n      jump\t// in\n    tag_79:\n      tag_80\n      jump\t// in\n    tag_78:\n      stop\n        /* \"contracts/MyToken.sol\":1057:1164  function setFixedImageURI(string memory _newImageURI) public  {... */\n    tag_13:\n      callvalue\n      dup1\n      iszero\n      tag_81\n      jumpi\n      0x00\n      dup1\n      revert\n    tag_81:\n      pop\n      tag_82\n      0x04\n      dup1\n      calldatasize\n      sub\n      dup2\n      add\n      swap1\n      tag_83\n      swap2\n      swap1\n      tag_84\n      jump\t// in\n    tag_83:\n      tag_85\n      jump\t// in\n    tag_82:\n      stop\n        /* \"@openzeppelin/contracts/token/ERC721/ERC721.sol\":2185:2303  function ownerOf(uint256 tokenId) public view virtual returns (address) {... */\n    tag_14:\n      callvalue\n      dup1\n      iszero\n      tag_86\n      jumpi\n      0x00\n      dup1\n      revert\n    tag_86:\n      pop\n      tag_87\n      0x04\n      dup1\n      calldatasize\n      sub\n      dup2\n      add\n      swap1\n      tag_88\n      swap2\n      swap1\n      tag_42\n      jump\t// in\n    tag_88:\n      tag_89\n      jump\t// in\n    tag_87:\n      mload(0x40)\n      tag_90\n      swap2\n      swap1\n      tag_45\n      jump\t// in\n    tag_90:\n      mload(0x40)\n      dup1\n      swap2\n      sub\n      swap1\n      return\n        /* \"contracts/MyToken.sol\":550:668  string public fixedImageURI = \"https://gateway.pinata.cloud/ipfs/Qmb8hKSKakGqVk7h877xdyzVJhnb6cmzfjpVfS6xCFLqNg/0.jpg\" */\n    tag_15:\n      callvalue\n      dup1\n      iszero\n      tag_91\n      jumpi\n      0x00\n      dup1\n      revert\n    tag_91:\n      pop\n      tag_92\n      tag_93\n      jump\t// in\n    tag_92:\n      mload(0x40)\n      tag_94\n      swap2\n      swap1\n      tag_38\n      jump\t// in\n    tag_94:\n      mload(0x40)\n      dup1\n      swap2\n      sub\n      swap1\n      return\n        /* \"@openzeppelin/contracts/token/ERC721/ERC721.sol\":1920:2128  function balanceOf(address owner) public view virtual returns (uint256) {... */\n    tag_16:\n      callvalue\n      dup1\n      iszero\n      tag_95\n      jumpi\n      0x00\n      dup1\n      revert\n    tag_95:\n      pop\n      tag_96\n      0x04\n      dup1\n      calldatasize\n      sub\n      dup2\n      add\n      swap1\n      tag_97\n      swap2\n      swap1\n      tag_98\n      jump\t// in\n    tag_97:\n      tag_99\n      jump\t// in\n    tag_96:\n      mload(0x40)\n      tag_100\n      swap2\n      swap1\n      tag_55\n      jump\t// in\n    tag_100:\n      mload(0x40)\n      dup1\n      swap2\n      sub\n      swap1\n      return\n        /* \"@openzeppelin/contracts/token/ERC721/ERC721.sol\":2518:2611  function symbol() public view virtual returns (string memory) {... */\n    tag_17:\n      callvalue\n      dup1\n      iszero\n      tag_101\n      jumpi\n      0x00\n      dup1\n      revert\n    tag_101:\n      pop\n      tag_102\n      tag_103\n      jump\t// in\n    tag_102:\n      mload(0x40)\n      tag_104\n      swap2\n      swap1\n      tag_38\n      jump\t// in\n    tag_104:\n      mload(0x40)\n      dup1\n      swap2\n      sub\n      swap1\n      return\n        /* \"contracts/MyToken.sol\":470:496  uint256 public mintTimeout */\n    tag_18:\n      callvalue\n      dup1\n      iszero\n      tag_105\n      jumpi\n      0x00\n      dup1\n      revert\n    tag_105:\n      pop\n      tag_106\n      tag_107\n      jump\t// in\n    tag_106:\n      mload(0x40)\n      tag_108\n      swap2\n      swap1\n      tag_55\n      jump\t// in\n    tag_108:\n      mload(0x40)\n      dup1\n      swap2\n      sub\n      swap1\n      return\n        /* \"@openzeppelin/contracts/token/ERC721/ERC721.sol\":3718:3862  function setApprovalForAll(address operator, bool approved) public virtual {... */\n    tag_19:\n      callvalue\n      dup1\n      iszero\n      tag_109\n      jumpi\n      0x00\n      dup1\n      revert\n    tag_109:\n      pop\n      tag_110\n      0x04\n      dup1\n      calldatasize\n      sub\n      dup2\n      add\n      swap1\n      tag_111\n      swap2\n      swap1\n      tag_112\n      jump\t// in\n    tag_111:\n      tag_113\n      jump\t// in\n    tag_110:\n      stop\n        /* \"@openzeppelin/contracts/token/ERC721/ERC721.sol\":4985:5193  function safeTransferFrom(address from, address to, uint256 tokenId, bytes memory data) public virtual {... */\n    tag_20:\n      callvalue\n      dup1\n      iszero\n      tag_114\n      jumpi\n      0x00\n      dup1\n      revert\n    tag_114:\n      pop\n      tag_115\n      0x04\n      dup1\n      calldatasize\n      sub\n      dup2\n      add\n      swap1\n      tag_116\n      swap2\n      swap1\n      tag_117\n      jump\t// in\n    tag_116:\n      tag_118\n      jump\t// in\n    tag_115:\n      stop\n        /* \"contracts/MyToken.sol\":2043:2232  function tokenURI(uint256 tokenId)... */\n    tag_21:\n      callvalue\n      dup1\n      iszero\n      tag_119\n      jumpi\n      0x00\n      dup1\n      revert\n    tag_119:\n      pop\n      tag_120\n      0x04\n      dup1\n      calldatasize\n      sub\n      dup2\n      add\n      swap1\n      tag_121\n      swap2\n      swap1\n      tag_42\n      jump\t// in\n    tag_121:\n      tag_122\n      jump\t// in\n    tag_120:\n      mload(0x40)\n      tag_123\n      swap2\n      swap1\n      tag_38\n      jump\t// in\n    tag_123:\n      mload(0x40)\n      dup1\n      swap2\n      sub\n      swap1\n      return\n        /* \"@openzeppelin/contracts/token/ERC721/ERC721.sol\":3928:4081  function isApprovedForAll(address owner, address operator) public view virtual returns (bool) {... */\n    tag_22:\n      callvalue\n      dup1\n      iszero\n      tag_124\n      jumpi\n      0x00\n      dup1\n      revert\n    tag_124:\n      pop\n      tag_125\n      0x04\n      dup1\n      calldatasize\n      sub\n      dup2\n      add\n      swap1\n      tag_126\n      swap2\n      swap1\n      tag_127\n      jump\t// in\n    tag_126:\n      tag_128\n      jump\t// in\n    tag_125:\n      mload(0x40)\n      tag_129\n      swap2\n      swap1\n      tag_33\n      jump\t// in\n    tag_129:\n      mload(0x40)\n      dup1\n      swap2\n      sub\n      swap1\n      return\n        /* \"contracts/MyToken.sol\":856:942  function setMintFee(uint256 _newMintFee) public {... */\n    tag_23:\n      callvalue\n      dup1\n      iszero\n      tag_130\n      jumpi\n      0x00\n      dup1\n      revert\n    tag_130:\n      pop\n      tag_131\n      0x04\n      dup1\n      calldatasize\n      sub\n      dup2\n      add\n      swap1\n      tag_132\n      swap2\n      swap1\n      tag_42\n      jump\t// in\n    tag_132:\n      tag_133\n      jump\t// in\n    tag_131:\n      stop\n        /* \"contracts/MyToken.sol\":2238:2443  function supportsInterface(bytes4 interfaceId)... */\n    tag_31:\n        /* \"contracts/MyToken.sol\":2373:2377  bool */\n      0x00\n        /* \"contracts/MyToken.sol\":2400:2436  super.supportsInterface(interfaceId) */\n      tag_135\n        /* \"contracts/MyToken.sol\":2424:2435  interfaceId */\n      dup3\n        /* \"contracts/MyToken.sol\":2400:2423  super.supportsInterface */\n      tag_136\n        /* \"contracts/MyToken.sol\":2400:2436  super.supportsInterface(interfaceId) */\n      jump\t// in\n    tag_135:\n        /* \"contracts/MyToken.sol\":2393:2436  return super.supportsInterface(interfaceId) */\n      swap1\n      pop\n        /* \"contracts/MyToken.sol\":2238:2443  function supportsInterface(bytes4 interfaceId)... */\n      swap2\n      swap1\n      pop\n      jump\t// out\n        /* \"@openzeppelin/contracts/token/ERC721/ERC721.sol\":2365:2454  function name() public view virtual returns (string memory) {... */\n    tag_36:\n        /* \"@openzeppelin/contracts/token/ERC721/ERC721.sol\":2410:2423  string memory */\n      0x60\n        /* \"@openzeppelin/contracts/token/ERC721/ERC721.sol\":2442:2447  _name */\n      0x00\n        /* \"@openzeppelin/contracts/token/ERC721/ERC721.sol\":2435:2447  return _name */\n      dup1\n      sload\n      tag_138\n      swap1\n      tag_139\n      jump\t// in\n    tag_138:\n      dup1\n      0x1f\n      add\n      0x20\n      dup1\n      swap2\n      div\n      mul\n      0x20\n      add\n      mload(0x40)\n      swap1\n      dup2\n      add\n      0x40\n      mstore\n      dup1\n      swap3\n      swap2\n      swap1\n      dup2\n      dup2\n      mstore\n      0x20\n      add\n      dup3\n      dup1\n      sload\n      tag_140\n      swap1\n      tag_139\n      jump\t// in\n    tag_140:\n      dup1\n      iszero\n      tag_141\n      jumpi\n      dup1\n      0x1f\n      lt\n      tag_142\n      jumpi\n      0x0100\n      dup1\n      dup4\n      sload\n      div\n      mul\n      dup4\n      mstore\n      swap2\n      0x20\n      add\n      swap2\n      jump(tag_141)\n    tag_142:\n      dup3\n      add\n      swap2\n      swap1\n      0x00\n      mstore\n      keccak256(0x00, 0x20)\n      swap1\n    tag_143:\n      dup2\n      sload\n      dup2\n      mstore\n      swap1\n      0x01\n      add\n      swap1\n      0x20\n      add\n      dup1\n      dup4\n      gt\n      tag_143\n      jumpi\n      dup3\n      swap1\n      sub\n      0x1f\n      and\n      dup3\n      add\n      swap2\n    tag_141:\n      pop\n      pop\n      pop\n      pop\n      pop\n      swap1\n      pop\n        /* \"@openzeppelin/contracts/token/ERC721/ERC721.sol\":2365:2454  function name() public view virtual returns (string memory) {... */\n      swap1\n      jump\t// out\n        /* \"@openzeppelin/contracts/token/ERC721/ERC721.sol\":3497:3651  function getApproved(uint256 tokenId) public view virtual returns (address) {... */\n    tag_43:\n        /* \"@openzeppelin/contracts/token/ERC721/ERC721.sol\":3564:3571  address */\n      0x00\n        /* \"@openzeppelin/contracts/token/ERC721/ERC721.sol\":3583:3605  _requireOwned(tokenId) */\n      tag_145\n        /* \"@openzeppelin/contracts/token/ERC721/ERC721.sol\":3597:3604  tokenId */\n      dup3\n        /* \"@openzeppelin/contracts/token/ERC721/ERC721.sol\":3583:3596  _requireOwned */\n      tag_146\n        /* \"@openzeppelin/contracts/token/ERC721/ERC721.sol\":3583:3605  _requireOwned(tokenId) */\n      jump\t// in\n    tag_145:\n      pop\n        /* \"@openzeppelin/contracts/token/ERC721/ERC721.sol\":3623:3644  _getApproved(tokenId) */\n      tag_147\n        /* \"@openzeppelin/contracts/token/ERC721/ERC721.sol\":3636:3643  tokenId */\n      dup3\n        /* \"@openzeppelin/contracts/token/ERC721/ERC721.sol\":3623:3635  _getApproved */\n      tag_148\n        /* \"@openzeppelin/contracts/token/ERC721/ERC721.sol\":3623:3644  _getApproved(tokenId) */\n      jump\t// in\n    tag_147:\n        /* \"@openzeppelin/contracts/token/ERC721/ERC721.sol\":3616:3644  return _getApproved(tokenId) */\n      swap1\n      pop\n        /* \"@openzeppelin/contracts/token/ERC721/ERC721.sol\":3497:3651  function getApproved(uint256 tokenId) public view virtual returns (address) {... */\n      swap2\n      swap1\n      pop\n      jump\t// out\n        /* \"@openzeppelin/contracts/token/ERC721/ERC721.sol\":3323:3436  function approve(address to, uint256 tokenId) public virtual {... */\n    tag_50:\n        /* \"@openzeppelin/contracts/token/ERC721/ERC721.sol\":3394:3429  _approve(to, tokenId, _msgSender()) */\n      tag_150\n        /* \"@openzeppelin/contracts/token/ERC721/ERC721.sol\":3403:3405  to */\n      dup3\n        /* \"@openzeppelin/contracts/token/ERC721/ERC721.sol\":3407:3414  tokenId */\n      dup3\n        /* \"@openzeppelin/contracts/token/ERC721/ERC721.sol\":3416:3428  _msgSender() */\n      tag_151\n        /* \"@openzeppelin/contracts/token/ERC721/ERC721.sol\":3416:3426  _msgSender */\n      tag_152\n        /* \"@openzeppelin/contracts/token/ERC721/ERC721.sol\":3416:3428  _msgSender() */\n      jump\t// in\n    tag_151:\n        /* \"@openzeppelin/contracts/token/ERC721/ERC721.sol\":3394:3402  _approve */\n      tag_153\n        /* \"@openzeppelin/contracts/token/ERC721/ERC721.sol\":3394:3429  _approve(to, tokenId, _msgSender()) */\n      jump\t// in\n    tag_150:\n        /* \"@openzeppelin/contracts/token/ERC721/ERC721.sol\":3323:3436  function approve(address to, uint256 tokenId) public virtual {... */\n      pop\n      pop\n      jump\t// out\n        /* \"contracts/MyToken.sol\":396:418  uint256 public mintFee */\n    tag_53:\n      sload(0x07)\n      dup2\n      jump\t// out\n        /* \"contracts/MyToken.sol\":1170:1517  function mintNFT(address to, uint256 tokenId, string memory metadata)... */\n    tag_59:\n        /* \"contracts/MyToken.sol\":1306:1313  mintFee */\n      sload(0x07)\n        /* \"contracts/MyToken.sol\":1293:1302  msg.value */\n      callvalue\n        /* \"contracts/MyToken.sol\":1293:1313  msg.value >= mintFee */\n      lt\n      iszero\n        /* \"contracts/MyToken.sol\":1285:1338  require(msg.value >= mintFee, \"Insufficient payment\") */\n      tag_155\n      jumpi\n      mload(0x40)\n      0x08c379a000000000000000000000000000000000000000000000000000000000\n      dup2\n      mstore\n      0x04\n      add\n      tag_156\n      swap1\n      tag_157\n      jump\t// in\n    tag_156:\n      mload(0x40)\n      dup1\n      swap2\n      sub\n      swap1\n      revert\n    tag_155:\n        /* \"contracts/MyToken.sol\":1348:1370  _safeMint(to, tokenId) */\n      tag_158\n        /* \"contracts/MyToken.sol\":1358:1360  to */\n      dup4\n        /* \"contracts/MyToken.sol\":1362:1369  tokenId */\n      dup4\n        /* \"contracts/MyToken.sol\":1348:1357  _safeMint */\n      tag_159\n        /* \"contracts/MyToken.sol\":1348:1370  _safeMint(to, tokenId) */\n      jump\t// in\n    tag_158:\n        /* \"contracts/MyToken.sol\":1380:1411  _setTokenURI(tokenId, metadata) */\n      tag_160\n        /* \"contracts/MyToken.sol\":1393:1400  tokenId */\n      dup3\n        /* \"contracts/MyToken.sol\":1402:1410  metadata */\n      dup3\n        /* \"contracts/MyToken.sol\":1380:1392  _setTokenURI */\n      tag_161\n        /* \"contracts/MyToken.sol\":1380:1411  _setTokenURI(tokenId, metadata) */\n      jump\t// in\n    tag_160:\n        /* \"contracts/MyToken.sol\":1480:1510  _burnAfterTimeout(to, tokenId) */\n      tag_162\n        /* \"contracts/MyToken.sol\":1498:1500  to */\n      dup4\n        /* \"contracts/MyToken.sol\":1502:1509  tokenId */\n      dup4\n        /* \"contracts/MyToken.sol\":1480:1497  _burnAfterTimeout */\n      tag_163\n        /* \"contracts/MyToken.sol\":1480:1510  _burnAfterTimeout(to, tokenId) */\n      jump\t// in\n    tag_162:\n        /* \"contracts/MyToken.sol\":1170:1517  function mintNFT(address to, uint256 tokenId, string memory metadata)... */\n      pop\n      pop\n      pop\n      jump\t// out\n        /* \"@openzeppelin/contracts/token/ERC721/ERC721.sol\":4143:4721  function transferFrom(address from, address to, uint256 tokenId) public virtual {... */\n    tag_64:\n        /* \"@openzeppelin/contracts/token/ERC721/ERC721.sol\":4251:4252  0 */\n      0x00\n        /* \"@openzeppelin/contracts/token/ERC721/ERC721.sol\":4237:4253  to == address(0) */\n      0xffffffffffffffffffffffffffffffffffffffff\n      and\n        /* \"@openzeppelin/contracts/token/ERC721/ERC721.sol\":4237:4239  to */\n      dup3\n        /* \"@openzeppelin/contracts/token/ERC721/ERC721.sol\":4237:4253  to == address(0) */\n      0xffffffffffffffffffffffffffffffffffffffff\n      and\n      sub\n        /* \"@openzeppelin/contracts/token/ERC721/ERC721.sol\":4233:4320  if (to == address(0)) {... */\n      tag_165\n      jumpi\n        /* \"@openzeppelin/contracts/token/ERC721/ERC721.sol\":4306:4307  0 */\n      0x00\n        /* \"@openzeppelin/contracts/token/ERC721/ERC721.sol\":4276:4309  ERC721InvalidReceiver(address(0)) */\n      mload(0x40)\n      0x64a0ae9200000000000000000000000000000000000000000000000000000000\n      dup2\n      mstore\n      0x04\n      add\n      tag_166\n      swap2\n      swap1\n      tag_45\n      jump\t// in\n    tag_166:\n      mload(0x40)\n      dup1\n      swap2\n      sub\n      swap1\n      revert\n        /* \"@openzeppelin/contracts/token/ERC721/ERC721.sol\":4233:4320  if (to == address(0)) {... */\n    tag_165:\n        /* \"@openzeppelin/contracts/token/ERC721/ERC721.sol\":4538:4559  address previousOwner */\n      0x00\n        /* \"@openzeppelin/contracts/token/ERC721/ERC721.sol\":4562:4596  _update(to, tokenId, _msgSender()) */\n      tag_167\n        /* \"@openzeppelin/contracts/token/ERC721/ERC721.sol\":4570:4572  to */\n      dup4\n        /* \"@openzeppelin/contracts/token/ERC721/ERC721.sol\":4574:4581  tokenId */\n      dup4\n        /* \"@openzeppelin/contracts/token/ERC721/ERC721.sol\":4583:4595  _msgSender() */\n      tag_168\n        /* \"@openzeppelin/contracts/token/ERC721/ERC721.sol\":4583:4593  _msgSender */\n      tag_152\n        /* \"@openzeppelin/contracts/token/ERC721/ERC721.sol\":4583:4595  _msgSender() */\n      jump\t// in\n    tag_168:\n        /* \"@openzeppelin/contracts/token/ERC721/ERC721.sol\":4562:4569  _update */\n      tag_169\n        /* \"@openzeppelin/contracts/token/ERC721/ERC721.sol\":4562:4596  _update(to, tokenId, _msgSender()) */\n      jump\t// in\n    tag_167:\n        /* \"@openzeppelin/contracts/token/ERC721/ERC721.sol\":4538:4596  address previousOwner = _update(to, tokenId, _msgSender()) */\n      swap1\n      pop\n        /* \"@openzeppelin/contracts/token/ERC721/ERC721.sol\":4627:4631  from */\n      dup4\n        /* \"@openzeppelin/contracts/token/ERC721/ERC721.sol\":4610:4631  previousOwner != from */\n      0xffffffffffffffffffffffffffffffffffffffff\n      and\n        /* \"@openzeppelin/contracts/token/ERC721/ERC721.sol\":4610:4623  previousOwner */\n      dup2\n        /* \"@openzeppelin/contracts/token/ERC721/ERC721.sol\":4610:4631  previousOwner != from */\n      0xffffffffffffffffffffffffffffffffffffffff\n      and\n      eq\n        /* \"@openzeppelin/contracts/token/ERC721/ERC721.sol\":4606:4715  if (previousOwner != from) {... */\n      tag_170\n      jumpi\n        /* \"@openzeppelin/contracts/token/ERC721/ERC721.sol\":4675:4679  from */\n      dup4\n        /* \"@openzeppelin/contracts/token/ERC721/ERC721.sol\":4681:4688  tokenId */\n      dup3\n        /* \"@openzeppelin/contracts/token/ERC721/ERC721.sol\":4690:4703  previousOwner */\n      dup3\n        /* \"@openzeppelin/contracts/token/ERC721/ERC721.sol\":4654:4704  ERC721IncorrectOwner(from, tokenId, previousOwner) */\n      mload(0x40)\n      0x64283d7b00000000000000000000000000000000000000000000000000000000\n      dup2\n      mstore\n      0x04\n      add\n      tag_171\n      swap4\n      swap3\n      swap2\n      swap1\n      tag_172\n      jump\t// in\n    tag_171:\n      mload(0x40)\n      dup1\n      swap2\n      sub\n      swap1\n      revert\n        /* \"@openzeppelin/contracts/token/ERC721/ERC721.sol\":4606:4715  if (previousOwner != from) {... */\n    tag_170:\n        /* \"@openzeppelin/contracts/token/ERC721/ERC721.sol\":4223:4721  {... */\n      pop\n        /* \"@openzeppelin/contracts/token/ERC721/ERC721.sol\":4143:4721  function transferFrom(address from, address to, uint256 tokenId) public virtual {... */\n      pop\n      pop\n      pop\n      jump\t// out\n        /* \"contracts/MyToken.sol\":1705:1970  function burnNFT(uint256 tokenId) public {... */\n    tag_68:\n        /* \"contracts/MyToken.sol\":1784:1794  msg.sender */\n      caller\n        /* \"contracts/MyToken.sol\":1764:1794  ownerOf(tokenId) == msg.sender */\n      0xffffffffffffffffffffffffffffffffffffffff\n      and\n        /* \"contracts/MyToken.sol\":1764:1780  ownerOf(tokenId) */\n      tag_174\n        /* \"contracts/MyToken.sol\":1772:1779  tokenId */\n      dup3\n        /* \"contracts/MyToken.sol\":1764:1771  ownerOf */\n      tag_89\n        /* \"contracts/MyToken.sol\":1764:1780  ownerOf(tokenId) */\n      jump\t// in\n    tag_174:\n        /* \"contracts/MyToken.sol\":1764:1794  ownerOf(tokenId) == msg.sender */\n      0xffffffffffffffffffffffffffffffffffffffff\n      and\n      eq\n        /* \"contracts/MyToken.sol\":1756:1821  require(ownerOf(tokenId) == msg.sender, \"You don't own this NFT\") */\n      tag_175\n      jumpi\n      mload(0x40)\n      0x08c379a000000000000000000000000000000000000000000000000000000000\n      dup2\n      mstore\n      0x04\n      add\n      tag_176\n      swap1\n      tag_177\n      jump\t// in\n    tag_176:\n      mload(0x40)\n      dup1\n      swap2\n      sub\n      swap1\n      revert\n    tag_175:\n        /* \"contracts/MyToken.sol\":1865:1866  0 */\n      0x00\n        /* \"contracts/MyToken.sol\":1839:1852  _mintTimeouts */\n      0x0a\n        /* \"contracts/MyToken.sol\":1839:1861  _mintTimeouts[tokenId] */\n      0x00\n        /* \"contracts/MyToken.sol\":1853:1860  tokenId */\n      dup4\n        /* \"contracts/MyToken.sol\":1839:1861  _mintTimeouts[tokenId] */\n      dup2\n      mstore\n      0x20\n      add\n      swap1\n      dup2\n      mstore\n      0x20\n      add\n      0x00\n      keccak256\n      sload\n        /* \"contracts/MyToken.sol\":1839:1866  _mintTimeouts[tokenId] != 0 */\n      eq\n      iszero\n        /* \"contracts/MyToken.sol\":1839:1910  _mintTimeouts[tokenId] != 0 && _mintTimeouts[tokenId] < block.timestamp */\n      dup1\n      iszero\n      tag_178\n      jumpi\n      pop\n        /* \"contracts/MyToken.sol\":1895:1910  block.timestamp */\n      timestamp\n        /* \"contracts/MyToken.sol\":1870:1883  _mintTimeouts */\n      0x0a\n        /* \"contracts/MyToken.sol\":1870:1892  _mintTimeouts[tokenId] */\n      0x00\n        /* \"contracts/MyToken.sol\":1884:1891  tokenId */\n      dup4\n        /* \"contracts/MyToken.sol\":1870:1892  _mintTimeouts[tokenId] */\n      dup2\n      mstore\n      0x20\n      add\n      swap1\n      dup2\n      mstore\n      0x20\n      add\n      0x00\n      keccak256\n      sload\n        /* \"contracts/MyToken.sol\":1870:1910  _mintTimeouts[tokenId] < block.timestamp */\n      lt\n        /* \"contracts/MyToken.sol\":1839:1910  _mintTimeouts[tokenId] != 0 && _mintTimeouts[tokenId] < block.timestamp */\n    tag_178:\n        /* \"contracts/MyToken.sol\":1831:1939  require(_mintTimeouts[tokenId] != 0 && _mintTimeouts[tokenId] < block.timestamp, \"NFT cannot be burned yet\") */\n      tag_179\n      jumpi\n      mload(0x40)\n      0x08c379a000000000000000000000000000000000000000000000000000000000\n      dup2\n      mstore\n      0x04\n      add\n      tag_180\n      swap1\n      tag_181\n      jump\t// in\n    tag_180:\n      mload(0x40)\n      dup1\n      swap2\n      sub\n      swap1\n      revert\n    tag_179:\n        /* \"contracts/MyToken.sol\":1949:1963  _burn(tokenId) */\n      tag_182\n        /* \"contracts/MyToken.sol\":1955:1962  tokenId */\n      dup2\n        /* \"contracts/MyToken.sol\":1949:1954  _burn */\n      tag_183\n        /* \"contracts/MyToken.sol\":1949:1963  _burn(tokenId) */\n      jump\t// in\n    tag_182:\n        /* \"contracts/MyToken.sol\":1705:1970  function burnNFT(uint256 tokenId) public {... */\n      pop\n      jump\t// out\n        /* \"contracts/MyToken.sol\":948:1051  function setMintTimeout(uint256 _newMintTimeout) public  {... */\n    tag_72:\n        /* \"contracts/MyToken.sol\":1029:1044  _newMintTimeout */\n      dup1\n        /* \"contracts/MyToken.sol\":1015:1026  mintTimeout */\n      0x08\n        /* \"contracts/MyToken.sol\":1015:1044  mintTimeout = _newMintTimeout */\n      dup2\n      swap1\n      sstore\n      pop\n        /* \"contracts/MyToken.sol\":948:1051  function setMintTimeout(uint256 _newMintTimeout) public  {... */\n      pop\n      jump\t// out\n        /* \"@openzeppelin/contracts/token/ERC721/ERC721.sol\":4787:4919  function safeTransferFrom(address from, address to, uint256 tokenId) public {... */\n    tag_76:\n        /* \"@openzeppelin/contracts/token/ERC721/ERC721.sol\":4873:4912  safeTransferFrom(from, to, tokenId, \"\") */\n      tag_186\n        /* \"@openzeppelin/contracts/token/ERC721/ERC721.sol\":4890:4894  from */\n      dup4\n        /* \"@openzeppelin/contracts/token/ERC721/ERC721.sol\":4896:4898  to */\n      dup4\n        /* \"@openzeppelin/contracts/token/ERC721/ERC721.sol\":4900:4907  tokenId */\n      dup4\n        /* \"@openzeppelin/contracts/token/ERC721/ERC721.sol\":4873:4912  safeTransferFrom(from, to, tokenId, \"\") */\n      mload(0x40)\n      dup1\n      0x20\n      add\n      0x40\n      mstore\n      dup1\n      0x00\n      dup2\n      mstore\n      pop\n        /* \"@openzeppelin/contracts/token/ERC721/ERC721.sol\":4873:4889  safeTransferFrom */\n      tag_118\n        /* \"@openzeppelin/contracts/token/ERC721/ERC721.sol\":4873:4912  safeTransferFrom(from, to, tokenId, \"\") */\n      jump\t// in\n    tag_186:\n        /* \"@openzeppelin/contracts/token/ERC721/ERC721.sol\":4787:4919  function safeTransferFrom(address from, address to, uint256 tokenId) public {... */\n      pop\n      pop\n      pop\n      jump\t// out\n        /* \"@openzeppelin/contracts/token/ERC721/extensions/ERC721Burnable.sol\":561:875  function burn(uint256 tokenId) public virtual {... */\n    tag_80:\n        /* \"@openzeppelin/contracts/token/ERC721/extensions/ERC721Burnable.sol\":826:868  _update(address(0), tokenId, _msgSender()) */\n      tag_188\n        /* \"@openzeppelin/contracts/token/ERC721/extensions/ERC721Burnable.sol\":842:843  0 */\n      0x00\n        /* \"@openzeppelin/contracts/token/ERC721/extensions/ERC721Burnable.sol\":846:853  tokenId */\n      dup3\n        /* \"@openzeppelin/contracts/token/ERC721/extensions/ERC721Burnable.sol\":855:867  _msgSender() */\n      tag_189\n        /* \"@openzeppelin/contracts/token/ERC721/extensions/ERC721Burnable.sol\":855:865  _msgSender */\n      tag_152\n        /* \"@openzeppelin/contracts/token/ERC721/extensions/ERC721Burnable.sol\":855:867  _msgSender() */\n      jump\t// in\n    tag_189:\n        /* \"@openzeppelin/contracts/token/ERC721/extensions/ERC721Burnable.sol\":826:833  _update */\n      tag_169\n        /* \"@openzeppelin/contracts/token/ERC721/extensions/ERC721Burnable.sol\":826:868  _update(address(0), tokenId, _msgSender()) */\n      jump\t// in\n    tag_188:\n      pop\n        /* \"@openzeppelin/contracts/token/ERC721/extensions/ERC721Burnable.sol\":561:875  function burn(uint256 tokenId) public virtual {... */\n      pop\n      jump\t// out\n        /* \"contracts/MyToken.sol\":1057:1164  function setFixedImageURI(string memory _newImageURI) public  {... */\n    tag_85:\n        /* \"contracts/MyToken.sol\":1145:1157  _newImageURI */\n      dup1\n        /* \"contracts/MyToken.sol\":1129:1142  fixedImageURI */\n      0x09\n        /* \"contracts/MyToken.sol\":1129:1157  fixedImageURI = _newImageURI */\n      swap1\n      dup2\n      tag_191\n      swap2\n      swap1\n      tag_192\n      jump\t// in\n    tag_191:\n      pop\n        /* \"contracts/MyToken.sol\":1057:1164  function setFixedImageURI(string memory _newImageURI) public  {... */\n      pop\n      jump\t// out\n        /* \"@openzeppelin/contracts/token/ERC721/ERC721.sol\":2185:2303  function ownerOf(uint256 tokenId) public view virtual returns (address) {... */\n    tag_89:\n        /* \"@openzeppelin/contracts/token/ERC721/ERC721.sol\":2248:2255  address */\n      0x00\n        /* \"@openzeppelin/contracts/token/ERC721/ERC721.sol\":2274:2296  _requireOwned(tokenId) */\n      tag_194\n        /* \"@openzeppelin/contracts/token/ERC721/ERC721.sol\":2288:2295  tokenId */\n      dup3\n        /* \"@openzeppelin/contracts/token/ERC721/ERC721.sol\":2274:2287  _requireOwned */\n      tag_146\n        /* \"@openzeppelin/contracts/token/ERC721/ERC721.sol\":2274:2296  _requireOwned(tokenId) */\n      jump\t// in\n    tag_194:\n        /* \"@openzeppelin/contracts/token/ERC721/ERC721.sol\":2267:2296  return _requireOwned(tokenId) */\n      swap1\n      pop\n        /* \"@openzeppelin/contracts/token/ERC721/ERC721.sol\":2185:2303  function ownerOf(uint256 tokenId) public view virtual returns (address) {... */\n      swap2\n      swap1\n      pop\n      jump\t// out\n        /* \"contracts/MyToken.sol\":550:668  string public fixedImageURI = \"https://gateway.pinata.cloud/ipfs/Qmb8hKSKakGqVk7h877xdyzVJhnb6cmzfjpVfS6xCFLqNg/0.jpg\" */\n    tag_93:\n      0x09\n      dup1\n      sload\n      tag_195\n      swap1\n      tag_139\n      jump\t// in\n    tag_195:\n      dup1\n      0x1f\n      add\n      0x20\n      dup1\n      swap2\n      div\n      mul\n      0x20\n      add\n      mload(0x40)\n      swap1\n      dup2\n      add\n      0x40\n      mstore\n      dup1\n      swap3\n      swap2\n      swap1\n      dup2\n      dup2\n      mstore\n      0x20\n      add\n      dup3\n      dup1\n      sload\n      tag_196\n      swap1\n      tag_139\n      jump\t// in\n    tag_196:\n      dup1\n      iszero\n      tag_197\n      jumpi\n      dup1\n      0x1f\n      lt\n      tag_198\n      jumpi\n      0x0100\n      dup1\n      dup4\n      sload\n      div\n      mul\n      dup4\n      mstore\n      swap2\n      0x20\n      add\n      swap2\n      jump(tag_197)\n    tag_198:\n      dup3\n      add\n      swap2\n      swap1\n      0x00\n      mstore\n      keccak256(0x00, 0x20)\n      swap1\n    tag_199:\n      dup2\n      sload\n      dup2\n      mstore\n      swap1\n      0x01\n      add\n      swap1\n      0x20\n      add\n      dup1\n      dup4\n      gt\n      tag_199\n      jumpi\n      dup3\n      swap1\n      sub\n      0x1f\n      and\n      dup3\n      add\n      swap2\n    tag_197:\n      pop\n      pop\n      pop\n      pop\n      pop\n      dup2\n      jump\t// out\n        /* \"@openzeppelin/contracts/token/ERC721/ERC721.sol\":1920:2128  function balanceOf(address owner) public view virtual returns (uint256) {... */\n    tag_99:\n        /* \"@openzeppelin/contracts/token/ERC721/ERC721.sol\":1983:1990  uint256 */\n      0x00\n        /* \"@openzeppelin/contracts/token/ERC721/ERC721.sol\":2023:2024  0 */\n      dup1\n        /* \"@openzeppelin/contracts/token/ERC721/ERC721.sol\":2006:2025  owner == address(0) */\n      0xffffffffffffffffffffffffffffffffffffffff\n      and\n        /* \"@openzeppelin/contracts/token/ERC721/ERC721.sol\":2006:2011  owner */\n      dup3\n        /* \"@openzeppelin/contracts/token/ERC721/ERC721.sol\":2006:2025  owner == address(0) */\n      0xffffffffffffffffffffffffffffffffffffffff\n      and\n      sub\n        /* \"@openzeppelin/contracts/token/ERC721/ERC721.sol\":2002:2089  if (owner == address(0)) {... */\n      tag_201\n      jumpi\n        /* \"@openzeppelin/contracts/token/ERC721/ERC721.sol\":2075:2076  0 */\n      0x00\n        /* \"@openzeppelin/contracts/token/ERC721/ERC721.sol\":2048:2078  ERC721InvalidOwner(address(0)) */\n      mload(0x40)\n      0x89c62b6400000000000000000000000000000000000000000000000000000000\n      dup2\n      mstore\n      0x04\n      add\n      tag_202\n      swap2\n      swap1\n      tag_45\n      jump\t// in\n    tag_202:\n      mload(0x40)\n      dup1\n      swap2\n      sub\n      swap1\n      revert\n        /* \"@openzeppelin/contracts/token/ERC721/ERC721.sol\":2002:2089  if (owner == address(0)) {... */\n    tag_201:\n        /* \"@openzeppelin/contracts/token/ERC721/ERC721.sol\":2105:2114  _balances */\n      0x03\n        /* \"@openzeppelin/contracts/token/ERC721/ERC721.sol\":2105:2121  _balances[owner] */\n      0x00\n        /* \"@openzeppelin/contracts/token/ERC721/ERC721.sol\":2115:2120  owner */\n      dup4\n        /* \"@openzeppelin/contracts/token/ERC721/ERC721.sol\":2105:2121  _balances[owner] */\n      0xffffffffffffffffffffffffffffffffffffffff\n      and\n      0xffffffffffffffffffffffffffffffffffffffff\n      and\n      dup2\n      mstore\n      0x20\n      add\n      swap1\n      dup2\n      mstore\n      0x20\n      add\n      0x00\n      keccak256\n      sload\n        /* \"@openzeppelin/contracts/token/ERC721/ERC721.sol\":2098:2121  return _balances[owner] */\n      swap1\n      pop\n        /* \"@openzeppelin/contracts/token/ERC721/ERC721.sol\":1920:2128  function balanceOf(address owner) public view virtual returns (uint256) {... */\n      swap2\n      swap1\n      pop\n      jump\t// out\n        /* \"@openzeppelin/contracts/token/ERC721/ERC721.sol\":2518:2611  function symbol() public view virtual returns (string memory) {... */\n    tag_103:\n        /* \"@openzeppelin/contracts/token/ERC721/ERC721.sol\":2565:2578  string memory */\n      0x60\n        /* \"@openzeppelin/contracts/token/ERC721/ERC721.sol\":2597:2604  _symbol */\n      0x01\n        /* \"@openzeppelin/contracts/token/ERC721/ERC721.sol\":2590:2604  return _symbol */\n      dup1\n      sload\n      tag_204\n      swap1\n      tag_139\n      jump\t// in\n    tag_204:\n      dup1\n      0x1f\n      add\n      0x20\n      dup1\n      swap2\n      div\n      mul\n      0x20\n      add\n      mload(0x40)\n      swap1\n      dup2\n      add\n      0x40\n      mstore\n      dup1\n      swap3\n      swap2\n      swap1\n      dup2\n      dup2\n      mstore\n      0x20\n      add\n      dup3\n      dup1\n      sload\n      tag_205\n      swap1\n      tag_139\n      jump\t// in\n    tag_205:\n      dup1\n      iszero\n      tag_206\n      jumpi\n      dup1\n      0x1f\n      lt\n      tag_207\n      jumpi\n      0x0100\n      dup1\n      dup4\n      sload\n      div\n      mul\n      dup4\n      mstore\n      swap2\n      0x20\n      add\n      swap2\n      jump(tag_206)\n    tag_207:\n      dup3\n      add\n      swap2\n      swap1\n      0x00\n      mstore\n      keccak256(0x00, 0x20)\n      swap1\n    tag_208:\n      dup2\n      sload\n      dup2\n      mstore\n      swap1\n      0x01\n      add\n      swap1\n      0x20\n      add\n      dup1\n      dup4\n      gt\n      tag_208\n      jumpi\n      dup3\n      swap1\n      sub\n      0x1f\n      and\n      dup3\n      add\n      swap2\n    tag_206:\n      pop\n      pop\n      pop\n      pop\n      pop\n      swap1\n      pop\n        /* \"@openzeppelin/contracts/token/ERC721/ERC721.sol\":2518:2611  function symbol() public view virtual returns (string memory) {... */\n      swap1\n      jump\t// out\n        /* \"contracts/MyToken.sol\":470:496  uint256 public mintTimeout */\n    tag_107:\n      sload(0x08)\n      dup2\n      jump\t// out\n        /* \"@openzeppelin/contracts/token/ERC721/ERC721.sol\":3718:3862  function setApprovalForAll(address operator, bool approved) public virtual {... */\n    tag_113:\n        /* \"@openzeppelin/contracts/token/ERC721/ERC721.sol\":3803:3855  _setApprovalForAll(_msgSender(), operator, approved) */\n      tag_210\n        /* \"@openzeppelin/contracts/token/ERC721/ERC721.sol\":3822:3834  _msgSender() */\n      tag_211\n        /* \"@openzeppelin/contracts/token/ERC721/ERC721.sol\":3822:3832  _msgSender */\n      tag_152\n        /* \"@openzeppelin/contracts/token/ERC721/ERC721.sol\":3822:3834  _msgSender() */\n      jump\t// in\n    tag_211:\n        /* \"@openzeppelin/contracts/token/ERC721/ERC721.sol\":3836:3844  operator */\n      dup4\n        /* \"@openzeppelin/contracts/token/ERC721/ERC721.sol\":3846:3854  approved */\n      dup4\n        /* \"@openzeppelin/contracts/token/ERC721/ERC721.sol\":3803:3821  _setApprovalForAll */\n      tag_212\n        /* \"@openzeppelin/contracts/token/ERC721/ERC721.sol\":3803:3855  _setApprovalForAll(_msgSender(), operator, approved) */\n      jump\t// in\n    tag_210:\n        /* \"@openzeppelin/contracts/token/ERC721/ERC721.sol\":3718:3862  function setApprovalForAll(address operator, bool approved) public virtual {... */\n      pop\n      pop\n      jump\t// out\n        /* \"@openzeppelin/contracts/token/ERC721/ERC721.sol\":4985:5193  function safeTransferFrom(address from, address to, uint256 tokenId, bytes memory data) public virtual {... */\n    tag_118:\n        /* \"@openzeppelin/contracts/token/ERC721/ERC721.sol\":5098:5129  transferFrom(from, to, tokenId) */\n      tag_214\n        /* \"@openzeppelin/contracts/token/ERC721/ERC721.sol\":5111:5115  from */\n      dup5\n        /* \"@openzeppelin/contracts/token/ERC721/ERC721.sol\":5117:5119  to */\n      dup5\n        /* \"@openzeppelin/contracts/token/ERC721/ERC721.sol\":5121:5128  tokenId */\n      dup5\n        /* \"@openzeppelin/contracts/token/ERC721/ERC721.sol\":5098:5110  transferFrom */\n      tag_64\n        /* \"@openzeppelin/contracts/token/ERC721/ERC721.sol\":5098:5129  transferFrom(from, to, tokenId) */\n      jump\t// in\n    tag_214:\n        /* \"@openzeppelin/contracts/token/ERC721/ERC721.sol\":5139:5186  _checkOnERC721Received(from, to, tokenId, data) */\n      tag_215\n        /* \"@openzeppelin/contracts/token/ERC721/ERC721.sol\":5162:5166  from */\n      dup5\n        /* \"@openzeppelin/contracts/token/ERC721/ERC721.sol\":5168:5170  to */\n      dup5\n        /* \"@openzeppelin/contracts/token/ERC721/ERC721.sol\":5172:5179  tokenId */\n      dup5\n        /* \"@openzeppelin/contracts/token/ERC721/ERC721.sol\":5181:5185  data */\n      dup5\n        /* \"@openzeppelin/contracts/token/ERC721/ERC721.sol\":5139:5161  _checkOnERC721Received */\n      tag_216\n        /* \"@openzeppelin/contracts/token/ERC721/ERC721.sol\":5139:5186  _checkOnERC721Received(from, to, tokenId, data) */\n      jump\t// in\n    tag_215:\n        /* \"@openzeppelin/contracts/token/ERC721/ERC721.sol\":4985:5193  function safeTransferFrom(address from, address to, uint256 tokenId, bytes memory data) public virtual {... */\n      pop\n      pop\n      pop\n      pop\n      jump\t// out\n        /* \"contracts/MyToken.sol\":2043:2232  function tokenURI(uint256 tokenId)... */\n    tag_122:\n        /* \"contracts/MyToken.sol\":2166:2179  string memory */\n      0x60\n        /* \"contracts/MyToken.sol\":2202:2225  super.tokenURI(tokenId) */\n      tag_218\n        /* \"contracts/MyToken.sol\":2217:2224  tokenId */\n      dup3\n        /* \"contracts/MyToken.sol\":2202:2216  super.tokenURI */\n      tag_219\n        /* \"contracts/MyToken.sol\":2202:2225  super.tokenURI(tokenId) */\n      jump\t// in\n    tag_218:\n        /* \"contracts/MyToken.sol\":2195:2225  return super.tokenURI(tokenId) */\n      swap1\n      pop\n        /* \"contracts/MyToken.sol\":2043:2232  function tokenURI(uint256 tokenId)... */\n      swap2\n      swap1\n      pop\n      jump\t// out\n        /* \"@openzeppelin/contracts/token/ERC721/ERC721.sol\":3928:4081  function isApprovedForAll(address owner, address operator) public view virtual returns (bool) {... */\n    tag_128:\n        /* \"@openzeppelin/contracts/token/ERC721/ERC721.sol\":4016:4020  bool */\n      0x00\n        /* \"@openzeppelin/contracts/token/ERC721/ERC721.sol\":4039:4057  _operatorApprovals */\n      0x05\n        /* \"@openzeppelin/contracts/token/ERC721/ERC721.sol\":4039:4064  _operatorApprovals[owner] */\n      0x00\n        /* \"@openzeppelin/contracts/token/ERC721/ERC721.sol\":4058:4063  owner */\n      dup5\n        /* \"@openzeppelin/contracts/token/ERC721/ERC721.sol\":4039:4064  _operatorApprovals[owner] */\n      0xffffffffffffffffffffffffffffffffffffffff\n      and\n      0xffffffffffffffffffffffffffffffffffffffff\n      and\n      dup2\n      mstore\n      0x20\n      add\n      swap1\n      dup2\n      mstore\n      0x20\n      add\n      0x00\n      keccak256\n        /* \"@openzeppelin/contracts/token/ERC721/ERC721.sol\":4039:4074  _operatorApprovals[owner][operator] */\n      0x00\n        /* \"@openzeppelin/contracts/token/ERC721/ERC721.sol\":4065:4073  operator */\n      dup4\n        /* \"@openzeppelin/contracts/token/ERC721/ERC721.sol\":4039:4074  _operatorApprovals[owner][operator] */\n      0xffffffffffffffffffffffffffffffffffffffff\n      and\n      0xffffffffffffffffffffffffffffffffffffffff\n      and\n      dup2\n      mstore\n      0x20\n      add\n      swap1\n      dup2\n      mstore\n      0x20\n      add\n      0x00\n      keccak256\n      0x00\n      swap1\n      sload\n      swap1\n      0x0100\n      exp\n      swap1\n      div\n      0xff\n      and\n        /* \"@openzeppelin/contracts/token/ERC721/ERC721.sol\":4032:4074  return _operatorApprovals[owner][operator] */\n      swap1\n      pop\n        /* \"@openzeppelin/contracts/token/ERC721/ERC721.sol\":3928:4081  function isApprovedForAll(address owner, address operator) public view virtual returns (bool) {... */\n      swap3\n      swap2\n      pop\n      pop\n      jump\t// out\n        /* \"contracts/MyToken.sol\":856:942  function setMintFee(uint256 _newMintFee) public {... */\n    tag_133:\n        /* \"contracts/MyToken.sol\":924:935  _newMintFee */\n      dup1\n        /* \"contracts/MyToken.sol\":914:921  mintFee */\n      0x07\n        /* \"contracts/MyToken.sol\":914:935  mintFee = _newMintFee */\n      dup2\n      swap1\n      sstore\n      pop\n        /* \"contracts/MyToken.sol\":856:942  function setMintFee(uint256 _newMintFee) public {... */\n      pop\n      jump\t// out\n        /* \"@openzeppelin/contracts/token/ERC721/extensions/ERC721URIStorage.sol\":937:1144  function supportsInterface(bytes4 interfaceId) public view virtual override(ERC721, IERC165) returns (bool) {... */\n    tag_136:\n        /* \"@openzeppelin/contracts/token/ERC721/extensions/ERC721URIStorage.sol\":1039:1043  bool */\n      0x00\n        /* \"@openzeppelin/contracts/token/ERC721/extensions/ERC721URIStorage.sol\":760:770  0x49064906 */\n      0x49064906\n        /* \"@openzeppelin/contracts/token/ERC721/extensions/ERC721URIStorage.sol\":753:771  bytes4(0x49064906) */\n      0xe0\n      shl\n        /* \"@openzeppelin/contracts/token/ERC721/extensions/ERC721URIStorage.sol\":1062:1097  interfaceId == ERC4906_INTERFACE_ID */\n      not(0xffffffffffffffffffffffffffffffffffffffffffffffffffffffff)\n      and\n        /* \"@openzeppelin/contracts/token/ERC721/extensions/ERC721URIStorage.sol\":1062:1073  interfaceId */\n      dup3\n        /* \"@openzeppelin/contracts/token/ERC721/extensions/ERC721URIStorage.sol\":1062:1097  interfaceId == ERC4906_INTERFACE_ID */\n      not(0xffffffffffffffffffffffffffffffffffffffffffffffffffffffff)\n      and\n      eq\n        /* \"@openzeppelin/contracts/token/ERC721/extensions/ERC721URIStorage.sol\":1062:1137  interfaceId == ERC4906_INTERFACE_ID || super.supportsInterface(interfaceId) */\n      dup1\n      tag_223\n      jumpi\n      pop\n        /* \"@openzeppelin/contracts/token/ERC721/extensions/ERC721URIStorage.sol\":1101:1137  super.supportsInterface(interfaceId) */\n      tag_224\n        /* \"@openzeppelin/contracts/token/ERC721/extensions/ERC721URIStorage.sol\":1125:1136  interfaceId */\n      dup3\n        /* \"@openzeppelin/contracts/token/ERC721/extensions/ERC721URIStorage.sol\":1101:1124  super.supportsInterface */\n      tag_225\n        /* \"@openzeppelin/contracts/token/ERC721/extensions/ERC721URIStorage.sol\":1101:1137  super.supportsInterface(interfaceId) */\n      jump\t// in\n    tag_224:\n        /* \"@openzeppelin/contracts/token/ERC721/extensions/ERC721URIStorage.sol\":1062:1137  interfaceId == ERC4906_INTERFACE_ID || super.supportsInterface(interfaceId) */\n    tag_223:\n        /* \"@openzeppelin/contracts/token/ERC721/extensions/ERC721URIStorage.sol\":1055:1137  return interfaceId == ERC4906_INTERFACE_ID || super.supportsInterface(interfaceId) */\n      swap1\n      pop\n        /* \"@openzeppelin/contracts/token/ERC721/extensions/ERC721URIStorage.sol\":937:1144  function supportsInterface(bytes4 interfaceId) public view virtual override(ERC721, IERC165) returns (bool) {... */\n      swap2\n      swap1\n      pop\n      jump\t// out\n        /* \"@openzeppelin/contracts/token/ERC721/ERC721.sol\":16138:16379  function _requireOwned(uint256 tokenId) internal view returns (address) {... */\n    tag_146:\n        /* \"@openzeppelin/contracts/token/ERC721/ERC721.sol\":16201:16208  address */\n      0x00\n        /* \"@openzeppelin/contracts/token/ERC721/ERC721.sol\":16220:16233  address owner */\n      dup1\n        /* \"@openzeppelin/contracts/token/ERC721/ERC721.sol\":16236:16253  _ownerOf(tokenId) */\n      tag_227\n        /* \"@openzeppelin/contracts/token/ERC721/ERC721.sol\":16245:16252  tokenId */\n      dup4\n        /* \"@openzeppelin/contracts/token/ERC721/ERC721.sol\":16236:16244  _ownerOf */\n      tag_228\n        /* \"@openzeppelin/contracts/token/ERC721/ERC721.sol\":16236:16253  _ownerOf(tokenId) */\n      jump\t// in\n    tag_227:\n        /* \"@openzeppelin/contracts/token/ERC721/ERC721.sol\":16220:16253  address owner = _ownerOf(tokenId) */\n      swap1\n      pop\n        /* \"@openzeppelin/contracts/token/ERC721/ERC721.sol\":16284:16285  0 */\n      0x00\n        /* \"@openzeppelin/contracts/token/ERC721/ERC721.sol\":16267:16286  owner == address(0) */\n      0xffffffffffffffffffffffffffffffffffffffff\n      and\n        /* \"@openzeppelin/contracts/token/ERC721/ERC721.sol\":16267:16272  owner */\n      dup2\n        /* \"@openzeppelin/contracts/token/ERC721/ERC721.sol\":16267:16286  owner == address(0) */\n      0xffffffffffffffffffffffffffffffffffffffff\n      and\n      sub\n        /* \"@openzeppelin/contracts/token/ERC721/ERC721.sol\":16263:16351  if (owner == address(0)) {... */\n      tag_229\n      jumpi\n        /* \"@openzeppelin/contracts/token/ERC721/ERC721.sol\":16332:16339  tokenId */\n      dup3\n        /* \"@openzeppelin/contracts/token/ERC721/ERC721.sol\":16309:16340  ERC721NonexistentToken(tokenId) */\n      mload(0x40)\n      0x7e27328900000000000000000000000000000000000000000000000000000000\n      dup2\n      mstore\n      0x04\n      add\n      tag_230\n      swap2\n      swap1\n      tag_55\n      jump\t// in\n    tag_230:\n      mload(0x40)\n      dup1\n      swap2\n      sub\n      swap1\n      revert\n        /* \"@openzeppelin/contracts/token/ERC721/ERC721.sol\":16263:16351  if (owner == address(0)) {... */\n    tag_229:\n        /* \"@openzeppelin/contracts/token/ERC721/ERC721.sol\":16367:16372  owner */\n      dup1\n        /* \"@openzeppelin/contracts/token/ERC721/ERC721.sol\":16360:16372  return owner */\n      swap2\n      pop\n      pop\n        /* \"@openzeppelin/contracts/token/ERC721/ERC721.sol\":16138:16379  function _requireOwned(uint256 tokenId) internal view returns (address) {... */\n      swap2\n      swap1\n      pop\n      jump\t// out\n        /* \"@openzeppelin/contracts/token/ERC721/ERC721.sol\":5938:6065  function _getApproved(uint256 tokenId) internal view virtual returns (address) {... */\n    tag_148:\n        /* \"@openzeppelin/contracts/token/ERC721/ERC721.sol\":6008:6015  address */\n      0x00\n        /* \"@openzeppelin/contracts/token/ERC721/ERC721.sol\":6034:6049  _tokenApprovals */\n      0x04\n        /* \"@openzeppelin/contracts/token/ERC721/ERC721.sol\":6034:6058  _tokenApprovals[tokenId] */\n      0x00\n        /* \"@openzeppelin/contracts/token/ERC721/ERC721.sol\":6050:6057  tokenId */\n      dup4\n        /* \"@openzeppelin/contracts/token/ERC721/ERC721.sol\":6034:6058  _tokenApprovals[tokenId] */\n      dup2\n      mstore\n      0x20\n      add\n      swap1\n      dup2\n      mstore\n      0x20\n      add\n      0x00\n      keccak256\n      0x00\n      swap1\n      sload\n      swap1\n      0x0100\n      exp\n      swap1\n      div\n      0xffffffffffffffffffffffffffffffffffffffff\n      and\n        /* \"@openzeppelin/contracts/token/ERC721/ERC721.sol\":6027:6058  return _tokenApprovals[tokenId] */\n      swap1\n      pop\n        /* \"@openzeppelin/contracts/token/ERC721/ERC721.sol\":5938:6065  function _getApproved(uint256 tokenId) internal view virtual returns (address) {... */\n      swap2\n      swap1\n      pop\n      jump\t// out\n        /* \"@openzeppelin/contracts/utils/Context.sol\":656:752  function _msgSender() internal view virtual returns (address) {... */\n    tag_152:\n        /* \"@openzeppelin/contracts/utils/Context.sol\":709:716  address */\n      0x00\n        /* \"@openzeppelin/contracts/utils/Context.sol\":735:745  msg.sender */\n      caller\n        /* \"@openzeppelin/contracts/utils/Context.sol\":728:745  return msg.sender */\n      swap1\n      pop\n        /* \"@openzeppelin/contracts/utils/Context.sol\":656:752  function _msgSender() internal view virtual returns (address) {... */\n      swap1\n      jump\t// out\n        /* \"@openzeppelin/contracts/token/ERC721/ERC721.sol\":14418:14538  function _approve(address to, uint256 tokenId, address auth) internal {... */\n    tag_153:\n        /* \"@openzeppelin/contracts/token/ERC721/ERC721.sol\":14498:14531  _approve(to, tokenId, auth, true) */\n      tag_234\n        /* \"@openzeppelin/contracts/token/ERC721/ERC721.sol\":14507:14509  to */\n      dup4\n        /* \"@openzeppelin/contracts/token/ERC721/ERC721.sol\":14511:14518  tokenId */\n      dup4\n        /* \"@openzeppelin/contracts/token/ERC721/ERC721.sol\":14520:14524  auth */\n      dup4\n        /* \"@openzeppelin/contracts/token/ERC721/ERC721.sol\":14526:14530  true */\n      0x01\n        /* \"@openzeppelin/contracts/token/ERC721/ERC721.sol\":14498:14506  _approve */\n      tag_235\n        /* \"@openzeppelin/contracts/token/ERC721/ERC721.sol\":14498:14531  _approve(to, tokenId, auth, true) */\n      jump\t// in\n    tag_234:\n        /* \"@openzeppelin/contracts/token/ERC721/ERC721.sol\":14418:14538  function _approve(address to, uint256 tokenId, address auth) internal {... */\n      pop\n      pop\n      pop\n      jump\t// out\n        /* \"@openzeppelin/contracts/token/ERC721/ERC721.sol\":10633:10733  function _safeMint(address to, uint256 tokenId) internal {... */\n    tag_159:\n        /* \"@openzeppelin/contracts/token/ERC721/ERC721.sol\":10700:10726  _safeMint(to, tokenId, \"\") */\n      tag_237\n        /* \"@openzeppelin/contracts/token/ERC721/ERC721.sol\":10710:10712  to */\n      dup3\n        /* \"@openzeppelin/contracts/token/ERC721/ERC721.sol\":10714:10721  tokenId */\n      dup3\n        /* \"@openzeppelin/contracts/token/ERC721/ERC721.sol\":10700:10726  _safeMint(to, tokenId, \"\") */\n      mload(0x40)\n      dup1\n      0x20\n      add\n      0x40\n      mstore\n      dup1\n      0x00\n      dup2\n      mstore\n      pop\n        /* \"@openzeppelin/contracts/token/ERC721/ERC721.sol\":10700:10709  _safeMint */\n      tag_238\n        /* \"@openzeppelin/contracts/token/ERC721/ERC721.sol\":10700:10726  _safeMint(to, tokenId, \"\") */\n      jump\t// in\n    tag_237:\n        /* \"@openzeppelin/contracts/token/ERC721/ERC721.sol\":10633:10733  function _safeMint(address to, uint256 tokenId) internal {... */\n      pop\n      pop\n      jump\t// out\n        /* \"@openzeppelin/contracts/token/ERC721/extensions/ERC721URIStorage.sol\":1922:2089  function _setTokenURI(uint256 tokenId, string memory _tokenURI) internal virtual {... */\n    tag_161:\n        /* \"@openzeppelin/contracts/token/ERC721/extensions/ERC721URIStorage.sol\":2035:2044  _tokenURI */\n      dup1\n        /* \"@openzeppelin/contracts/token/ERC721/extensions/ERC721URIStorage.sol\":2013:2023  _tokenURIs */\n      0x06\n        /* \"@openzeppelin/contracts/token/ERC721/extensions/ERC721URIStorage.sol\":2013:2032  _tokenURIs[tokenId] */\n      0x00\n        /* \"@openzeppelin/contracts/token/ERC721/extensions/ERC721URIStorage.sol\":2024:2031  tokenId */\n      dup5\n        /* \"@openzeppelin/contracts/token/ERC721/extensions/ERC721URIStorage.sol\":2013:2032  _tokenURIs[tokenId] */\n      dup2\n      mstore\n      0x20\n      add\n      swap1\n      dup2\n      mstore\n      0x20\n      add\n      0x00\n      keccak256\n        /* \"@openzeppelin/contracts/token/ERC721/extensions/ERC721URIStorage.sol\":2013:2044  _tokenURIs[tokenId] = _tokenURI */\n      swap1\n      dup2\n      tag_240\n      swap2\n      swap1\n      tag_192\n      jump\t// in\n    tag_240:\n      pop\n        /* \"@openzeppelin/contracts/token/ERC721/extensions/ERC721URIStorage.sol\":2059:2082  MetadataUpdate(tokenId) */\n      0xf8e1a15aba9398e019f0b49df1a4fde98ee17ae345cb5f6b5e2c27f5033e8ce7\n        /* \"@openzeppelin/contracts/token/ERC721/extensions/ERC721URIStorage.sol\":2074:2081  tokenId */\n      dup3\n        /* \"@openzeppelin/contracts/token/ERC721/extensions/ERC721URIStorage.sol\":2059:2082  MetadataUpdate(tokenId) */\n      mload(0x40)\n      tag_241\n      swap2\n      swap1\n      tag_55\n      jump\t// in\n    tag_241:\n      mload(0x40)\n      dup1\n      swap2\n      sub\n      swap1\n      log1\n        /* \"@openzeppelin/contracts/token/ERC721/extensions/ERC721URIStorage.sol\":1922:2089  function _setTokenURI(uint256 tokenId, string memory _tokenURI) internal virtual {... */\n      pop\n      pop\n      jump\t// out\n        /* \"contracts/MyToken.sol\":1523:1699  function _burnAfterTimeout(address owner, uint256 tokenId) internal {... */\n    tag_163:\n        /* \"contracts/MyToken.sol\":1601:1617  uint256 burnTime */\n      0x00\n        /* \"contracts/MyToken.sol\":1638:1649  mintTimeout */\n      sload(0x08)\n        /* \"contracts/MyToken.sol\":1620:1635  block.timestamp */\n      timestamp\n        /* \"contracts/MyToken.sol\":1620:1649  block.timestamp + mintTimeout */\n      tag_243\n      swap2\n      swap1\n      tag_244\n      jump\t// in\n    tag_243:\n        /* \"contracts/MyToken.sol\":1601:1649  uint256 burnTime = block.timestamp + mintTimeout */\n      swap1\n      pop\n        /* \"contracts/MyToken.sol\":1684:1692  burnTime */\n      dup1\n        /* \"contracts/MyToken.sol\":1659:1672  _mintTimeouts */\n      0x0a\n        /* \"contracts/MyToken.sol\":1659:1681  _mintTimeouts[tokenId] */\n      0x00\n        /* \"contracts/MyToken.sol\":1673:1680  tokenId */\n      dup5\n        /* \"contracts/MyToken.sol\":1659:1681  _mintTimeouts[tokenId] */\n      dup2\n      mstore\n      0x20\n      add\n      swap1\n      dup2\n      mstore\n      0x20\n      add\n      0x00\n      keccak256\n        /* \"contracts/MyToken.sol\":1659:1692  _mintTimeouts[tokenId] = burnTime */\n      dup2\n      swap1\n      sstore\n      pop\n        /* \"contracts/MyToken.sol\":1591:1699  {... */\n      pop\n        /* \"contracts/MyToken.sol\":1523:1699  function _burnAfterTimeout(address owner, uint256 tokenId) internal {... */\n      pop\n      pop\n      jump\t// out\n        /* \"@openzeppelin/contracts/token/ERC721/ERC721.sol\":8838:9633  function _update(address to, uint256 tokenId, address auth) internal virtual returns (address) {... */\n    tag_169:\n        /* \"@openzeppelin/contracts/token/ERC721/ERC721.sol\":8924:8931  address */\n      0x00\n        /* \"@openzeppelin/contracts/token/ERC721/ERC721.sol\":8943:8955  address from */\n      dup1\n        /* \"@openzeppelin/contracts/token/ERC721/ERC721.sol\":8958:8975  _ownerOf(tokenId) */\n      tag_246\n        /* \"@openzeppelin/contracts/token/ERC721/ERC721.sol\":8967:8974  tokenId */\n      dup5\n        /* \"@openzeppelin/contracts/token/ERC721/ERC721.sol\":8958:8966  _ownerOf */\n      tag_228\n        /* \"@openzeppelin/contracts/token/ERC721/ERC721.sol\":8958:8975  _ownerOf(tokenId) */\n      jump\t// in\n    tag_246:\n        /* \"@openzeppelin/contracts/token/ERC721/ERC721.sol\":8943:8975  address from = _ownerOf(tokenId) */\n      swap1\n      pop\n        /* \"@openzeppelin/contracts/token/ERC721/ERC721.sol\":9051:9052  0 */\n      0x00\n        /* \"@openzeppelin/contracts/token/ERC721/ERC721.sol\":9035:9053  auth != address(0) */\n      0xffffffffffffffffffffffffffffffffffffffff\n      and\n        /* \"@openzeppelin/contracts/token/ERC721/ERC721.sol\":9035:9039  auth */\n      dup4\n        /* \"@openzeppelin/contracts/token/ERC721/ERC721.sol\":9035:9053  auth != address(0) */\n      0xffffffffffffffffffffffffffffffffffffffff\n      and\n      eq\n        /* \"@openzeppelin/contracts/token/ERC721/ERC721.sol\":9031:9117  if (auth != address(0)) {... */\n      tag_247\n      jumpi\n        /* \"@openzeppelin/contracts/token/ERC721/ERC721.sol\":9069:9106  _checkAuthorized(from, auth, tokenId) */\n      tag_248\n        /* \"@openzeppelin/contracts/token/ERC721/ERC721.sol\":9086:9090  from */\n      dup2\n        /* \"@openzeppelin/contracts/token/ERC721/ERC721.sol\":9092:9096  auth */\n      dup5\n        /* \"@openzeppelin/contracts/token/ERC721/ERC721.sol\":9098:9105  tokenId */\n      dup7\n        /* \"@openzeppelin/contracts/token/ERC721/ERC721.sol\":9069:9085  _checkAuthorized */\n      tag_249\n        /* \"@openzeppelin/contracts/token/ERC721/ERC721.sol\":9069:9106  _checkAuthorized(from, auth, tokenId) */\n      jump\t// in\n    tag_248:\n        /* \"@openzeppelin/contracts/token/ERC721/ERC721.sol\":9031:9117  if (auth != address(0)) {... */\n    tag_247:\n        /* \"@openzeppelin/contracts/token/ERC721/ERC721.sol\":9177:9178  0 */\n      0x00\n        /* \"@openzeppelin/contracts/token/ERC721/ERC721.sol\":9161:9179  from != address(0) */\n      0xffffffffffffffffffffffffffffffffffffffff\n      and\n        /* \"@openzeppelin/contracts/token/ERC721/ERC721.sol\":9161:9165  from */\n      dup2\n        /* \"@openzeppelin/contracts/token/ERC721/ERC721.sol\":9161:9179  from != address(0) */\n      0xffffffffffffffffffffffffffffffffffffffff\n      and\n      eq\n        /* \"@openzeppelin/contracts/token/ERC721/ERC721.sol\":9157:9413  if (from != address(0)) {... */\n      tag_250\n      jumpi\n        /* \"@openzeppelin/contracts/token/ERC721/ERC721.sol\":9277:9325  _approve(address(0), tokenId, address(0), false) */\n      tag_251\n        /* \"@openzeppelin/contracts/token/ERC721/ERC721.sol\":9294:9295  0 */\n      0x00\n        /* \"@openzeppelin/contracts/token/ERC721/ERC721.sol\":9298:9305  tokenId */\n      dup6\n        /* \"@openzeppelin/contracts/token/ERC721/ERC721.sol\":9315:9316  0 */\n      0x00\n        /* \"@openzeppelin/contracts/token/ERC721/ERC721.sol\":9319:9324  false */\n      dup1\n        /* \"@openzeppelin/contracts/token/ERC721/ERC721.sol\":9277:9285  _approve */\n      tag_235\n        /* \"@openzeppelin/contracts/token/ERC721/ERC721.sol\":9277:9325  _approve(address(0), tokenId, address(0), false) */\n      jump\t// in\n    tag_251:\n        /* \"@openzeppelin/contracts/token/ERC721/ERC721.sol\":9387:9388  1 */\n      0x01\n        /* \"@openzeppelin/contracts/token/ERC721/ERC721.sol\":9368:9377  _balances */\n      0x03\n        /* \"@openzeppelin/contracts/token/ERC721/ERC721.sol\":9368:9383  _balances[from] */\n      0x00\n        /* \"@openzeppelin/contracts/token/ERC721/ERC721.sol\":9378:9382  from */\n      dup4\n        /* \"@openzeppelin/contracts/token/ERC721/ERC721.sol\":9368:9383  _balances[from] */\n      0xffffffffffffffffffffffffffffffffffffffff\n      and\n      0xffffffffffffffffffffffffffffffffffffffff\n      and\n      dup2\n      mstore\n      0x20\n      add\n      swap1\n      dup2\n      mstore\n      0x20\n      add\n      0x00\n      keccak256\n      0x00\n        /* \"@openzeppelin/contracts/token/ERC721/ERC721.sol\":9368:9388  _balances[from] -= 1 */\n      dup3\n      dup3\n      sload\n      sub\n      swap3\n      pop\n      pop\n      dup2\n      swap1\n      sstore\n      pop\n        /* \"@openzeppelin/contracts/token/ERC721/ERC721.sol\":9157:9413  if (from != address(0)) {... */\n    tag_250:\n        /* \"@openzeppelin/contracts/token/ERC721/ERC721.sol\":9441:9442  0 */\n      0x00\n        /* \"@openzeppelin/contracts/token/ERC721/ERC721.sol\":9427:9443  to != address(0) */\n      0xffffffffffffffffffffffffffffffffffffffff\n      and\n        /* \"@openzeppelin/contracts/token/ERC721/ERC721.sol\":9427:9429  to */\n      dup6\n        /* \"@openzeppelin/contracts/token/ERC721/ERC721.sol\":9427:9443  to != address(0) */\n      0xffffffffffffffffffffffffffffffffffffffff\n      and\n      eq\n        /* \"@openzeppelin/contracts/token/ERC721/ERC721.sol\":9423:9530  if (to != address(0)) {... */\n      tag_252\n      jumpi\n        /* \"@openzeppelin/contracts/token/ERC721/ERC721.sol\":9504:9505  1 */\n      0x01\n        /* \"@openzeppelin/contracts/token/ERC721/ERC721.sol\":9487:9496  _balances */\n      0x03\n        /* \"@openzeppelin/contracts/token/ERC721/ERC721.sol\":9487:9500  _balances[to] */\n      0x00\n        /* \"@openzeppelin/contracts/token/ERC721/ERC721.sol\":9497:9499  to */\n      dup8\n        /* \"@openzeppelin/contracts/token/ERC721/ERC721.sol\":9487:9500  _balances[to] */\n      0xffffffffffffffffffffffffffffffffffffffff\n      and\n      0xffffffffffffffffffffffffffffffffffffffff\n      and\n      dup2\n      mstore\n      0x20\n      add\n      swap1\n      dup2\n      mstore\n      0x20\n      add\n      0x00\n      keccak256\n      0x00\n        /* \"@openzeppelin/contracts/token/ERC721/ERC721.sol\":9487:9505  _balances[to] += 1 */\n      dup3\n      dup3\n      sload\n      add\n      swap3\n      pop\n      pop\n      dup2\n      swap1\n      sstore\n      pop\n        /* \"@openzeppelin/contracts/token/ERC721/ERC721.sol\":9423:9530  if (to != address(0)) {... */\n    tag_252:\n        /* \"@openzeppelin/contracts/token/ERC721/ERC721.sol\":9559:9561  to */\n      dup5\n        /* \"@openzeppelin/contracts/token/ERC721/ERC721.sol\":9540:9547  _owners */\n      0x02\n        /* \"@openzeppelin/contracts/token/ERC721/ERC721.sol\":9540:9556  _owners[tokenId] */\n      0x00\n        /* \"@openzeppelin/contracts/token/ERC721/ERC721.sol\":9548:9555  tokenId */\n      dup7\n        /* \"@openzeppelin/contracts/token/ERC721/ERC721.sol\":9540:9556  _owners[tokenId] */\n      dup2\n      mstore\n      0x20\n      add\n      swap1\n      dup2\n      mstore\n      0x20\n      add\n      0x00\n      keccak256\n      0x00\n        /* \"@openzeppelin/contracts/token/ERC721/ERC721.sol\":9540:9561  _owners[tokenId] = to */\n      0x0100\n      exp\n      dup2\n      sload\n      dup2\n      0xffffffffffffffffffffffffffffffffffffffff\n      mul\n      not\n      and\n      swap1\n      dup4\n      0xffffffffffffffffffffffffffffffffffffffff\n      and\n      mul\n      or\n      swap1\n      sstore\n      pop\n        /* \"@openzeppelin/contracts/token/ERC721/ERC721.sol\":9596:9603  tokenId */\n      dup4\n        /* \"@openzeppelin/contracts/token/ERC721/ERC721.sol\":9592:9594  to */\n      dup6\n        /* \"@openzeppelin/contracts/token/ERC721/ERC721.sol\":9577:9604  Transfer(from, to, tokenId) */\n      0xffffffffffffffffffffffffffffffffffffffff\n      and\n        /* \"@openzeppelin/contracts/token/ERC721/ERC721.sol\":9586:9590  from */\n      dup3\n        /* \"@openzeppelin/contracts/token/ERC721/ERC721.sol\":9577:9604  Transfer(from, to, tokenId) */\n      0xffffffffffffffffffffffffffffffffffffffff\n      and\n      0xddf252ad1be2c89b69c2b068fc378daa952ba7f163c4a11628f55a4df523b3ef\n      mload(0x40)\n      mload(0x40)\n      dup1\n      swap2\n      sub\n      swap1\n      log4\n        /* \"@openzeppelin/contracts/token/ERC721/ERC721.sol\":9622:9626  from */\n      dup1\n        /* \"@openzeppelin/contracts/token/ERC721/ERC721.sol\":9615:9626  return from */\n      swap2\n      pop\n      pop\n        /* \"@openzeppelin/contracts/token/ERC721/ERC721.sol\":8838:9633  function _update(address to, uint256 tokenId, address auth) internal virtual returns (address) {... */\n      swap4\n      swap3\n      pop\n      pop\n      pop\n      jump\t// out\n        /* \"@openzeppelin/contracts/token/ERC721/ERC721.sol\":11462:11689  function _burn(uint256 tokenId) internal {... */\n    tag_183:\n        /* \"@openzeppelin/contracts/token/ERC721/ERC721.sol\":11513:11534  address previousOwner */\n      0x00\n        /* \"@openzeppelin/contracts/token/ERC721/ERC721.sol\":11537:11577  _update(address(0), tokenId, address(0)) */\n      tag_254\n        /* \"@openzeppelin/contracts/token/ERC721/ERC721.sol\":11553:11554  0 */\n      0x00\n        /* \"@openzeppelin/contracts/token/ERC721/ERC721.sol\":11557:11564  tokenId */\n      dup4\n        /* \"@openzeppelin/contracts/token/ERC721/ERC721.sol\":11574:11575  0 */\n      0x00\n        /* \"@openzeppelin/contracts/token/ERC721/ERC721.sol\":11537:11544  _update */\n      tag_169\n        /* \"@openzeppelin/contracts/token/ERC721/ERC721.sol\":11537:11577  _update(address(0), tokenId, address(0)) */\n      jump\t// in\n    tag_254:\n        /* \"@openzeppelin/contracts/token/ERC721/ERC721.sol\":11513:11577  address previousOwner = _update(address(0), tokenId, address(0)) */\n      swap1\n      pop\n        /* \"@openzeppelin/contracts/token/ERC721/ERC721.sol\":11616:11617  0 */\n      0x00\n        /* \"@openzeppelin/contracts/token/ERC721/ERC721.sol\":11591:11618  previousOwner == address(0) */\n      0xffffffffffffffffffffffffffffffffffffffff\n      and\n        /* \"@openzeppelin/contracts/token/ERC721/ERC721.sol\":11591:11604  previousOwner */\n      dup2\n        /* \"@openzeppelin/contracts/token/ERC721/ERC721.sol\":11591:11618  previousOwner == address(0) */\n      0xffffffffffffffffffffffffffffffffffffffff\n      and\n      sub\n        /* \"@openzeppelin/contracts/token/ERC721/ERC721.sol\":11587:11683  if (previousOwner == address(0)) {... */\n      tag_255\n      jumpi\n        /* \"@openzeppelin/contracts/token/ERC721/ERC721.sol\":11664:11671  tokenId */\n      dup2\n        /* \"@openzeppelin/contracts/token/ERC721/ERC721.sol\":11641:11672  ERC721NonexistentToken(tokenId) */\n      mload(0x40)\n      0x7e27328900000000000000000000000000000000000000000000000000000000\n      dup2\n      mstore\n      0x04\n      add\n      tag_256\n      swap2\n      swap1\n      tag_55\n      jump\t// in\n    tag_256:\n      mload(0x40)\n      dup1\n      swap2\n      sub\n      swap1\n      revert\n        /* \"@openzeppelin/contracts/token/ERC721/ERC721.sol\":11587:11683  if (previousOwner == address(0)) {... */\n    tag_255:\n        /* \"@openzeppelin/contracts/token/ERC721/ERC721.sol\":11503:11689  {... */\n      pop\n        /* \"@openzeppelin/contracts/token/ERC721/ERC721.sol\":11462:11689  function _burn(uint256 tokenId) internal {... */\n      pop\n      jump\t// out\n        /* \"@openzeppelin/contracts/token/ERC721/ERC721.sol\":15591:15903  function _setApprovalForAll(address owner, address operator, bool approved) internal virtual {... */\n    tag_212:\n        /* \"@openzeppelin/contracts/token/ERC721/ERC721.sol\":15718:15719  0 */\n      0x00\n        /* \"@openzeppelin/contracts/token/ERC721/ERC721.sol\":15698:15720  operator == address(0) */\n      0xffffffffffffffffffffffffffffffffffffffff\n      and\n        /* \"@openzeppelin/contracts/token/ERC721/ERC721.sol\":15698:15706  operator */\n      dup3\n        /* \"@openzeppelin/contracts/token/ERC721/ERC721.sol\":15698:15720  operator == address(0) */\n      0xffffffffffffffffffffffffffffffffffffffff\n      and\n      sub\n        /* \"@openzeppelin/contracts/token/ERC721/ERC721.sol\":15694:15785  if (operator == address(0)) {... */\n      tag_258\n      jumpi\n        /* \"@openzeppelin/contracts/token/ERC721/ERC721.sol\":15765:15773  operator */\n      dup2\n        /* \"@openzeppelin/contracts/token/ERC721/ERC721.sol\":15743:15774  ERC721InvalidOperator(operator) */\n      mload(0x40)\n      0x5b08ba1800000000000000000000000000000000000000000000000000000000\n      dup2\n      mstore\n      0x04\n      add\n      tag_259\n      swap2\n      swap1\n      tag_45\n      jump\t// in\n    tag_259:\n      mload(0x40)\n      dup1\n      swap2\n      sub\n      swap1\n      revert\n        /* \"@openzeppelin/contracts/token/ERC721/ERC721.sol\":15694:15785  if (operator == address(0)) {... */\n    tag_258:\n        /* \"@openzeppelin/contracts/token/ERC721/ERC721.sol\":15832:15840  approved */\n      dup1\n        /* \"@openzeppelin/contracts/token/ERC721/ERC721.sol\":15794:15812  _operatorApprovals */\n      0x05\n        /* \"@openzeppelin/contracts/token/ERC721/ERC721.sol\":15794:15819  _operatorApprovals[owner] */\n      0x00\n        /* \"@openzeppelin/contracts/token/ERC721/ERC721.sol\":15813:15818  owner */\n      dup6\n        /* \"@openzeppelin/contracts/token/ERC721/ERC721.sol\":15794:15819  _operatorApprovals[owner] */\n      0xffffffffffffffffffffffffffffffffffffffff\n      and\n      0xffffffffffffffffffffffffffffffffffffffff\n      and\n      dup2\n      mstore\n      0x20\n      add\n      swap1\n      dup2\n      mstore\n      0x20\n      add\n      0x00\n      keccak256\n        /* \"@openzeppelin/contracts/token/ERC721/ERC721.sol\":15794:15829  _operatorApprovals[owner][operator] */\n      0x00\n        /* \"@openzeppelin/contracts/token/ERC721/ERC721.sol\":15820:15828  operator */\n      dup5\n        /* \"@openzeppelin/contracts/token/ERC721/ERC721.sol\":15794:15829  _operatorApprovals[owner][operator] */\n      0xffffffffffffffffffffffffffffffffffffffff\n      and\n      0xffffffffffffffffffffffffffffffffffffffff\n      and\n      dup2\n      mstore\n      0x20\n      add\n      swap1\n      dup2\n      mstore\n      0x20\n      add\n      0x00\n      keccak256\n      0x00\n        /* \"@openzeppelin/contracts/token/ERC721/ERC721.sol\":15794:15840  _operatorApprovals[owner][operator] = approved */\n      0x0100\n      exp\n      dup2\n      sload\n      dup2\n      0xff\n      mul\n      not\n      and\n      swap1\n      dup4\n      iszero\n      iszero\n      mul\n      or\n      swap1\n      sstore\n      pop\n        /* \"@openzeppelin/contracts/token/ERC721/ERC721.sol\":15877:15885  operator */\n      dup2\n        /* \"@openzeppelin/contracts/token/ERC721/ERC721.sol\":15855:15896  ApprovalForAll(owner, operator, approved) */\n      0xffffffffffffffffffffffffffffffffffffffff\n      and\n        /* \"@openzeppelin/contracts/token/ERC721/ERC721.sol\":15870:15875  owner */\n      dup4\n        /* \"@openzeppelin/contracts/token/ERC721/ERC721.sol\":15855:15896  ApprovalForAll(owner, operator, approved) */\n      0xffffffffffffffffffffffffffffffffffffffff\n      and\n      0x17307eab39ab6107e8899845ad3d59bd9653f200f220920489ca2b5937696c31\n        /* \"@openzeppelin/contracts/token/ERC721/ERC721.sol\":15887:15895  approved */\n      dup4\n        /* \"@openzeppelin/contracts/token/ERC721/ERC721.sol\":15855:15896  ApprovalForAll(owner, operator, approved) */\n      mload(0x40)\n      tag_260\n      swap2\n      swap1\n      tag_33\n      jump\t// in\n    tag_260:\n      mload(0x40)\n      dup1\n      swap2\n      sub\n      swap1\n      log3\n        /* \"@openzeppelin/contracts/token/ERC721/ERC721.sol\":15591:15903  function _setApprovalForAll(address owner, address operator, bool approved) internal virtual {... */\n      pop\n      pop\n      pop\n      jump\t// out\n        /* \"@openzeppelin/contracts/token/ERC721/ERC721.sol\":16918:17700  function _checkOnERC721Received(address from, address to, uint256 tokenId, bytes memory data) private {... */\n    tag_216:\n        /* \"@openzeppelin/contracts/token/ERC721/ERC721.sol\":17051:17052  0 */\n      0x00\n        /* \"@openzeppelin/contracts/token/ERC721/ERC721.sol\":17034:17036  to */\n      dup4\n        /* \"@openzeppelin/contracts/token/ERC721/ERC721.sol\":17034:17048  to.code.length */\n      0xffffffffffffffffffffffffffffffffffffffff\n      and\n      extcodesize\n        /* \"@openzeppelin/contracts/token/ERC721/ERC721.sol\":17034:17052  to.code.length > 0 */\n      gt\n        /* \"@openzeppelin/contracts/token/ERC721/ERC721.sol\":17030:17694  if (to.code.length > 0) {... */\n      iszero\n      tag_262\n      jumpi\n        /* \"@openzeppelin/contracts/token/ERC721/ERC721.sol\":17088:17090  to */\n      dup3\n        /* \"@openzeppelin/contracts/token/ERC721/ERC721.sol\":17072:17108  IERC721Receiver(to).onERC721Received */\n      0xffffffffffffffffffffffffffffffffffffffff\n      and\n      0x150b7a02\n        /* \"@openzeppelin/contracts/token/ERC721/ERC721.sol\":17109:17121  _msgSender() */\n      tag_263\n        /* \"@openzeppelin/contracts/token/ERC721/ERC721.sol\":17109:17119  _msgSender */\n      tag_152\n        /* \"@openzeppelin/contracts/token/ERC721/ERC721.sol\":17109:17121  _msgSender() */\n      jump\t// in\n    tag_263:\n        /* \"@openzeppelin/contracts/token/ERC721/ERC721.sol\":17123:17127  from */\n      dup7\n        /* \"@openzeppelin/contracts/token/ERC721/ERC721.sol\":17129:17136  tokenId */\n      dup6\n        /* \"@openzeppelin/contracts/token/ERC721/ERC721.sol\":17138:17142  data */\n      dup6\n        /* \"@openzeppelin/contracts/token/ERC721/ERC721.sol\":17072:17143  IERC721Receiver(to).onERC721Received(_msgSender(), from, tokenId, data) */\n      mload(0x40)\n      dup6\n      0xffffffff\n      and\n      0xe0\n      shl\n      dup2\n      mstore\n      0x04\n      add\n      tag_264\n      swap5\n      swap4\n      swap3\n      swap2\n      swap1\n      tag_265\n      jump\t// in\n    tag_264:\n      0x20\n      mload(0x40)\n      dup1\n      dup4\n      sub\n      dup2\n      0x00\n      dup8\n      gas\n      call\n      swap3\n      pop\n      pop\n      pop\n      dup1\n      iszero\n      tag_266\n      jumpi\n      pop\n      mload(0x40)\n      returndatasize\n      not(0x1f)\n      0x1f\n      dup3\n      add\n      and\n      dup3\n      add\n      dup1\n      0x40\n      mstore\n      pop\n      dup2\n      add\n      swap1\n      tag_267\n      swap2\n      swap1\n      tag_268\n      jump\t// in\n    tag_267:\n      0x01\n    tag_266:\n        /* \"@openzeppelin/contracts/token/ERC721/ERC721.sol\":17068:17684  try IERC721Receiver(to).onERC721Received(_msgSender(), from, tokenId, data) returns (bytes4 retval) {... */\n      tag_269\n      jumpi\n      returndatasize\n      dup1\n      0x00\n      dup2\n      eq\n      tag_274\n      jumpi\n      mload(0x40)\n      swap2\n      pop\n      and(add(returndatasize, 0x3f), not(0x1f))\n      dup3\n      add\n      0x40\n      mstore\n      returndatasize\n      dup3\n      mstore\n      returndatasize\n      0x00\n      0x20\n      dup5\n      add\n      returndatacopy\n      jump(tag_273)\n    tag_274:\n      0x60\n      swap2\n      pop\n    tag_273:\n      pop\n        /* \"@openzeppelin/contracts/token/ERC721/ERC721.sol\":17398:17399  0 */\n      0x00\n        /* \"@openzeppelin/contracts/token/ERC721/ERC721.sol\":17381:17387  reason */\n      dup2\n        /* \"@openzeppelin/contracts/token/ERC721/ERC721.sol\":17381:17394  reason.length */\n      mload\n        /* \"@openzeppelin/contracts/token/ERC721/ERC721.sol\":17381:17399  reason.length == 0 */\n      sub\n        /* \"@openzeppelin/contracts/token/ERC721/ERC721.sol\":17377:17670  if (reason.length == 0) {... */\n      tag_275\n      jumpi\n        /* \"@openzeppelin/contracts/token/ERC721/ERC721.sol\":17452:17454  to */\n      dup4\n        /* \"@openzeppelin/contracts/token/ERC721/ERC721.sol\":17430:17455  ERC721InvalidReceiver(to) */\n      mload(0x40)\n      0x64a0ae9200000000000000000000000000000000000000000000000000000000\n      dup2\n      mstore\n      0x04\n      add\n      tag_276\n      swap2\n      swap1\n      tag_45\n      jump\t// in\n    tag_276:\n      mload(0x40)\n      dup1\n      swap2\n      sub\n      swap1\n      revert\n        /* \"@openzeppelin/contracts/token/ERC721/ERC721.sol\":17377:17670  if (reason.length == 0) {... */\n    tag_275:\n        /* \"@openzeppelin/contracts/token/ERC721/ERC721.sol\":17622:17628  reason */\n      dup1\n        /* \"@openzeppelin/contracts/token/ERC721/ERC721.sol\":17616:17629  mload(reason) */\n      mload\n        /* \"@openzeppelin/contracts/token/ERC721/ERC721.sol\":17607:17613  reason */\n      dup2\n        /* \"@openzeppelin/contracts/token/ERC721/ERC721.sol\":17603:17605  32 */\n      0x20\n        /* \"@openzeppelin/contracts/token/ERC721/ERC721.sol\":17599:17614  add(32, reason) */\n      add\n        /* \"@openzeppelin/contracts/token/ERC721/ERC721.sol\":17592:17630  revert(add(32, reason), mload(reason)) */\n      revert\n        /* \"@openzeppelin/contracts/token/ERC721/ERC721.sol\":17068:17684  try IERC721Receiver(to).onERC721Received(_msgSender(), from, tokenId, data) returns (bytes4 retval) {... */\n    tag_269:\n        /* \"@openzeppelin/contracts/token/ERC721/ERC721.sol\":17200:17241  IERC721Receiver.onERC721Received.selector */\n      shl(0xe0, 0x150b7a02)\n        /* \"@openzeppelin/contracts/token/ERC721/ERC721.sol\":17190:17241  retval != IERC721Receiver.onERC721Received.selector */\n      not(0xffffffffffffffffffffffffffffffffffffffffffffffffffffffff)\n      and\n        /* \"@openzeppelin/contracts/token/ERC721/ERC721.sol\":17190:17196  retval */\n      dup2\n        /* \"@openzeppelin/contracts/token/ERC721/ERC721.sol\":17190:17241  retval != IERC721Receiver.onERC721Received.selector */\n      not(0xffffffffffffffffffffffffffffffffffffffffffffffffffffffff)\n      and\n      eq\n        /* \"@openzeppelin/contracts/token/ERC721/ERC721.sol\":17186:17316  if (retval != IERC721Receiver.onERC721Received.selector) {... */\n      tag_279\n      jumpi\n        /* \"@openzeppelin/contracts/token/ERC721/ERC721.sol\":17294:17296  to */\n      dup4\n        /* \"@openzeppelin/contracts/token/ERC721/ERC721.sol\":17272:17297  ERC721InvalidReceiver(to) */\n      mload(0x40)\n      0x64a0ae9200000000000000000000000000000000000000000000000000000000\n      dup2\n      mstore\n      0x04\n      add\n      tag_280\n      swap2\n      swap1\n      tag_45\n      jump\t// in\n    tag_280:\n      mload(0x40)\n      dup1\n      swap2\n      sub\n      swap1\n      revert\n        /* \"@openzeppelin/contracts/token/ERC721/ERC721.sol\":17186:17316  if (retval != IERC721Receiver.onERC721Received.selector) {... */\n    tag_279:\n        /* \"@openzeppelin/contracts/token/ERC721/ERC721.sol\":17144:17330  returns (bytes4 retval) {... */\n      pop\n        /* \"@openzeppelin/contracts/token/ERC721/ERC721.sol\":17030:17694  if (to.code.length > 0) {... */\n    tag_262:\n        /* \"@openzeppelin/contracts/token/ERC721/ERC721.sol\":16918:17700  function _checkOnERC721Received(address from, address to, uint256 tokenId, bytes memory data) private {... */\n      pop\n      pop\n      pop\n      pop\n      jump\t// out\n        /* \"@openzeppelin/contracts/token/ERC721/extensions/ERC721URIStorage.sol\":1210:1803  function tokenURI(uint256 tokenId) public view virtual override returns (string memory) {... */\n    tag_219:\n        /* \"@openzeppelin/contracts/token/ERC721/extensions/ERC721URIStorage.sol\":1283:1296  string memory */\n      0x60\n        /* \"@openzeppelin/contracts/token/ERC721/extensions/ERC721URIStorage.sol\":1308:1330  _requireOwned(tokenId) */\n      tag_282\n        /* \"@openzeppelin/contracts/token/ERC721/extensions/ERC721URIStorage.sol\":1322:1329  tokenId */\n      dup3\n        /* \"@openzeppelin/contracts/token/ERC721/extensions/ERC721URIStorage.sol\":1308:1321  _requireOwned */\n      tag_146\n        /* \"@openzeppelin/contracts/token/ERC721/extensions/ERC721URIStorage.sol\":1308:1330  _requireOwned(tokenId) */\n      jump\t// in\n    tag_282:\n      pop\n        /* \"@openzeppelin/contracts/token/ERC721/extensions/ERC721URIStorage.sol\":1341:1364  string memory _tokenURI */\n      0x00\n        /* \"@openzeppelin/contracts/token/ERC721/extensions/ERC721URIStorage.sol\":1367:1377  _tokenURIs */\n      0x06\n        /* \"@openzeppelin/contracts/token/ERC721/extensions/ERC721URIStorage.sol\":1367:1386  _tokenURIs[tokenId] */\n      0x00\n        /* \"@openzeppelin/contracts/token/ERC721/extensions/ERC721URIStorage.sol\":1378:1385  tokenId */\n      dup5\n        /* \"@openzeppelin/contracts/token/ERC721/extensions/ERC721URIStorage.sol\":1367:1386  _tokenURIs[tokenId] */\n      dup2\n      mstore\n      0x20\n      add\n      swap1\n      dup2\n      mstore\n      0x20\n      add\n      0x00\n      keccak256\n        /* \"@openzeppelin/contracts/token/ERC721/extensions/ERC721URIStorage.sol\":1341:1386  string memory _tokenURI = _tokenURIs[tokenId] */\n      dup1\n      sload\n      tag_283\n      swap1\n      tag_139\n      jump\t// in\n    tag_283:\n      dup1\n      0x1f\n      add\n      0x20\n      dup1\n      swap2\n      div\n      mul\n      0x20\n      add\n      mload(0x40)\n      swap1\n      dup2\n      add\n      0x40\n      mstore\n      dup1\n      swap3\n      swap2\n      swap1\n      dup2\n      dup2\n      mstore\n      0x20\n      add\n      dup3\n      dup1\n      sload\n      tag_284\n      swap1\n      tag_139\n      jump\t// in\n    tag_284:\n      dup1\n      iszero\n      tag_285\n      jumpi\n      dup1\n      0x1f\n      lt\n      tag_286\n      jumpi\n      0x0100\n      dup1\n      dup4\n      sload\n      div\n      mul\n      dup4\n      mstore\n      swap2\n      0x20\n      add\n      swap2\n      jump(tag_285)\n    tag_286:\n      dup3\n      add\n      swap2\n      swap1\n      0x00\n      mstore\n      keccak256(0x00, 0x20)\n      swap1\n    tag_287:\n      dup2\n      sload\n      dup2\n      mstore\n      swap1\n      0x01\n      add\n      swap1\n      0x20\n      add\n      dup1\n      dup4\n      gt\n      tag_287\n      jumpi\n      dup3\n      swap1\n      sub\n      0x1f\n      and\n      dup3\n      add\n      swap2\n    tag_285:\n      pop\n      pop\n      pop\n      pop\n      pop\n      swap1\n      pop\n        /* \"@openzeppelin/contracts/token/ERC721/extensions/ERC721URIStorage.sol\":1396:1414  string memory base */\n      0x00\n        /* \"@openzeppelin/contracts/token/ERC721/extensions/ERC721URIStorage.sol\":1417:1427  _baseURI() */\n      tag_288\n        /* \"@openzeppelin/contracts/token/ERC721/extensions/ERC721URIStorage.sol\":1417:1425  _baseURI */\n      tag_289\n        /* \"@openzeppelin/contracts/token/ERC721/extensions/ERC721URIStorage.sol\":1417:1427  _baseURI() */\n      jump\t// in\n    tag_288:\n        /* \"@openzeppelin/contracts/token/ERC721/extensions/ERC721URIStorage.sol\":1396:1427  string memory base = _baseURI() */\n      swap1\n      pop\n        /* \"@openzeppelin/contracts/token/ERC721/extensions/ERC721URIStorage.sol\":1522:1523  0 */\n      0x00\n        /* \"@openzeppelin/contracts/token/ERC721/extensions/ERC721URIStorage.sol\":1506:1510  base */\n      dup2\n        /* \"@openzeppelin/contracts/token/ERC721/extensions/ERC721URIStorage.sol\":1500:1518  bytes(base).length */\n      mload\n        /* \"@openzeppelin/contracts/token/ERC721/extensions/ERC721URIStorage.sol\":1500:1523  bytes(base).length == 0 */\n      sub\n        /* \"@openzeppelin/contracts/token/ERC721/extensions/ERC721URIStorage.sol\":1496:1566  if (bytes(base).length == 0) {... */\n      tag_290\n      jumpi\n        /* \"@openzeppelin/contracts/token/ERC721/extensions/ERC721URIStorage.sol\":1546:1555  _tokenURI */\n      dup2\n        /* \"@openzeppelin/contracts/token/ERC721/extensions/ERC721URIStorage.sol\":1539:1555  return _tokenURI */\n      swap3\n      pop\n      pop\n      pop\n      jump(tag_281)\n        /* \"@openzeppelin/contracts/token/ERC721/extensions/ERC721URIStorage.sol\":1496:1566  if (bytes(base).length == 0) {... */\n    tag_290:\n        /* \"@openzeppelin/contracts/token/ERC721/extensions/ERC721URIStorage.sol\":1691:1692  0 */\n      0x00\n        /* \"@openzeppelin/contracts/token/ERC721/extensions/ERC721URIStorage.sol\":1671:1680  _tokenURI */\n      dup3\n        /* \"@openzeppelin/contracts/token/ERC721/extensions/ERC721URIStorage.sol\":1665:1688  bytes(_tokenURI).length */\n      mload\n        /* \"@openzeppelin/contracts/token/ERC721/extensions/ERC721URIStorage.sol\":1665:1692  bytes(_tokenURI).length > 0 */\n      gt\n        /* \"@openzeppelin/contracts/token/ERC721/extensions/ERC721URIStorage.sol\":1661:1756  if (bytes(_tokenURI).length > 0) {... */\n      iszero\n      tag_291\n      jumpi\n        /* \"@openzeppelin/contracts/token/ERC721/extensions/ERC721URIStorage.sol\":1729:1733  base */\n      dup1\n        /* \"@openzeppelin/contracts/token/ERC721/extensions/ERC721URIStorage.sol\":1735:1744  _tokenURI */\n      dup3\n        /* \"@openzeppelin/contracts/token/ERC721/extensions/ERC721URIStorage.sol\":1715:1745  string.concat(base, _tokenURI) */\n      add(0x20, mload(0x40))\n      tag_292\n      swap3\n      swap2\n      swap1\n      tag_293\n      jump\t// in\n    tag_292:\n      mload(0x40)\n      0x20\n      dup2\n      dup4\n      sub\n      sub\n      dup2\n      mstore\n      swap1\n      0x40\n      mstore\n        /* \"@openzeppelin/contracts/token/ERC721/extensions/ERC721URIStorage.sol\":1708:1745  return string.concat(base, _tokenURI) */\n      swap3\n      pop\n      pop\n      pop\n      jump(tag_281)\n        /* \"@openzeppelin/contracts/token/ERC721/extensions/ERC721URIStorage.sol\":1661:1756  if (bytes(_tokenURI).length > 0) {... */\n    tag_291:\n        /* \"@openzeppelin/contracts/token/ERC721/extensions/ERC721URIStorage.sol\":1773:1796  super.tokenURI(tokenId) */\n      tag_294\n        /* \"@openzeppelin/contracts/token/ERC721/extensions/ERC721URIStorage.sol\":1788:1795  tokenId */\n      dup5\n        /* \"@openzeppelin/contracts/token/ERC721/extensions/ERC721URIStorage.sol\":1773:1787  super.tokenURI */\n      tag_295\n        /* \"@openzeppelin/contracts/token/ERC721/extensions/ERC721URIStorage.sol\":1773:1796  super.tokenURI(tokenId) */\n      jump\t// in\n    tag_294:\n        /* \"@openzeppelin/contracts/token/ERC721/extensions/ERC721URIStorage.sol\":1766:1796  return super.tokenURI(tokenId) */\n      swap3\n      pop\n      pop\n      pop\n        /* \"@openzeppelin/contracts/token/ERC721/extensions/ERC721URIStorage.sol\":1210:1803  function tokenURI(uint256 tokenId) public view virtual override returns (string memory) {... */\n    tag_281:\n      swap2\n      swap1\n      pop\n      jump\t// out\n        /* \"@openzeppelin/contracts/token/ERC721/ERC721.sol\":1561:1861  function supportsInterface(bytes4 interfaceId) public view virtual override(ERC165, IERC165) returns (bool) {... */\n    tag_225:\n        /* \"@openzeppelin/contracts/token/ERC721/ERC721.sol\":1663:1667  bool */\n      0x00\n        /* \"@openzeppelin/contracts/token/ERC721/ERC721.sol\":1713:1738  type(IERC721).interfaceId */\n      0x80ac58cd00000000000000000000000000000000000000000000000000000000\n        /* \"@openzeppelin/contracts/token/ERC721/ERC721.sol\":1698:1738  interfaceId == type(IERC721).interfaceId */\n      not(0xffffffffffffffffffffffffffffffffffffffffffffffffffffffff)\n      and\n        /* \"@openzeppelin/contracts/token/ERC721/ERC721.sol\":1698:1709  interfaceId */\n      dup3\n        /* \"@openzeppelin/contracts/token/ERC721/ERC721.sol\":1698:1738  interfaceId == type(IERC721).interfaceId */\n      not(0xffffffffffffffffffffffffffffffffffffffffffffffffffffffff)\n      and\n      eq\n        /* \"@openzeppelin/contracts/token/ERC721/ERC721.sol\":1698:1802  interfaceId == type(IERC721).interfaceId ||... */\n      dup1\n      tag_297\n      jumpi\n      pop\n        /* \"@openzeppelin/contracts/token/ERC721/ERC721.sol\":1769:1802  type(IERC721Metadata).interfaceId */\n      0x5b5e139f00000000000000000000000000000000000000000000000000000000\n        /* \"@openzeppelin/contracts/token/ERC721/ERC721.sol\":1754:1802  interfaceId == type(IERC721Metadata).interfaceId */\n      not(0xffffffffffffffffffffffffffffffffffffffffffffffffffffffff)\n      and\n        /* \"@openzeppelin/contracts/token/ERC721/ERC721.sol\":1754:1765  interfaceId */\n      dup3\n        /* \"@openzeppelin/contracts/token/ERC721/ERC721.sol\":1754:1802  interfaceId == type(IERC721Metadata).interfaceId */\n      not(0xffffffffffffffffffffffffffffffffffffffffffffffffffffffff)\n      and\n      eq\n        /* \"@openzeppelin/contracts/token/ERC721/ERC721.sol\":1698:1802  interfaceId == type(IERC721).interfaceId ||... */\n    tag_297:\n        /* \"@openzeppelin/contracts/token/ERC721/ERC721.sol\":1698:1854  interfaceId == type(IERC721).interfaceId ||... */\n      dup1\n      tag_298\n      jumpi\n      pop\n        /* \"@openzeppelin/contracts/token/ERC721/ERC721.sol\":1818:1854  super.supportsInterface(interfaceId) */\n      tag_299\n        /* \"@openzeppelin/contracts/token/ERC721/ERC721.sol\":1842:1853  interfaceId */\n      dup3\n        /* \"@openzeppelin/contracts/token/ERC721/ERC721.sol\":1818:1841  super.supportsInterface */\n      tag_300\n        /* \"@openzeppelin/contracts/token/ERC721/ERC721.sol\":1818:1854  super.supportsInterface(interfaceId) */\n      jump\t// in\n    tag_299:\n        /* \"@openzeppelin/contracts/token/ERC721/ERC721.sol\":1698:1854  interfaceId == type(IERC721).interfaceId ||... */\n    tag_298:\n        /* \"@openzeppelin/contracts/token/ERC721/ERC721.sol\":1679:1854  return... */\n      swap1\n      pop\n        /* \"@openzeppelin/contracts/token/ERC721/ERC721.sol\":1561:1861  function supportsInterface(bytes4 interfaceId) public view virtual override(ERC165, IERC165) returns (bool) {... */\n      swap2\n      swap1\n      pop\n      jump\t// out\n        /* \"@openzeppelin/contracts/token/ERC721/ERC721.sol\":5707:5822  function _ownerOf(uint256 tokenId) internal view virtual returns (address) {... */\n    tag_228:\n        /* \"@openzeppelin/contracts/token/ERC721/ERC721.sol\":5773:5780  address */\n      0x00\n        /* \"@openzeppelin/contracts/token/ERC721/ERC721.sol\":5799:5806  _owners */\n      0x02\n        /* \"@openzeppelin/contracts/token/ERC721/ERC721.sol\":5799:5815  _owners[tokenId] */\n      0x00\n        /* \"@openzeppelin/contracts/token/ERC721/ERC721.sol\":5807:5814  tokenId */\n      dup4\n        /* \"@openzeppelin/contracts/token/ERC721/ERC721.sol\":5799:5815  _owners[tokenId] */\n      dup2\n      mstore\n      0x20\n      add\n      swap1\n      dup2\n      mstore\n      0x20\n      add\n      0x00\n      keccak256\n      0x00\n      swap1\n      sload\n      swap1\n      0x0100\n      exp\n      swap1\n      div\n      0xffffffffffffffffffffffffffffffffffffffff\n      and\n        /* \"@openzeppelin/contracts/token/ERC721/ERC721.sol\":5792:5815  return _owners[tokenId] */\n      swap1\n      pop\n        /* \"@openzeppelin/contracts/token/ERC721/ERC721.sol\":5707:5822  function _ownerOf(uint256 tokenId) internal view virtual returns (address) {... */\n      swap2\n      swap1\n      pop\n      jump\t// out\n        /* \"@openzeppelin/contracts/token/ERC721/ERC721.sol\":14720:15382  function _approve(address to, uint256 tokenId, address auth, bool emitEvent) internal virtual {... */\n    tag_235:\n        /* \"@openzeppelin/contracts/token/ERC721/ERC721.sol\":14880:14889  emitEvent */\n      dup1\n        /* \"@openzeppelin/contracts/token/ERC721/ERC721.sol\":14880:14911  emitEvent || auth != address(0) */\n      dup1\n      tag_303\n      jumpi\n      pop\n        /* \"@openzeppelin/contracts/token/ERC721/ERC721.sol\":14909:14910  0 */\n      0x00\n        /* \"@openzeppelin/contracts/token/ERC721/ERC721.sol\":14893:14911  auth != address(0) */\n      0xffffffffffffffffffffffffffffffffffffffff\n      and\n        /* \"@openzeppelin/contracts/token/ERC721/ERC721.sol\":14893:14897  auth */\n      dup3\n        /* \"@openzeppelin/contracts/token/ERC721/ERC721.sol\":14893:14911  auth != address(0) */\n      0xffffffffffffffffffffffffffffffffffffffff\n      and\n      eq\n      iszero\n        /* \"@openzeppelin/contracts/token/ERC721/ERC721.sol\":14880:14911  emitEvent || auth != address(0) */\n    tag_303:\n        /* \"@openzeppelin/contracts/token/ERC721/ERC721.sol\":14876:15336  if (emitEvent || auth != address(0)) {... */\n      iszero\n      tag_304\n      jumpi\n        /* \"@openzeppelin/contracts/token/ERC721/ERC721.sol\":14927:14940  address owner */\n      0x00\n        /* \"@openzeppelin/contracts/token/ERC721/ERC721.sol\":14943:14965  _requireOwned(tokenId) */\n      tag_305\n        /* \"@openzeppelin/contracts/token/ERC721/ERC721.sol\":14957:14964  tokenId */\n      dup5\n        /* \"@openzeppelin/contracts/token/ERC721/ERC721.sol\":14943:14956  _requireOwned */\n      tag_146\n        /* \"@openzeppelin/contracts/token/ERC721/ERC721.sol\":14943:14965  _requireOwned(tokenId) */\n      jump\t// in\n    tag_305:\n        /* \"@openzeppelin/contracts/token/ERC721/ERC721.sol\":14927:14965  address owner = _requireOwned(tokenId) */\n      swap1\n      pop\n        /* \"@openzeppelin/contracts/token/ERC721/ERC721.sol\":15109:15110  0 */\n      0x00\n        /* \"@openzeppelin/contracts/token/ERC721/ERC721.sol\":15093:15111  auth != address(0) */\n      0xffffffffffffffffffffffffffffffffffffffff\n      and\n        /* \"@openzeppelin/contracts/token/ERC721/ERC721.sol\":15093:15097  auth */\n      dup4\n        /* \"@openzeppelin/contracts/token/ERC721/ERC721.sol\":15093:15111  auth != address(0) */\n      0xffffffffffffffffffffffffffffffffffffffff\n      and\n      eq\n      iszero\n        /* \"@openzeppelin/contracts/token/ERC721/ERC721.sol\":15093:15128  auth != address(0) && owner != auth */\n      dup1\n      iszero\n      tag_306\n      jumpi\n      pop\n        /* \"@openzeppelin/contracts/token/ERC721/ERC721.sol\":15124:15128  auth */\n      dup3\n        /* \"@openzeppelin/contracts/token/ERC721/ERC721.sol\":15115:15128  owner != auth */\n      0xffffffffffffffffffffffffffffffffffffffff\n      and\n        /* \"@openzeppelin/contracts/token/ERC721/ERC721.sol\":15115:15120  owner */\n      dup2\n        /* \"@openzeppelin/contracts/token/ERC721/ERC721.sol\":15115:15128  owner != auth */\n      0xffffffffffffffffffffffffffffffffffffffff\n      and\n      eq\n      iszero\n        /* \"@openzeppelin/contracts/token/ERC721/ERC721.sol\":15093:15128  auth != address(0) && owner != auth */\n    tag_306:\n        /* \"@openzeppelin/contracts/token/ERC721/ERC721.sol\":15093:15162  auth != address(0) && owner != auth && !isApprovedForAll(owner, auth) */\n      dup1\n      iszero\n      tag_307\n      jumpi\n      pop\n        /* \"@openzeppelin/contracts/token/ERC721/ERC721.sol\":15133:15162  isApprovedForAll(owner, auth) */\n      tag_308\n        /* \"@openzeppelin/contracts/token/ERC721/ERC721.sol\":15150:15155  owner */\n      dup2\n        /* \"@openzeppelin/contracts/token/ERC721/ERC721.sol\":15157:15161  auth */\n      dup5\n        /* \"@openzeppelin/contracts/token/ERC721/ERC721.sol\":15133:15149  isApprovedForAll */\n      tag_128\n        /* \"@openzeppelin/contracts/token/ERC721/ERC721.sol\":15133:15162  isApprovedForAll(owner, auth) */\n      jump\t// in\n    tag_308:\n        /* \"@openzeppelin/contracts/token/ERC721/ERC721.sol\":15132:15162  !isApprovedForAll(owner, auth) */\n      iszero\n        /* \"@openzeppelin/contracts/token/ERC721/ERC721.sol\":15093:15162  auth != address(0) && owner != auth && !isApprovedForAll(owner, auth) */\n    tag_307:\n        /* \"@openzeppelin/contracts/token/ERC721/ERC721.sol\":15089:15231  if (auth != address(0) && owner != auth && !isApprovedForAll(owner, auth)) {... */\n      iszero\n      tag_309\n      jumpi\n        /* \"@openzeppelin/contracts/token/ERC721/ERC721.sol\":15211:15215  auth */\n      dup3\n        /* \"@openzeppelin/contracts/token/ERC721/ERC721.sol\":15189:15216  ERC721InvalidApprover(auth) */\n      mload(0x40)\n      0xa9fbf51f00000000000000000000000000000000000000000000000000000000\n      dup2\n      mstore\n      0x04\n      add\n      tag_310\n      swap2\n      swap1\n      tag_45\n      jump\t// in\n    tag_310:\n      mload(0x40)\n      dup1\n      swap2\n      sub\n      swap1\n      revert\n        /* \"@openzeppelin/contracts/token/ERC721/ERC721.sol\":15089:15231  if (auth != address(0) && owner != auth && !isApprovedForAll(owner, auth)) {... */\n    tag_309:\n        /* \"@openzeppelin/contracts/token/ERC721/ERC721.sol\":15249:15258  emitEvent */\n      dup2\n        /* \"@openzeppelin/contracts/token/ERC721/ERC721.sol\":15245:15326  if (emitEvent) {... */\n      iszero\n      tag_311\n      jumpi\n        /* \"@openzeppelin/contracts/token/ERC721/ERC721.sol\":15303:15310  tokenId */\n      dup4\n        /* \"@openzeppelin/contracts/token/ERC721/ERC721.sol\":15299:15301  to */\n      dup6\n        /* \"@openzeppelin/contracts/token/ERC721/ERC721.sol\":15283:15311  Approval(owner, to, tokenId) */\n      0xffffffffffffffffffffffffffffffffffffffff\n      and\n        /* \"@openzeppelin/contracts/token/ERC721/ERC721.sol\":15292:15297  owner */\n      dup3\n        /* \"@openzeppelin/contracts/token/ERC721/ERC721.sol\":15283:15311  Approval(owner, to, tokenId) */\n      0xffffffffffffffffffffffffffffffffffffffff\n      and\n      0x8c5be1e5ebec7d5bd14f71427d1e84f3dd0314c0f7b2291e5b200ac8c7c3b925\n      mload(0x40)\n      mload(0x40)\n      dup1\n      swap2\n      sub\n      swap1\n      log4\n        /* \"@openzeppelin/contracts/token/ERC721/ERC721.sol\":15245:15326  if (emitEvent) {... */\n    tag_311:\n        /* \"@openzeppelin/contracts/token/ERC721/ERC721.sol\":14913:15336  {... */\n      pop\n        /* \"@openzeppelin/contracts/token/ERC721/ERC721.sol\":14876:15336  if (emitEvent || auth != address(0)) {... */\n    tag_304:\n        /* \"@openzeppelin/contracts/token/ERC721/ERC721.sol\":15373:15375  to */\n      dup4\n        /* \"@openzeppelin/contracts/token/ERC721/ERC721.sol\":15346:15361  _tokenApprovals */\n      0x04\n        /* \"@openzeppelin/contracts/token/ERC721/ERC721.sol\":15346:15370  _tokenApprovals[tokenId] */\n      0x00\n        /* \"@openzeppelin/contracts/token/ERC721/ERC721.sol\":15362:15369  tokenId */\n      dup6\n        /* \"@openzeppelin/contracts/token/ERC721/ERC721.sol\":15346:15370  _tokenApprovals[tokenId] */\n      dup2\n      mstore\n      0x20\n      add\n      swap1\n      dup2\n      mstore\n      0x20\n      add\n      0x00\n      keccak256\n      0x00\n        /* \"@openzeppelin/contracts/token/ERC721/ERC721.sol\":15346:15375  _tokenApprovals[tokenId] = to */\n      0x0100\n      exp\n      dup2\n      sload\n      dup2\n      0xffffffffffffffffffffffffffffffffffffffff\n      mul\n      not\n      and\n      swap1\n      dup4\n      0xffffffffffffffffffffffffffffffffffffffff\n      and\n      mul\n      or\n      swap1\n      sstore\n      pop\n        /* \"@openzeppelin/contracts/token/ERC721/ERC721.sol\":14720:15382  function _approve(address to, uint256 tokenId, address auth, bool emitEvent) internal virtual {... */\n      pop\n      pop\n      pop\n      pop\n      jump\t// out\n        /* \"@openzeppelin/contracts/token/ERC721/ERC721.sol\":10954:11136  function _safeMint(address to, uint256 tokenId, bytes memory data) internal virtual {... */\n    tag_238:\n        /* \"@openzeppelin/contracts/token/ERC721/ERC721.sol\":11048:11066  _mint(to, tokenId) */\n      tag_313\n        /* \"@openzeppelin/contracts/token/ERC721/ERC721.sol\":11054:11056  to */\n      dup4\n        /* \"@openzeppelin/contracts/token/ERC721/ERC721.sol\":11058:11065  tokenId */\n      dup4\n        /* \"@openzeppelin/contracts/token/ERC721/ERC721.sol\":11048:11053  _mint */\n      tag_314\n        /* \"@openzeppelin/contracts/token/ERC721/ERC721.sol\":11048:11066  _mint(to, tokenId) */\n      jump\t// in\n    tag_313:\n        /* \"@openzeppelin/contracts/token/ERC721/ERC721.sol\":11076:11129  _checkOnERC721Received(address(0), to, tokenId, data) */\n      tag_315\n        /* \"@openzeppelin/contracts/token/ERC721/ERC721.sol\":11107:11108  0 */\n      0x00\n        /* \"@openzeppelin/contracts/token/ERC721/ERC721.sol\":11111:11113  to */\n      dup5\n        /* \"@openzeppelin/contracts/token/ERC721/ERC721.sol\":11115:11122  tokenId */\n      dup5\n        /* \"@openzeppelin/contracts/token/ERC721/ERC721.sol\":11124:11128  data */\n      dup5\n        /* \"@openzeppelin/contracts/token/ERC721/ERC721.sol\":11076:11098  _checkOnERC721Received */\n      tag_216\n        /* \"@openzeppelin/contracts/token/ERC721/ERC721.sol\":11076:11129  _checkOnERC721Received(address(0), to, tokenId, data) */\n      jump\t// in\n    tag_315:\n        /* \"@openzeppelin/contracts/token/ERC721/ERC721.sol\":10954:11136  function _safeMint(address to, uint256 tokenId, bytes memory data) internal virtual {... */\n      pop\n      pop\n      pop\n      jump\t// out\n        /* \"@openzeppelin/contracts/token/ERC721/ERC721.sol\":7082:7450  function _checkAuthorized(address owner, address spender, uint256 tokenId) internal view virtual {... */\n    tag_249:\n        /* \"@openzeppelin/contracts/token/ERC721/ERC721.sol\":7194:7232  _isAuthorized(owner, spender, tokenId) */\n      tag_317\n        /* \"@openzeppelin/contracts/token/ERC721/ERC721.sol\":7208:7213  owner */\n      dup4\n        /* \"@openzeppelin/contracts/token/ERC721/ERC721.sol\":7215:7222  spender */\n      dup4\n        /* \"@openzeppelin/contracts/token/ERC721/ERC721.sol\":7224:7231  tokenId */\n      dup4\n        /* \"@openzeppelin/contracts/token/ERC721/ERC721.sol\":7194:7207  _isAuthorized */\n      tag_318\n        /* \"@openzeppelin/contracts/token/ERC721/ERC721.sol\":7194:7232  _isAuthorized(owner, spender, tokenId) */\n      jump\t// in\n    tag_317:\n        /* \"@openzeppelin/contracts/token/ERC721/ERC721.sol\":7189:7444  if (!_isAuthorized(owner, spender, tokenId)) {... */\n      tag_319\n      jumpi\n        /* \"@openzeppelin/contracts/token/ERC721/ERC721.sol\":7269:7270  0 */\n      0x00\n        /* \"@openzeppelin/contracts/token/ERC721/ERC721.sol\":7252:7271  owner == address(0) */\n      0xffffffffffffffffffffffffffffffffffffffff\n      and\n        /* \"@openzeppelin/contracts/token/ERC721/ERC721.sol\":7252:7257  owner */\n      dup4\n        /* \"@openzeppelin/contracts/token/ERC721/ERC721.sol\":7252:7271  owner == address(0) */\n      0xffffffffffffffffffffffffffffffffffffffff\n      and\n      sub\n        /* \"@openzeppelin/contracts/token/ERC721/ERC721.sol\":7248:7434  if (owner == address(0)) {... */\n      tag_320\n      jumpi\n        /* \"@openzeppelin/contracts/token/ERC721/ERC721.sol\":7321:7328  tokenId */\n      dup1\n        /* \"@openzeppelin/contracts/token/ERC721/ERC721.sol\":7298:7329  ERC721NonexistentToken(tokenId) */\n      mload(0x40)\n      0x7e27328900000000000000000000000000000000000000000000000000000000\n      dup2\n      mstore\n      0x04\n      add\n      tag_321\n      swap2\n      swap1\n      tag_55\n      jump\t// in\n    tag_321:\n      mload(0x40)\n      dup1\n      swap2\n      sub\n      swap1\n      revert\n        /* \"@openzeppelin/contracts/token/ERC721/ERC721.sol\":7248:7434  if (owner == address(0)) {... */\n    tag_320:\n        /* \"@openzeppelin/contracts/token/ERC721/ERC721.sol\":7402:7409  spender */\n      dup2\n        /* \"@openzeppelin/contracts/token/ERC721/ERC721.sol\":7411:7418  tokenId */\n      dup2\n        /* \"@openzeppelin/contracts/token/ERC721/ERC721.sol\":7375:7419  ERC721InsufficientApproval(spender, tokenId) */\n      mload(0x40)\n      0x177e802f00000000000000000000000000000000000000000000000000000000\n      dup2\n      mstore\n      0x04\n      add\n      tag_323\n      swap3\n      swap2\n      swap1\n      tag_324\n      jump\t// in\n    tag_323:\n      mload(0x40)\n      dup1\n      swap2\n      sub\n      swap1\n      revert\n        /* \"@openzeppelin/contracts/token/ERC721/ERC721.sol\":7189:7444  if (!_isAuthorized(owner, spender, tokenId)) {... */\n    tag_319:\n        /* \"@openzeppelin/contracts/token/ERC721/ERC721.sol\":7082:7450  function _checkAuthorized(address owner, address spender, uint256 tokenId) internal view virtual {... */\n      pop\n      pop\n      pop\n      jump\t// out\n        /* \"@openzeppelin/contracts/token/ERC721/ERC721.sol\":3174:3266  function _baseURI() internal view virtual returns (string memory) {... */\n    tag_289:\n        /* \"@openzeppelin/contracts/token/ERC721/ERC721.sol\":3225:3238  string memory */\n      0x60\n        /* \"@openzeppelin/contracts/token/ERC721/ERC721.sol\":3250:3259  return \"\" */\n      mload(0x40)\n      dup1\n      0x20\n      add\n      0x40\n      mstore\n      dup1\n      0x00\n      dup2\n      mstore\n      pop\n      swap1\n      pop\n        /* \"@openzeppelin/contracts/token/ERC721/ERC721.sol\":3174:3266  function _baseURI() internal view virtual returns (string memory) {... */\n      swap1\n      jump\t// out\n        /* \"@openzeppelin/contracts/token/ERC721/ERC721.sol\":2677:2932  function tokenURI(uint256 tokenId) public view virtual returns (string memory) {... */\n    tag_295:\n        /* \"@openzeppelin/contracts/token/ERC721/ERC721.sol\":2741:2754  string memory */\n      0x60\n        /* \"@openzeppelin/contracts/token/ERC721/ERC721.sol\":2766:2788  _requireOwned(tokenId) */\n      tag_327\n        /* \"@openzeppelin/contracts/token/ERC721/ERC721.sol\":2780:2787  tokenId */\n      dup3\n        /* \"@openzeppelin/contracts/token/ERC721/ERC721.sol\":2766:2779  _requireOwned */\n      tag_146\n        /* \"@openzeppelin/contracts/token/ERC721/ERC721.sol\":2766:2788  _requireOwned(tokenId) */\n      jump\t// in\n    tag_327:\n      pop\n        /* \"@openzeppelin/contracts/token/ERC721/ERC721.sol\":2799:2820  string memory baseURI */\n      0x00\n        /* \"@openzeppelin/contracts/token/ERC721/ERC721.sol\":2823:2833  _baseURI() */\n      tag_328\n        /* \"@openzeppelin/contracts/token/ERC721/ERC721.sol\":2823:2831  _baseURI */\n      tag_289\n        /* \"@openzeppelin/contracts/token/ERC721/ERC721.sol\":2823:2833  _baseURI() */\n      jump\t// in\n    tag_328:\n        /* \"@openzeppelin/contracts/token/ERC721/ERC721.sol\":2799:2833  string memory baseURI = _baseURI() */\n      swap1\n      pop\n        /* \"@openzeppelin/contracts/token/ERC721/ERC721.sol\":2874:2875  0 */\n      0x00\n        /* \"@openzeppelin/contracts/token/ERC721/ERC721.sol\":2856:2863  baseURI */\n      dup2\n        /* \"@openzeppelin/contracts/token/ERC721/ERC721.sol\":2850:2871  bytes(baseURI).length */\n      mload\n        /* \"@openzeppelin/contracts/token/ERC721/ERC721.sol\":2850:2875  bytes(baseURI).length > 0 */\n      gt\n        /* \"@openzeppelin/contracts/token/ERC721/ERC721.sol\":2850:2925  bytes(baseURI).length > 0 ? string.concat(baseURI, tokenId.toString()) : \"\" */\n      tag_329\n      jumpi\n      mload(0x40)\n      dup1\n      0x20\n      add\n      0x40\n      mstore\n      dup1\n      0x00\n      dup2\n      mstore\n      pop\n      jump(tag_330)\n    tag_329:\n        /* \"@openzeppelin/contracts/token/ERC721/ERC721.sol\":2892:2899  baseURI */\n      dup1\n        /* \"@openzeppelin/contracts/token/ERC721/ERC721.sol\":2901:2919  tokenId.toString() */\n      tag_331\n        /* \"@openzeppelin/contracts/token/ERC721/ERC721.sol\":2901:2908  tokenId */\n      dup5\n        /* \"@openzeppelin/contracts/token/ERC721/ERC721.sol\":2901:2917  tokenId.toString */\n      tag_332\n        /* \"@openzeppelin/contracts/token/ERC721/ERC721.sol\":2901:2919  tokenId.toString() */\n      jump\t// in\n    tag_331:\n        /* \"@openzeppelin/contracts/token/ERC721/ERC721.sol\":2878:2920  string.concat(baseURI, tokenId.toString()) */\n      add(0x20, mload(0x40))\n      tag_333\n      swap3\n      swap2\n      swap1\n      tag_293\n      jump\t// in\n    tag_333:\n      mload(0x40)\n      0x20\n      dup2\n      dup4\n      sub\n      sub\n      dup2\n      mstore\n      swap1\n      0x40\n      mstore\n        /* \"@openzeppelin/contracts/token/ERC721/ERC721.sol\":2850:2925  bytes(baseURI).length > 0 ? string.concat(baseURI, tokenId.toString()) : \"\" */\n    tag_330:\n        /* \"@openzeppelin/contracts/token/ERC721/ERC721.sol\":2843:2925  return bytes(baseURI).length > 0 ? string.concat(baseURI, tokenId.toString()) : \"\" */\n      swap2\n      pop\n      pop\n        /* \"@openzeppelin/contracts/token/ERC721/ERC721.sol\":2677:2932  function tokenURI(uint256 tokenId) public view virtual returns (string memory) {... */\n      swap2\n      swap1\n      pop\n      jump\t// out\n        /* \"@openzeppelin/contracts/utils/introspection/ERC165.sol\":762:908  function supportsInterface(bytes4 interfaceId) public view virtual returns (bool) {... */\n    tag_300:\n        /* \"@openzeppelin/contracts/utils/introspection/ERC165.sol\":838:842  bool */\n      0x00\n        /* \"@openzeppelin/contracts/utils/introspection/ERC165.sol\":876:901  type(IERC165).interfaceId */\n      0x01ffc9a700000000000000000000000000000000000000000000000000000000\n        /* \"@openzeppelin/contracts/utils/introspection/ERC165.sol\":861:901  interfaceId == type(IERC165).interfaceId */\n      not(0xffffffffffffffffffffffffffffffffffffffffffffffffffffffff)\n      and\n        /* \"@openzeppelin/contracts/utils/introspection/ERC165.sol\":861:872  interfaceId */\n      dup3\n        /* \"@openzeppelin/contracts/utils/introspection/ERC165.sol\":861:901  interfaceId == type(IERC165).interfaceId */\n      not(0xffffffffffffffffffffffffffffffffffffffffffffffffffffffff)\n      and\n      eq\n        /* \"@openzeppelin/contracts/utils/introspection/ERC165.sol\":854:901  return interfaceId == type(IERC165).interfaceId */\n      swap1\n      pop\n        /* \"@openzeppelin/contracts/utils/introspection/ERC165.sol\":762:908  function supportsInterface(bytes4 interfaceId) public view virtual returns (bool) {... */\n      swap2\n      swap1\n      pop\n      jump\t// out\n        /* \"@openzeppelin/contracts/token/ERC721/ERC721.sol\":9955:10282  function _mint(address to, uint256 tokenId) internal {... */\n    tag_314:\n        /* \"@openzeppelin/contracts/token/ERC721/ERC721.sol\":10036:10037  0 */\n      0x00\n        /* \"@openzeppelin/contracts/token/ERC721/ERC721.sol\":10022:10038  to == address(0) */\n      0xffffffffffffffffffffffffffffffffffffffff\n      and\n        /* \"@openzeppelin/contracts/token/ERC721/ERC721.sol\":10022:10024  to */\n      dup3\n        /* \"@openzeppelin/contracts/token/ERC721/ERC721.sol\":10022:10038  to == address(0) */\n      0xffffffffffffffffffffffffffffffffffffffff\n      and\n      sub\n        /* \"@openzeppelin/contracts/token/ERC721/ERC721.sol\":10018:10105  if (to == address(0)) {... */\n      tag_336\n      jumpi\n        /* \"@openzeppelin/contracts/token/ERC721/ERC721.sol\":10091:10092  0 */\n      0x00\n        /* \"@openzeppelin/contracts/token/ERC721/ERC721.sol\":10061:10094  ERC721InvalidReceiver(address(0)) */\n      mload(0x40)\n      0x64a0ae9200000000000000000000000000000000000000000000000000000000\n      dup2\n      mstore\n      0x04\n      add\n      tag_337\n      swap2\n      swap1\n      tag_45\n      jump\t// in\n    tag_337:\n      mload(0x40)\n      dup1\n      swap2\n      sub\n      swap1\n      revert\n        /* \"@openzeppelin/contracts/token/ERC721/ERC721.sol\":10018:10105  if (to == address(0)) {... */\n    tag_336:\n        /* \"@openzeppelin/contracts/token/ERC721/ERC721.sol\":10114:10135  address previousOwner */\n      0x00\n        /* \"@openzeppelin/contracts/token/ERC721/ERC721.sol\":10138:10170  _update(to, tokenId, address(0)) */\n      tag_338\n        /* \"@openzeppelin/contracts/token/ERC721/ERC721.sol\":10146:10148  to */\n      dup4\n        /* \"@openzeppelin/contracts/token/ERC721/ERC721.sol\":10150:10157  tokenId */\n      dup4\n        /* \"@openzeppelin/contracts/token/ERC721/ERC721.sol\":10167:10168  0 */\n      0x00\n        /* \"@openzeppelin/contracts/token/ERC721/ERC721.sol\":10138:10145  _update */\n      tag_169\n        /* \"@openzeppelin/contracts/token/ERC721/ERC721.sol\":10138:10170  _update(to, tokenId, address(0)) */\n      jump\t// in\n    tag_338:\n        /* \"@openzeppelin/contracts/token/ERC721/ERC721.sol\":10114:10170  address previousOwner = _update(to, tokenId, address(0)) */\n      swap1\n      pop\n        /* \"@openzeppelin/contracts/token/ERC721/ERC721.sol\":10209:10210  0 */\n      0x00\n        /* \"@openzeppelin/contracts/token/ERC721/ERC721.sol\":10184:10211  previousOwner != address(0) */\n      0xffffffffffffffffffffffffffffffffffffffff\n      and\n        /* \"@openzeppelin/contracts/token/ERC721/ERC721.sol\":10184:10197  previousOwner */\n      dup2\n        /* \"@openzeppelin/contracts/token/ERC721/ERC721.sol\":10184:10211  previousOwner != address(0) */\n      0xffffffffffffffffffffffffffffffffffffffff\n      and\n      eq\n        /* \"@openzeppelin/contracts/token/ERC721/ERC721.sol\":10180:10276  if (previousOwner != address(0)) {... */\n      tag_339\n      jumpi\n        /* \"@openzeppelin/contracts/token/ERC721/ERC721.sol\":10262:10263  0 */\n      0x00\n        /* \"@openzeppelin/contracts/token/ERC721/ERC721.sol\":10234:10265  ERC721InvalidSender(address(0)) */\n      mload(0x40)\n      0x73c6ac6e00000000000000000000000000000000000000000000000000000000\n      dup2\n      mstore\n      0x04\n      add\n      tag_340\n      swap2\n      swap1\n      tag_45\n      jump\t// in\n    tag_340:\n      mload(0x40)\n      dup1\n      swap2\n      sub\n      swap1\n      revert\n        /* \"@openzeppelin/contracts/token/ERC721/ERC721.sol\":10180:10276  if (previousOwner != address(0)) {... */\n    tag_339:\n        /* \"@openzeppelin/contracts/token/ERC721/ERC721.sol\":10008:10282  {... */\n      pop\n        /* \"@openzeppelin/contracts/token/ERC721/ERC721.sol\":9955:10282  function _mint(address to, uint256 tokenId) internal {... */\n      pop\n      pop\n      jump\t// out\n        /* \"@openzeppelin/contracts/token/ERC721/ERC721.sol\":6376:6648  function _isAuthorized(address owner, address spender, uint256 tokenId) internal view virtual returns (bool) {... */\n    tag_318:\n        /* \"@openzeppelin/contracts/token/ERC721/ERC721.sol\":6479:6483  bool */\n      0x00\n        /* \"@openzeppelin/contracts/token/ERC721/ERC721.sol\":6533:6534  0 */\n      dup1\n        /* \"@openzeppelin/contracts/token/ERC721/ERC721.sol\":6514:6535  spender != address(0) */\n      0xffffffffffffffffffffffffffffffffffffffff\n      and\n        /* \"@openzeppelin/contracts/token/ERC721/ERC721.sol\":6514:6521  spender */\n      dup4\n        /* \"@openzeppelin/contracts/token/ERC721/ERC721.sol\":6514:6535  spender != address(0) */\n      0xffffffffffffffffffffffffffffffffffffffff\n      and\n      eq\n      iszero\n        /* \"@openzeppelin/contracts/token/ERC721/ERC721.sol\":6514:6641  spender != address(0) &&... */\n      dup1\n      iszero\n      tag_342\n      jumpi\n      pop\n        /* \"@openzeppelin/contracts/token/ERC721/ERC721.sol\":6561:6568  spender */\n      dup3\n        /* \"@openzeppelin/contracts/token/ERC721/ERC721.sol\":6552:6568  owner == spender */\n      0xffffffffffffffffffffffffffffffffffffffff\n      and\n        /* \"@openzeppelin/contracts/token/ERC721/ERC721.sol\":6552:6557  owner */\n      dup5\n        /* \"@openzeppelin/contracts/token/ERC721/ERC721.sol\":6552:6568  owner == spender */\n      0xffffffffffffffffffffffffffffffffffffffff\n      and\n      eq\n        /* \"@openzeppelin/contracts/token/ERC721/ERC721.sol\":6552:6604  owner == spender || isApprovedForAll(owner, spender) */\n      dup1\n      tag_343\n      jumpi\n      pop\n        /* \"@openzeppelin/contracts/token/ERC721/ERC721.sol\":6572:6604  isApprovedForAll(owner, spender) */\n      tag_344\n        /* \"@openzeppelin/contracts/token/ERC721/ERC721.sol\":6589:6594  owner */\n      dup5\n        /* \"@openzeppelin/contracts/token/ERC721/ERC721.sol\":6596:6603  spender */\n      dup5\n        /* \"@openzeppelin/contracts/token/ERC721/ERC721.sol\":6572:6588  isApprovedForAll */\n      tag_128\n        /* \"@openzeppelin/contracts/token/ERC721/ERC721.sol\":6572:6604  isApprovedForAll(owner, spender) */\n      jump\t// in\n    tag_344:\n        /* \"@openzeppelin/contracts/token/ERC721/ERC721.sol\":6552:6604  owner == spender || isApprovedForAll(owner, spender) */\n    tag_343:\n        /* \"@openzeppelin/contracts/token/ERC721/ERC721.sol\":6552:6640  owner == spender || isApprovedForAll(owner, spender) || _getApproved(tokenId) == spender */\n      dup1\n      tag_345\n      jumpi\n      pop\n        /* \"@openzeppelin/contracts/token/ERC721/ERC721.sol\":6633:6640  spender */\n      dup3\n        /* \"@openzeppelin/contracts/token/ERC721/ERC721.sol\":6608:6640  _getApproved(tokenId) == spender */\n      0xffffffffffffffffffffffffffffffffffffffff\n      and\n        /* \"@openzeppelin/contracts/token/ERC721/ERC721.sol\":6608:6629  _getApproved(tokenId) */\n      tag_346\n        /* \"@openzeppelin/contracts/token/ERC721/ERC721.sol\":6621:6628  tokenId */\n      dup4\n        /* \"@openzeppelin/contracts/token/ERC721/ERC721.sol\":6608:6620  _getApproved */\n      tag_148\n        /* \"@openzeppelin/contracts/token/ERC721/ERC721.sol\":6608:6629  _getApproved(tokenId) */\n      jump\t// in\n    tag_346:\n        /* \"@openzeppelin/contracts/token/ERC721/ERC721.sol\":6608:6640  _getApproved(tokenId) == spender */\n      0xffffffffffffffffffffffffffffffffffffffff\n      and\n      eq\n        /* \"@openzeppelin/contracts/token/ERC721/ERC721.sol\":6552:6640  owner == spender || isApprovedForAll(owner, spender) || _getApproved(tokenId) == spender */\n    tag_345:\n        /* \"@openzeppelin/contracts/token/ERC721/ERC721.sol\":6514:6641  spender != address(0) &&... */\n    tag_342:\n        /* \"@openzeppelin/contracts/token/ERC721/ERC721.sol\":6495:6641  return... */\n      swap1\n      pop\n        /* \"@openzeppelin/contracts/token/ERC721/ERC721.sol\":6376:6648  function _isAuthorized(address owner, address spender, uint256 tokenId) internal view virtual returns (bool) {... */\n      swap4\n      swap3\n      pop\n      pop\n      pop\n      jump\t// out\n        /* \"@openzeppelin/contracts/utils/Strings.sol\":637:1335  function toString(uint256 value) internal pure returns (string memory) {... */\n    tag_332:\n        /* \"@openzeppelin/contracts/utils/Strings.sol\":693:706  string memory */\n      0x60\n        /* \"@openzeppelin/contracts/utils/Strings.sol\":742:756  uint256 length */\n      0x00\n        /* \"@openzeppelin/contracts/utils/Strings.sol\":779:780  1 */\n      0x01\n        /* \"@openzeppelin/contracts/utils/Strings.sol\":759:776  Math.log10(value) */\n      tag_348\n        /* \"@openzeppelin/contracts/utils/Strings.sol\":770:775  value */\n      dup5\n        /* \"@openzeppelin/contracts/utils/Strings.sol\":759:769  Math.log10 */\n      tag_349\n        /* \"@openzeppelin/contracts/utils/Strings.sol\":759:776  Math.log10(value) */\n      jump\t// in\n    tag_348:\n        /* \"@openzeppelin/contracts/utils/Strings.sol\":759:780  Math.log10(value) + 1 */\n      add\n        /* \"@openzeppelin/contracts/utils/Strings.sol\":742:780  uint256 length = Math.log10(value) + 1 */\n      swap1\n      pop\n        /* \"@openzeppelin/contracts/utils/Strings.sol\":794:814  string memory buffer */\n      0x00\n        /* \"@openzeppelin/contracts/utils/Strings.sol\":828:834  length */\n      dup2\n        /* \"@openzeppelin/contracts/utils/Strings.sol\":817:835  new string(length) */\n      0xffffffffffffffff\n      dup2\n      gt\n      iszero\n      tag_350\n      jumpi\n      tag_351\n      tag_352\n      jump\t// in\n    tag_351:\n    tag_350:\n      mload(0x40)\n      swap1\n      dup1\n      dup3\n      mstore\n      dup1\n      0x1f\n      add\n      not(0x1f)\n      and\n      0x20\n      add\n      dup3\n      add\n      0x40\n      mstore\n      dup1\n      iszero\n      tag_353\n      jumpi\n      dup2\n      0x20\n      add\n      0x01\n      dup3\n      mul\n      dup1\n      calldatasize\n      dup4\n      calldatacopy\n      dup1\n      dup3\n      add\n      swap2\n      pop\n      pop\n      swap1\n      pop\n    tag_353:\n      pop\n        /* \"@openzeppelin/contracts/utils/Strings.sol\":794:835  string memory buffer = new string(length) */\n      swap1\n      pop\n        /* \"@openzeppelin/contracts/utils/Strings.sol\":849:860  uint256 ptr */\n      0x00\n        /* \"@openzeppelin/contracts/utils/Strings.sol\":975:981  length */\n      dup3\n        /* \"@openzeppelin/contracts/utils/Strings.sol\":971:973  32 */\n      0x20\n        /* \"@openzeppelin/contracts/utils/Strings.sol\":967:982  add(32, length) */\n      add\n        /* \"@openzeppelin/contracts/utils/Strings.sol\":959:965  buffer */\n      dup3\n        /* \"@openzeppelin/contracts/utils/Strings.sol\":955:983  add(buffer, add(32, length)) */\n      add\n        /* \"@openzeppelin/contracts/utils/Strings.sol\":948:983  ptr := add(buffer, add(32, length)) */\n      swap1\n      pop\n        /* \"@openzeppelin/contracts/utils/Strings.sol\":1010:1292  while (true) {... */\n    tag_354:\n        /* \"@openzeppelin/contracts/utils/Strings.sol\":1017:1021  true */\n      0x01\n        /* \"@openzeppelin/contracts/utils/Strings.sol\":1010:1292  while (true) {... */\n      iszero\n      tag_355\n      jumpi\n        /* \"@openzeppelin/contracts/utils/Strings.sol\":1041:1046  ptr-- */\n      dup1\n      dup1\n      0x01\n      swap1\n      sub\n      swap2\n      pop\n      pop\n        /* \"@openzeppelin/contracts/utils/Strings.sol\":1180:1190  HEX_DIGITS */\n      0x3031323334353637383961626364656600000000000000000000000000000000\n        /* \"@openzeppelin/contracts/utils/Strings.sol\":1175:1177  10 */\n      0x0a\n        /* \"@openzeppelin/contracts/utils/Strings.sol\":1168:1173  value */\n      dup7\n        /* \"@openzeppelin/contracts/utils/Strings.sol\":1164:1178  mod(value, 10) */\n      mod\n        /* \"@openzeppelin/contracts/utils/Strings.sol\":1159:1191  byte(mod(value, 10), HEX_DIGITS) */\n      byte\n        /* \"@openzeppelin/contracts/utils/Strings.sol\":1154:1157  ptr */\n      dup2\n        /* \"@openzeppelin/contracts/utils/Strings.sol\":1146:1192  mstore8(ptr, byte(mod(value, 10), HEX_DIGITS)) */\n      mstore8\n        /* \"@openzeppelin/contracts/utils/Strings.sol\":1236:1238  10 */\n      0x0a\n        /* \"@openzeppelin/contracts/utils/Strings.sol\":1227:1238  value /= 10 */\n      dup6\n      dup2\n      tag_356\n      jumpi\n      tag_357\n      tag_358\n      jump\t// in\n    tag_357:\n    tag_356:\n      div\n      swap5\n      pop\n        /* \"@openzeppelin/contracts/utils/Strings.sol\":1269:1270  0 */\n      0x00\n        /* \"@openzeppelin/contracts/utils/Strings.sol\":1260:1265  value */\n      dup6\n        /* \"@openzeppelin/contracts/utils/Strings.sol\":1260:1270  value == 0 */\n      sub\n        /* \"@openzeppelin/contracts/utils/Strings.sol\":1010:1292  while (true) {... */\n      tag_354\n        /* \"@openzeppelin/contracts/utils/Strings.sol\":1256:1277  if (value == 0) break */\n      jumpi\n        /* \"@openzeppelin/contracts/utils/Strings.sol\":1010:1292  while (true) {... */\n    tag_355:\n        /* \"@openzeppelin/contracts/utils/Strings.sol\":1312:1318  buffer */\n      dup2\n        /* \"@openzeppelin/contracts/utils/Strings.sol\":1305:1318  return buffer */\n      swap4\n      pop\n      pop\n      pop\n      pop\n        /* \"@openzeppelin/contracts/utils/Strings.sol\":637:1335  function toString(uint256 value) internal pure returns (string memory) {... */\n      swap2\n      swap1\n      pop\n      jump\t// out\n        /* \"@openzeppelin/contracts/utils/math/Math.sol\":12214:13130  function log10(uint256 value) internal pure returns (uint256) {... */\n    tag_349:\n        /* \"@openzeppelin/contracts/utils/math/Math.sol\":12267:12274  uint256 */\n      0x00\n        /* \"@openzeppelin/contracts/utils/math/Math.sol\":12286:12300  uint256 result */\n      dup1\n        /* \"@openzeppelin/contracts/utils/math/Math.sol\":12303:12304  0 */\n      0x00\n        /* \"@openzeppelin/contracts/utils/math/Math.sol\":12286:12304  uint256 result = 0 */\n      swap1\n      pop\n        /* \"@openzeppelin/contracts/utils/math/Math.sol\":12351:12359  10 ** 64 */\n      0x184f03e93ff9f4daa797ed6e38ed64bf6a1f010000000000000000\n        /* \"@openzeppelin/contracts/utils/math/Math.sol\":12342:12347  value */\n      dup4\n        /* \"@openzeppelin/contracts/utils/math/Math.sol\":12342:12359  value >= 10 ** 64 */\n      lt\n        /* \"@openzeppelin/contracts/utils/math/Math.sol\":12338:12441  if (value >= 10 ** 64) {... */\n      tag_361\n      jumpi\n        /* \"@openzeppelin/contracts/utils/math/Math.sol\":12388:12396  10 ** 64 */\n      0x184f03e93ff9f4daa797ed6e38ed64bf6a1f010000000000000000\n        /* \"@openzeppelin/contracts/utils/math/Math.sol\":12379:12396  value /= 10 ** 64 */\n      dup4\n      dup2\n      tag_362\n      jumpi\n      tag_363\n      tag_358\n      jump\t// in\n    tag_363:\n    tag_362:\n      div\n      swap3\n      pop\n        /* \"@openzeppelin/contracts/utils/math/Math.sol\":12424:12426  64 */\n      0x40\n        /* \"@openzeppelin/contracts/utils/math/Math.sol\":12414:12426  result += 64 */\n      dup2\n      add\n      swap1\n      pop\n        /* \"@openzeppelin/contracts/utils/math/Math.sol\":12338:12441  if (value >= 10 ** 64) {... */\n    tag_361:\n        /* \"@openzeppelin/contracts/utils/math/Math.sol\":12467:12475  10 ** 32 */\n      0x04ee2d6d415b85acef8100000000\n        /* \"@openzeppelin/contracts/utils/math/Math.sol\":12458:12463  value */\n      dup4\n        /* \"@openzeppelin/contracts/utils/math/Math.sol\":12458:12475  value >= 10 ** 32 */\n      lt\n        /* \"@openzeppelin/contracts/utils/math/Math.sol\":12454:12557  if (value >= 10 ** 32) {... */\n      tag_364\n      jumpi\n        /* \"@openzeppelin/contracts/utils/math/Math.sol\":12504:12512  10 ** 32 */\n      0x04ee2d6d415b85acef8100000000\n        /* \"@openzeppelin/contracts/utils/math/Math.sol\":12495:12512  value /= 10 ** 32 */\n      dup4\n      dup2\n      tag_365\n      jumpi\n      tag_366\n      tag_358\n      jump\t// in\n    tag_366:\n    tag_365:\n      div\n      swap3\n      pop\n        /* \"@openzeppelin/contracts/utils/math/Math.sol\":12540:12542  32 */\n      0x20\n        /* \"@openzeppelin/contracts/utils/math/Math.sol\":12530:12542  result += 32 */\n      dup2\n      add\n      swap1\n      pop\n        /* \"@openzeppelin/contracts/utils/math/Math.sol\":12454:12557  if (value >= 10 ** 32) {... */\n    tag_364:\n        /* \"@openzeppelin/contracts/utils/math/Math.sol\":12583:12591  10 ** 16 */\n      0x2386f26fc10000\n        /* \"@openzeppelin/contracts/utils/math/Math.sol\":12574:12579  value */\n      dup4\n        /* \"@openzeppelin/contracts/utils/math/Math.sol\":12574:12591  value >= 10 ** 16 */\n      lt\n        /* \"@openzeppelin/contracts/utils/math/Math.sol\":12570:12673  if (value >= 10 ** 16) {... */\n      tag_367\n      jumpi\n        /* \"@openzeppelin/contracts/utils/math/Math.sol\":12620:12628  10 ** 16 */\n      0x2386f26fc10000\n        /* \"@openzeppelin/contracts/utils/math/Math.sol\":12611:12628  value /= 10 ** 16 */\n      dup4\n      dup2\n      tag_368\n      jumpi\n      tag_369\n      tag_358\n      jump\t// in\n    tag_369:\n    tag_368:\n      div\n      swap3\n      pop\n        /* \"@openzeppelin/contracts/utils/math/Math.sol\":12656:12658  16 */\n      0x10\n        /* \"@openzeppelin/contracts/utils/math/Math.sol\":12646:12658  result += 16 */\n      dup2\n      add\n      swap1\n      pop\n        /* \"@openzeppelin/contracts/utils/math/Math.sol\":12570:12673  if (value >= 10 ** 16) {... */\n    tag_367:\n        /* \"@openzeppelin/contracts/utils/math/Math.sol\":12699:12706  10 ** 8 */\n      0x05f5e100\n        /* \"@openzeppelin/contracts/utils/math/Math.sol\":12690:12695  value */\n      dup4\n        /* \"@openzeppelin/contracts/utils/math/Math.sol\":12690:12706  value >= 10 ** 8 */\n      lt\n        /* \"@openzeppelin/contracts/utils/math/Math.sol\":12686:12786  if (value >= 10 ** 8) {... */\n      tag_370\n      jumpi\n        /* \"@openzeppelin/contracts/utils/math/Math.sol\":12735:12742  10 ** 8 */\n      0x05f5e100\n        /* \"@openzeppelin/contracts/utils/math/Math.sol\":12726:12742  value /= 10 ** 8 */\n      dup4\n      dup2\n      tag_371\n      jumpi\n      tag_372\n      tag_358\n      jump\t// in\n    tag_372:\n    tag_371:\n      div\n      swap3\n      pop\n        /* \"@openzeppelin/contracts/utils/math/Math.sol\":12770:12771  8 */\n      0x08\n        /* \"@openzeppelin/contracts/utils/math/Math.sol\":12760:12771  result += 8 */\n      dup2\n      add\n      swap1\n      pop\n        /* \"@openzeppelin/contracts/utils/math/Math.sol\":12686:12786  if (value >= 10 ** 8) {... */\n    tag_370:\n        /* \"@openzeppelin/contracts/utils/math/Math.sol\":12812:12819  10 ** 4 */\n      0x2710\n        /* \"@openzeppelin/contracts/utils/math/Math.sol\":12803:12808  value */\n      dup4\n        /* \"@openzeppelin/contracts/utils/math/Math.sol\":12803:12819  value >= 10 ** 4 */\n      lt\n        /* \"@openzeppelin/contracts/utils/math/Math.sol\":12799:12899  if (value >= 10 ** 4) {... */\n      tag_373\n      jumpi\n        /* \"@openzeppelin/contracts/utils/math/Math.sol\":12848:12855  10 ** 4 */\n      0x2710\n        /* \"@openzeppelin/contracts/utils/math/Math.sol\":12839:12855  value /= 10 ** 4 */\n      dup4\n      dup2\n      tag_374\n      jumpi\n      tag_375\n      tag_358\n      jump\t// in\n    tag_375:\n    tag_374:\n      div\n      swap3\n      pop\n        /* \"@openzeppelin/contracts/utils/math/Math.sol\":12883:12884  4 */\n      0x04\n        /* \"@openzeppelin/contracts/utils/math/Math.sol\":12873:12884  result += 4 */\n      dup2\n      add\n      swap1\n      pop\n        /* \"@openzeppelin/contracts/utils/math/Math.sol\":12799:12899  if (value >= 10 ** 4) {... */\n    tag_373:\n        /* \"@openzeppelin/contracts/utils/math/Math.sol\":12925:12932  10 ** 2 */\n      0x64\n        /* \"@openzeppelin/contracts/utils/math/Math.sol\":12916:12921  value */\n      dup4\n        /* \"@openzeppelin/contracts/utils/math/Math.sol\":12916:12932  value >= 10 ** 2 */\n      lt\n        /* \"@openzeppelin/contracts/utils/math/Math.sol\":12912:13012  if (value >= 10 ** 2) {... */\n      tag_376\n      jumpi\n        /* \"@openzeppelin/contracts/utils/math/Math.sol\":12961:12968  10 ** 2 */\n      0x64\n        /* \"@openzeppelin/contracts/utils/math/Math.sol\":12952:12968  value /= 10 ** 2 */\n      dup4\n      dup2\n      tag_377\n      jumpi\n      tag_378\n      tag_358\n      jump\t// in\n    tag_378:\n    tag_377:\n      div\n      swap3\n      pop\n        /* \"@openzeppelin/contracts/utils/math/Math.sol\":12996:12997  2 */\n      0x02\n        /* \"@openzeppelin/contracts/utils/math/Math.sol\":12986:12997  result += 2 */\n      dup2\n      add\n      swap1\n      pop\n        /* \"@openzeppelin/contracts/utils/math/Math.sol\":12912:13012  if (value >= 10 ** 2) {... */\n    tag_376:\n        /* \"@openzeppelin/contracts/utils/math/Math.sol\":13038:13045  10 ** 1 */\n      0x0a\n        /* \"@openzeppelin/contracts/utils/math/Math.sol\":13029:13034  value */\n      dup4\n        /* \"@openzeppelin/contracts/utils/math/Math.sol\":13029:13045  value >= 10 ** 1 */\n      lt\n        /* \"@openzeppelin/contracts/utils/math/Math.sol\":13025:13091  if (value >= 10 ** 1) {... */\n      tag_379\n      jumpi\n        /* \"@openzeppelin/contracts/utils/math/Math.sol\":13075:13076  1 */\n      0x01\n        /* \"@openzeppelin/contracts/utils/math/Math.sol\":13065:13076  result += 1 */\n      dup2\n      add\n      swap1\n      pop\n        /* \"@openzeppelin/contracts/utils/math/Math.sol\":13025:13091  if (value >= 10 ** 1) {... */\n    tag_379:\n        /* \"@openzeppelin/contracts/utils/math/Math.sol\":13117:13123  result */\n      dup1\n        /* \"@openzeppelin/contracts/utils/math/Math.sol\":13110:13123  return result */\n      swap2\n      pop\n      pop\n        /* \"@openzeppelin/contracts/utils/math/Math.sol\":12214:13130  function log10(uint256 value) internal pure returns (uint256) {... */\n      swap2\n      swap1\n      pop\n      jump\t// out\n        /* \"#utility.yul\":7:82   */\n    tag_380:\n        /* \"#utility.yul\":40:46   */\n      0x00\n        /* \"#utility.yul\":73:75   */\n      0x40\n        /* \"#utility.yul\":67:76   */\n      mload\n        /* \"#utility.yul\":57:76   */\n      swap1\n      pop\n        /* \"#utility.yul\":7:82   */\n      swap1\n      jump\t// out\n        /* \"#utility.yul\":88:205   */\n    tag_381:\n        /* \"#utility.yul\":197:198   */\n      0x00\n        /* \"#utility.yul\":194:195   */\n      dup1\n        /* \"#utility.yul\":187:199   */\n      revert\n        /* \"#utility.yul\":211:328   */\n    tag_382:\n        /* \"#utility.yul\":320:321   */\n      0x00\n        /* \"#utility.yul\":317:318   */\n      dup1\n        /* \"#utility.yul\":310:322   */\n      revert\n        /* \"#utility.yul\":334:483   */\n    tag_383:\n        /* \"#utility.yul\":370:377   */\n      0x00\n        /* \"#utility.yul\":410:476   */\n      0xffffffff00000000000000000000000000000000000000000000000000000000\n        /* \"#utility.yul\":403:408   */\n      dup3\n        /* \"#utility.yul\":399:477   */\n      and\n        /* \"#utility.yul\":388:477   */\n      swap1\n      pop\n        /* \"#utility.yul\":334:483   */\n      swap2\n      swap1\n      pop\n      jump\t// out\n        /* \"#utility.yul\":489:609   */\n    tag_384:\n        /* \"#utility.yul\":561:584   */\n      tag_450\n        /* \"#utility.yul\":578:583   */\n      dup2\n        /* \"#utility.yul\":561:584   */\n      tag_383\n      jump\t// in\n    tag_450:\n        /* \"#utility.yul\":554:559   */\n      dup2\n        /* \"#utility.yul\":551:585   */\n      eq\n        /* \"#utility.yul\":541:603   */\n      tag_451\n      jumpi\n        /* \"#utility.yul\":599:600   */\n      0x00\n        /* \"#utility.yul\":596:597   */\n      dup1\n        /* \"#utility.yul\":589:601   */\n      revert\n        /* \"#utility.yul\":541:603   */\n    tag_451:\n        /* \"#utility.yul\":489:609   */\n      pop\n      jump\t// out\n        /* \"#utility.yul\":615:752   */\n    tag_385:\n        /* \"#utility.yul\":660:665   */\n      0x00\n        /* \"#utility.yul\":698:704   */\n      dup2\n        /* \"#utility.yul\":685:705   */\n      calldataload\n        /* \"#utility.yul\":676:705   */\n      swap1\n      pop\n        /* \"#utility.yul\":714:746   */\n      tag_453\n        /* \"#utility.yul\":740:745   */\n      dup2\n        /* \"#utility.yul\":714:746   */\n      tag_384\n      jump\t// in\n    tag_453:\n        /* \"#utility.yul\":615:752   */\n      swap3\n      swap2\n      pop\n      pop\n      jump\t// out\n        /* \"#utility.yul\":758:1085   */\n    tag_30:\n        /* \"#utility.yul\":816:822   */\n      0x00\n        /* \"#utility.yul\":865:867   */\n      0x20\n        /* \"#utility.yul\":853:862   */\n      dup3\n        /* \"#utility.yul\":844:851   */\n      dup5\n        /* \"#utility.yul\":840:863   */\n      sub\n        /* \"#utility.yul\":836:868   */\n      slt\n        /* \"#utility.yul\":833:952   */\n      iszero\n      tag_455\n      jumpi\n        /* \"#utility.yul\":871:950   */\n      tag_456\n      tag_381\n      jump\t// in\n    tag_456:\n        /* \"#utility.yul\":833:952   */\n    tag_455:\n        /* \"#utility.yul\":991:992   */\n      0x00\n        /* \"#utility.yul\":1016:1068   */\n      tag_457\n        /* \"#utility.yul\":1060:1067   */\n      dup5\n        /* \"#utility.yul\":1051:1057   */\n      dup3\n        /* \"#utility.yul\":1040:1049   */\n      dup6\n        /* \"#utility.yul\":1036:1058   */\n      add\n        /* \"#utility.yul\":1016:1068   */\n      tag_385\n      jump\t// in\n    tag_457:\n        /* \"#utility.yul\":1006:1068   */\n      swap2\n      pop\n        /* \"#utility.yul\":962:1078   */\n      pop\n        /* \"#utility.yul\":758:1085   */\n      swap3\n      swap2\n      pop\n      pop\n      jump\t// out\n        /* \"#utility.yul\":1091:1181   */\n    tag_386:\n        /* \"#utility.yul\":1125:1132   */\n      0x00\n        /* \"#utility.yul\":1168:1173   */\n      dup2\n        /* \"#utility.yul\":1161:1174   */\n      iszero\n        /* \"#utility.yul\":1154:1175   */\n      iszero\n        /* \"#utility.yul\":1143:1175   */\n      swap1\n      pop\n        /* \"#utility.yul\":1091:1181   */\n      swap2\n      swap1\n      pop\n      jump\t// out\n        /* \"#utility.yul\":1187:1296   */\n    tag_387:\n        /* \"#utility.yul\":1268:1289   */\n      tag_460\n        /* \"#utility.yul\":1283:1288   */\n      dup2\n        /* \"#utility.yul\":1268:1289   */\n      tag_386\n      jump\t// in\n    tag_460:\n        /* \"#utility.yul\":1263:1266   */\n      dup3\n        /* \"#utility.yul\":1256:1290   */\n      mstore\n        /* \"#utility.yul\":1187:1296   */\n      pop\n      pop\n      jump\t// out\n        /* \"#utility.yul\":1302:1512   */\n    tag_33:\n        /* \"#utility.yul\":1389:1393   */\n      0x00\n        /* \"#utility.yul\":1427:1429   */\n      0x20\n        /* \"#utility.yul\":1416:1425   */\n      dup3\n        /* \"#utility.yul\":1412:1430   */\n      add\n        /* \"#utility.yul\":1404:1430   */\n      swap1\n      pop\n        /* \"#utility.yul\":1440:1505   */\n      tag_462\n        /* \"#utility.yul\":1502:1503   */\n      0x00\n        /* \"#utility.yul\":1491:1500   */\n      dup4\n        /* \"#utility.yul\":1487:1504   */\n      add\n        /* \"#utility.yul\":1478:1484   */\n      dup5\n        /* \"#utility.yul\":1440:1505   */\n      tag_387\n      jump\t// in\n    tag_462:\n        /* \"#utility.yul\":1302:1512   */\n      swap3\n      swap2\n      pop\n      pop\n      jump\t// out\n        /* \"#utility.yul\":1518:1617   */\n    tag_388:\n        /* \"#utility.yul\":1570:1576   */\n      0x00\n        /* \"#utility.yul\":1604:1609   */\n      dup2\n        /* \"#utility.yul\":1598:1610   */\n      mload\n        /* \"#utility.yul\":1588:1610   */\n      swap1\n      pop\n        /* \"#utility.yul\":1518:1617   */\n      swap2\n      swap1\n      pop\n      jump\t// out\n        /* \"#utility.yul\":1623:1792   */\n    tag_389:\n        /* \"#utility.yul\":1707:1718   */\n      0x00\n        /* \"#utility.yul\":1741:1747   */\n      dup3\n        /* \"#utility.yul\":1736:1739   */\n      dup3\n        /* \"#utility.yul\":1729:1748   */\n      mstore\n        /* \"#utility.yul\":1781:1785   */\n      0x20\n        /* \"#utility.yul\":1776:1779   */\n      dup3\n        /* \"#utility.yul\":1772:1786   */\n      add\n        /* \"#utility.yul\":1757:1786   */\n      swap1\n      pop\n        /* \"#utility.yul\":1623:1792   */\n      swap3\n      swap2\n      pop\n      pop\n      jump\t// out\n        /* \"#utility.yul\":1798:2044   */\n    tag_390:\n        /* \"#utility.yul\":1879:1880   */\n      0x00\n        /* \"#utility.yul\":1889:2002   */\n    tag_466:\n        /* \"#utility.yul\":1903:1909   */\n      dup4\n        /* \"#utility.yul\":1900:1901   */\n      dup2\n        /* \"#utility.yul\":1897:1910   */\n      lt\n        /* \"#utility.yul\":1889:2002   */\n      iszero\n      tag_468\n      jumpi\n        /* \"#utility.yul\":1988:1989   */\n      dup1\n        /* \"#utility.yul\":1983:1986   */\n      dup3\n        /* \"#utility.yul\":1979:1990   */\n      add\n        /* \"#utility.yul\":1973:1991   */\n      mload\n        /* \"#utility.yul\":1969:1970   */\n      dup2\n        /* \"#utility.yul\":1964:1967   */\n      dup5\n        /* \"#utility.yul\":1960:1971   */\n      add\n        /* \"#utility.yul\":1953:1992   */\n      mstore\n        /* \"#utility.yul\":1925:1927   */\n      0x20\n        /* \"#utility.yul\":1922:1923   */\n      dup2\n        /* \"#utility.yul\":1918:1928   */\n      add\n        /* \"#utility.yul\":1913:1928   */\n      swap1\n      pop\n        /* \"#utility.yul\":1889:2002   */\n      jump(tag_466)\n    tag_468:\n        /* \"#utility.yul\":2036:2037   */\n      0x00\n        /* \"#utility.yul\":2027:2033   */\n      dup5\n        /* \"#utility.yul\":2022:2025   */\n      dup5\n        /* \"#utility.yul\":2018:2034   */\n      add\n        /* \"#utility.yul\":2011:2038   */\n      mstore\n        /* \"#utility.yul\":1860:2044   */\n      pop\n        /* \"#utility.yul\":1798:2044   */\n      pop\n      pop\n      pop\n      jump\t// out\n        /* \"#utility.yul\":2050:2152   */\n    tag_391:\n        /* \"#utility.yul\":2091:2097   */\n      0x00\n        /* \"#utility.yul\":2142:2144   */\n      0x1f\n        /* \"#utility.yul\":2138:2145   */\n      not\n        /* \"#utility.yul\":2133:2135   */\n      0x1f\n        /* \"#utility.yul\":2126:2131   */\n      dup4\n        /* \"#utility.yul\":2122:2136   */\n      add\n        /* \"#utility.yul\":2118:2146   */\n      and\n        /* \"#utility.yul\":2108:2146   */\n      swap1\n      pop\n        /* \"#utility.yul\":2050:2152   */\n      swap2\n      swap1\n      pop\n      jump\t// out\n        /* \"#utility.yul\":2158:2535   */\n    tag_392:\n        /* \"#utility.yul\":2246:2249   */\n      0x00\n        /* \"#utility.yul\":2274:2313   */\n      tag_471\n        /* \"#utility.yul\":2307:2312   */\n      dup3\n        /* \"#utility.yul\":2274:2313   */\n      tag_388\n      jump\t// in\n    tag_471:\n        /* \"#utility.yul\":2329:2400   */\n      tag_472\n        /* \"#utility.yul\":2393:2399   */\n      dup2\n        /* \"#utility.yul\":2388:2391   */\n      dup6\n        /* \"#utility.yul\":2329:2400   */\n      tag_389\n      jump\t// in\n    tag_472:\n        /* \"#utility.yul\":2322:2400   */\n      swap4\n      pop\n        /* \"#utility.yul\":2409:2474   */\n      tag_473\n        /* \"#utility.yul\":2467:2473   */\n      dup2\n        /* \"#utility.yul\":2462:2465   */\n      dup6\n        /* \"#utility.yul\":2455:2459   */\n      0x20\n        /* \"#utility.yul\":2448:2453   */\n      dup7\n        /* \"#utility.yul\":2444:2460   */\n      add\n        /* \"#utility.yul\":2409:2474   */\n      tag_390\n      jump\t// in\n    tag_473:\n        /* \"#utility.yul\":2499:2528   */\n      tag_474\n        /* \"#utility.yul\":2521:2527   */\n      dup2\n        /* \"#utility.yul\":2499:2528   */\n      tag_391\n      jump\t// in\n    tag_474:\n        /* \"#utility.yul\":2494:2497   */\n      dup5\n        /* \"#utility.yul\":2490:2529   */\n      add\n        /* \"#utility.yul\":2483:2529   */\n      swap2\n      pop\n        /* \"#utility.yul\":2250:2535   */\n      pop\n        /* \"#utility.yul\":2158:2535   */\n      swap3\n      swap2\n      pop\n      pop\n      jump\t// out\n        /* \"#utility.yul\":2541:2854   */\n    tag_38:\n        /* \"#utility.yul\":2654:2658   */\n      0x00\n        /* \"#utility.yul\":2692:2694   */\n      0x20\n        /* \"#utility.yul\":2681:2690   */\n      dup3\n        /* \"#utility.yul\":2677:2695   */\n      add\n        /* \"#utility.yul\":2669:2695   */\n      swap1\n      pop\n        /* \"#utility.yul\":2741:2750   */\n      dup2\n        /* \"#utility.yul\":2735:2739   */\n      dup2\n        /* \"#utility.yul\":2731:2751   */\n      sub\n        /* \"#utility.yul\":2727:2728   */\n      0x00\n        /* \"#utility.yul\":2716:2725   */\n      dup4\n        /* \"#utility.yul\":2712:2729   */\n      add\n        /* \"#utility.yul\":2705:2752   */\n      mstore\n        /* \"#utility.yul\":2769:2847   */\n      tag_476\n        /* \"#utility.yul\":2842:2846   */\n      dup2\n        /* \"#utility.yul\":2833:2839   */\n      dup5\n        /* \"#utility.yul\":2769:2847   */\n      tag_392\n      jump\t// in\n    tag_476:\n        /* \"#utility.yul\":2761:2847   */\n      swap1\n      pop\n        /* \"#utility.yul\":2541:2854   */\n      swap3\n      swap2\n      pop\n      pop\n      jump\t// out\n        /* \"#utility.yul\":2860:2937   */\n    tag_393:\n        /* \"#utility.yul\":2897:2904   */\n      0x00\n        /* \"#utility.yul\":2926:2931   */\n      dup2\n        /* \"#utility.yul\":2915:2931   */\n      swap1\n      pop\n        /* \"#utility.yul\":2860:2937   */\n      swap2\n      swap1\n      pop\n      jump\t// out\n        /* \"#utility.yul\":2943:3065   */\n    tag_394:\n        /* \"#utility.yul\":3016:3040   */\n      tag_479\n        /* \"#utility.yul\":3034:3039   */\n      dup2\n        /* \"#utility.yul\":3016:3040   */\n      tag_393\n      jump\t// in\n    tag_479:\n        /* \"#utility.yul\":3009:3014   */\n      dup2\n        /* \"#utility.yul\":3006:3041   */\n      eq\n        /* \"#utility.yul\":2996:3059   */\n      tag_480\n      jumpi\n        /* \"#utility.yul\":3055:3056   */\n      0x00\n        /* \"#utility.yul\":3052:3053   */\n      dup1\n        /* \"#utility.yul\":3045:3057   */\n      revert\n        /* \"#utility.yul\":2996:3059   */\n    tag_480:\n        /* \"#utility.yul\":2943:3065   */\n      pop\n      jump\t// out\n        /* \"#utility.yul\":3071:3210   */\n    tag_395:\n        /* \"#utility.yul\":3117:3122   */\n      0x00\n        /* \"#utility.yul\":3155:3161   */\n      dup2\n        /* \"#utility.yul\":3142:3162   */\n      calldataload\n        /* \"#utility.yul\":3133:3162   */\n      swap1\n      pop\n        /* \"#utility.yul\":3171:3204   */\n      tag_482\n        /* \"#utility.yul\":3198:3203   */\n      dup2\n        /* \"#utility.yul\":3171:3204   */\n      tag_394\n      jump\t// in\n    tag_482:\n        /* \"#utility.yul\":3071:3210   */\n      swap3\n      swap2\n      pop\n      pop\n      jump\t// out\n        /* \"#utility.yul\":3216:3545   */\n    tag_42:\n        /* \"#utility.yul\":3275:3281   */\n      0x00\n        /* \"#utility.yul\":3324:3326   */\n      0x20\n        /* \"#utility.yul\":3312:3321   */\n      dup3\n        /* \"#utility.yul\":3303:3310   */\n      dup5\n        /* \"#utility.yul\":3299:3322   */\n      sub\n        /* \"#utility.yul\":3295:3327   */\n      slt\n        /* \"#utility.yul\":3292:3411   */\n      iszero\n      tag_484\n      jumpi\n        /* \"#utility.yul\":3330:3409   */\n      tag_485\n      tag_381\n      jump\t// in\n    tag_485:\n        /* \"#utility.yul\":3292:3411   */\n    tag_484:\n        /* \"#utility.yul\":3450:3451   */\n      0x00\n        /* \"#utility.yul\":3475:3528   */\n      tag_486\n        /* \"#utility.yul\":3520:3527   */\n      dup5\n        /* \"#utility.yul\":3511:3517   */\n      dup3\n        /* \"#utility.yul\":3500:3509   */\n      dup6\n        /* \"#utility.yul\":3496:3518   */\n      add\n        /* \"#utility.yul\":3475:3528   */\n      tag_395\n      jump\t// in\n    tag_486:\n        /* \"#utility.yul\":3465:3528   */\n      swap2\n      pop\n        /* \"#utility.yul\":3421:3538   */\n      pop\n        /* \"#utility.yul\":3216:3545   */\n      swap3\n      swap2\n      pop\n      pop\n      jump\t// out\n        /* \"#utility.yul\":3551:3677   */\n    tag_396:\n        /* \"#utility.yul\":3588:3595   */\n      0x00\n        /* \"#utility.yul\":3628:3670   */\n      0xffffffffffffffffffffffffffffffffffffffff\n        /* \"#utility.yul\":3621:3626   */\n      dup3\n        /* \"#utility.yul\":3617:3671   */\n      and\n        /* \"#utility.yul\":3606:3671   */\n      swap1\n      pop\n        /* \"#utility.yul\":3551:3677   */\n      swap2\n      swap1\n      pop\n      jump\t// out\n        /* \"#utility.yul\":3683:3779   */\n    tag_397:\n        /* \"#utility.yul\":3720:3727   */\n      0x00\n        /* \"#utility.yul\":3749:3773   */\n      tag_489\n        /* \"#utility.yul\":3767:3772   */\n      dup3\n        /* \"#utility.yul\":3749:3773   */\n      tag_396\n      jump\t// in\n    tag_489:\n        /* \"#utility.yul\":3738:3773   */\n      swap1\n      pop\n        /* \"#utility.yul\":3683:3779   */\n      swap2\n      swap1\n      pop\n      jump\t// out\n        /* \"#utility.yul\":3785:3903   */\n    tag_398:\n        /* \"#utility.yul\":3872:3896   */\n      tag_491\n        /* \"#utility.yul\":3890:3895   */\n      dup2\n        /* \"#utility.yul\":3872:3896   */\n      tag_397\n      jump\t// in\n    tag_491:\n        /* \"#utility.yul\":3867:3870   */\n      dup3\n        /* \"#utility.yul\":3860:3897   */\n      mstore\n        /* \"#utility.yul\":3785:3903   */\n      pop\n      pop\n      jump\t// out\n        /* \"#utility.yul\":3909:4131   */\n    tag_45:\n        /* \"#utility.yul\":4002:4006   */\n      0x00\n        /* \"#utility.yul\":4040:4042   */\n      0x20\n        /* \"#utility.yul\":4029:4038   */\n      dup3\n        /* \"#utility.yul\":4025:4043   */\n      add\n        /* \"#utility.yul\":4017:4043   */\n      swap1\n      pop\n        /* \"#utility.yul\":4053:4124   */\n      tag_493\n        /* \"#utility.yul\":4121:4122   */\n      0x00\n        /* \"#utility.yul\":4110:4119   */\n      dup4\n        /* \"#utility.yul\":4106:4123   */\n      add\n        /* \"#utility.yul\":4097:4103   */\n      dup5\n        /* \"#utility.yul\":4053:4124   */\n      tag_398\n      jump\t// in\n    tag_493:\n        /* \"#utility.yul\":3909:4131   */\n      swap3\n      swap2\n      pop\n      pop\n      jump\t// out\n        /* \"#utility.yul\":4137:4259   */\n    tag_399:\n        /* \"#utility.yul\":4210:4234   */\n      tag_495\n        /* \"#utility.yul\":4228:4233   */\n      dup2\n        /* \"#utility.yul\":4210:4234   */\n      tag_397\n      jump\t// in\n    tag_495:\n        /* \"#utility.yul\":4203:4208   */\n      dup2\n        /* \"#utility.yul\":4200:4235   */\n      eq\n        /* \"#utility.yul\":4190:4253   */\n      tag_496\n      jumpi\n        /* \"#utility.yul\":4249:4250   */\n      0x00\n        /* \"#utility.yul\":4246:4247   */\n      dup1\n        /* \"#utility.yul\":4239:4251   */\n      revert\n        /* \"#utility.yul\":4190:4253   */\n    tag_496:\n        /* \"#utility.yul\":4137:4259   */\n      pop\n      jump\t// out\n        /* \"#utility.yul\":4265:4404   */\n    tag_400:\n        /* \"#utility.yul\":4311:4316   */\n      0x00\n        /* \"#utility.yul\":4349:4355   */\n      dup2\n        /* \"#utility.yul\":4336:4356   */\n      calldataload\n        /* \"#utility.yul\":4327:4356   */\n      swap1\n      pop\n        /* \"#utility.yul\":4365:4398   */\n      tag_498\n        /* \"#utility.yul\":4392:4397   */\n      dup2\n        /* \"#utility.yul\":4365:4398   */\n      tag_399\n      jump\t// in\n    tag_498:\n        /* \"#utility.yul\":4265:4404   */\n      swap3\n      swap2\n      pop\n      pop\n      jump\t// out\n        /* \"#utility.yul\":4410:4884   */\n    tag_49:\n        /* \"#utility.yul\":4478:4484   */\n      0x00\n        /* \"#utility.yul\":4486:4492   */\n      dup1\n        /* \"#utility.yul\":4535:4537   */\n      0x40\n        /* \"#utility.yul\":4523:4532   */\n      dup4\n        /* \"#utility.yul\":4514:4521   */\n      dup6\n        /* \"#utility.yul\":4510:4533   */\n      sub\n        /* \"#utility.yul\":4506:4538   */\n      slt\n        /* \"#utility.yul\":4503:4622   */\n      iszero\n      tag_500\n      jumpi\n        /* \"#utility.yul\":4541:4620   */\n      tag_501\n      tag_381\n      jump\t// in\n    tag_501:\n        /* \"#utility.yul\":4503:4622   */\n    tag_500:\n        /* \"#utility.yul\":4661:4662   */\n      0x00\n        /* \"#utility.yul\":4686:4739   */\n      tag_502\n        /* \"#utility.yul\":4731:4738   */\n      dup6\n        /* \"#utility.yul\":4722:4728   */\n      dup3\n        /* \"#utility.yul\":4711:4720   */\n      dup7\n        /* \"#utility.yul\":4707:4729   */\n      add\n        /* \"#utility.yul\":4686:4739   */\n      tag_400\n      jump\t// in\n    tag_502:\n        /* \"#utility.yul\":4676:4739   */\n      swap3\n      pop\n        /* \"#utility.yul\":4632:4749   */\n      pop\n        /* \"#utility.yul\":4788:4790   */\n      0x20\n        /* \"#utility.yul\":4814:4867   */\n      tag_503\n        /* \"#utility.yul\":4859:4866   */\n      dup6\n        /* \"#utility.yul\":4850:4856   */\n      dup3\n        /* \"#utility.yul\":4839:4848   */\n      dup7\n        /* \"#utility.yul\":4835:4857   */\n      add\n        /* \"#utility.yul\":4814:4867   */\n      tag_395\n      jump\t// in\n    tag_503:\n        /* \"#utility.yul\":4804:4867   */\n      swap2\n      pop\n        /* \"#utility.yul\":4759:4877   */\n      pop\n        /* \"#utility.yul\":4410:4884   */\n      swap3\n      pop\n      swap3\n      swap1\n      pop\n      jump\t// out\n        /* \"#utility.yul\":4890:5008   */\n    tag_401:\n        /* \"#utility.yul\":4977:5001   */\n      tag_505\n        /* \"#utility.yul\":4995:5000   */\n      dup2\n        /* \"#utility.yul\":4977:5001   */\n      tag_393\n      jump\t// in\n    tag_505:\n        /* \"#utility.yul\":4972:4975   */\n      dup3\n        /* \"#utility.yul\":4965:5002   */\n      mstore\n        /* \"#utility.yul\":4890:5008   */\n      pop\n      pop\n      jump\t// out\n        /* \"#utility.yul\":5014:5236   */\n    tag_55:\n        /* \"#utility.yul\":5107:5111   */\n      0x00\n        /* \"#utility.yul\":5145:5147   */\n      0x20\n        /* \"#utility.yul\":5134:5143   */\n      dup3\n        /* \"#utility.yul\":5130:5148   */\n      add\n        /* \"#utility.yul\":5122:5148   */\n      swap1\n      pop\n        /* \"#utility.yul\":5158:5229   */\n      tag_507\n        /* \"#utility.yul\":5226:5227   */\n      0x00\n        /* \"#utility.yul\":5215:5224   */\n      dup4\n        /* \"#utility.yul\":5211:5228   */\n      add\n        /* \"#utility.yul\":5202:5208   */\n      dup5\n        /* \"#utility.yul\":5158:5229   */\n      tag_401\n      jump\t// in\n    tag_507:\n        /* \"#utility.yul\":5014:5236   */\n      swap3\n      swap2\n      pop\n      pop\n      jump\t// out\n        /* \"#utility.yul\":5242:5359   */\n    tag_402:\n        /* \"#utility.yul\":5351:5352   */\n      0x00\n        /* \"#utility.yul\":5348:5349   */\n      dup1\n        /* \"#utility.yul\":5341:5353   */\n      revert\n        /* \"#utility.yul\":5365:5482   */\n    tag_403:\n        /* \"#utility.yul\":5474:5475   */\n      0x00\n        /* \"#utility.yul\":5471:5472   */\n      dup1\n        /* \"#utility.yul\":5464:5476   */\n      revert\n        /* \"#utility.yul\":5488:5668   */\n    tag_352:\n        /* \"#utility.yul\":5536:5613   */\n      0x4e487b7100000000000000000000000000000000000000000000000000000000\n        /* \"#utility.yul\":5533:5534   */\n      0x00\n        /* \"#utility.yul\":5526:5614   */\n      mstore\n        /* \"#utility.yul\":5633:5637   */\n      0x41\n        /* \"#utility.yul\":5630:5631   */\n      0x04\n        /* \"#utility.yul\":5623:5638   */\n      mstore\n        /* \"#utility.yul\":5657:5661   */\n      0x24\n        /* \"#utility.yul\":5654:5655   */\n      0x00\n        /* \"#utility.yul\":5647:5662   */\n      revert\n        /* \"#utility.yul\":5674:5955   */\n    tag_404:\n        /* \"#utility.yul\":5757:5784   */\n      tag_512\n        /* \"#utility.yul\":5779:5783   */\n      dup3\n        /* \"#utility.yul\":5757:5784   */\n      tag_391\n      jump\t// in\n    tag_512:\n        /* \"#utility.yul\":5749:5755   */\n      dup2\n        /* \"#utility.yul\":5745:5785   */\n      add\n        /* \"#utility.yul\":5887:5893   */\n      dup2\n        /* \"#utility.yul\":5875:5885   */\n      dup2\n        /* \"#utility.yul\":5872:5894   */\n      lt\n        /* \"#utility.yul\":5851:5869   */\n      0xffffffffffffffff\n        /* \"#utility.yul\":5839:5849   */\n      dup3\n        /* \"#utility.yul\":5836:5870   */\n      gt\n        /* \"#utility.yul\":5833:5895   */\n      or\n        /* \"#utility.yul\":5830:5918   */\n      iszero\n      tag_513\n      jumpi\n        /* \"#utility.yul\":5898:5916   */\n      tag_514\n      tag_352\n      jump\t// in\n    tag_514:\n        /* \"#utility.yul\":5830:5918   */\n    tag_513:\n        /* \"#utility.yul\":5938:5948   */\n      dup1\n        /* \"#utility.yul\":5934:5936   */\n      0x40\n        /* \"#utility.yul\":5927:5949   */\n      mstore\n        /* \"#utility.yul\":5717:5955   */\n      pop\n        /* \"#utility.yul\":5674:5955   */\n      pop\n      pop\n      jump\t// out\n        /* \"#utility.yul\":5961:6090   */\n    tag_405:\n        /* \"#utility.yul\":5995:6001   */\n      0x00\n        /* \"#utility.yul\":6022:6042   */\n      tag_516\n      tag_380\n      jump\t// in\n    tag_516:\n        /* \"#utility.yul\":6012:6042   */\n      swap1\n      pop\n        /* \"#utility.yul\":6051:6084   */\n      tag_517\n        /* \"#utility.yul\":6079:6083   */\n      dup3\n        /* \"#utility.yul\":6071:6077   */\n      dup3\n        /* \"#utility.yul\":6051:6084   */\n      tag_404\n      jump\t// in\n    tag_517:\n        /* \"#utility.yul\":5961:6090   */\n      swap2\n      swap1\n      pop\n      jump\t// out\n        /* \"#utility.yul\":6096:6404   */\n    tag_406:\n        /* \"#utility.yul\":6158:6162   */\n      0x00\n        /* \"#utility.yul\":6248:6266   */\n      0xffffffffffffffff\n        /* \"#utility.yul\":6240:6246   */\n      dup3\n        /* \"#utility.yul\":6237:6267   */\n      gt\n        /* \"#utility.yul\":6234:6290   */\n      iszero\n      tag_519\n      jumpi\n        /* \"#utility.yul\":6270:6288   */\n      tag_520\n      tag_352\n      jump\t// in\n    tag_520:\n        /* \"#utility.yul\":6234:6290   */\n    tag_519:\n        /* \"#utility.yul\":6308:6337   */\n      tag_521\n        /* \"#utility.yul\":6330:6336   */\n      dup3\n        /* \"#utility.yul\":6308:6337   */\n      tag_391\n      jump\t// in\n    tag_521:\n        /* \"#utility.yul\":6300:6337   */\n      swap1\n      pop\n        /* \"#utility.yul\":6392:6396   */\n      0x20\n        /* \"#utility.yul\":6386:6390   */\n      dup2\n        /* \"#utility.yul\":6382:6397   */\n      add\n        /* \"#utility.yul\":6374:6397   */\n      swap1\n      pop\n        /* \"#utility.yul\":6096:6404   */\n      swap2\n      swap1\n      pop\n      jump\t// out\n        /* \"#utility.yul\":6410:6556   */\n    tag_407:\n        /* \"#utility.yul\":6507:6513   */\n      dup3\n        /* \"#utility.yul\":6502:6505   */\n      dup2\n        /* \"#utility.yul\":6497:6500   */\n      dup4\n        /* \"#utility.yul\":6484:6514   */\n      calldatacopy\n        /* \"#utility.yul\":6548:6549   */\n      0x00\n        /* \"#utility.yul\":6539:6545   */\n      dup4\n        /* \"#utility.yul\":6534:6537   */\n      dup4\n        /* \"#utility.yul\":6530:6546   */\n      add\n        /* \"#utility.yul\":6523:6550   */\n      mstore\n        /* \"#utility.yul\":6410:6556   */\n      pop\n      pop\n      pop\n      jump\t// out\n        /* \"#utility.yul\":6562:6987   */\n    tag_408:\n        /* \"#utility.yul\":6640:6645   */\n      0x00\n        /* \"#utility.yul\":6665:6731   */\n      tag_524\n        /* \"#utility.yul\":6681:6730   */\n      tag_525\n        /* \"#utility.yul\":6723:6729   */\n      dup5\n        /* \"#utility.yul\":6681:6730   */\n      tag_406\n      jump\t// in\n    tag_525:\n        /* \"#utility.yul\":6665:6731   */\n      tag_405\n      jump\t// in\n    tag_524:\n        /* \"#utility.yul\":6656:6731   */\n      swap1\n      pop\n        /* \"#utility.yul\":6754:6760   */\n      dup3\n        /* \"#utility.yul\":6747:6752   */\n      dup2\n        /* \"#utility.yul\":6740:6761   */\n      mstore\n        /* \"#utility.yul\":6792:6796   */\n      0x20\n        /* \"#utility.yul\":6785:6790   */\n      dup2\n        /* \"#utility.yul\":6781:6797   */\n      add\n        /* \"#utility.yul\":6830:6833   */\n      dup5\n        /* \"#utility.yul\":6821:6827   */\n      dup5\n        /* \"#utility.yul\":6816:6819   */\n      dup5\n        /* \"#utility.yul\":6812:6828   */\n      add\n        /* \"#utility.yul\":6809:6834   */\n      gt\n        /* \"#utility.yul\":6806:6918   */\n      iszero\n      tag_526\n      jumpi\n        /* \"#utility.yul\":6837:6916   */\n      tag_527\n      tag_403\n      jump\t// in\n    tag_527:\n        /* \"#utility.yul\":6806:6918   */\n    tag_526:\n        /* \"#utility.yul\":6927:6981   */\n      tag_528\n        /* \"#utility.yul\":6974:6980   */\n      dup5\n        /* \"#utility.yul\":6969:6972   */\n      dup3\n        /* \"#utility.yul\":6964:6967   */\n      dup6\n        /* \"#utility.yul\":6927:6981   */\n      tag_407\n      jump\t// in\n    tag_528:\n        /* \"#utility.yul\":6646:6987   */\n      pop\n        /* \"#utility.yul\":6562:6987   */\n      swap4\n      swap3\n      pop\n      pop\n      pop\n      jump\t// out\n        /* \"#utility.yul\":7007:7347   */\n    tag_409:\n        /* \"#utility.yul\":7063:7068   */\n      0x00\n        /* \"#utility.yul\":7112:7115   */\n      dup3\n        /* \"#utility.yul\":7105:7109   */\n      0x1f\n        /* \"#utility.yul\":7097:7103   */\n      dup4\n        /* \"#utility.yul\":7093:7110   */\n      add\n        /* \"#utility.yul\":7089:7116   */\n      slt\n        /* \"#utility.yul\":7079:7201   */\n      tag_530\n      jumpi\n        /* \"#utility.yul\":7120:7199   */\n      tag_531\n      tag_402\n      jump\t// in\n    tag_531:\n        /* \"#utility.yul\":7079:7201   */\n    tag_530:\n        /* \"#utility.yul\":7237:7243   */\n      dup2\n        /* \"#utility.yul\":7224:7244   */\n      calldataload\n        /* \"#utility.yul\":7262:7341   */\n      tag_532\n        /* \"#utility.yul\":7337:7340   */\n      dup5\n        /* \"#utility.yul\":7329:7335   */\n      dup3\n        /* \"#utility.yul\":7322:7326   */\n      0x20\n        /* \"#utility.yul\":7314:7320   */\n      dup7\n        /* \"#utility.yul\":7310:7327   */\n      add\n        /* \"#utility.yul\":7262:7341   */\n      tag_408\n      jump\t// in\n    tag_532:\n        /* \"#utility.yul\":7253:7341   */\n      swap2\n      pop\n        /* \"#utility.yul\":7069:7347   */\n      pop\n        /* \"#utility.yul\":7007:7347   */\n      swap3\n      swap2\n      pop\n      pop\n      jump\t// out\n        /* \"#utility.yul\":7353:8152   */\n    tag_58:\n        /* \"#utility.yul\":7440:7446   */\n      0x00\n        /* \"#utility.yul\":7448:7454   */\n      dup1\n        /* \"#utility.yul\":7456:7462   */\n      0x00\n        /* \"#utility.yul\":7505:7507   */\n      0x60\n        /* \"#utility.yul\":7493:7502   */\n      dup5\n        /* \"#utility.yul\":7484:7491   */\n      dup7\n        /* \"#utility.yul\":7480:7503   */\n      sub\n        /* \"#utility.yul\":7476:7508   */\n      slt\n        /* \"#utility.yul\":7473:7592   */\n      iszero\n      tag_534\n      jumpi\n        /* \"#utility.yul\":7511:7590   */\n      tag_535\n      tag_381\n      jump\t// in\n    tag_535:\n        /* \"#utility.yul\":7473:7592   */\n    tag_534:\n        /* \"#utility.yul\":7631:7632   */\n      0x00\n        /* \"#utility.yul\":7656:7709   */\n      tag_536\n        /* \"#utility.yul\":7701:7708   */\n      dup7\n        /* \"#utility.yul\":7692:7698   */\n      dup3\n        /* \"#utility.yul\":7681:7690   */\n      dup8\n        /* \"#utility.yul\":7677:7699   */\n      add\n        /* \"#utility.yul\":7656:7709   */\n      tag_400\n      jump\t// in\n    tag_536:\n        /* \"#utility.yul\":7646:7709   */\n      swap4\n      pop\n        /* \"#utility.yul\":7602:7719   */\n      pop\n        /* \"#utility.yul\":7758:7760   */\n      0x20\n        /* \"#utility.yul\":7784:7837   */\n      tag_537\n        /* \"#utility.yul\":7829:7836   */\n      dup7\n        /* \"#utility.yul\":7820:7826   */\n      dup3\n        /* \"#utility.yul\":7809:7818   */\n      dup8\n        /* \"#utility.yul\":7805:7827   */\n      add\n        /* \"#utility.yul\":7784:7837   */\n      tag_395\n      jump\t// in\n    tag_537:\n        /* \"#utility.yul\":7774:7837   */\n      swap3\n      pop\n        /* \"#utility.yul\":7729:7847   */\n      pop\n        /* \"#utility.yul\":7914:7916   */\n      0x40\n        /* \"#utility.yul\":7903:7912   */\n      dup5\n        /* \"#utility.yul\":7899:7917   */\n      add\n        /* \"#utility.yul\":7886:7918   */\n      calldataload\n        /* \"#utility.yul\":7945:7963   */\n      0xffffffffffffffff\n        /* \"#utility.yul\":7937:7943   */\n      dup2\n        /* \"#utility.yul\":7934:7964   */\n      gt\n        /* \"#utility.yul\":7931:8048   */\n      iszero\n      tag_538\n      jumpi\n        /* \"#utility.yul\":7967:8046   */\n      tag_539\n      tag_382\n      jump\t// in\n    tag_539:\n        /* \"#utility.yul\":7931:8048   */\n    tag_538:\n        /* \"#utility.yul\":8072:8135   */\n      tag_540\n        /* \"#utility.yul\":8127:8134   */\n      dup7\n        /* \"#utility.yul\":8118:8124   */\n      dup3\n        /* \"#utility.yul\":8107:8116   */\n      dup8\n        /* \"#utility.yul\":8103:8125   */\n      add\n        /* \"#utility.yul\":8072:8135   */\n      tag_409\n      jump\t// in\n    tag_540:\n        /* \"#utility.yul\":8062:8135   */\n      swap2\n      pop\n        /* \"#utility.yul\":7857:8145   */\n      pop\n        /* \"#utility.yul\":7353:8152   */\n      swap3\n      pop\n      swap3\n      pop\n      swap3\n      jump\t// out\n        /* \"#utility.yul\":8158:8777   */\n    tag_63:\n        /* \"#utility.yul\":8235:8241   */\n      0x00\n        /* \"#utility.yul\":8243:8249   */\n      dup1\n        /* \"#utility.yul\":8251:8257   */\n      0x00\n        /* \"#utility.yul\":8300:8302   */\n      0x60\n        /* \"#utility.yul\":8288:8297   */\n      dup5\n        /* \"#utility.yul\":8279:8286   */\n      dup7\n        /* \"#utility.yul\":8275:8298   */\n      sub\n        /* \"#utility.yul\":8271:8303   */\n      slt\n        /* \"#utility.yul\":8268:8387   */\n      iszero\n      tag_542\n      jumpi\n        /* \"#utility.yul\":8306:8385   */\n      tag_543\n      tag_381\n      jump\t// in\n    tag_543:\n        /* \"#utility.yul\":8268:8387   */\n    tag_542:\n        /* \"#utility.yul\":8426:8427   */\n      0x00\n        /* \"#utility.yul\":8451:8504   */\n      tag_544\n        /* \"#utility.yul\":8496:8503   */\n      dup7\n        /* \"#utility.yul\":8487:8493   */\n      dup3\n        /* \"#utility.yul\":8476:8485   */\n      dup8\n        /* \"#utility.yul\":8472:8494   */\n      add\n        /* \"#utility.yul\":8451:8504   */\n      tag_400\n      jump\t// in\n    tag_544:\n        /* \"#utility.yul\":8441:8504   */\n      swap4\n      pop\n        /* \"#utility.yul\":8397:8514   */\n      pop\n        /* \"#utility.yul\":8553:8555   */\n      0x20\n        /* \"#utility.yul\":8579:8632   */\n      tag_545\n        /* \"#utility.yul\":8624:8631   */\n      dup7\n        /* \"#utility.yul\":8615:8621   */\n      dup3\n        /* \"#utility.yul\":8604:8613   */\n      dup8\n        /* \"#utility.yul\":8600:8622   */\n      add\n        /* \"#utility.yul\":8579:8632   */\n      tag_400\n      jump\t// in\n    tag_545:\n        /* \"#utility.yul\":8569:8632   */\n      swap3\n      pop\n        /* \"#utility.yul\":8524:8642   */\n      pop\n        /* \"#utility.yul\":8681:8683   */\n      0x40\n        /* \"#utility.yul\":8707:8760   */\n      tag_546\n        /* \"#utility.yul\":8752:8759   */\n      dup7\n        /* \"#utility.yul\":8743:8749   */\n      dup3\n        /* \"#utility.yul\":8732:8741   */\n      dup8\n        /* \"#utility.yul\":8728:8750   */\n      add\n        /* \"#utility.yul\":8707:8760   */\n      tag_395\n      jump\t// in\n    tag_546:\n        /* \"#utility.yul\":8697:8760   */\n      swap2\n      pop\n        /* \"#utility.yul\":8652:8770   */\n      pop\n        /* \"#utility.yul\":8158:8777   */\n      swap3\n      pop\n      swap3\n      pop\n      swap3\n      jump\t// out\n        /* \"#utility.yul\":8783:9292   */\n    tag_84:\n        /* \"#utility.yul\":8852:8858   */\n      0x00\n        /* \"#utility.yul\":8901:8903   */\n      0x20\n        /* \"#utility.yul\":8889:8898   */\n      dup3\n        /* \"#utility.yul\":8880:8887   */\n      dup5\n        /* \"#utility.yul\":8876:8899   */\n      sub\n        /* \"#utility.yul\":8872:8904   */\n      slt\n        /* \"#utility.yul\":8869:8988   */\n      iszero\n      tag_548\n      jumpi\n        /* \"#utility.yul\":8907:8986   */\n      tag_549\n      tag_381\n      jump\t// in\n    tag_549:\n        /* \"#utility.yul\":8869:8988   */\n    tag_548:\n        /* \"#utility.yul\":9055:9056   */\n      0x00\n        /* \"#utility.yul\":9044:9053   */\n      dup3\n        /* \"#utility.yul\":9040:9057   */\n      add\n        /* \"#utility.yul\":9027:9058   */\n      calldataload\n        /* \"#utility.yul\":9085:9103   */\n      0xffffffffffffffff\n        /* \"#utility.yul\":9077:9083   */\n      dup2\n        /* \"#utility.yul\":9074:9104   */\n      gt\n        /* \"#utility.yul\":9071:9188   */\n      iszero\n      tag_550\n      jumpi\n        /* \"#utility.yul\":9107:9186   */\n      tag_551\n      tag_382\n      jump\t// in\n    tag_551:\n        /* \"#utility.yul\":9071:9188   */\n    tag_550:\n        /* \"#utility.yul\":9212:9275   */\n      tag_552\n        /* \"#utility.yul\":9267:9274   */\n      dup5\n        /* \"#utility.yul\":9258:9264   */\n      dup3\n        /* \"#utility.yul\":9247:9256   */\n      dup6\n        /* \"#utility.yul\":9243:9265   */\n      add\n        /* \"#utility.yul\":9212:9275   */\n      tag_409\n      jump\t// in\n    tag_552:\n        /* \"#utility.yul\":9202:9275   */\n      swap2\n      pop\n        /* \"#utility.yul\":8998:9285   */\n      pop\n        /* \"#utility.yul\":8783:9292   */\n      swap3\n      swap2\n      pop\n      pop\n      jump\t// out\n        /* \"#utility.yul\":9298:9627   */\n    tag_98:\n        /* \"#utility.yul\":9357:9363   */\n      0x00\n        /* \"#utility.yul\":9406:9408   */\n      0x20\n        /* \"#utility.yul\":9394:9403   */\n      dup3\n        /* \"#utility.yul\":9385:9392   */\n      dup5\n        /* \"#utility.yul\":9381:9404   */\n      sub\n        /* \"#utility.yul\":9377:9409   */\n      slt\n        /* \"#utility.yul\":9374:9493   */\n      iszero\n      tag_554\n      jumpi\n        /* \"#utility.yul\":9412:9491   */\n      tag_555\n      tag_381\n      jump\t// in\n    tag_555:\n        /* \"#utility.yul\":9374:9493   */\n    tag_554:\n        /* \"#utility.yul\":9532:9533   */\n      0x00\n        /* \"#utility.yul\":9557:9610   */\n      tag_556\n        /* \"#utility.yul\":9602:9609   */\n      dup5\n        /* \"#utility.yul\":9593:9599   */\n      dup3\n        /* \"#utility.yul\":9582:9591   */\n      dup6\n        /* \"#utility.yul\":9578:9600   */\n      add\n        /* \"#utility.yul\":9557:9610   */\n      tag_400\n      jump\t// in\n    tag_556:\n        /* \"#utility.yul\":9547:9610   */\n      swap2\n      pop\n        /* \"#utility.yul\":9503:9620   */\n      pop\n        /* \"#utility.yul\":9298:9627   */\n      swap3\n      swap2\n      pop\n      pop\n      jump\t// out\n        /* \"#utility.yul\":9633:9749   */\n    tag_410:\n        /* \"#utility.yul\":9703:9724   */\n      tag_558\n        /* \"#utility.yul\":9718:9723   */\n      dup2\n        /* \"#utility.yul\":9703:9724   */\n      tag_386\n      jump\t// in\n    tag_558:\n        /* \"#utility.yul\":9696:9701   */\n      dup2\n        /* \"#utility.yul\":9693:9725   */\n      eq\n        /* \"#utility.yul\":9683:9743   */\n      tag_559\n      jumpi\n        /* \"#utility.yul\":9739:9740   */\n      0x00\n        /* \"#utility.yul\":9736:9737   */\n      dup1\n        /* \"#utility.yul\":9729:9741   */\n      revert\n        /* \"#utility.yul\":9683:9743   */\n    tag_559:\n        /* \"#utility.yul\":9633:9749   */\n      pop\n      jump\t// out\n        /* \"#utility.yul\":9755:9888   */\n    tag_411:\n        /* \"#utility.yul\":9798:9803   */\n      0x00\n        /* \"#utility.yul\":9836:9842   */\n      dup2\n        /* \"#utility.yul\":9823:9843   */\n      calldataload\n        /* \"#utility.yul\":9814:9843   */\n      swap1\n      pop\n        /* \"#utility.yul\":9852:9882   */\n      tag_561\n        /* \"#utility.yul\":9876:9881   */\n      dup2\n        /* \"#utility.yul\":9852:9882   */\n      tag_410\n      jump\t// in\n    tag_561:\n        /* \"#utility.yul\":9755:9888   */\n      swap3\n      swap2\n      pop\n      pop\n      jump\t// out\n        /* \"#utility.yul\":9894:10362   */\n    tag_112:\n        /* \"#utility.yul\":9959:9965   */\n      0x00\n        /* \"#utility.yul\":9967:9973   */\n      dup1\n        /* \"#utility.yul\":10016:10018   */\n      0x40\n        /* \"#utility.yul\":10004:10013   */\n      dup4\n        /* \"#utility.yul\":9995:10002   */\n      dup6\n        /* \"#utility.yul\":9991:10014   */\n      sub\n        /* \"#utility.yul\":9987:10019   */\n      slt\n        /* \"#utility.yul\":9984:10103   */\n      iszero\n      tag_563\n      jumpi\n        /* \"#utility.yul\":10022:10101   */\n      tag_564\n      tag_381\n      jump\t// in\n    tag_564:\n        /* \"#utility.yul\":9984:10103   */\n    tag_563:\n        /* \"#utility.yul\":10142:10143   */\n      0x00\n        /* \"#utility.yul\":10167:10220   */\n      tag_565\n        /* \"#utility.yul\":10212:10219   */\n      dup6\n        /* \"#utility.yul\":10203:10209   */\n      dup3\n        /* \"#utility.yul\":10192:10201   */\n      dup7\n        /* \"#utility.yul\":10188:10210   */\n      add\n        /* \"#utility.yul\":10167:10220   */\n      tag_400\n      jump\t// in\n    tag_565:\n        /* \"#utility.yul\":10157:10220   */\n      swap3\n      pop\n        /* \"#utility.yul\":10113:10230   */\n      pop\n        /* \"#utility.yul\":10269:10271   */\n      0x20\n        /* \"#utility.yul\":10295:10345   */\n      tag_566\n        /* \"#utility.yul\":10337:10344   */\n      dup6\n        /* \"#utility.yul\":10328:10334   */\n      dup3\n        /* \"#utility.yul\":10317:10326   */\n      dup7\n        /* \"#utility.yul\":10313:10335   */\n      add\n        /* \"#utility.yul\":10295:10345   */\n      tag_411\n      jump\t// in\n    tag_566:\n        /* \"#utility.yul\":10285:10345   */\n      swap2\n      pop\n        /* \"#utility.yul\":10240:10355   */\n      pop\n        /* \"#utility.yul\":9894:10362   */\n      swap3\n      pop\n      swap3\n      swap1\n      pop\n      jump\t// out\n        /* \"#utility.yul\":10368:10675   */\n    tag_412:\n        /* \"#utility.yul\":10429:10433   */\n      0x00\n        /* \"#utility.yul\":10519:10537   */\n      0xffffffffffffffff\n        /* \"#utility.yul\":10511:10517   */\n      dup3\n        /* \"#utility.yul\":10508:10538   */\n      gt\n        /* \"#utility.yul\":10505:10561   */\n      iszero\n      tag_568\n      jumpi\n        /* \"#utility.yul\":10541:10559   */\n      tag_569\n      tag_352\n      jump\t// in\n    tag_569:\n        /* \"#utility.yul\":10505:10561   */\n    tag_568:\n        /* \"#utility.yul\":10579:10608   */\n      tag_570\n        /* \"#utility.yul\":10601:10607   */\n      dup3\n        /* \"#utility.yul\":10579:10608   */\n      tag_391\n      jump\t// in\n    tag_570:\n        /* \"#utility.yul\":10571:10608   */\n      swap1\n      pop\n        /* \"#utility.yul\":10663:10667   */\n      0x20\n        /* \"#utility.yul\":10657:10661   */\n      dup2\n        /* \"#utility.yul\":10653:10668   */\n      add\n        /* \"#utility.yul\":10645:10668   */\n      swap1\n      pop\n        /* \"#utility.yul\":10368:10675   */\n      swap2\n      swap1\n      pop\n      jump\t// out\n        /* \"#utility.yul\":10681:11104   */\n    tag_413:\n        /* \"#utility.yul\":10758:10763   */\n      0x00\n        /* \"#utility.yul\":10783:10848   */\n      tag_572\n        /* \"#utility.yul\":10799:10847   */\n      tag_573\n        /* \"#utility.yul\":10840:10846   */\n      dup5\n        /* \"#utility.yul\":10799:10847   */\n      tag_412\n      jump\t// in\n    tag_573:\n        /* \"#utility.yul\":10783:10848   */\n      tag_405\n      jump\t// in\n    tag_572:\n        /* \"#utility.yul\":10774:10848   */\n      swap1\n      pop\n        /* \"#utility.yul\":10871:10877   */\n      dup3\n        /* \"#utility.yul\":10864:10869   */\n      dup2\n        /* \"#utility.yul\":10857:10878   */\n      mstore\n        /* \"#utility.yul\":10909:10913   */\n      0x20\n        /* \"#utility.yul\":10902:10907   */\n      dup2\n        /* \"#utility.yul\":10898:10914   */\n      add\n        /* \"#utility.yul\":10947:10950   */\n      dup5\n        /* \"#utility.yul\":10938:10944   */\n      dup5\n        /* \"#utility.yul\":10933:10936   */\n      dup5\n        /* \"#utility.yul\":10929:10945   */\n      add\n        /* \"#utility.yul\":10926:10951   */\n      gt\n        /* \"#utility.yul\":10923:11035   */\n      iszero\n      tag_574\n      jumpi\n        /* \"#utility.yul\":10954:11033   */\n      tag_575\n      tag_403\n      jump\t// in\n    tag_575:\n        /* \"#utility.yul\":10923:11035   */\n    tag_574:\n        /* \"#utility.yul\":11044:11098   */\n      tag_576\n        /* \"#utility.yul\":11091:11097   */\n      dup5\n        /* \"#utility.yul\":11086:11089   */\n      dup3\n        /* \"#utility.yul\":11081:11084   */\n      dup6\n        /* \"#utility.yul\":11044:11098   */\n      tag_407\n      jump\t// in\n    tag_576:\n        /* \"#utility.yul\":10764:11104   */\n      pop\n        /* \"#utility.yul\":10681:11104   */\n      swap4\n      swap3\n      pop\n      pop\n      pop\n      jump\t// out\n        /* \"#utility.yul\":11123:11461   */\n    tag_414:\n        /* \"#utility.yul\":11178:11183   */\n      0x00\n        /* \"#utility.yul\":11227:11230   */\n      dup3\n        /* \"#utility.yul\":11220:11224   */\n      0x1f\n        /* \"#utility.yul\":11212:11218   */\n      dup4\n        /* \"#utility.yul\":11208:11225   */\n      add\n        /* \"#utility.yul\":11204:11231   */\n      slt\n        /* \"#utility.yul\":11194:11316   */\n      tag_578\n      jumpi\n        /* \"#utility.yul\":11235:11314   */\n      tag_579\n      tag_402\n      jump\t// in\n    tag_579:\n        /* \"#utility.yul\":11194:11316   */\n    tag_578:\n        /* \"#utility.yul\":11352:11358   */\n      dup2\n        /* \"#utility.yul\":11339:11359   */\n      calldataload\n        /* \"#utility.yul\":11377:11455   */\n      tag_580\n        /* \"#utility.yul\":11451:11454   */\n      dup5\n        /* \"#utility.yul\":11443:11449   */\n      dup3\n        /* \"#utility.yul\":11436:11440   */\n      0x20\n        /* \"#utility.yul\":11428:11434   */\n      dup7\n        /* \"#utility.yul\":11424:11441   */\n      add\n        /* \"#utility.yul\":11377:11455   */\n      tag_413\n      jump\t// in\n    tag_580:\n        /* \"#utility.yul\":11368:11455   */\n      swap2\n      pop\n        /* \"#utility.yul\":11184:11461   */\n      pop\n        /* \"#utility.yul\":11123:11461   */\n      swap3\n      swap2\n      pop\n      pop\n      jump\t// out\n        /* \"#utility.yul\":11467:12410   */\n    tag_117:\n        /* \"#utility.yul\":11562:11568   */\n      0x00\n        /* \"#utility.yul\":11570:11576   */\n      dup1\n        /* \"#utility.yul\":11578:11584   */\n      0x00\n        /* \"#utility.yul\":11586:11592   */\n      dup1\n        /* \"#utility.yul\":11635:11638   */\n      0x80\n        /* \"#utility.yul\":11623:11632   */\n      dup6\n        /* \"#utility.yul\":11614:11621   */\n      dup8\n        /* \"#utility.yul\":11610:11633   */\n      sub\n        /* \"#utility.yul\":11606:11639   */\n      slt\n        /* \"#utility.yul\":11603:11723   */\n      iszero\n      tag_582\n      jumpi\n        /* \"#utility.yul\":11642:11721   */\n      tag_583\n      tag_381\n      jump\t// in\n    tag_583:\n        /* \"#utility.yul\":11603:11723   */\n    tag_582:\n        /* \"#utility.yul\":11762:11763   */\n      0x00\n        /* \"#utility.yul\":11787:11840   */\n      tag_584\n        /* \"#utility.yul\":11832:11839   */\n      dup8\n        /* \"#utility.yul\":11823:11829   */\n      dup3\n        /* \"#utility.yul\":11812:11821   */\n      dup9\n        /* \"#utility.yul\":11808:11830   */\n      add\n        /* \"#utility.yul\":11787:11840   */\n      tag_400\n      jump\t// in\n    tag_584:\n        /* \"#utility.yul\":11777:11840   */\n      swap5\n      pop\n        /* \"#utility.yul\":11733:11850   */\n      pop\n        /* \"#utility.yul\":11889:11891   */\n      0x20\n        /* \"#utility.yul\":11915:11968   */\n      tag_585\n        /* \"#utility.yul\":11960:11967   */\n      dup8\n        /* \"#utility.yul\":11951:11957   */\n      dup3\n        /* \"#utility.yul\":11940:11949   */\n      dup9\n        /* \"#utility.yul\":11936:11958   */\n      add\n        /* \"#utility.yul\":11915:11968   */\n      tag_400\n      jump\t// in\n    tag_585:\n        /* \"#utility.yul\":11905:11968   */\n      swap4\n      pop\n        /* \"#utility.yul\":11860:11978   */\n      pop\n        /* \"#utility.yul\":12017:12019   */\n      0x40\n        /* \"#utility.yul\":12043:12096   */\n      tag_586\n        /* \"#utility.yul\":12088:12095   */\n      dup8\n        /* \"#utility.yul\":12079:12085   */\n      dup3\n        /* \"#utility.yul\":12068:12077   */\n      dup9\n        /* \"#utility.yul\":12064:12086   */\n      add\n        /* \"#utility.yul\":12043:12096   */\n      tag_395\n      jump\t// in\n    tag_586:\n        /* \"#utility.yul\":12033:12096   */\n      swap3\n      pop\n        /* \"#utility.yul\":11988:12106   */\n      pop\n        /* \"#utility.yul\":12173:12175   */\n      0x60\n        /* \"#utility.yul\":12162:12171   */\n      dup6\n        /* \"#utility.yul\":12158:12176   */\n      add\n        /* \"#utility.yul\":12145:12177   */\n      calldataload\n        /* \"#utility.yul\":12204:12222   */\n      0xffffffffffffffff\n        /* \"#utility.yul\":12196:12202   */\n      dup2\n        /* \"#utility.yul\":12193:12223   */\n      gt\n        /* \"#utility.yul\":12190:12307   */\n      iszero\n      tag_587\n      jumpi\n        /* \"#utility.yul\":12226:12305   */\n      tag_588\n      tag_382\n      jump\t// in\n    tag_588:\n        /* \"#utility.yul\":12190:12307   */\n    tag_587:\n        /* \"#utility.yul\":12331:12393   */\n      tag_589\n        /* \"#utility.yul\":12385:12392   */\n      dup8\n        /* \"#utility.yul\":12376:12382   */\n      dup3\n        /* \"#utility.yul\":12365:12374   */\n      dup9\n        /* \"#utility.yul\":12361:12383   */\n      add\n        /* \"#utility.yul\":12331:12393   */\n      tag_414\n      jump\t// in\n    tag_589:\n        /* \"#utility.yul\":12321:12393   */\n      swap2\n      pop\n        /* \"#utility.yul\":12116:12403   */\n      pop\n        /* \"#utility.yul\":11467:12410   */\n      swap3\n      swap6\n      swap2\n      swap5\n      pop\n      swap3\n      pop\n      jump\t// out\n        /* \"#utility.yul\":12416:12890   */\n    tag_127:\n        /* \"#utility.yul\":12484:12490   */\n      0x00\n        /* \"#utility.yul\":12492:12498   */\n      dup1\n        /* \"#utility.yul\":12541:12543   */\n      0x40\n        /* \"#utility.yul\":12529:12538   */\n      dup4\n        /* \"#utility.yul\":12520:12527   */\n      dup6\n        /* \"#utility.yul\":12516:12539   */\n      sub\n        /* \"#utility.yul\":12512:12544   */\n      slt\n        /* \"#utility.yul\":12509:12628   */\n      iszero\n      tag_591\n      jumpi\n        /* \"#utility.yul\":12547:12626   */\n      tag_592\n      tag_381\n      jump\t// in\n    tag_592:\n        /* \"#utility.yul\":12509:12628   */\n    tag_591:\n        /* \"#utility.yul\":12667:12668   */\n      0x00\n        /* \"#utility.yul\":12692:12745   */\n      tag_593\n        /* \"#utility.yul\":12737:12744   */\n      dup6\n        /* \"#utility.yul\":12728:12734   */\n      dup3\n        /* \"#utility.yul\":12717:12726   */\n      dup7\n        /* \"#utility.yul\":12713:12735   */\n      add\n        /* \"#utility.yul\":12692:12745   */\n      tag_400\n      jump\t// in\n    tag_593:\n        /* \"#utility.yul\":12682:12745   */\n      swap3\n      pop\n        /* \"#utility.yul\":12638:12755   */\n      pop\n        /* \"#utility.yul\":12794:12796   */\n      0x20\n        /* \"#utility.yul\":12820:12873   */\n      tag_594\n        /* \"#utility.yul\":12865:12872   */\n      dup6\n        /* \"#utility.yul\":12856:12862   */\n      dup3\n        /* \"#utility.yul\":12845:12854   */\n      dup7\n        /* \"#utility.yul\":12841:12863   */\n      add\n        /* \"#utility.yul\":12820:12873   */\n      tag_400\n      jump\t// in\n    tag_594:\n        /* \"#utility.yul\":12810:12873   */\n      swap2\n      pop\n        /* \"#utility.yul\":12765:12883   */\n      pop\n        /* \"#utility.yul\":12416:12890   */\n      swap3\n      pop\n      swap3\n      swap1\n      pop\n      jump\t// out\n        /* \"#utility.yul\":12896:13076   */\n    tag_415:\n        /* \"#utility.yul\":12944:13021   */\n      0x4e487b7100000000000000000000000000000000000000000000000000000000\n        /* \"#utility.yul\":12941:12942   */\n      0x00\n        /* \"#utility.yul\":12934:13022   */\n      mstore\n        /* \"#utility.yul\":13041:13045   */\n      0x22\n        /* \"#utility.yul\":13038:13039   */\n      0x04\n        /* \"#utility.yul\":13031:13046   */\n      mstore\n        /* \"#utility.yul\":13065:13069   */\n      0x24\n        /* \"#utility.yul\":13062:13063   */\n      0x00\n        /* \"#utility.yul\":13055:13070   */\n      revert\n        /* \"#utility.yul\":13082:13402   */\n    tag_139:\n        /* \"#utility.yul\":13126:13132   */\n      0x00\n        /* \"#utility.yul\":13163:13164   */\n      0x02\n        /* \"#utility.yul\":13157:13161   */\n      dup3\n        /* \"#utility.yul\":13153:13165   */\n      div\n        /* \"#utility.yul\":13143:13165   */\n      swap1\n      pop\n        /* \"#utility.yul\":13210:13211   */\n      0x01\n        /* \"#utility.yul\":13204:13208   */\n      dup3\n        /* \"#utility.yul\":13200:13212   */\n      and\n        /* \"#utility.yul\":13231:13249   */\n      dup1\n        /* \"#utility.yul\":13221:13302   */\n      tag_597\n      jumpi\n        /* \"#utility.yul\":13287:13291   */\n      0x7f\n        /* \"#utility.yul\":13279:13285   */\n      dup3\n        /* \"#utility.yul\":13275:13292   */\n      and\n        /* \"#utility.yul\":13265:13292   */\n      swap2\n      pop\n        /* \"#utility.yul\":13221:13302   */\n    tag_597:\n        /* \"#utility.yul\":13349:13351   */\n      0x20\n        /* \"#utility.yul\":13341:13347   */\n      dup3\n        /* \"#utility.yul\":13338:13352   */\n      lt\n        /* \"#utility.yul\":13318:13336   */\n      dup2\n        /* \"#utility.yul\":13315:13353   */\n      sub\n        /* \"#utility.yul\":13312:13396   */\n      tag_598\n      jumpi\n        /* \"#utility.yul\":13368:13386   */\n      tag_599\n      tag_415\n      jump\t// in\n    tag_599:\n        /* \"#utility.yul\":13312:13396   */\n    tag_598:\n        /* \"#utility.yul\":13133:13402   */\n      pop\n        /* \"#utility.yul\":13082:13402   */\n      swap2\n      swap1\n      pop\n      jump\t// out\n        /* \"#utility.yul\":13408:13578   */\n    tag_416:\n        /* \"#utility.yul\":13548:13570   */\n      0x496e73756666696369656e74207061796d656e74000000000000000000000000\n        /* \"#utility.yul\":13544:13545   */\n      0x00\n        /* \"#utility.yul\":13536:13542   */\n      dup3\n        /* \"#utility.yul\":13532:13546   */\n      add\n        /* \"#utility.yul\":13525:13571   */\n      mstore\n        /* \"#utility.yul\":13408:13578   */\n      pop\n      jump\t// out\n        /* \"#utility.yul\":13584:13950   */\n    tag_417:\n        /* \"#utility.yul\":13726:13729   */\n      0x00\n        /* \"#utility.yul\":13747:13814   */\n      tag_602\n        /* \"#utility.yul\":13811:13813   */\n      0x14\n        /* \"#utility.yul\":13806:13809   */\n      dup4\n        /* \"#utility.yul\":13747:13814   */\n      tag_389\n      jump\t// in\n    tag_602:\n        /* \"#utility.yul\":13740:13814   */\n      swap2\n      pop\n        /* \"#utility.yul\":13823:13916   */\n      tag_603\n        /* \"#utility.yul\":13912:13915   */\n      dup3\n        /* \"#utility.yul\":13823:13916   */\n      tag_416\n      jump\t// in\n    tag_603:\n        /* \"#utility.yul\":13941:13943   */\n      0x20\n        /* \"#utility.yul\":13936:13939   */\n      dup3\n        /* \"#utility.yul\":13932:13944   */\n      add\n        /* \"#utility.yul\":13925:13944   */\n      swap1\n      pop\n        /* \"#utility.yul\":13584:13950   */\n      swap2\n      swap1\n      pop\n      jump\t// out\n        /* \"#utility.yul\":13956:14375   */\n    tag_157:\n        /* \"#utility.yul\":14122:14126   */\n      0x00\n        /* \"#utility.yul\":14160:14162   */\n      0x20\n        /* \"#utility.yul\":14149:14158   */\n      dup3\n        /* \"#utility.yul\":14145:14163   */\n      add\n        /* \"#utility.yul\":14137:14163   */\n      swap1\n      pop\n        /* \"#utility.yul\":14209:14218   */\n      dup2\n        /* \"#utility.yul\":14203:14207   */\n      dup2\n        /* \"#utility.yul\":14199:14219   */\n      sub\n        /* \"#utility.yul\":14195:14196   */\n      0x00\n        /* \"#utility.yul\":14184:14193   */\n      dup4\n        /* \"#utility.yul\":14180:14197   */\n      add\n        /* \"#utility.yul\":14173:14220   */\n      mstore\n        /* \"#utility.yul\":14237:14368   */\n      tag_605\n        /* \"#utility.yul\":14363:14367   */\n      dup2\n        /* \"#utility.yul\":14237:14368   */\n      tag_417\n      jump\t// in\n    tag_605:\n        /* \"#utility.yul\":14229:14368   */\n      swap1\n      pop\n        /* \"#utility.yul\":13956:14375   */\n      swap2\n      swap1\n      pop\n      jump\t// out\n        /* \"#utility.yul\":14381:14823   */\n    tag_172:\n        /* \"#utility.yul\":14530:14534   */\n      0x00\n        /* \"#utility.yul\":14568:14570   */\n      0x60\n        /* \"#utility.yul\":14557:14566   */\n      dup3\n        /* \"#utility.yul\":14553:14571   */\n      add\n        /* \"#utility.yul\":14545:14571   */\n      swap1\n      pop\n        /* \"#utility.yul\":14581:14652   */\n      tag_607\n        /* \"#utility.yul\":14649:14650   */\n      0x00\n        /* \"#utility.yul\":14638:14647   */\n      dup4\n        /* \"#utility.yul\":14634:14651   */\n      add\n        /* \"#utility.yul\":14625:14631   */\n      dup7\n        /* \"#utility.yul\":14581:14652   */\n      tag_398\n      jump\t// in\n    tag_607:\n        /* \"#utility.yul\":14662:14734   */\n      tag_608\n        /* \"#utility.yul\":14730:14732   */\n      0x20\n        /* \"#utility.yul\":14719:14728   */\n      dup4\n        /* \"#utility.yul\":14715:14733   */\n      add\n        /* \"#utility.yul\":14706:14712   */\n      dup6\n        /* \"#utility.yul\":14662:14734   */\n      tag_401\n      jump\t// in\n    tag_608:\n        /* \"#utility.yul\":14744:14816   */\n      tag_609\n        /* \"#utility.yul\":14812:14814   */\n      0x40\n        /* \"#utility.yul\":14801:14810   */\n      dup4\n        /* \"#utility.yul\":14797:14815   */\n      add\n        /* \"#utility.yul\":14788:14794   */\n      dup5\n        /* \"#utility.yul\":14744:14816   */\n      tag_398\n      jump\t// in\n    tag_609:\n        /* \"#utility.yul\":14381:14823   */\n      swap5\n      swap4\n      pop\n      pop\n      pop\n      pop\n      jump\t// out\n        /* \"#utility.yul\":14829:15001   */\n    tag_418:\n        /* \"#utility.yul\":14969:14993   */\n      0x596f7520646f6e2774206f776e2074686973204e465400000000000000000000\n        /* \"#utility.yul\":14965:14966   */\n      0x00\n        /* \"#utility.yul\":14957:14963   */\n      dup3\n        /* \"#utility.yul\":14953:14967   */\n      add\n        /* \"#utility.yul\":14946:14994   */\n      mstore\n        /* \"#utility.yul\":14829:15001   */\n      pop\n      jump\t// out\n        /* \"#utility.yul\":15007:15373   */\n    tag_419:\n        /* \"#utility.yul\":15149:15152   */\n      0x00\n        /* \"#utility.yul\":15170:15237   */\n      tag_612\n        /* \"#utility.yul\":15234:15236   */\n      0x16\n        /* \"#utility.yul\":15229:15232   */\n      dup4\n        /* \"#utility.yul\":15170:15237   */\n      tag_389\n      jump\t// in\n    tag_612:\n        /* \"#utility.yul\":15163:15237   */\n      swap2\n      pop\n        /* \"#utility.yul\":15246:15339   */\n      tag_613\n        /* \"#utility.yul\":15335:15338   */\n      dup3\n        /* \"#utility.yul\":15246:15339   */\n      tag_418\n      jump\t// in\n    tag_613:\n        /* \"#utility.yul\":15364:15366   */\n      0x20\n        /* \"#utility.yul\":15359:15362   */\n      dup3\n        /* \"#utility.yul\":15355:15367   */\n      add\n        /* \"#utility.yul\":15348:15367   */\n      swap1\n      pop\n        /* \"#utility.yul\":15007:15373   */\n      swap2\n      swap1\n      pop\n      jump\t// out\n        /* \"#utility.yul\":15379:15798   */\n    tag_177:\n        /* \"#utility.yul\":15545:15549   */\n      0x00\n        /* \"#utility.yul\":15583:15585   */\n      0x20\n        /* \"#utility.yul\":15572:15581   */\n      dup3\n        /* \"#utility.yul\":15568:15586   */\n      add\n        /* \"#utility.yul\":15560:15586   */\n      swap1\n      pop\n        /* \"#utility.yul\":15632:15641   */\n      dup2\n        /* \"#utility.yul\":15626:15630   */\n      dup2\n        /* \"#utility.yul\":15622:15642   */\n      sub\n        /* \"#utility.yul\":15618:15619   */\n      0x00\n        /* \"#utility.yul\":15607:15616   */\n      dup4\n        /* \"#utility.yul\":15603:15620   */\n      add\n        /* \"#utility.yul\":15596:15643   */\n      mstore\n        /* \"#utility.yul\":15660:15791   */\n      tag_615\n        /* \"#utility.yul\":15786:15790   */\n      dup2\n        /* \"#utility.yul\":15660:15791   */\n      tag_419\n      jump\t// in\n    tag_615:\n        /* \"#utility.yul\":15652:15791   */\n      swap1\n      pop\n        /* \"#utility.yul\":15379:15798   */\n      swap2\n      swap1\n      pop\n      jump\t// out\n        /* \"#utility.yul\":15804:15978   */\n    tag_420:\n        /* \"#utility.yul\":15944:15970   */\n      0x4e46542063616e6e6f74206265206275726e6564207965740000000000000000\n        /* \"#utility.yul\":15940:15941   */\n      0x00\n        /* \"#utility.yul\":15932:15938   */\n      dup3\n        /* \"#utility.yul\":15928:15942   */\n      add\n        /* \"#utility.yul\":15921:15971   */\n      mstore\n        /* \"#utility.yul\":15804:15978   */\n      pop\n      jump\t// out\n        /* \"#utility.yul\":15984:16350   */\n    tag_421:\n        /* \"#utility.yul\":16126:16129   */\n      0x00\n        /* \"#utility.yul\":16147:16214   */\n      tag_618\n        /* \"#utility.yul\":16211:16213   */\n      0x18\n        /* \"#utility.yul\":16206:16209   */\n      dup4\n        /* \"#utility.yul\":16147:16214   */\n      tag_389\n      jump\t// in\n    tag_618:\n        /* \"#utility.yul\":16140:16214   */\n      swap2\n      pop\n        /* \"#utility.yul\":16223:16316   */\n      tag_619\n        /* \"#utility.yul\":16312:16315   */\n      dup3\n        /* \"#utility.yul\":16223:16316   */\n      tag_420\n      jump\t// in\n    tag_619:\n        /* \"#utility.yul\":16341:16343   */\n      0x20\n        /* \"#utility.yul\":16336:16339   */\n      dup3\n        /* \"#utility.yul\":16332:16344   */\n      add\n        /* \"#utility.yul\":16325:16344   */\n      swap1\n      pop\n        /* \"#utility.yul\":15984:16350   */\n      swap2\n      swap1\n      pop\n      jump\t// out\n        /* \"#utility.yul\":16356:16775   */\n    tag_181:\n        /* \"#utility.yul\":16522:16526   */\n      0x00\n        /* \"#utility.yul\":16560:16562   */\n      0x20\n        /* \"#utility.yul\":16549:16558   */\n      dup3\n        /* \"#utility.yul\":16545:16563   */\n      add\n        /* \"#utility.yul\":16537:16563   */\n      swap1\n      pop\n        /* \"#utility.yul\":16609:16618   */\n      dup2\n        /* \"#utility.yul\":16603:16607   */\n      dup2\n        /* \"#utility.yul\":16599:16619   */\n      sub\n        /* \"#utility.yul\":16595:16596   */\n      0x00\n        /* \"#utility.yul\":16584:16593   */\n      dup4\n        /* \"#utility.yul\":16580:16597   */\n      add\n        /* \"#utility.yul\":16573:16620   */\n      mstore\n        /* \"#utility.yul\":16637:16768   */\n      tag_621\n        /* \"#utility.yul\":16763:16767   */\n      dup2\n        /* \"#utility.yul\":16637:16768   */\n      tag_421\n      jump\t// in\n    tag_621:\n        /* \"#utility.yul\":16629:16768   */\n      swap1\n      pop\n        /* \"#utility.yul\":16356:16775   */\n      swap2\n      swap1\n      pop\n      jump\t// out\n        /* \"#utility.yul\":16781:16922   */\n    tag_422:\n        /* \"#utility.yul\":16830:16834   */\n      0x00\n        /* \"#utility.yul\":16853:16856   */\n      dup2\n        /* \"#utility.yul\":16845:16856   */\n      swap1\n      pop\n        /* \"#utility.yul\":16876:16879   */\n      dup2\n        /* \"#utility.yul\":16873:16874   */\n      0x00\n        /* \"#utility.yul\":16866:16880   */\n      mstore\n        /* \"#utility.yul\":16910:16914   */\n      0x20\n        /* \"#utility.yul\":16907:16908   */\n      0x00\n        /* \"#utility.yul\":16897:16915   */\n      keccak256\n        /* \"#utility.yul\":16889:16915   */\n      swap1\n      pop\n        /* \"#utility.yul\":16781:16922   */\n      swap2\n      swap1\n      pop\n      jump\t// out\n        /* \"#utility.yul\":16928:17021   */\n    tag_423:\n        /* \"#utility.yul\":16965:16971   */\n      0x00\n        /* \"#utility.yul\":17012:17014   */\n      0x20\n        /* \"#utility.yul\":17007:17009   */\n      0x1f\n        /* \"#utility.yul\":17000:17005   */\n      dup4\n        /* \"#utility.yul\":16996:17010   */\n      add\n        /* \"#utility.yul\":16992:17015   */\n      div\n        /* \"#utility.yul\":16982:17015   */\n      swap1\n      pop\n        /* \"#utility.yul\":16928:17021   */\n      swap2\n      swap1\n      pop\n      jump\t// out\n        /* \"#utility.yul\":17027:17134   */\n    tag_424:\n        /* \"#utility.yul\":17071:17079   */\n      0x00\n        /* \"#utility.yul\":17121:17126   */\n      dup3\n        /* \"#utility.yul\":17115:17119   */\n      dup3\n        /* \"#utility.yul\":17111:17127   */\n      shl\n        /* \"#utility.yul\":17090:17127   */\n      swap1\n      pop\n        /* \"#utility.yul\":17027:17134   */\n      swap3\n      swap2\n      pop\n      pop\n      jump\t// out\n        /* \"#utility.yul\":17140:17533   */\n    tag_425:\n        /* \"#utility.yul\":17209:17215   */\n      0x00\n        /* \"#utility.yul\":17259:17260   */\n      0x08\n        /* \"#utility.yul\":17247:17257   */\n      dup4\n        /* \"#utility.yul\":17243:17261   */\n      mul\n        /* \"#utility.yul\":17282:17379   */\n      tag_626\n        /* \"#utility.yul\":17312:17378   */\n      0xffffffffffffffffffffffffffffffffffffffffffffffffffffffffffffffff\n        /* \"#utility.yul\":17301:17310   */\n      dup3\n        /* \"#utility.yul\":17282:17379   */\n      tag_424\n      jump\t// in\n    tag_626:\n        /* \"#utility.yul\":17400:17439   */\n      tag_627\n        /* \"#utility.yul\":17430:17438   */\n      dup7\n        /* \"#utility.yul\":17419:17428   */\n      dup4\n        /* \"#utility.yul\":17400:17439   */\n      tag_424\n      jump\t// in\n    tag_627:\n        /* \"#utility.yul\":17388:17439   */\n      swap6\n      pop\n        /* \"#utility.yul\":17472:17476   */\n      dup1\n        /* \"#utility.yul\":17468:17477   */\n      not\n        /* \"#utility.yul\":17461:17466   */\n      dup5\n        /* \"#utility.yul\":17457:17478   */\n      and\n        /* \"#utility.yul\":17448:17478   */\n      swap4\n      pop\n        /* \"#utility.yul\":17521:17525   */\n      dup1\n        /* \"#utility.yul\":17511:17519   */\n      dup7\n        /* \"#utility.yul\":17507:17526   */\n      and\n        /* \"#utility.yul\":17500:17505   */\n      dup5\n        /* \"#utility.yul\":17497:17527   */\n      or\n        /* \"#utility.yul\":17487:17527   */\n      swap3\n      pop\n        /* \"#utility.yul\":17216:17533   */\n      pop\n      pop\n        /* \"#utility.yul\":17140:17533   */\n      swap4\n      swap3\n      pop\n      pop\n      pop\n      jump\t// out\n        /* \"#utility.yul\":17539:17599   */\n    tag_426:\n        /* \"#utility.yul\":17567:17570   */\n      0x00\n        /* \"#utility.yul\":17588:17593   */\n      dup2\n        /* \"#utility.yul\":17581:17593   */\n      swap1\n      pop\n        /* \"#utility.yul\":17539:17599   */\n      swap2\n      swap1\n      pop\n      jump\t// out\n        /* \"#utility.yul\":17605:17747   */\n    tag_427:\n        /* \"#utility.yul\":17655:17664   */\n      0x00\n        /* \"#utility.yul\":17688:17741   */\n      tag_630\n        /* \"#utility.yul\":17706:17740   */\n      tag_631\n        /* \"#utility.yul\":17715:17739   */\n      tag_632\n        /* \"#utility.yul\":17733:17738   */\n      dup5\n        /* \"#utility.yul\":17715:17739   */\n      tag_393\n      jump\t// in\n    tag_632:\n        /* \"#utility.yul\":17706:17740   */\n      tag_426\n      jump\t// in\n    tag_631:\n        /* \"#utility.yul\":17688:17741   */\n      tag_393\n      jump\t// in\n    tag_630:\n        /* \"#utility.yul\":17675:17741   */\n      swap1\n      pop\n        /* \"#utility.yul\":17605:17747   */\n      swap2\n      swap1\n      pop\n      jump\t// out\n        /* \"#utility.yul\":17753:17828   */\n    tag_428:\n        /* \"#utility.yul\":17796:17799   */\n      0x00\n        /* \"#utility.yul\":17817:17822   */\n      dup2\n        /* \"#utility.yul\":17810:17822   */\n      swap1\n      pop\n        /* \"#utility.yul\":17753:17828   */\n      swap2\n      swap1\n      pop\n      jump\t// out\n        /* \"#utility.yul\":17834:18103   */\n    tag_429:\n        /* \"#utility.yul\":17944:17983   */\n      tag_635\n        /* \"#utility.yul\":17975:17982   */\n      dup4\n        /* \"#utility.yul\":17944:17983   */\n      tag_427\n      jump\t// in\n    tag_635:\n        /* \"#utility.yul\":18005:18096   */\n      tag_636\n        /* \"#utility.yul\":18054:18095   */\n      tag_637\n        /* \"#utility.yul\":18078:18094   */\n      dup3\n        /* \"#utility.yul\":18054:18095   */\n      tag_428\n      jump\t// in\n    tag_637:\n        /* \"#utility.yul\":18046:18052   */\n      dup5\n        /* \"#utility.yul\":18039:18043   */\n      dup5\n        /* \"#utility.yul\":18033:18044   */\n      sload\n        /* \"#utility.yul\":18005:18096   */\n      tag_425\n      jump\t// in\n    tag_636:\n        /* \"#utility.yul\":17999:18003   */\n      dup3\n        /* \"#utility.yul\":17992:18097   */\n      sstore\n        /* \"#utility.yul\":17910:18103   */\n      pop\n        /* \"#utility.yul\":17834:18103   */\n      pop\n      pop\n      pop\n      jump\t// out\n        /* \"#utility.yul\":18109:18182   */\n    tag_430:\n        /* \"#utility.yul\":18154:18157   */\n      0x00\n        /* \"#utility.yul\":18109:18182   */\n      swap1\n      jump\t// out\n        /* \"#utility.yul\":18188:18377   */\n    tag_431:\n        /* \"#utility.yul\":18265:18297   */\n      tag_640\n      tag_430\n      jump\t// in\n    tag_640:\n        /* \"#utility.yul\":18306:18371   */\n      tag_641\n        /* \"#utility.yul\":18364:18370   */\n      dup2\n        /* \"#utility.yul\":18356:18362   */\n      dup5\n        /* \"#utility.yul\":18350:18354   */\n      dup5\n        /* \"#utility.yul\":18306:18371   */\n      tag_429\n      jump\t// in\n    tag_641:\n        /* \"#utility.yul\":18241:18377   */\n      pop\n        /* \"#utility.yul\":18188:18377   */\n      pop\n      pop\n      jump\t// out\n        /* \"#utility.yul\":18383:18569   */\n    tag_432:\n        /* \"#utility.yul\":18443:18563   */\n    tag_643:\n        /* \"#utility.yul\":18460:18463   */\n      dup2\n        /* \"#utility.yul\":18453:18458   */\n      dup2\n        /* \"#utility.yul\":18450:18464   */\n      lt\n        /* \"#utility.yul\":18443:18563   */\n      iszero\n      tag_645\n      jumpi\n        /* \"#utility.yul\":18514:18553   */\n      tag_646\n        /* \"#utility.yul\":18551:18552   */\n      0x00\n        /* \"#utility.yul\":18544:18549   */\n      dup3\n        /* \"#utility.yul\":18514:18553   */\n      tag_431\n      jump\t// in\n    tag_646:\n        /* \"#utility.yul\":18487:18488   */\n      0x01\n        /* \"#utility.yul\":18480:18485   */\n      dup2\n        /* \"#utility.yul\":18476:18489   */\n      add\n        /* \"#utility.yul\":18467:18489   */\n      swap1\n      pop\n        /* \"#utility.yul\":18443:18563   */\n      jump(tag_643)\n    tag_645:\n        /* \"#utility.yul\":18383:18569   */\n      pop\n      pop\n      jump\t// out\n        /* \"#utility.yul\":18575:19118   */\n    tag_433:\n        /* \"#utility.yul\":18676:18678   */\n      0x1f\n        /* \"#utility.yul\":18671:18674   */\n      dup3\n        /* \"#utility.yul\":18668:18679   */\n      gt\n        /* \"#utility.yul\":18665:19111   */\n      iszero\n      tag_648\n      jumpi\n        /* \"#utility.yul\":18710:18748   */\n      tag_649\n        /* \"#utility.yul\":18742:18747   */\n      dup2\n        /* \"#utility.yul\":18710:18748   */\n      tag_422\n      jump\t// in\n    tag_649:\n        /* \"#utility.yul\":18794:18823   */\n      tag_650\n        /* \"#utility.yul\":18812:18822   */\n      dup5\n        /* \"#utility.yul\":18794:18823   */\n      tag_423\n      jump\t// in\n    tag_650:\n        /* \"#utility.yul\":18784:18792   */\n      dup2\n        /* \"#utility.yul\":18780:18824   */\n      add\n        /* \"#utility.yul\":18977:18979   */\n      0x20\n        /* \"#utility.yul\":18965:18975   */\n      dup6\n        /* \"#utility.yul\":18962:18980   */\n      lt\n        /* \"#utility.yul\":18959:19008   */\n      iszero\n      tag_651\n      jumpi\n        /* \"#utility.yul\":18998:19006   */\n      dup2\n        /* \"#utility.yul\":18983:19006   */\n      swap1\n      pop\n        /* \"#utility.yul\":18959:19008   */\n    tag_651:\n        /* \"#utility.yul\":19021:19101   */\n      tag_652\n        /* \"#utility.yul\":19077:19099   */\n      tag_653\n        /* \"#utility.yul\":19095:19098   */\n      dup6\n        /* \"#utility.yul\":19077:19099   */\n      tag_423\n      jump\t// in\n    tag_653:\n        /* \"#utility.yul\":19067:19075   */\n      dup4\n        /* \"#utility.yul\":19063:19100   */\n      add\n        /* \"#utility.yul\":19050:19061   */\n      dup3\n        /* \"#utility.yul\":19021:19101   */\n      tag_432\n      jump\t// in\n    tag_652:\n        /* \"#utility.yul\":18680:19111   */\n      pop\n      pop\n        /* \"#utility.yul\":18665:19111   */\n    tag_648:\n        /* \"#utility.yul\":18575:19118   */\n      pop\n      pop\n      pop\n      jump\t// out\n        /* \"#utility.yul\":19124:19241   */\n    tag_434:\n        /* \"#utility.yul\":19178:19186   */\n      0x00\n        /* \"#utility.yul\":19228:19233   */\n      dup3\n        /* \"#utility.yul\":19222:19226   */\n      dup3\n        /* \"#utility.yul\":19218:19234   */\n      shr\n        /* \"#utility.yul\":19197:19234   */\n      swap1\n      pop\n        /* \"#utility.yul\":19124:19241   */\n      swap3\n      swap2\n      pop\n      pop\n      jump\t// out\n        /* \"#utility.yul\":19247:19416   */\n    tag_435:\n        /* \"#utility.yul\":19291:19297   */\n      0x00\n        /* \"#utility.yul\":19324:19375   */\n      tag_656\n        /* \"#utility.yul\":19372:19373   */\n      0x00\n        /* \"#utility.yul\":19368:19374   */\n      not\n        /* \"#utility.yul\":19360:19365   */\n      dup5\n        /* \"#utility.yul\":19357:19358   */\n      0x08\n        /* \"#utility.yul\":19353:19366   */\n      mul\n        /* \"#utility.yul\":19324:19375   */\n      tag_434\n      jump\t// in\n    tag_656:\n        /* \"#utility.yul\":19320:19376   */\n      not\n        /* \"#utility.yul\":19405:19409   */\n      dup1\n        /* \"#utility.yul\":19399:19403   */\n      dup4\n        /* \"#utility.yul\":19395:19410   */\n      and\n        /* \"#utility.yul\":19385:19410   */\n      swap2\n      pop\n        /* \"#utility.yul\":19298:19416   */\n      pop\n        /* \"#utility.yul\":19247:19416   */\n      swap3\n      swap2\n      pop\n      pop\n      jump\t// out\n        /* \"#utility.yul\":19421:19716   */\n    tag_436:\n        /* \"#utility.yul\":19497:19501   */\n      0x00\n        /* \"#utility.yul\":19643:19672   */\n      tag_658\n        /* \"#utility.yul\":19668:19671   */\n      dup4\n        /* \"#utility.yul\":19662:19666   */\n      dup4\n        /* \"#utility.yul\":19643:19672   */\n      tag_435\n      jump\t// in\n    tag_658:\n        /* \"#utility.yul\":19635:19672   */\n      swap2\n      pop\n        /* \"#utility.yul\":19705:19708   */\n      dup3\n        /* \"#utility.yul\":19702:19703   */\n      0x02\n        /* \"#utility.yul\":19698:19709   */\n      mul\n        /* \"#utility.yul\":19692:19696   */\n      dup3\n        /* \"#utility.yul\":19689:19710   */\n      or\n        /* \"#utility.yul\":19681:19710   */\n      swap1\n      pop\n        /* \"#utility.yul\":19421:19716   */\n      swap3\n      swap2\n      pop\n      pop\n      jump\t// out\n        /* \"#utility.yul\":19721:21116   */\n    tag_192:\n        /* \"#utility.yul\":19838:19875   */\n      tag_660\n        /* \"#utility.yul\":19871:19874   */\n      dup3\n        /* \"#utility.yul\":19838:19875   */\n      tag_388\n      jump\t// in\n    tag_660:\n        /* \"#utility.yul\":19940:19958   */\n      0xffffffffffffffff\n        /* \"#utility.yul\":19932:19938   */\n      dup2\n        /* \"#utility.yul\":19929:19959   */\n      gt\n        /* \"#utility.yul\":19926:19982   */\n      iszero\n      tag_661\n      jumpi\n        /* \"#utility.yul\":19962:19980   */\n      tag_662\n      tag_352\n      jump\t// in\n    tag_662:\n        /* \"#utility.yul\":19926:19982   */\n    tag_661:\n        /* \"#utility.yul\":20006:20044   */\n      tag_663\n        /* \"#utility.yul\":20038:20042   */\n      dup3\n        /* \"#utility.yul\":20032:20043   */\n      sload\n        /* \"#utility.yul\":20006:20044   */\n      tag_139\n      jump\t// in\n    tag_663:\n        /* \"#utility.yul\":20091:20158   */\n      tag_664\n        /* \"#utility.yul\":20151:20157   */\n      dup3\n        /* \"#utility.yul\":20143:20149   */\n      dup3\n        /* \"#utility.yul\":20137:20141   */\n      dup6\n        /* \"#utility.yul\":20091:20158   */\n      tag_433\n      jump\t// in\n    tag_664:\n        /* \"#utility.yul\":20185:20186   */\n      0x00\n        /* \"#utility.yul\":20209:20213   */\n      0x20\n        /* \"#utility.yul\":20196:20213   */\n      swap1\n      pop\n        /* \"#utility.yul\":20241:20243   */\n      0x1f\n        /* \"#utility.yul\":20233:20239   */\n      dup4\n        /* \"#utility.yul\":20230:20244   */\n      gt\n        /* \"#utility.yul\":20258:20259   */\n      0x01\n        /* \"#utility.yul\":20253:20871   */\n      dup2\n      eq\n      tag_666\n      jumpi\n        /* \"#utility.yul\":20915:20916   */\n      0x00\n        /* \"#utility.yul\":20932:20938   */\n      dup5\n        /* \"#utility.yul\":20929:21006   */\n      iszero\n      tag_667\n      jumpi\n        /* \"#utility.yul\":20981:20990   */\n      dup3\n        /* \"#utility.yul\":20976:20979   */\n      dup8\n        /* \"#utility.yul\":20972:20991   */\n      add\n        /* \"#utility.yul\":20966:20992   */\n      mload\n        /* \"#utility.yul\":20957:20992   */\n      swap1\n      pop\n        /* \"#utility.yul\":20929:21006   */\n    tag_667:\n        /* \"#utility.yul\":21032:21099   */\n      tag_668\n        /* \"#utility.yul\":21092:21098   */\n      dup6\n        /* \"#utility.yul\":21085:21090   */\n      dup3\n        /* \"#utility.yul\":21032:21099   */\n      tag_436\n      jump\t// in\n    tag_668:\n        /* \"#utility.yul\":21026:21030   */\n      dup7\n        /* \"#utility.yul\":21019:21100   */\n      sstore\n        /* \"#utility.yul\":20888:21110   */\n      pop\n        /* \"#utility.yul\":20223:21110   */\n      jump(tag_665)\n        /* \"#utility.yul\":20253:20871   */\n    tag_666:\n        /* \"#utility.yul\":20305:20309   */\n      0x1f\n        /* \"#utility.yul\":20301:20310   */\n      not\n        /* \"#utility.yul\":20293:20299   */\n      dup5\n        /* \"#utility.yul\":20289:20311   */\n      and\n        /* \"#utility.yul\":20339:20376   */\n      tag_669\n        /* \"#utility.yul\":20371:20375   */\n      dup7\n        /* \"#utility.yul\":20339:20376   */\n      tag_422\n      jump\t// in\n    tag_669:\n        /* \"#utility.yul\":20398:20399   */\n      0x00\n        /* \"#utility.yul\":20412:20620   */\n    tag_670:\n        /* \"#utility.yul\":20426:20433   */\n      dup3\n        /* \"#utility.yul\":20423:20424   */\n      dup2\n        /* \"#utility.yul\":20420:20434   */\n      lt\n        /* \"#utility.yul\":20412:20620   */\n      iszero\n      tag_672\n      jumpi\n        /* \"#utility.yul\":20505:20514   */\n      dup5\n        /* \"#utility.yul\":20500:20503   */\n      dup10\n        /* \"#utility.yul\":20496:20515   */\n      add\n        /* \"#utility.yul\":20490:20516   */\n      mload\n        /* \"#utility.yul\":20482:20488   */\n      dup3\n        /* \"#utility.yul\":20475:20517   */\n      sstore\n        /* \"#utility.yul\":20556:20557   */\n      0x01\n        /* \"#utility.yul\":20548:20554   */\n      dup3\n        /* \"#utility.yul\":20544:20558   */\n      add\n        /* \"#utility.yul\":20534:20558   */\n      swap2\n      pop\n        /* \"#utility.yul\":20603:20605   */\n      0x20\n        /* \"#utility.yul\":20592:20601   */\n      dup6\n        /* \"#utility.yul\":20588:20606   */\n      add\n        /* \"#utility.yul\":20575:20606   */\n      swap5\n      pop\n        /* \"#utility.yul\":20449:20453   */\n      0x20\n        /* \"#utility.yul\":20446:20447   */\n      dup2\n        /* \"#utility.yul\":20442:20454   */\n      add\n        /* \"#utility.yul\":20437:20454   */\n      swap1\n      pop\n        /* \"#utility.yul\":20412:20620   */\n      jump(tag_670)\n    tag_672:\n        /* \"#utility.yul\":20648:20654   */\n      dup7\n        /* \"#utility.yul\":20639:20646   */\n      dup4\n        /* \"#utility.yul\":20636:20655   */\n      lt\n        /* \"#utility.yul\":20633:20812   */\n      iszero\n      tag_673\n      jumpi\n        /* \"#utility.yul\":20706:20715   */\n      dup5\n        /* \"#utility.yul\":20701:20704   */\n      dup10\n        /* \"#utility.yul\":20697:20716   */\n      add\n        /* \"#utility.yul\":20691:20717   */\n      mload\n        /* \"#utility.yul\":20749:20797   */\n      tag_674\n        /* \"#utility.yul\":20791:20795   */\n      0x1f\n        /* \"#utility.yul\":20783:20789   */\n      dup10\n        /* \"#utility.yul\":20779:20796   */\n      and\n        /* \"#utility.yul\":20768:20777   */\n      dup3\n        /* \"#utility.yul\":20749:20797   */\n      tag_435\n      jump\t// in\n    tag_674:\n        /* \"#utility.yul\":20741:20747   */\n      dup4\n        /* \"#utility.yul\":20734:20798   */\n      sstore\n        /* \"#utility.yul\":20656:20812   */\n      pop\n        /* \"#utility.yul\":20633:20812   */\n    tag_673:\n        /* \"#utility.yul\":20858:20859   */\n      0x01\n        /* \"#utility.yul\":20854:20855   */\n      0x02\n        /* \"#utility.yul\":20846:20852   */\n      dup9\n        /* \"#utility.yul\":20842:20856   */\n      mul\n        /* \"#utility.yul\":20838:20860   */\n      add\n        /* \"#utility.yul\":20832:20836   */\n      dup9\n        /* \"#utility.yul\":20825:20861   */\n      sstore\n        /* \"#utility.yul\":20260:20871   */\n      pop\n      pop\n      pop\n        /* \"#utility.yul\":20223:21110   */\n    tag_665:\n      pop\n        /* \"#utility.yul\":19813:21116   */\n      pop\n      pop\n      pop\n        /* \"#utility.yul\":19721:21116   */\n      pop\n      pop\n      jump\t// out\n        /* \"#utility.yul\":21122:21302   */\n    tag_437:\n        /* \"#utility.yul\":21170:21247   */\n      0x4e487b7100000000000000000000000000000000000000000000000000000000\n        /* \"#utility.yul\":21167:21168   */\n      0x00\n        /* \"#utility.yul\":21160:21248   */\n      mstore\n        /* \"#utility.yul\":21267:21271   */\n      0x11\n        /* \"#utility.yul\":21264:21265   */\n      0x04\n        /* \"#utility.yul\":21257:21272   */\n      mstore\n        /* \"#utility.yul\":21291:21295   */\n      0x24\n        /* \"#utility.yul\":21288:21289   */\n      0x00\n        /* \"#utility.yul\":21281:21296   */\n      revert\n        /* \"#utility.yul\":21308:21499   */\n    tag_244:\n        /* \"#utility.yul\":21348:21351   */\n      0x00\n        /* \"#utility.yul\":21367:21387   */\n      tag_677\n        /* \"#utility.yul\":21385:21386   */\n      dup3\n        /* \"#utility.yul\":21367:21387   */\n      tag_393\n      jump\t// in\n    tag_677:\n        /* \"#utility.yul\":21362:21387   */\n      swap2\n      pop\n        /* \"#utility.yul\":21401:21421   */\n      tag_678\n        /* \"#utility.yul\":21419:21420   */\n      dup4\n        /* \"#utility.yul\":21401:21421   */\n      tag_393\n      jump\t// in\n    tag_678:\n        /* \"#utility.yul\":21396:21421   */\n      swap3\n      pop\n        /* \"#utility.yul\":21444:21445   */\n      dup3\n        /* \"#utility.yul\":21441:21442   */\n      dup3\n        /* \"#utility.yul\":21437:21446   */\n      add\n        /* \"#utility.yul\":21430:21446   */\n      swap1\n      pop\n        /* \"#utility.yul\":21465:21468   */\n      dup1\n        /* \"#utility.yul\":21462:21463   */\n      dup3\n        /* \"#utility.yul\":21459:21469   */\n      gt\n        /* \"#utility.yul\":21456:21492   */\n      iszero\n      tag_679\n      jumpi\n        /* \"#utility.yul\":21472:21490   */\n      tag_680\n      tag_437\n      jump\t// in\n    tag_680:\n        /* \"#utility.yul\":21456:21492   */\n    tag_679:\n        /* \"#utility.yul\":21308:21499   */\n      swap3\n      swap2\n      pop\n      pop\n      jump\t// out\n        /* \"#utility.yul\":21505:21603   */\n    tag_438:\n        /* \"#utility.yul\":21556:21562   */\n      0x00\n        /* \"#utility.yul\":21590:21595   */\n      dup2\n        /* \"#utility.yul\":21584:21596   */\n      mload\n        /* \"#utility.yul\":21574:21596   */\n      swap1\n      pop\n        /* \"#utility.yul\":21505:21603   */\n      swap2\n      swap1\n      pop\n      jump\t// out\n        /* \"#utility.yul\":21609:21777   */\n    tag_439:\n        /* \"#utility.yul\":21692:21703   */\n      0x00\n        /* \"#utility.yul\":21726:21732   */\n      dup3\n        /* \"#utility.yul\":21721:21724   */\n      dup3\n        /* \"#utility.yul\":21714:21733   */\n      mstore\n        /* \"#utility.yul\":21766:21770   */\n      0x20\n        /* \"#utility.yul\":21761:21764   */\n      dup3\n        /* \"#utility.yul\":21757:21771   */\n      add\n        /* \"#utility.yul\":21742:21771   */\n      swap1\n      pop\n        /* \"#utility.yul\":21609:21777   */\n      swap3\n      swap2\n      pop\n      pop\n      jump\t// out\n        /* \"#utility.yul\":21783:22156   */\n    tag_440:\n        /* \"#utility.yul\":21869:21872   */\n      0x00\n        /* \"#utility.yul\":21897:21935   */\n      tag_684\n        /* \"#utility.yul\":21929:21934   */\n      dup3\n        /* \"#utility.yul\":21897:21935   */\n      tag_438\n      jump\t// in\n    tag_684:\n        /* \"#utility.yul\":21951:22021   */\n      tag_685\n        /* \"#utility.yul\":22014:22020   */\n      dup2\n        /* \"#utility.yul\":22009:22012   */\n      dup6\n        /* \"#utility.yul\":21951:22021   */\n      tag_439\n      jump\t// in\n    tag_685:\n        /* \"#utility.yul\":21944:22021   */\n      swap4\n      pop\n        /* \"#utility.yul\":22030:22095   */\n      tag_686\n        /* \"#utility.yul\":22088:22094   */\n      dup2\n        /* \"#utility.yul\":22083:22086   */\n      dup6\n        /* \"#utility.yul\":22076:22080   */\n      0x20\n        /* \"#utility.yul\":22069:22074   */\n      dup7\n        /* \"#utility.yul\":22065:22081   */\n      add\n        /* \"#utility.yul\":22030:22095   */\n      tag_390\n      jump\t// in\n    tag_686:\n        /* \"#utility.yul\":22120:22149   */\n      tag_687\n        /* \"#utility.yul\":22142:22148   */\n      dup2\n        /* \"#utility.yul\":22120:22149   */\n      tag_391\n      jump\t// in\n    tag_687:\n        /* \"#utility.yul\":22115:22118   */\n      dup5\n        /* \"#utility.yul\":22111:22150   */\n      add\n        /* \"#utility.yul\":22104:22150   */\n      swap2\n      pop\n        /* \"#utility.yul\":21873:22156   */\n      pop\n        /* \"#utility.yul\":21783:22156   */\n      swap3\n      swap2\n      pop\n      pop\n      jump\t// out\n        /* \"#utility.yul\":22162:22802   */\n    tag_265:\n        /* \"#utility.yul\":22357:22361   */\n      0x00\n        /* \"#utility.yul\":22395:22398   */\n      0x80\n        /* \"#utility.yul\":22384:22393   */\n      dup3\n        /* \"#utility.yul\":22380:22399   */\n      add\n        /* \"#utility.yul\":22372:22399   */\n      swap1\n      pop\n        /* \"#utility.yul\":22409:22480   */\n      tag_689\n        /* \"#utility.yul\":22477:22478   */\n      0x00\n        /* \"#utility.yul\":22466:22475   */\n      dup4\n        /* \"#utility.yul\":22462:22479   */\n      add\n        /* \"#utility.yul\":22453:22459   */\n      dup8\n        /* \"#utility.yul\":22409:22480   */\n      tag_398\n      jump\t// in\n    tag_689:\n        /* \"#utility.yul\":22490:22562   */\n      tag_690\n        /* \"#utility.yul\":22558:22560   */\n      0x20\n        /* \"#utility.yul\":22547:22556   */\n      dup4\n        /* \"#utility.yul\":22543:22561   */\n      add\n        /* \"#utility.yul\":22534:22540   */\n      dup7\n        /* \"#utility.yul\":22490:22562   */\n      tag_398\n      jump\t// in\n    tag_690:\n        /* \"#utility.yul\":22572:22644   */\n      tag_691\n        /* \"#utility.yul\":22640:22642   */\n      0x40\n        /* \"#utility.yul\":22629:22638   */\n      dup4\n        /* \"#utility.yul\":22625:22643   */\n      add\n        /* \"#utility.yul\":22616:22622   */\n      dup6\n        /* \"#utility.yul\":22572:22644   */\n      tag_401\n      jump\t// in\n    tag_691:\n        /* \"#utility.yul\":22691:22700   */\n      dup2\n        /* \"#utility.yul\":22685:22689   */\n      dup2\n        /* \"#utility.yul\":22681:22701   */\n      sub\n        /* \"#utility.yul\":22676:22678   */\n      0x60\n        /* \"#utility.yul\":22665:22674   */\n      dup4\n        /* \"#utility.yul\":22661:22679   */\n      add\n        /* \"#utility.yul\":22654:22702   */\n      mstore\n        /* \"#utility.yul\":22719:22795   */\n      tag_692\n        /* \"#utility.yul\":22790:22794   */\n      dup2\n        /* \"#utility.yul\":22781:22787   */\n      dup5\n        /* \"#utility.yul\":22719:22795   */\n      tag_440\n      jump\t// in\n    tag_692:\n        /* \"#utility.yul\":22711:22795   */\n      swap1\n      pop\n        /* \"#utility.yul\":22162:22802   */\n      swap6\n      swap5\n      pop\n      pop\n      pop\n      pop\n      pop\n      jump\t// out\n        /* \"#utility.yul\":22808:22949   */\n    tag_441:\n        /* \"#utility.yul\":22864:22869   */\n      0x00\n        /* \"#utility.yul\":22895:22901   */\n      dup2\n        /* \"#utility.yul\":22889:22902   */\n      mload\n        /* \"#utility.yul\":22880:22902   */\n      swap1\n      pop\n        /* \"#utility.yul\":22911:22943   */\n      tag_694\n        /* \"#utility.yul\":22937:22942   */\n      dup2\n        /* \"#utility.yul\":22911:22943   */\n      tag_384\n      jump\t// in\n    tag_694:\n        /* \"#utility.yul\":22808:22949   */\n      swap3\n      swap2\n      pop\n      pop\n      jump\t// out\n        /* \"#utility.yul\":22955:23304   */\n    tag_268:\n        /* \"#utility.yul\":23024:23030   */\n      0x00\n        /* \"#utility.yul\":23073:23075   */\n      0x20\n        /* \"#utility.yul\":23061:23070   */\n      dup3\n        /* \"#utility.yul\":23052:23059   */\n      dup5\n        /* \"#utility.yul\":23048:23071   */\n      sub\n        /* \"#utility.yul\":23044:23076   */\n      slt\n        /* \"#utility.yul\":23041:23160   */\n      iszero\n      tag_696\n      jumpi\n        /* \"#utility.yul\":23079:23158   */\n      tag_697\n      tag_381\n      jump\t// in\n    tag_697:\n        /* \"#utility.yul\":23041:23160   */\n    tag_696:\n        /* \"#utility.yul\":23199:23200   */\n      0x00\n        /* \"#utility.yul\":23224:23287   */\n      tag_698\n        /* \"#utility.yul\":23279:23286   */\n      dup5\n        /* \"#utility.yul\":23270:23276   */\n      dup3\n        /* \"#utility.yul\":23259:23268   */\n      dup6\n        /* \"#utility.yul\":23255:23277   */\n      add\n        /* \"#utility.yul\":23224:23287   */\n      tag_441\n      jump\t// in\n    tag_698:\n        /* \"#utility.yul\":23214:23287   */\n      swap2\n      pop\n        /* \"#utility.yul\":23170:23297   */\n      pop\n        /* \"#utility.yul\":22955:23304   */\n      swap3\n      swap2\n      pop\n      pop\n      jump\t// out\n        /* \"#utility.yul\":23310:23458   */\n    tag_442:\n        /* \"#utility.yul\":23412:23423   */\n      0x00\n        /* \"#utility.yul\":23449:23452   */\n      dup2\n        /* \"#utility.yul\":23434:23452   */\n      swap1\n      pop\n        /* \"#utility.yul\":23310:23458   */\n      swap3\n      swap2\n      pop\n      pop\n      jump\t// out\n        /* \"#utility.yul\":23464:23854   */\n    tag_443:\n        /* \"#utility.yul\":23570:23573   */\n      0x00\n        /* \"#utility.yul\":23598:23637   */\n      tag_701\n        /* \"#utility.yul\":23631:23636   */\n      dup3\n        /* \"#utility.yul\":23598:23637   */\n      tag_388\n      jump\t// in\n    tag_701:\n        /* \"#utility.yul\":23653:23742   */\n      tag_702\n        /* \"#utility.yul\":23735:23741   */\n      dup2\n        /* \"#utility.yul\":23730:23733   */\n      dup6\n        /* \"#utility.yul\":23653:23742   */\n      tag_442\n      jump\t// in\n    tag_702:\n        /* \"#utility.yul\":23646:23742   */\n      swap4\n      pop\n        /* \"#utility.yul\":23751:23816   */\n      tag_703\n        /* \"#utility.yul\":23809:23815   */\n      dup2\n        /* \"#utility.yul\":23804:23807   */\n      dup6\n        /* \"#utility.yul\":23797:23801   */\n      0x20\n        /* \"#utility.yul\":23790:23795   */\n      dup7\n        /* \"#utility.yul\":23786:23802   */\n      add\n        /* \"#utility.yul\":23751:23816   */\n      tag_390\n      jump\t// in\n    tag_703:\n        /* \"#utility.yul\":23841:23847   */\n      dup1\n        /* \"#utility.yul\":23836:23839   */\n      dup5\n        /* \"#utility.yul\":23832:23848   */\n      add\n        /* \"#utility.yul\":23825:23848   */\n      swap2\n      pop\n        /* \"#utility.yul\":23574:23854   */\n      pop\n        /* \"#utility.yul\":23464:23854   */\n      swap3\n      swap2\n      pop\n      pop\n      jump\t// out\n        /* \"#utility.yul\":23860:24295   */\n    tag_293:\n        /* \"#utility.yul\":24040:24043   */\n      0x00\n        /* \"#utility.yul\":24062:24157   */\n      tag_705\n        /* \"#utility.yul\":24153:24156   */\n      dup3\n        /* \"#utility.yul\":24144:24150   */\n      dup6\n        /* \"#utility.yul\":24062:24157   */\n      tag_443\n      jump\t// in\n    tag_705:\n        /* \"#utility.yul\":24055:24157   */\n      swap2\n      pop\n        /* \"#utility.yul\":24174:24269   */\n      tag_706\n        /* \"#utility.yul\":24265:24268   */\n      dup3\n        /* \"#utility.yul\":24256:24262   */\n      dup5\n        /* \"#utility.yul\":24174:24269   */\n      tag_443\n      jump\t// in\n    tag_706:\n        /* \"#utility.yul\":24167:24269   */\n      swap2\n      pop\n        /* \"#utility.yul\":24286:24289   */\n      dup2\n        /* \"#utility.yul\":24279:24289   */\n      swap1\n      pop\n        /* \"#utility.yul\":23860:24295   */\n      swap4\n      swap3\n      pop\n      pop\n      pop\n      jump\t// out\n        /* \"#utility.yul\":24301:24633   */\n    tag_324:\n        /* \"#utility.yul\":24422:24426   */\n      0x00\n        /* \"#utility.yul\":24460:24462   */\n      0x40\n        /* \"#utility.yul\":24449:24458   */\n      dup3\n        /* \"#utility.yul\":24445:24463   */\n      add\n        /* \"#utility.yul\":24437:24463   */\n      swap1\n      pop\n        /* \"#utility.yul\":24473:24544   */\n      tag_708\n        /* \"#utility.yul\":24541:24542   */\n      0x00\n        /* \"#utility.yul\":24530:24539   */\n      dup4\n        /* \"#utility.yul\":24526:24543   */\n      add\n        /* \"#utility.yul\":24517:24523   */\n      dup6\n        /* \"#utility.yul\":24473:24544   */\n      tag_398\n      jump\t// in\n    tag_708:\n        /* \"#utility.yul\":24554:24626   */\n      tag_709\n        /* \"#utility.yul\":24622:24624   */\n      0x20\n        /* \"#utility.yul\":24611:24620   */\n      dup4\n        /* \"#utility.yul\":24607:24625   */\n      add\n        /* \"#utility.yul\":24598:24604   */\n      dup5\n        /* \"#utility.yul\":24554:24626   */\n      tag_401\n      jump\t// in\n    tag_709:\n        /* \"#utility.yul\":24301:24633   */\n      swap4\n      swap3\n      pop\n      pop\n      pop\n      jump\t// out\n        /* \"#utility.yul\":24639:24819   */\n    tag_358:\n        /* \"#utility.yul\":24687:24764   */\n      0x4e487b7100000000000000000000000000000000000000000000000000000000\n        /* \"#utility.yul\":24684:24685   */\n      0x00\n        /* \"#utility.yul\":24677:24765   */\n      mstore\n        /* \"#utility.yul\":24784:24788   */\n      0x12\n        /* \"#utility.yul\":24781:24782   */\n      0x04\n        /* \"#utility.yul\":24774:24789   */\n      mstore\n        /* \"#utility.yul\":24808:24812   */\n      0x24\n        /* \"#utility.yul\":24805:24806   */\n      0x00\n        /* \"#utility.yul\":24798:24813   */\n      revert\n\n    auxdata: 0xa26469706673582212203c2757cc01f317757597d8471e9860bd495eac826f71672205c0f56266ebd7aa64736f6c63430008140033\n}\n",
				"bytecode": {
					"linkReferences": {},
					"object": "608060405260405180608001604052806056815260200162002e5e60569139600990816200002e91906200036c565b503480156200003b575f80fd5b5060405162002eb438038062002eb4833981810160405281019062000061919062000483565b6040518060400160405280600781526020017f4d79546f6b656e000000000000000000000000000000000000000000000000008152506040518060400160405280600381526020017f4d544b0000000000000000000000000000000000000000000000000000000000815250815f9081620000dd91906200036c565b508060019081620000ef91906200036c565b50505081600781905550806008819055505050620004c8565b5f81519050919050565b7f4e487b71000000000000000000000000000000000000000000000000000000005f52604160045260245ffd5b7f4e487b71000000000000000000000000000000000000000000000000000000005f52602260045260245ffd5b5f60028204905060018216806200018457607f821691505b6020821081036200019a57620001996200013f565b5b50919050565b5f819050815f5260205f209050919050565b5f6020601f8301049050919050565b5f82821b905092915050565b5f60088302620001fe7fffffffffffffffffffffffffffffffffffffffffffffffffffffffffffffffff82620001c1565b6200020a8683620001c1565b95508019841693508086168417925050509392505050565b5f819050919050565b5f819050919050565b5f620002546200024e620002488462000222565b6200022b565b62000222565b9050919050565b5f819050919050565b6200026f8362000234565b620002876200027e826200025b565b848454620001cd565b825550505050565b5f90565b6200029d6200028f565b620002aa81848462000264565b505050565b5b81811015620002d157620002c55f8262000293565b600181019050620002b0565b5050565b601f8211156200032057620002ea81620001a0565b620002f584620001b2565b8101602085101562000305578190505b6200031d6200031485620001b2565b830182620002af565b50505b505050565b5f82821c905092915050565b5f620003425f198460080262000325565b1980831691505092915050565b5f6200035c838362000331565b9150826002028217905092915050565b620003778262000108565b67ffffffffffffffff81111562000393576200039262000112565b5b6200039f82546200016c565b620003ac828285620002d5565b5f60209050601f831160018114620003e2575f8415620003cd578287015190505b620003d985826200034f565b86555062000448565b601f198416620003f286620001a0565b5f5b828110156200041b57848901518255600182019150602085019450602081019050620003f4565b868310156200043b578489015162000437601f89168262000331565b8355505b6001600288020188555050505b505050505050565b5f80fd5b6200045f8162000222565b81146200046a575f80fd5b50565b5f815190506200047d8162000454565b92915050565b5f80604083850312156200049c576200049b62000450565b5b5f620004ab858286016200046d565b9250506020620004be858286016200046d565b9150509250929050565b61298880620004d65f395ff3fe608060405260043610610134575f3560e01c8063474ebdea116100aa578063994dddcd1161006e578063994dddcd14610404578063a22cb4651461042e578063b88d4fde14610456578063c87b56dd1461047e578063e985e9c5146104ba578063eddd0d9c146104f657610134565b8063474ebdea146103105780636352211e14610338578063658707891461037457806370a082311461039e57806395d89b41146103da57610134565b80631e576912116100fc5780631e5769121461022c57806323b872dd146102485780632890e0d714610270578063309596431461029857806342842e0e146102c057806342966c68146102e857610134565b806301ffc9a71461013857806306fdde0314610174578063081812fc1461019e578063095ea7b3146101da57806313966db514610202575b5f80fd5b348015610143575f80fd5b5061015e60048036038101906101599190611cc4565b61051e565b60405161016b9190611d09565b60405180910390f35b34801561017f575f80fd5b5061018861052f565b6040516101959190611dac565b60405180910390f35b3480156101a9575f80fd5b506101c460048036038101906101bf9190611dff565b6105be565b6040516101d19190611e69565b60405180910390f35b3480156101e5575f80fd5b5061020060048036038101906101fb9190611eac565b6105d9565b005b34801561020d575f80fd5b506102166105ef565b6040516102239190611ef9565b60405180910390f35b6102466004803603810190610241919061203e565b6105f5565b005b348015610253575f80fd5b5061026e600480360381019061026991906120aa565b61065d565b005b34801561027b575f80fd5b5061029660048036038101906102919190611dff565b61075c565b005b3480156102a3575f80fd5b506102be60048036038101906102b99190611dff565b61084e565b005b3480156102cb575f80fd5b506102e660048036038101906102e191906120aa565b610858565b005b3480156102f3575f80fd5b5061030e60048036038101906103099190611dff565b610877565b005b34801561031b575f80fd5b50610336600480360381019061033191906120fa565b61088d565b005b348015610343575f80fd5b5061035e60048036038101906103599190611dff565b6108a0565b60405161036b9190611e69565b60405180910390f35b34801561037f575f80fd5b506103886108b1565b6040516103959190611dac565b60405180910390f35b3480156103a9575f80fd5b506103c460048036038101906103bf9190612141565b61093d565b6040516103d19190611ef9565b60405180910390f35b3480156103e5575f80fd5b506103ee6109f3565b6040516103fb9190611dac565b60405180910390f35b34801561040f575f80fd5b50610418610a83565b6040516104259190611ef9565b60405180910390f35b348015610439575f80fd5b50610454600480360381019061044f9190612196565b610a89565b005b348015610461575f80fd5b5061047c60048036038101906104779190612272565b610a9f565b005b348015610489575f80fd5b506104a4600480360381019061049f9190611dff565b610abc565b6040516104b19190611dac565b60405180910390f35b3480156104c5575f80fd5b506104e060048036038101906104db91906122f2565b610ace565b6040516104ed9190611d09565b60405180910390f35b348015610501575f80fd5b5061051c60048036038101906105179190611dff565b610b5c565b005b5f61052882610b66565b9050919050565b60605f805461053d9061235d565b80601f01602080910402602001604051908101604052809291908181526020018280546105699061235d565b80156105b45780601f1061058b576101008083540402835291602001916105b4565b820191905f5260205f20905b81548152906001019060200180831161059757829003601f168201915b5050505050905090565b5f6105c882610bc6565b506105d282610c4c565b9050919050565b6105eb82826105e6610c85565b610c8c565b5050565b60075481565b60075434101561063a576040517f08c379a0000000000000000000000000000000000000000000000000000000008152600401610631906123d7565b60405180910390fd5b6106448383610c9e565b61064e8282610cbb565b6106588383610d15565b505050565b5f73ffffffffffffffffffffffffffffffffffffffff168273ffffffffffffffffffffffffffffffffffffffff16036106cd575f6040517f64a0ae920000000000000000000000000000000000000000000000000000000081526004016106c49190611e69565b60405180910390fd5b5f6106e083836106db610c85565b610d41565b90508373ffffffffffffffffffffffffffffffffffffffff168173ffffffffffffffffffffffffffffffffffffffff1614610756578382826040517f64283d7b00000000000000000000000000000000000000000000000000000000815260040161074d939291906123f5565b60405180910390fd5b50505050565b3373ffffffffffffffffffffffffffffffffffffffff1661077c826108a0565b73ffffffffffffffffffffffffffffffffffffffff16146107d2576040517f08c379a00000000000000000000000000000000000000000000000000000000081526004016107c990612474565b60405180910390fd5b5f600a5f8381526020019081526020015f205414158015610803575042600a5f8381526020019081526020015f2054105b610842576040517f08c379a0000000000000000000000000000000000000000000000000000000008152600401610839906124dc565b60405180910390fd5b61084b81610f4c565b50565b8060088190555050565b61087283838360405180602001604052805f815250610a9f565b505050565b6108895f82610884610c85565b610d41565b5050565b806009908161089c9190612697565b5050565b5f6108aa82610bc6565b9050919050565b600980546108be9061235d565b80601f01602080910402602001604051908101604052809291908181526020018280546108ea9061235d565b80156109355780601f1061090c57610100808354040283529160200191610935565b820191905f5260205f20905b81548152906001019060200180831161091857829003601f168201915b505050505081565b5f8073ffffffffffffffffffffffffffffffffffffffff168273ffffffffffffffffffffffffffffffffffffffff16036109ae575f6040517f89c62b640000000000000000000000000000000000000000000000000000000081526004016109a59190611e69565b60405180910390fd5b60035f8373ffffffffffffffffffffffffffffffffffffffff1673ffffffffffffffffffffffffffffffffffffffff1681526020019081526020015f20549050919050565b606060018054610a029061235d565b80601f0160208091040260200160405190810160405280929190818152602001828054610a2e9061235d565b8015610a795780601f10610a5057610100808354040283529160200191610a79565b820191905f5260205f20905b815481529060010190602001808311610a5c57829003601f168201915b5050505050905090565b60085481565b610a9b610a94610c85565b8383610fce565b5050565b610aaa84848461065d565b610ab684848484611137565b50505050565b6060610ac7826112e9565b9050919050565b5f60055f8473ffffffffffffffffffffffffffffffffffffffff1673ffffffffffffffffffffffffffffffffffffffff1681526020019081526020015f205f8373ffffffffffffffffffffffffffffffffffffffff1673ffffffffffffffffffffffffffffffffffffffff1681526020019081526020015f205f9054906101000a900460ff16905092915050565b8060078190555050565b5f634906490660e01b7bffffffffffffffffffffffffffffffffffffffffffffffffffffffff1916827bffffffffffffffffffffffffffffffffffffffffffffffffffffffff19161480610bbf5750610bbe826113f4565b5b9050919050565b5f80610bd1836114d5565b90505f73ffffffffffffffffffffffffffffffffffffffff168173ffffffffffffffffffffffffffffffffffffffff1603610c4357826040517f7e273289000000000000000000000000000000000000000000000000000000008152600401610c3a9190611ef9565b60405180910390fd5b80915050919050565b5f60045f8381526020019081526020015f205f9054906101000a900473ffffffffffffffffffffffffffffffffffffffff169050919050565b5f33905090565b610c99838383600161150e565b505050565b610cb7828260405180602001604052805f8152506116cd565b5050565b8060065f8481526020019081526020015f209081610cd99190612697565b507ff8e1a15aba9398e019f0b49df1a4fde98ee17ae345cb5f6b5e2c27f5033e8ce782604051610d099190611ef9565b60405180910390a15050565b5f60085442610d249190612793565b905080600a5f8481526020019081526020015f2081905550505050565b5f80610d4c846114d5565b90505f73ffffffffffffffffffffffffffffffffffffffff168373ffffffffffffffffffffffffffffffffffffffff1614610d8d57610d8c8184866116e8565b5b5f73ffffffffffffffffffffffffffffffffffffffff168173ffffffffffffffffffffffffffffffffffffffff1614610e1857610dcc5f855f8061150e565b600160035f8373ffffffffffffffffffffffffffffffffffffffff1673ffffffffffffffffffffffffffffffffffffffff1681526020019081526020015f205f82825403925050819055505b5f73ffffffffffffffffffffffffffffffffffffffff168573ffffffffffffffffffffffffffffffffffffffff1614610e9757600160035f8773ffffffffffffffffffffffffffffffffffffffff1673ffffffffffffffffffffffffffffffffffffffff1681526020019081526020015f205f82825401925050819055505b8460025f8681526020019081526020015f205f6101000a81548173ffffffffffffffffffffffffffffffffffffffff021916908373ffffffffffffffffffffffffffffffffffffffff160217905550838573ffffffffffffffffffffffffffffffffffffffff168273ffffffffffffffffffffffffffffffffffffffff167fddf252ad1be2c89b69c2b068fc378daa952ba7f163c4a11628f55a4df523b3ef60405160405180910390a4809150509392505050565b5f610f585f835f610d41565b90505f73ffffffffffffffffffffffffffffffffffffffff168173ffffffffffffffffffffffffffffffffffffffff1603610fca57816040517f7e273289000000000000000000000000000000000000000000000000000000008152600401610fc19190611ef9565b60405180910390fd5b5050565b5f73ffffffffffffffffffffffffffffffffffffffff168273ffffffffffffffffffffffffffffffffffffffff160361103e57816040517f5b08ba180000000000000000000000000000000000000000000000000000000081526004016110359190611e69565b60405180910390fd5b8060055f8573ffffffffffffffffffffffffffffffffffffffff1673ffffffffffffffffffffffffffffffffffffffff1681526020019081526020015f205f8473ffffffffffffffffffffffffffffffffffffffff1673ffffffffffffffffffffffffffffffffffffffff1681526020019081526020015f205f6101000a81548160ff0219169083151502179055508173ffffffffffffffffffffffffffffffffffffffff168373ffffffffffffffffffffffffffffffffffffffff167f17307eab39ab6107e8899845ad3d59bd9653f200f220920489ca2b5937696c318360405161112a9190611d09565b60405180910390a3505050565b5f8373ffffffffffffffffffffffffffffffffffffffff163b11156112e3578273ffffffffffffffffffffffffffffffffffffffff1663150b7a0261117a610c85565b8685856040518563ffffffff1660e01b815260040161119c9493929190612818565b6020604051808303815f875af19250505080156111d757506040513d601f19601f820116820180604052508101906111d49190612876565b60015b611258573d805f8114611205576040519150601f19603f3d011682016040523d82523d5f602084013e61120a565b606091505b505f81510361125057836040517f64a0ae920000000000000000000000000000000000000000000000000000000081526004016112479190611e69565b60405180910390fd5b805181602001fd5b63150b7a0260e01b7bffffffffffffffffffffffffffffffffffffffffffffffffffffffff1916817bffffffffffffffffffffffffffffffffffffffffffffffffffffffff1916146112e157836040517f64a0ae920000000000000000000000000000000000000000000000000000000081526004016112d89190611e69565b60405180910390fd5b505b50505050565b60606112f482610bc6565b505f60065f8481526020019081526020015f2080546113129061235d565b80601f016020809104026020016040519081016040528092919081815260200182805461133e9061235d565b80156113895780601f1061136057610100808354040283529160200191611389565b820191905f5260205f20905b81548152906001019060200180831161136c57829003601f168201915b505050505090505f6113996117ab565b90505f8151036113ad5781925050506113ef565b5f825111156113e15780826040516020016113c99291906128db565b604051602081830303815290604052925050506113ef565b6113ea846117c1565b925050505b919050565b5f7f80ac58cd000000000000000000000000000000000000000000000000000000007bffffffffffffffffffffffffffffffffffffffffffffffffffffffff1916827bffffffffffffffffffffffffffffffffffffffffffffffffffffffff191614806114be57507f5b5e139f000000000000000000000000000000000000000000000000000000007bffffffffffffffffffffffffffffffffffffffffffffffffffffffff1916827bffffffffffffffffffffffffffffffffffffffffffffffffffffffff1916145b806114ce57506114cd82611827565b5b9050919050565b5f60025f8381526020019081526020015f205f9054906101000a900473ffffffffffffffffffffffffffffffffffffffff169050919050565b808061154657505f73ffffffffffffffffffffffffffffffffffffffff168273ffffffffffffffffffffffffffffffffffffffff1614155b15611678575f61155584610bc6565b90505f73ffffffffffffffffffffffffffffffffffffffff168373ffffffffffffffffffffffffffffffffffffffff16141580156115bf57508273ffffffffffffffffffffffffffffffffffffffff168173ffffffffffffffffffffffffffffffffffffffff1614155b80156115d257506115d08184610ace565b155b1561161457826040517fa9fbf51f00000000000000000000000000000000000000000000000000000000815260040161160b9190611e69565b60405180910390fd5b811561167657838573ffffffffffffffffffffffffffffffffffffffff168273ffffffffffffffffffffffffffffffffffffffff167f8c5be1e5ebec7d5bd14f71427d1e84f3dd0314c0f7b2291e5b200ac8c7c3b92560405160405180910390a45b505b8360045f8581526020019081526020015f205f6101000a81548173ffffffffffffffffffffffffffffffffffffffff021916908373ffffffffffffffffffffffffffffffffffffffff16021790555050505050565b6116d78383611890565b6116e35f848484611137565b505050565b6116f3838383611983565b6117a6575f73ffffffffffffffffffffffffffffffffffffffff168373ffffffffffffffffffffffffffffffffffffffff160361176757806040517f7e27328900000000000000000000000000000000000000000000000000000000815260040161175e9190611ef9565b60405180910390fd5b81816040517f177e802f00000000000000000000000000000000000000000000000000000000815260040161179d9291906128fe565b60405180910390fd5b505050565b606060405180602001604052805f815250905090565b60606117cc82610bc6565b505f6117d66117ab565b90505f8151116117f45760405180602001604052805f81525061181f565b806117fe84611a43565b60405160200161180f9291906128db565b6040516020818303038152906040525b915050919050565b5f7f01ffc9a7000000000000000000000000000000000000000000000000000000007bffffffffffffffffffffffffffffffffffffffffffffffffffffffff1916827bffffffffffffffffffffffffffffffffffffffffffffffffffffffff1916149050919050565b5f73ffffffffffffffffffffffffffffffffffffffff168273ffffffffffffffffffffffffffffffffffffffff1603611900575f6040517f64a0ae920000000000000000000000000000000000000000000000000000000081526004016118f79190611e69565b60405180910390fd5b5f61190c83835f610d41565b90505f73ffffffffffffffffffffffffffffffffffffffff168173ffffffffffffffffffffffffffffffffffffffff161461197e575f6040517f73c6ac6e0000000000000000000000000000000000000000000000000000000081526004016119759190611e69565b60405180910390fd5b505050565b5f8073ffffffffffffffffffffffffffffffffffffffff168373ffffffffffffffffffffffffffffffffffffffff1614158015611a3a57508273ffffffffffffffffffffffffffffffffffffffff168473ffffffffffffffffffffffffffffffffffffffff1614806119fb57506119fa8484610ace565b5b80611a3957508273ffffffffffffffffffffffffffffffffffffffff16611a2183610c4c565b73ffffffffffffffffffffffffffffffffffffffff16145b5b90509392505050565b60605f6001611a5184611b0d565b0190505f8167ffffffffffffffff811115611a6f57611a6e611f1a565b5b6040519080825280601f01601f191660200182016040528015611aa15781602001600182028036833780820191505090505b5090505f82602001820190505b600115611b02578080600190039150507f3031323334353637383961626364656600000000000000000000000000000000600a86061a8153600a8581611af757611af6612925565b5b0494505f8503611aae575b819350505050919050565b5f805f90507a184f03e93ff9f4daa797ed6e38ed64bf6a1f0100000000000000008310611b69577a184f03e93ff9f4daa797ed6e38ed64bf6a1f0100000000000000008381611b5f57611b5e612925565b5b0492506040810190505b6d04ee2d6d415b85acef81000000008310611ba6576d04ee2d6d415b85acef81000000008381611b9c57611b9b612925565b5b0492506020810190505b662386f26fc100008310611bd557662386f26fc100008381611bcb57611bca612925565b5b0492506010810190505b6305f5e1008310611bfe576305f5e1008381611bf457611bf3612925565b5b0492506008810190505b6127108310611c23576127108381611c1957611c18612925565b5b0492506004810190505b60648310611c465760648381611c3c57611c3b612925565b5b0492506002810190505b600a8310611c55576001810190505b80915050919050565b5f604051905090565b5f80fd5b5f80fd5b5f7fffffffff0000000000000000000000000000000000000000000000000000000082169050919050565b611ca381611c6f565b8114611cad575f80fd5b50565b5f81359050611cbe81611c9a565b92915050565b5f60208284031215611cd957611cd8611c67565b5b5f611ce684828501611cb0565b91505092915050565b5f8115159050919050565b611d0381611cef565b82525050565b5f602082019050611d1c5f830184611cfa565b92915050565b5f81519050919050565b5f82825260208201905092915050565b5f5b83811015611d59578082015181840152602081019050611d3e565b5f8484015250505050565b5f601f19601f8301169050919050565b5f611d7e82611d22565b611d888185611d2c565b9350611d98818560208601611d3c565b611da181611d64565b840191505092915050565b5f6020820190508181035f830152611dc48184611d74565b905092915050565b5f819050919050565b611dde81611dcc565b8114611de8575f80fd5b50565b5f81359050611df981611dd5565b92915050565b5f60208284031215611e1457611e13611c67565b5b5f611e2184828501611deb565b91505092915050565b5f73ffffffffffffffffffffffffffffffffffffffff82169050919050565b5f611e5382611e2a565b9050919050565b611e6381611e49565b82525050565b5f602082019050611e7c5f830184611e5a565b92915050565b611e8b81611e49565b8114611e95575f80fd5b50565b5f81359050611ea681611e82565b92915050565b5f8060408385031215611ec257611ec1611c67565b5b5f611ecf85828601611e98565b9250506020611ee085828601611deb565b9150509250929050565b611ef381611dcc565b82525050565b5f602082019050611f0c5f830184611eea565b92915050565b5f80fd5b5f80fd5b7f4e487b71000000000000000000000000000000000000000000000000000000005f52604160045260245ffd5b611f5082611d64565b810181811067ffffffffffffffff82111715611f6f57611f6e611f1a565b5b80604052505050565b5f611f81611c5e565b9050611f8d8282611f47565b919050565b5f67ffffffffffffffff821115611fac57611fab611f1a565b5b611fb582611d64565b9050602081019050919050565b828183375f83830152505050565b5f611fe2611fdd84611f92565b611f78565b905082815260208101848484011115611ffe57611ffd611f16565b5b612009848285611fc2565b509392505050565b5f82601f83011261202557612024611f12565b5b8135612035848260208601611fd0565b91505092915050565b5f805f6060848603121561205557612054611c67565b5b5f61206286828701611e98565b935050602061207386828701611deb565b925050604084013567ffffffffffffffff81111561209457612093611c6b565b5b6120a086828701612011565b9150509250925092565b5f805f606084860312156120c1576120c0611c67565b5b5f6120ce86828701611e98565b93505060206120df86828701611e98565b92505060406120f086828701611deb565b9150509250925092565b5f6020828403121561210f5761210e611c67565b5b5f82013567ffffffffffffffff81111561212c5761212b611c6b565b5b61213884828501612011565b91505092915050565b5f6020828403121561215657612155611c67565b5b5f61216384828501611e98565b91505092915050565b61217581611cef565b811461217f575f80fd5b50565b5f813590506121908161216c565b92915050565b5f80604083850312156121ac576121ab611c67565b5b5f6121b985828601611e98565b92505060206121ca85828601612182565b9150509250929050565b5f67ffffffffffffffff8211156121ee576121ed611f1a565b5b6121f782611d64565b9050602081019050919050565b5f612216612211846121d4565b611f78565b90508281526020810184848401111561223257612231611f16565b5b61223d848285611fc2565b509392505050565b5f82601f83011261225957612258611f12565b5b8135612269848260208601612204565b91505092915050565b5f805f806080858703121561228a57612289611c67565b5b5f61229787828801611e98565b94505060206122a887828801611e98565b93505060406122b987828801611deb565b925050606085013567ffffffffffffffff8111156122da576122d9611c6b565b5b6122e687828801612245565b91505092959194509250565b5f806040838503121561230857612307611c67565b5b5f61231585828601611e98565b925050602061232685828601611e98565b9150509250929050565b7f4e487b71000000000000000000000000000000000000000000000000000000005f52602260045260245ffd5b5f600282049050600182168061237457607f821691505b60208210810361238757612386612330565b5b50919050565b7f496e73756666696369656e74207061796d656e740000000000000000000000005f82015250565b5f6123c1601483611d2c565b91506123cc8261238d565b602082019050919050565b5f6020820190508181035f8301526123ee816123b5565b9050919050565b5f6060820190506124085f830186611e5a565b6124156020830185611eea565b6124226040830184611e5a565b949350505050565b7f596f7520646f6e2774206f776e2074686973204e4654000000000000000000005f82015250565b5f61245e601683611d2c565b91506124698261242a565b602082019050919050565b5f6020820190508181035f83015261248b81612452565b9050919050565b7f4e46542063616e6e6f74206265206275726e65642079657400000000000000005f82015250565b5f6124c6601883611d2c565b91506124d182612492565b602082019050919050565b5f6020820190508181035f8301526124f3816124ba565b9050919050565b5f819050815f5260205f209050919050565b5f6020601f8301049050919050565b5f82821b905092915050565b5f600883026125567fffffffffffffffffffffffffffffffffffffffffffffffffffffffffffffffff8261251b565b612560868361251b565b95508019841693508086168417925050509392505050565b5f819050919050565b5f61259b61259661259184611dcc565b612578565b611dcc565b9050919050565b5f819050919050565b6125b483612581565b6125c86125c0826125a2565b848454612527565b825550505050565b5f90565b6125dc6125d0565b6125e78184846125ab565b505050565b5b8181101561260a576125ff5f826125d4565b6001810190506125ed565b5050565b601f82111561264f57612620816124fa565b6126298461250c565b81016020851015612638578190505b61264c6126448561250c565b8301826125ec565b50505b505050565b5f82821c905092915050565b5f61266f5f1984600802612654565b1980831691505092915050565b5f6126878383612660565b9150826002028217905092915050565b6126a082611d22565b67ffffffffffffffff8111156126b9576126b8611f1a565b5b6126c3825461235d565b6126ce82828561260e565b5f60209050601f8311600181146126ff575f84156126ed578287015190505b6126f7858261267c565b86555061275e565b601f19841661270d866124fa565b5f5b828110156127345784890151825560018201915060208501945060208101905061270f565b86831015612751578489015161274d601f891682612660565b8355505b6001600288020188555050505b505050505050565b7f4e487b71000000000000000000000000000000000000000000000000000000005f52601160045260245ffd5b5f61279d82611dcc565b91506127a883611dcc565b92508282019050808211156127c0576127bf612766565b5b92915050565b5f81519050919050565b5f82825260208201905092915050565b5f6127ea826127c6565b6127f481856127d0565b9350612804818560208601611d3c565b61280d81611d64565b840191505092915050565b5f60808201905061282b5f830187611e5a565b6128386020830186611e5a565b6128456040830185611eea565b818103606083015261285781846127e0565b905095945050505050565b5f8151905061287081611c9a565b92915050565b5f6020828403121561288b5761288a611c67565b5b5f61289884828501612862565b91505092915050565b5f81905092915050565b5f6128b582611d22565b6128bf81856128a1565b93506128cf818560208601611d3c565b80840191505092915050565b5f6128e682856128ab565b91506128f282846128ab565b91508190509392505050565b5f6040820190506129115f830185611e5a565b61291e6020830184611eea565b9392505050565b7f4e487b71000000000000000000000000000000000000000000000000000000005f52601260045260245ffdfea26469706673582212203c2757cc01f317757597d8471e9860bd495eac826f71672205c0f56266ebd7aa64736f6c6343000814003368747470733a2f2f676174657761792e70696e6174612e636c6f75642f697066732f516d6238684b534b616b4771566b37683837377864797a564a686e6236636d7a666a70566653367843464c714e672f302e6a7067",
					"opcodes": "PUSH1 0x80 PUSH1 0x40 MSTORE PUSH1 0x40 MLOAD DUP1 PUSH1 0x80 ADD PUSH1 0x40 MSTORE DUP1 PUSH1 0x56 DUP2 MSTORE PUSH1 0x20 ADD PUSH3 0x2E5E PUSH1 0x56 SWAP2 CODECOPY PUSH1 0x9 SWAP1 DUP2 PUSH3 0x2E SWAP2 SWAP1 PUSH3 0x36C JUMP JUMPDEST POP CALLVALUE DUP1 ISZERO PUSH3 0x3B JUMPI PUSH0 DUP1 REVERT JUMPDEST POP PUSH1 0x40 MLOAD PUSH3 0x2EB4 CODESIZE SUB DUP1 PUSH3 0x2EB4 DUP4 CODECOPY DUP2 DUP2 ADD PUSH1 0x40 MSTORE DUP2 ADD SWAP1 PUSH3 0x61 SWAP2 SWAP1 PUSH3 0x483 JUMP JUMPDEST PUSH1 0x40 MLOAD DUP1 PUSH1 0x40 ADD PUSH1 0x40 MSTORE DUP1 PUSH1 0x7 DUP2 MSTORE PUSH1 0x20 ADD PUSH32 0x4D79546F6B656E00000000000000000000000000000000000000000000000000 DUP2 MSTORE POP PUSH1 0x40 MLOAD DUP1 PUSH1 0x40 ADD PUSH1 0x40 MSTORE DUP1 PUSH1 0x3 DUP2 MSTORE PUSH1 0x20 ADD PUSH32 0x4D544B0000000000000000000000000000000000000000000000000000000000 DUP2 MSTORE POP DUP2 PUSH0 SWAP1 DUP2 PUSH3 0xDD SWAP2 SWAP1 PUSH3 0x36C JUMP JUMPDEST POP DUP1 PUSH1 0x1 SWAP1 DUP2 PUSH3 0xEF SWAP2 SWAP1 PUSH3 0x36C JUMP JUMPDEST POP POP POP DUP2 PUSH1 0x7 DUP2 SWAP1 SSTORE POP DUP1 PUSH1 0x8 DUP2 SWAP1 SSTORE POP POP POP PUSH3 0x4C8 JUMP JUMPDEST PUSH0 DUP2 MLOAD SWAP1 POP SWAP2 SWAP1 POP JUMP JUMPDEST PUSH32 0x4E487B7100000000000000000000000000000000000000000000000000000000 PUSH0 MSTORE PUSH1 0x41 PUSH1 0x4 MSTORE PUSH1 0x24 PUSH0 REVERT JUMPDEST PUSH32 0x4E487B7100000000000000000000000000000000000000000000000000000000 PUSH0 MSTORE PUSH1 0x22 PUSH1 0x4 MSTORE PUSH1 0x24 PUSH0 REVERT JUMPDEST PUSH0 PUSH1 0x2 DUP3 DIV SWAP1 POP PUSH1 0x1 DUP3 AND DUP1 PUSH3 0x184 JUMPI PUSH1 0x7F DUP3 AND SWAP2 POP JUMPDEST PUSH1 0x20 DUP3 LT DUP2 SUB PUSH3 0x19A JUMPI PUSH3 0x199 PUSH3 0x13F JUMP JUMPDEST JUMPDEST POP SWAP2 SWAP1 POP JUMP JUMPDEST PUSH0 DUP2 SWAP1 POP DUP2 PUSH0 MSTORE PUSH1 0x20 PUSH0 KECCAK256 SWAP1 POP SWAP2 SWAP1 POP JUMP JUMPDEST PUSH0 PUSH1 0x20 PUSH1 0x1F DUP4 ADD DIV SWAP1 POP SWAP2 SWAP1 POP JUMP JUMPDEST PUSH0 DUP3 DUP3 SHL SWAP1 POP SWAP3 SWAP2 POP POP JUMP JUMPDEST PUSH0 PUSH1 0x8 DUP4 MUL PUSH3 0x1FE PUSH32 0xFFFFFFFFFFFFFFFFFFFFFFFFFFFFFFFFFFFFFFFFFFFFFFFFFFFFFFFFFFFFFFFF DUP3 PUSH3 0x1C1 JUMP JUMPDEST PUSH3 0x20A DUP7 DUP4 PUSH3 0x1C1 JUMP JUMPDEST SWAP6 POP DUP1 NOT DUP5 AND SWAP4 POP DUP1 DUP7 AND DUP5 OR SWAP3 POP POP POP SWAP4 SWAP3 POP POP POP JUMP JUMPDEST PUSH0 DUP2 SWAP1 POP SWAP2 SWAP1 POP JUMP JUMPDEST PUSH0 DUP2 SWAP1 POP SWAP2 SWAP1 POP JUMP JUMPDEST PUSH0 PUSH3 0x254 PUSH3 0x24E PUSH3 0x248 DUP5 PUSH3 0x222 JUMP JUMPDEST PUSH3 0x22B JUMP JUMPDEST PUSH3 0x222 JUMP JUMPDEST SWAP1 POP SWAP2 SWAP1 POP JUMP JUMPDEST PUSH0 DUP2 SWAP1 POP SWAP2 SWAP1 POP JUMP JUMPDEST PUSH3 0x26F DUP4 PUSH3 0x234 JUMP JUMPDEST PUSH3 0x287 PUSH3 0x27E DUP3 PUSH3 0x25B JUMP JUMPDEST DUP5 DUP5 SLOAD PUSH3 0x1CD JUMP JUMPDEST DUP3 SSTORE POP POP POP POP JUMP JUMPDEST PUSH0 SWAP1 JUMP JUMPDEST PUSH3 0x29D PUSH3 0x28F JUMP JUMPDEST PUSH3 0x2AA DUP2 DUP5 DUP5 PUSH3 0x264 JUMP JUMPDEST POP POP POP JUMP JUMPDEST JUMPDEST DUP2 DUP2 LT ISZERO PUSH3 0x2D1 JUMPI PUSH3 0x2C5 PUSH0 DUP3 PUSH3 0x293 JUMP JUMPDEST PUSH1 0x1 DUP2 ADD SWAP1 POP PUSH3 0x2B0 JUMP JUMPDEST POP POP JUMP JUMPDEST PUSH1 0x1F DUP3 GT ISZERO PUSH3 0x320 JUMPI PUSH3 0x2EA DUP2 PUSH3 0x1A0 JUMP JUMPDEST PUSH3 0x2F5 DUP5 PUSH3 0x1B2 JUMP JUMPDEST DUP2 ADD PUSH1 0x20 DUP6 LT ISZERO PUSH3 0x305 JUMPI DUP2 SWAP1 POP JUMPDEST PUSH3 0x31D PUSH3 0x314 DUP6 PUSH3 0x1B2 JUMP JUMPDEST DUP4 ADD DUP3 PUSH3 0x2AF JUMP JUMPDEST POP POP JUMPDEST POP POP POP JUMP JUMPDEST PUSH0 DUP3 DUP3 SHR SWAP1 POP SWAP3 SWAP2 POP POP JUMP JUMPDEST PUSH0 PUSH3 0x342 PUSH0 NOT DUP5 PUSH1 0x8 MUL PUSH3 0x325 JUMP JUMPDEST NOT DUP1 DUP4 AND SWAP2 POP POP SWAP3 SWAP2 POP POP JUMP JUMPDEST PUSH0 PUSH3 0x35C DUP4 DUP4 PUSH3 0x331 JUMP JUMPDEST SWAP2 POP DUP3 PUSH1 0x2 MUL DUP3 OR SWAP1 POP SWAP3 SWAP2 POP POP JUMP JUMPDEST PUSH3 0x377 DUP3 PUSH3 0x108 JUMP JUMPDEST PUSH8 0xFFFFFFFFFFFFFFFF DUP2 GT ISZERO PUSH3 0x393 JUMPI PUSH3 0x392 PUSH3 0x112 JUMP JUMPDEST JUMPDEST PUSH3 0x39F DUP3 SLOAD PUSH3 0x16C JUMP JUMPDEST PUSH3 0x3AC DUP3 DUP3 DUP6 PUSH3 0x2D5 JUMP JUMPDEST PUSH0 PUSH1 0x20 SWAP1 POP PUSH1 0x1F DUP4 GT PUSH1 0x1 DUP2 EQ PUSH3 0x3E2 JUMPI PUSH0 DUP5 ISZERO PUSH3 0x3CD JUMPI DUP3 DUP8 ADD MLOAD SWAP1 POP JUMPDEST PUSH3 0x3D9 DUP6 DUP3 PUSH3 0x34F JUMP JUMPDEST DUP7 SSTORE POP PUSH3 0x448 JUMP JUMPDEST PUSH1 0x1F NOT DUP5 AND PUSH3 0x3F2 DUP7 PUSH3 0x1A0 JUMP JUMPDEST PUSH0 JUMPDEST DUP3 DUP2 LT ISZERO PUSH3 0x41B JUMPI DUP5 DUP10 ADD MLOAD DUP3 SSTORE PUSH1 0x1 DUP3 ADD SWAP2 POP PUSH1 0x20 DUP6 ADD SWAP5 POP PUSH1 0x20 DUP2 ADD SWAP1 POP PUSH3 0x3F4 JUMP JUMPDEST DUP7 DUP4 LT ISZERO PUSH3 0x43B JUMPI DUP5 DUP10 ADD MLOAD PUSH3 0x437 PUSH1 0x1F DUP10 AND DUP3 PUSH3 0x331 JUMP JUMPDEST DUP4 SSTORE POP JUMPDEST PUSH1 0x1 PUSH1 0x2 DUP9 MUL ADD DUP9 SSTORE POP POP POP JUMPDEST POP POP POP POP POP POP JUMP JUMPDEST PUSH0 DUP1 REVERT JUMPDEST PUSH3 0x45F DUP2 PUSH3 0x222 JUMP JUMPDEST DUP2 EQ PUSH3 0x46A JUMPI PUSH0 DUP1 REVERT JUMPDEST POP JUMP JUMPDEST PUSH0 DUP2 MLOAD SWAP1 POP PUSH3 0x47D DUP2 PUSH3 0x454 JUMP JUMPDEST SWAP3 SWAP2 POP POP JUMP JUMPDEST PUSH0 DUP1 PUSH1 0x40 DUP4 DUP6 SUB SLT ISZERO PUSH3 0x49C JUMPI PUSH3 0x49B PUSH3 0x450 JUMP JUMPDEST JUMPDEST PUSH0 PUSH3 0x4AB DUP6 DUP3 DUP7 ADD PUSH3 0x46D JUMP JUMPDEST SWAP3 POP POP PUSH1 0x20 PUSH3 0x4BE DUP6 DUP3 DUP7 ADD PUSH3 0x46D JUMP JUMPDEST SWAP2 POP POP SWAP3 POP SWAP3 SWAP1 POP JUMP JUMPDEST PUSH2 0x2988 DUP1 PUSH3 0x4D6 PUSH0 CODECOPY PUSH0 RETURN INVALID PUSH1 0x80 PUSH1 0x40 MSTORE PUSH1 0x4 CALLDATASIZE LT PUSH2 0x134 JUMPI PUSH0 CALLDATALOAD PUSH1 0xE0 SHR DUP1 PUSH4 0x474EBDEA GT PUSH2 0xAA JUMPI DUP1 PUSH4 0x994DDDCD GT PUSH2 0x6E JUMPI DUP1 PUSH4 0x994DDDCD EQ PUSH2 0x404 JUMPI DUP1 PUSH4 0xA22CB465 EQ PUSH2 0x42E JUMPI DUP1 PUSH4 0xB88D4FDE EQ PUSH2 0x456 JUMPI DUP1 PUSH4 0xC87B56DD EQ PUSH2 0x47E JUMPI DUP1 PUSH4 0xE985E9C5 EQ PUSH2 0x4BA JUMPI DUP1 PUSH4 0xEDDD0D9C EQ PUSH2 0x4F6 JUMPI PUSH2 0x134 JUMP JUMPDEST DUP1 PUSH4 0x474EBDEA EQ PUSH2 0x310 JUMPI DUP1 PUSH4 0x6352211E EQ PUSH2 0x338 JUMPI DUP1 PUSH4 0x65870789 EQ PUSH2 0x374 JUMPI DUP1 PUSH4 0x70A08231 EQ PUSH2 0x39E JUMPI DUP1 PUSH4 0x95D89B41 EQ PUSH2 0x3DA JUMPI PUSH2 0x134 JUMP JUMPDEST DUP1 PUSH4 0x1E576912 GT PUSH2 0xFC JUMPI DUP1 PUSH4 0x1E576912 EQ PUSH2 0x22C JUMPI DUP1 PUSH4 0x23B872DD EQ PUSH2 0x248 JUMPI DUP1 PUSH4 0x2890E0D7 EQ PUSH2 0x270 JUMPI DUP1 PUSH4 0x30959643 EQ PUSH2 0x298 JUMPI DUP1 PUSH4 0x42842E0E EQ PUSH2 0x2C0 JUMPI DUP1 PUSH4 0x42966C68 EQ PUSH2 0x2E8 JUMPI PUSH2 0x134 JUMP JUMPDEST DUP1 PUSH4 0x1FFC9A7 EQ PUSH2 0x138 JUMPI DUP1 PUSH4 0x6FDDE03 EQ PUSH2 0x174 JUMPI DUP1 PUSH4 0x81812FC EQ PUSH2 0x19E JUMPI DUP1 PUSH4 0x95EA7B3 EQ PUSH2 0x1DA JUMPI DUP1 PUSH4 0x13966DB5 EQ PUSH2 0x202 JUMPI JUMPDEST PUSH0 DUP1 REVERT JUMPDEST CALLVALUE DUP1 ISZERO PUSH2 0x143 JUMPI PUSH0 DUP1 REVERT JUMPDEST POP PUSH2 0x15E PUSH1 0x4 DUP1 CALLDATASIZE SUB DUP2 ADD SWAP1 PUSH2 0x159 SWAP2 SWAP1 PUSH2 0x1CC4 JUMP JUMPDEST PUSH2 0x51E JUMP JUMPDEST PUSH1 0x40 MLOAD PUSH2 0x16B SWAP2 SWAP1 PUSH2 0x1D09 JUMP JUMPDEST PUSH1 0x40 MLOAD DUP1 SWAP2 SUB SWAP1 RETURN JUMPDEST CALLVALUE DUP1 ISZERO PUSH2 0x17F JUMPI PUSH0 DUP1 REVERT JUMPDEST POP PUSH2 0x188 PUSH2 0x52F JUMP JUMPDEST PUSH1 0x40 MLOAD PUSH2 0x195 SWAP2 SWAP1 PUSH2 0x1DAC JUMP JUMPDEST PUSH1 0x40 MLOAD DUP1 SWAP2 SUB SWAP1 RETURN JUMPDEST CALLVALUE DUP1 ISZERO PUSH2 0x1A9 JUMPI PUSH0 DUP1 REVERT JUMPDEST POP PUSH2 0x1C4 PUSH1 0x4 DUP1 CALLDATASIZE SUB DUP2 ADD SWAP1 PUSH2 0x1BF SWAP2 SWAP1 PUSH2 0x1DFF JUMP JUMPDEST PUSH2 0x5BE JUMP JUMPDEST PUSH1 0x40 MLOAD PUSH2 0x1D1 SWAP2 SWAP1 PUSH2 0x1E69 JUMP JUMPDEST PUSH1 0x40 MLOAD DUP1 SWAP2 SUB SWAP1 RETURN JUMPDEST CALLVALUE DUP1 ISZERO PUSH2 0x1E5 JUMPI PUSH0 DUP1 REVERT JUMPDEST POP PUSH2 0x200 PUSH1 0x4 DUP1 CALLDATASIZE SUB DUP2 ADD SWAP1 PUSH2 0x1FB SWAP2 SWAP1 PUSH2 0x1EAC JUMP JUMPDEST PUSH2 0x5D9 JUMP JUMPDEST STOP JUMPDEST CALLVALUE DUP1 ISZERO PUSH2 0x20D JUMPI PUSH0 DUP1 REVERT JUMPDEST POP PUSH2 0x216 PUSH2 0x5EF JUMP JUMPDEST PUSH1 0x40 MLOAD PUSH2 0x223 SWAP2 SWAP1 PUSH2 0x1EF9 JUMP JUMPDEST PUSH1 0x40 MLOAD DUP1 SWAP2 SUB SWAP1 RETURN JUMPDEST PUSH2 0x246 PUSH1 0x4 DUP1 CALLDATASIZE SUB DUP2 ADD SWAP1 PUSH2 0x241 SWAP2 SWAP1 PUSH2 0x203E JUMP JUMPDEST PUSH2 0x5F5 JUMP JUMPDEST STOP JUMPDEST CALLVALUE DUP1 ISZERO PUSH2 0x253 JUMPI PUSH0 DUP1 REVERT JUMPDEST POP PUSH2 0x26E PUSH1 0x4 DUP1 CALLDATASIZE SUB DUP2 ADD SWAP1 PUSH2 0x269 SWAP2 SWAP1 PUSH2 0x20AA JUMP JUMPDEST PUSH2 0x65D JUMP JUMPDEST STOP JUMPDEST CALLVALUE DUP1 ISZERO PUSH2 0x27B JUMPI PUSH0 DUP1 REVERT JUMPDEST POP PUSH2 0x296 PUSH1 0x4 DUP1 CALLDATASIZE SUB DUP2 ADD SWAP1 PUSH2 0x291 SWAP2 SWAP1 PUSH2 0x1DFF JUMP JUMPDEST PUSH2 0x75C JUMP JUMPDEST STOP JUMPDEST CALLVALUE DUP1 ISZERO PUSH2 0x2A3 JUMPI PUSH0 DUP1 REVERT JUMPDEST POP PUSH2 0x2BE PUSH1 0x4 DUP1 CALLDATASIZE SUB DUP2 ADD SWAP1 PUSH2 0x2B9 SWAP2 SWAP1 PUSH2 0x1DFF JUMP JUMPDEST PUSH2 0x84E JUMP JUMPDEST STOP JUMPDEST CALLVALUE DUP1 ISZERO PUSH2 0x2CB JUMPI PUSH0 DUP1 REVERT JUMPDEST POP PUSH2 0x2E6 PUSH1 0x4 DUP1 CALLDATASIZE SUB DUP2 ADD SWAP1 PUSH2 0x2E1 SWAP2 SWAP1 PUSH2 0x20AA JUMP JUMPDEST PUSH2 0x858 JUMP JUMPDEST STOP JUMPDEST CALLVALUE DUP1 ISZERO PUSH2 0x2F3 JUMPI PUSH0 DUP1 REVERT JUMPDEST POP PUSH2 0x30E PUSH1 0x4 DUP1 CALLDATASIZE SUB DUP2 ADD SWAP1 PUSH2 0x309 SWAP2 SWAP1 PUSH2 0x1DFF JUMP JUMPDEST PUSH2 0x877 JUMP JUMPDEST STOP JUMPDEST CALLVALUE DUP1 ISZERO PUSH2 0x31B JUMPI PUSH0 DUP1 REVERT JUMPDEST POP PUSH2 0x336 PUSH1 0x4 DUP1 CALLDATASIZE SUB DUP2 ADD SWAP1 PUSH2 0x331 SWAP2 SWAP1 PUSH2 0x20FA JUMP JUMPDEST PUSH2 0x88D JUMP JUMPDEST STOP JUMPDEST CALLVALUE DUP1 ISZERO PUSH2 0x343 JUMPI PUSH0 DUP1 REVERT JUMPDEST POP PUSH2 0x35E PUSH1 0x4 DUP1 CALLDATASIZE SUB DUP2 ADD SWAP1 PUSH2 0x359 SWAP2 SWAP1 PUSH2 0x1DFF JUMP JUMPDEST PUSH2 0x8A0 JUMP JUMPDEST PUSH1 0x40 MLOAD PUSH2 0x36B SWAP2 SWAP1 PUSH2 0x1E69 JUMP JUMPDEST PUSH1 0x40 MLOAD DUP1 SWAP2 SUB SWAP1 RETURN JUMPDEST CALLVALUE DUP1 ISZERO PUSH2 0x37F JUMPI PUSH0 DUP1 REVERT JUMPDEST POP PUSH2 0x388 PUSH2 0x8B1 JUMP JUMPDEST PUSH1 0x40 MLOAD PUSH2 0x395 SWAP2 SWAP1 PUSH2 0x1DAC JUMP JUMPDEST PUSH1 0x40 MLOAD DUP1 SWAP2 SUB SWAP1 RETURN JUMPDEST CALLVALUE DUP1 ISZERO PUSH2 0x3A9 JUMPI PUSH0 DUP1 REVERT JUMPDEST POP PUSH2 0x3C4 PUSH1 0x4 DUP1 CALLDATASIZE SUB DUP2 ADD SWAP1 PUSH2 0x3BF SWAP2 SWAP1 PUSH2 0x2141 JUMP JUMPDEST PUSH2 0x93D JUMP JUMPDEST PUSH1 0x40 MLOAD PUSH2 0x3D1 SWAP2 SWAP1 PUSH2 0x1EF9 JUMP JUMPDEST PUSH1 0x40 MLOAD DUP1 SWAP2 SUB SWAP1 RETURN JUMPDEST CALLVALUE DUP1 ISZERO PUSH2 0x3E5 JUMPI PUSH0 DUP1 REVERT JUMPDEST POP PUSH2 0x3EE PUSH2 0x9F3 JUMP JUMPDEST PUSH1 0x40 MLOAD PUSH2 0x3FB SWAP2 SWAP1 PUSH2 0x1DAC JUMP JUMPDEST PUSH1 0x40 MLOAD DUP1 SWAP2 SUB SWAP1 RETURN JUMPDEST CALLVALUE DUP1 ISZERO PUSH2 0x40F JUMPI PUSH0 DUP1 REVERT JUMPDEST POP PUSH2 0x418 PUSH2 0xA83 JUMP JUMPDEST PUSH1 0x40 MLOAD PUSH2 0x425 SWAP2 SWAP1 PUSH2 0x1EF9 JUMP JUMPDEST PUSH1 0x40 MLOAD DUP1 SWAP2 SUB SWAP1 RETURN JUMPDEST CALLVALUE DUP1 ISZERO PUSH2 0x439 JUMPI PUSH0 DUP1 REVERT JUMPDEST POP PUSH2 0x454 PUSH1 0x4 DUP1 CALLDATASIZE SUB DUP2 ADD SWAP1 PUSH2 0x44F SWAP2 SWAP1 PUSH2 0x2196 JUMP JUMPDEST PUSH2 0xA89 JUMP JUMPDEST STOP JUMPDEST CALLVALUE DUP1 ISZERO PUSH2 0x461 JUMPI PUSH0 DUP1 REVERT JUMPDEST POP PUSH2 0x47C PUSH1 0x4 DUP1 CALLDATASIZE SUB DUP2 ADD SWAP1 PUSH2 0x477 SWAP2 SWAP1 PUSH2 0x2272 JUMP JUMPDEST PUSH2 0xA9F JUMP JUMPDEST STOP JUMPDEST CALLVALUE DUP1 ISZERO PUSH2 0x489 JUMPI PUSH0 DUP1 REVERT JUMPDEST POP PUSH2 0x4A4 PUSH1 0x4 DUP1 CALLDATASIZE SUB DUP2 ADD SWAP1 PUSH2 0x49F SWAP2 SWAP1 PUSH2 0x1DFF JUMP JUMPDEST PUSH2 0xABC JUMP JUMPDEST PUSH1 0x40 MLOAD PUSH2 0x4B1 SWAP2 SWAP1 PUSH2 0x1DAC JUMP JUMPDEST PUSH1 0x40 MLOAD DUP1 SWAP2 SUB SWAP1 RETURN JUMPDEST CALLVALUE DUP1 ISZERO PUSH2 0x4C5 JUMPI PUSH0 DUP1 REVERT JUMPDEST POP PUSH2 0x4E0 PUSH1 0x4 DUP1 CALLDATASIZE SUB DUP2 ADD SWAP1 PUSH2 0x4DB SWAP2 SWAP1 PUSH2 0x22F2 JUMP JUMPDEST PUSH2 0xACE JUMP JUMPDEST PUSH1 0x40 MLOAD PUSH2 0x4ED SWAP2 SWAP1 PUSH2 0x1D09 JUMP JUMPDEST PUSH1 0x40 MLOAD DUP1 SWAP2 SUB SWAP1 RETURN JUMPDEST CALLVALUE DUP1 ISZERO PUSH2 0x501 JUMPI PUSH0 DUP1 REVERT JUMPDEST POP PUSH2 0x51C PUSH1 0x4 DUP1 CALLDATASIZE SUB DUP2 ADD SWAP1 PUSH2 0x517 SWAP2 SWAP1 PUSH2 0x1DFF JUMP JUMPDEST PUSH2 0xB5C JUMP JUMPDEST STOP JUMPDEST PUSH0 PUSH2 0x528 DUP3 PUSH2 0xB66 JUMP JUMPDEST SWAP1 POP SWAP2 SWAP1 POP JUMP JUMPDEST PUSH1 0x60 PUSH0 DUP1 SLOAD PUSH2 0x53D SWAP1 PUSH2 0x235D JUMP JUMPDEST DUP1 PUSH1 0x1F ADD PUSH1 0x20 DUP1 SWAP2 DIV MUL PUSH1 0x20 ADD PUSH1 0x40 MLOAD SWAP1 DUP2 ADD PUSH1 0x40 MSTORE DUP1 SWAP3 SWAP2 SWAP1 DUP2 DUP2 MSTORE PUSH1 0x20 ADD DUP3 DUP1 SLOAD PUSH2 0x569 SWAP1 PUSH2 0x235D JUMP JUMPDEST DUP1 ISZERO PUSH2 0x5B4 JUMPI DUP1 PUSH1 0x1F LT PUSH2 0x58B JUMPI PUSH2 0x100 DUP1 DUP4 SLOAD DIV MUL DUP4 MSTORE SWAP2 PUSH1 0x20 ADD SWAP2 PUSH2 0x5B4 JUMP JUMPDEST DUP3 ADD SWAP2 SWAP1 PUSH0 MSTORE PUSH1 0x20 PUSH0 KECCAK256 SWAP1 JUMPDEST DUP2 SLOAD DUP2 MSTORE SWAP1 PUSH1 0x1 ADD SWAP1 PUSH1 0x20 ADD DUP1 DUP4 GT PUSH2 0x597 JUMPI DUP3 SWAP1 SUB PUSH1 0x1F AND DUP3 ADD SWAP2 JUMPDEST POP POP POP POP POP SWAP1 POP SWAP1 JUMP JUMPDEST PUSH0 PUSH2 0x5C8 DUP3 PUSH2 0xBC6 JUMP JUMPDEST POP PUSH2 0x5D2 DUP3 PUSH2 0xC4C JUMP JUMPDEST SWAP1 POP SWAP2 SWAP1 POP JUMP JUMPDEST PUSH2 0x5EB DUP3 DUP3 PUSH2 0x5E6 PUSH2 0xC85 JUMP JUMPDEST PUSH2 0xC8C JUMP JUMPDEST POP POP JUMP JUMPDEST PUSH1 0x7 SLOAD DUP2 JUMP JUMPDEST PUSH1 0x7 SLOAD CALLVALUE LT ISZERO PUSH2 0x63A JUMPI PUSH1 0x40 MLOAD PUSH32 0x8C379A000000000000000000000000000000000000000000000000000000000 DUP2 MSTORE PUSH1 0x4 ADD PUSH2 0x631 SWAP1 PUSH2 0x23D7 JUMP JUMPDEST PUSH1 0x40 MLOAD DUP1 SWAP2 SUB SWAP1 REVERT JUMPDEST PUSH2 0x644 DUP4 DUP4 PUSH2 0xC9E JUMP JUMPDEST PUSH2 0x64E DUP3 DUP3 PUSH2 0xCBB JUMP JUMPDEST PUSH2 0x658 DUP4 DUP4 PUSH2 0xD15 JUMP JUMPDEST POP POP POP JUMP JUMPDEST PUSH0 PUSH20 0xFFFFFFFFFFFFFFFFFFFFFFFFFFFFFFFFFFFFFFFF AND DUP3 PUSH20 0xFFFFFFFFFFFFFFFFFFFFFFFFFFFFFFFFFFFFFFFF AND SUB PUSH2 0x6CD JUMPI PUSH0 PUSH1 0x40 MLOAD PUSH32 0x64A0AE9200000000000000000000000000000000000000000000000000000000 DUP2 MSTORE PUSH1 0x4 ADD PUSH2 0x6C4 SWAP2 SWAP1 PUSH2 0x1E69 JUMP JUMPDEST PUSH1 0x40 MLOAD DUP1 SWAP2 SUB SWAP1 REVERT JUMPDEST PUSH0 PUSH2 0x6E0 DUP4 DUP4 PUSH2 0x6DB PUSH2 0xC85 JUMP JUMPDEST PUSH2 0xD41 JUMP JUMPDEST SWAP1 POP DUP4 PUSH20 0xFFFFFFFFFFFFFFFFFFFFFFFFFFFFFFFFFFFFFFFF AND DUP2 PUSH20 0xFFFFFFFFFFFFFFFFFFFFFFFFFFFFFFFFFFFFFFFF AND EQ PUSH2 0x756 JUMPI DUP4 DUP3 DUP3 PUSH1 0x40 MLOAD PUSH32 0x64283D7B00000000000000000000000000000000000000000000000000000000 DUP2 MSTORE PUSH1 0x4 ADD PUSH2 0x74D SWAP4 SWAP3 SWAP2 SWAP1 PUSH2 0x23F5 JUMP JUMPDEST PUSH1 0x40 MLOAD DUP1 SWAP2 SUB SWAP1 REVERT JUMPDEST POP POP POP POP JUMP JUMPDEST CALLER PUSH20 0xFFFFFFFFFFFFFFFFFFFFFFFFFFFFFFFFFFFFFFFF AND PUSH2 0x77C DUP3 PUSH2 0x8A0 JUMP JUMPDEST PUSH20 0xFFFFFFFFFFFFFFFFFFFFFFFFFFFFFFFFFFFFFFFF AND EQ PUSH2 0x7D2 JUMPI PUSH1 0x40 MLOAD PUSH32 0x8C379A000000000000000000000000000000000000000000000000000000000 DUP2 MSTORE PUSH1 0x4 ADD PUSH2 0x7C9 SWAP1 PUSH2 0x2474 JUMP JUMPDEST PUSH1 0x40 MLOAD DUP1 SWAP2 SUB SWAP1 REVERT JUMPDEST PUSH0 PUSH1 0xA PUSH0 DUP4 DUP2 MSTORE PUSH1 0x20 ADD SWAP1 DUP2 MSTORE PUSH1 0x20 ADD PUSH0 KECCAK256 SLOAD EQ ISZERO DUP1 ISZERO PUSH2 0x803 JUMPI POP TIMESTAMP PUSH1 0xA PUSH0 DUP4 DUP2 MSTORE PUSH1 0x20 ADD SWAP1 DUP2 MSTORE PUSH1 0x20 ADD PUSH0 KECCAK256 SLOAD LT JUMPDEST PUSH2 0x842 JUMPI PUSH1 0x40 MLOAD PUSH32 0x8C379A000000000000000000000000000000000000000000000000000000000 DUP2 MSTORE PUSH1 0x4 ADD PUSH2 0x839 SWAP1 PUSH2 0x24DC JUMP JUMPDEST PUSH1 0x40 MLOAD DUP1 SWAP2 SUB SWAP1 REVERT JUMPDEST PUSH2 0x84B DUP2 PUSH2 0xF4C JUMP JUMPDEST POP JUMP JUMPDEST DUP1 PUSH1 0x8 DUP2 SWAP1 SSTORE POP POP JUMP JUMPDEST PUSH2 0x872 DUP4 DUP4 DUP4 PUSH1 0x40 MLOAD DUP1 PUSH1 0x20 ADD PUSH1 0x40 MSTORE DUP1 PUSH0 DUP2 MSTORE POP PUSH2 0xA9F JUMP JUMPDEST POP POP POP JUMP JUMPDEST PUSH2 0x889 PUSH0 DUP3 PUSH2 0x884 PUSH2 0xC85 JUMP JUMPDEST PUSH2 0xD41 JUMP JUMPDEST POP POP JUMP JUMPDEST DUP1 PUSH1 0x9 SWAP1 DUP2 PUSH2 0x89C SWAP2 SWAP1 PUSH2 0x2697 JUMP JUMPDEST POP POP JUMP JUMPDEST PUSH0 PUSH2 0x8AA DUP3 PUSH2 0xBC6 JUMP JUMPDEST SWAP1 POP SWAP2 SWAP1 POP JUMP JUMPDEST PUSH1 0x9 DUP1 SLOAD PUSH2 0x8BE SWAP1 PUSH2 0x235D JUMP JUMPDEST DUP1 PUSH1 0x1F ADD PUSH1 0x20 DUP1 SWAP2 DIV MUL PUSH1 0x20 ADD PUSH1 0x40 MLOAD SWAP1 DUP2 ADD PUSH1 0x40 MSTORE DUP1 SWAP3 SWAP2 SWAP1 DUP2 DUP2 MSTORE PUSH1 0x20 ADD DUP3 DUP1 SLOAD PUSH2 0x8EA SWAP1 PUSH2 0x235D JUMP JUMPDEST DUP1 ISZERO PUSH2 0x935 JUMPI DUP1 PUSH1 0x1F LT PUSH2 0x90C JUMPI PUSH2 0x100 DUP1 DUP4 SLOAD DIV MUL DUP4 MSTORE SWAP2 PUSH1 0x20 ADD SWAP2 PUSH2 0x935 JUMP JUMPDEST DUP3 ADD SWAP2 SWAP1 PUSH0 MSTORE PUSH1 0x20 PUSH0 KECCAK256 SWAP1 JUMPDEST DUP2 SLOAD DUP2 MSTORE SWAP1 PUSH1 0x1 ADD SWAP1 PUSH1 0x20 ADD DUP1 DUP4 GT PUSH2 0x918 JUMPI DUP3 SWAP1 SUB PUSH1 0x1F AND DUP3 ADD SWAP2 JUMPDEST POP POP POP POP POP DUP2 JUMP JUMPDEST PUSH0 DUP1 PUSH20 0xFFFFFFFFFFFFFFFFFFFFFFFFFFFFFFFFFFFFFFFF AND DUP3 PUSH20 0xFFFFFFFFFFFFFFFFFFFFFFFFFFFFFFFFFFFFFFFF AND SUB PUSH2 0x9AE JUMPI PUSH0 PUSH1 0x40 MLOAD PUSH32 0x89C62B6400000000000000000000000000000000000000000000000000000000 DUP2 MSTORE PUSH1 0x4 ADD PUSH2 0x9A5 SWAP2 SWAP1 PUSH2 0x1E69 JUMP JUMPDEST PUSH1 0x40 MLOAD DUP1 SWAP2 SUB SWAP1 REVERT JUMPDEST PUSH1 0x3 PUSH0 DUP4 PUSH20 0xFFFFFFFFFFFFFFFFFFFFFFFFFFFFFFFFFFFFFFFF AND PUSH20 0xFFFFFFFFFFFFFFFFFFFFFFFFFFFFFFFFFFFFFFFF AND DUP2 MSTORE PUSH1 0x20 ADD SWAP1 DUP2 MSTORE PUSH1 0x20 ADD PUSH0 KECCAK256 SLOAD SWAP1 POP SWAP2 SWAP1 POP JUMP JUMPDEST PUSH1 0x60 PUSH1 0x1 DUP1 SLOAD PUSH2 0xA02 SWAP1 PUSH2 0x235D JUMP JUMPDEST DUP1 PUSH1 0x1F ADD PUSH1 0x20 DUP1 SWAP2 DIV MUL PUSH1 0x20 ADD PUSH1 0x40 MLOAD SWAP1 DUP2 ADD PUSH1 0x40 MSTORE DUP1 SWAP3 SWAP2 SWAP1 DUP2 DUP2 MSTORE PUSH1 0x20 ADD DUP3 DUP1 SLOAD PUSH2 0xA2E SWAP1 PUSH2 0x235D JUMP JUMPDEST DUP1 ISZERO PUSH2 0xA79 JUMPI DUP1 PUSH1 0x1F LT PUSH2 0xA50 JUMPI PUSH2 0x100 DUP1 DUP4 SLOAD DIV MUL DUP4 MSTORE SWAP2 PUSH1 0x20 ADD SWAP2 PUSH2 0xA79 JUMP JUMPDEST DUP3 ADD SWAP2 SWAP1 PUSH0 MSTORE PUSH1 0x20 PUSH0 KECCAK256 SWAP1 JUMPDEST DUP2 SLOAD DUP2 MSTORE SWAP1 PUSH1 0x1 ADD SWAP1 PUSH1 0x20 ADD DUP1 DUP4 GT PUSH2 0xA5C JUMPI DUP3 SWAP1 SUB PUSH1 0x1F AND DUP3 ADD SWAP2 JUMPDEST POP POP POP POP POP SWAP1 POP SWAP1 JUMP JUMPDEST PUSH1 0x8 SLOAD DUP2 JUMP JUMPDEST PUSH2 0xA9B PUSH2 0xA94 PUSH2 0xC85 JUMP JUMPDEST DUP4 DUP4 PUSH2 0xFCE JUMP JUMPDEST POP POP JUMP JUMPDEST PUSH2 0xAAA DUP5 DUP5 DUP5 PUSH2 0x65D JUMP JUMPDEST PUSH2 0xAB6 DUP5 DUP5 DUP5 DUP5 PUSH2 0x1137 JUMP JUMPDEST POP POP POP POP JUMP JUMPDEST PUSH1 0x60 PUSH2 0xAC7 DUP3 PUSH2 0x12E9 JUMP JUMPDEST SWAP1 POP SWAP2 SWAP1 POP JUMP JUMPDEST PUSH0 PUSH1 0x5 PUSH0 DUP5 PUSH20 0xFFFFFFFFFFFFFFFFFFFFFFFFFFFFFFFFFFFFFFFF AND PUSH20 0xFFFFFFFFFFFFFFFFFFFFFFFFFFFFFFFFFFFFFFFF AND DUP2 MSTORE PUSH1 0x20 ADD SWAP1 DUP2 MSTORE PUSH1 0x20 ADD PUSH0 KECCAK256 PUSH0 DUP4 PUSH20 0xFFFFFFFFFFFFFFFFFFFFFFFFFFFFFFFFFFFFFFFF AND PUSH20 0xFFFFFFFFFFFFFFFFFFFFFFFFFFFFFFFFFFFFFFFF AND DUP2 MSTORE PUSH1 0x20 ADD SWAP1 DUP2 MSTORE PUSH1 0x20 ADD PUSH0 KECCAK256 PUSH0 SWAP1 SLOAD SWAP1 PUSH2 0x100 EXP SWAP1 DIV PUSH1 0xFF AND SWAP1 POP SWAP3 SWAP2 POP POP JUMP JUMPDEST DUP1 PUSH1 0x7 DUP2 SWAP1 SSTORE POP POP JUMP JUMPDEST PUSH0 PUSH4 0x49064906 PUSH1 0xE0 SHL PUSH28 0xFFFFFFFFFFFFFFFFFFFFFFFFFFFFFFFFFFFFFFFFFFFFFFFFFFFFFFFF NOT AND DUP3 PUSH28 0xFFFFFFFFFFFFFFFFFFFFFFFFFFFFFFFFFFFFFFFFFFFFFFFFFFFFFFFF NOT AND EQ DUP1 PUSH2 0xBBF JUMPI POP PUSH2 0xBBE DUP3 PUSH2 0x13F4 JUMP JUMPDEST JUMPDEST SWAP1 POP SWAP2 SWAP1 POP JUMP JUMPDEST PUSH0 DUP1 PUSH2 0xBD1 DUP4 PUSH2 0x14D5 JUMP JUMPDEST SWAP1 POP PUSH0 PUSH20 0xFFFFFFFFFFFFFFFFFFFFFFFFFFFFFFFFFFFFFFFF AND DUP2 PUSH20 0xFFFFFFFFFFFFFFFFFFFFFFFFFFFFFFFFFFFFFFFF AND SUB PUSH2 0xC43 JUMPI DUP3 PUSH1 0x40 MLOAD PUSH32 0x7E27328900000000000000000000000000000000000000000000000000000000 DUP2 MSTORE PUSH1 0x4 ADD PUSH2 0xC3A SWAP2 SWAP1 PUSH2 0x1EF9 JUMP JUMPDEST PUSH1 0x40 MLOAD DUP1 SWAP2 SUB SWAP1 REVERT JUMPDEST DUP1 SWAP2 POP POP SWAP2 SWAP1 POP JUMP JUMPDEST PUSH0 PUSH1 0x4 PUSH0 DUP4 DUP2 MSTORE PUSH1 0x20 ADD SWAP1 DUP2 MSTORE PUSH1 0x20 ADD PUSH0 KECCAK256 PUSH0 SWAP1 SLOAD SWAP1 PUSH2 0x100 EXP SWAP1 DIV PUSH20 0xFFFFFFFFFFFFFFFFFFFFFFFFFFFFFFFFFFFFFFFF AND SWAP1 POP SWAP2 SWAP1 POP JUMP JUMPDEST PUSH0 CALLER SWAP1 POP SWAP1 JUMP JUMPDEST PUSH2 0xC99 DUP4 DUP4 DUP4 PUSH1 0x1 PUSH2 0x150E JUMP JUMPDEST POP POP POP JUMP JUMPDEST PUSH2 0xCB7 DUP3 DUP3 PUSH1 0x40 MLOAD DUP1 PUSH1 0x20 ADD PUSH1 0x40 MSTORE DUP1 PUSH0 DUP2 MSTORE POP PUSH2 0x16CD JUMP JUMPDEST POP POP JUMP JUMPDEST DUP1 PUSH1 0x6 PUSH0 DUP5 DUP2 MSTORE PUSH1 0x20 ADD SWAP1 DUP2 MSTORE PUSH1 0x20 ADD PUSH0 KECCAK256 SWAP1 DUP2 PUSH2 0xCD9 SWAP2 SWAP1 PUSH2 0x2697 JUMP JUMPDEST POP PUSH32 0xF8E1A15ABA9398E019F0B49DF1A4FDE98EE17AE345CB5F6B5E2C27F5033E8CE7 DUP3 PUSH1 0x40 MLOAD PUSH2 0xD09 SWAP2 SWAP1 PUSH2 0x1EF9 JUMP JUMPDEST PUSH1 0x40 MLOAD DUP1 SWAP2 SUB SWAP1 LOG1 POP POP JUMP JUMPDEST PUSH0 PUSH1 0x8 SLOAD TIMESTAMP PUSH2 0xD24 SWAP2 SWAP1 PUSH2 0x2793 JUMP JUMPDEST SWAP1 POP DUP1 PUSH1 0xA PUSH0 DUP5 DUP2 MSTORE PUSH1 0x20 ADD SWAP1 DUP2 MSTORE PUSH1 0x20 ADD PUSH0 KECCAK256 DUP2 SWAP1 SSTORE POP POP POP POP JUMP JUMPDEST PUSH0 DUP1 PUSH2 0xD4C DUP5 PUSH2 0x14D5 JUMP JUMPDEST SWAP1 POP PUSH0 PUSH20 0xFFFFFFFFFFFFFFFFFFFFFFFFFFFFFFFFFFFFFFFF AND DUP4 PUSH20 0xFFFFFFFFFFFFFFFFFFFFFFFFFFFFFFFFFFFFFFFF AND EQ PUSH2 0xD8D JUMPI PUSH2 0xD8C DUP2 DUP5 DUP7 PUSH2 0x16E8 JUMP JUMPDEST JUMPDEST PUSH0 PUSH20 0xFFFFFFFFFFFFFFFFFFFFFFFFFFFFFFFFFFFFFFFF AND DUP2 PUSH20 0xFFFFFFFFFFFFFFFFFFFFFFFFFFFFFFFFFFFFFFFF AND EQ PUSH2 0xE18 JUMPI PUSH2 0xDCC PUSH0 DUP6 PUSH0 DUP1 PUSH2 0x150E JUMP JUMPDEST PUSH1 0x1 PUSH1 0x3 PUSH0 DUP4 PUSH20 0xFFFFFFFFFFFFFFFFFFFFFFFFFFFFFFFFFFFFFFFF AND PUSH20 0xFFFFFFFFFFFFFFFFFFFFFFFFFFFFFFFFFFFFFFFF AND DUP2 MSTORE PUSH1 0x20 ADD SWAP1 DUP2 MSTORE PUSH1 0x20 ADD PUSH0 KECCAK256 PUSH0 DUP3 DUP3 SLOAD SUB SWAP3 POP POP DUP2 SWAP1 SSTORE POP JUMPDEST PUSH0 PUSH20 0xFFFFFFFFFFFFFFFFFFFFFFFFFFFFFFFFFFFFFFFF AND DUP6 PUSH20 0xFFFFFFFFFFFFFFFFFFFFFFFFFFFFFFFFFFFFFFFF AND EQ PUSH2 0xE97 JUMPI PUSH1 0x1 PUSH1 0x3 PUSH0 DUP8 PUSH20 0xFFFFFFFFFFFFFFFFFFFFFFFFFFFFFFFFFFFFFFFF AND PUSH20 0xFFFFFFFFFFFFFFFFFFFFFFFFFFFFFFFFFFFFFFFF AND DUP2 MSTORE PUSH1 0x20 ADD SWAP1 DUP2 MSTORE PUSH1 0x20 ADD PUSH0 KECCAK256 PUSH0 DUP3 DUP3 SLOAD ADD SWAP3 POP POP DUP2 SWAP1 SSTORE POP JUMPDEST DUP5 PUSH1 0x2 PUSH0 DUP7 DUP2 MSTORE PUSH1 0x20 ADD SWAP1 DUP2 MSTORE PUSH1 0x20 ADD PUSH0 KECCAK256 PUSH0 PUSH2 0x100 EXP DUP2 SLOAD DUP2 PUSH20 0xFFFFFFFFFFFFFFFFFFFFFFFFFFFFFFFFFFFFFFFF MUL NOT AND SWAP1 DUP4 PUSH20 0xFFFFFFFFFFFFFFFFFFFFFFFFFFFFFFFFFFFFFFFF AND MUL OR SWAP1 SSTORE POP DUP4 DUP6 PUSH20 0xFFFFFFFFFFFFFFFFFFFFFFFFFFFFFFFFFFFFFFFF AND DUP3 PUSH20 0xFFFFFFFFFFFFFFFFFFFFFFFFFFFFFFFFFFFFFFFF AND PUSH32 0xDDF252AD1BE2C89B69C2B068FC378DAA952BA7F163C4A11628F55A4DF523B3EF PUSH1 0x40 MLOAD PUSH1 0x40 MLOAD DUP1 SWAP2 SUB SWAP1 LOG4 DUP1 SWAP2 POP POP SWAP4 SWAP3 POP POP POP JUMP JUMPDEST PUSH0 PUSH2 0xF58 PUSH0 DUP4 PUSH0 PUSH2 0xD41 JUMP JUMPDEST SWAP1 POP PUSH0 PUSH20 0xFFFFFFFFFFFFFFFFFFFFFFFFFFFFFFFFFFFFFFFF AND DUP2 PUSH20 0xFFFFFFFFFFFFFFFFFFFFFFFFFFFFFFFFFFFFFFFF AND SUB PUSH2 0xFCA JUMPI DUP2 PUSH1 0x40 MLOAD PUSH32 0x7E27328900000000000000000000000000000000000000000000000000000000 DUP2 MSTORE PUSH1 0x4 ADD PUSH2 0xFC1 SWAP2 SWAP1 PUSH2 0x1EF9 JUMP JUMPDEST PUSH1 0x40 MLOAD DUP1 SWAP2 SUB SWAP1 REVERT JUMPDEST POP POP JUMP JUMPDEST PUSH0 PUSH20 0xFFFFFFFFFFFFFFFFFFFFFFFFFFFFFFFFFFFFFFFF AND DUP3 PUSH20 0xFFFFFFFFFFFFFFFFFFFFFFFFFFFFFFFFFFFFFFFF AND SUB PUSH2 0x103E JUMPI DUP2 PUSH1 0x40 MLOAD PUSH32 0x5B08BA1800000000000000000000000000000000000000000000000000000000 DUP2 MSTORE PUSH1 0x4 ADD PUSH2 0x1035 SWAP2 SWAP1 PUSH2 0x1E69 JUMP JUMPDEST PUSH1 0x40 MLOAD DUP1 SWAP2 SUB SWAP1 REVERT JUMPDEST DUP1 PUSH1 0x5 PUSH0 DUP6 PUSH20 0xFFFFFFFFFFFFFFFFFFFFFFFFFFFFFFFFFFFFFFFF AND PUSH20 0xFFFFFFFFFFFFFFFFFFFFFFFFFFFFFFFFFFFFFFFF AND DUP2 MSTORE PUSH1 0x20 ADD SWAP1 DUP2 MSTORE PUSH1 0x20 ADD PUSH0 KECCAK256 PUSH0 DUP5 PUSH20 0xFFFFFFFFFFFFFFFFFFFFFFFFFFFFFFFFFFFFFFFF AND PUSH20 0xFFFFFFFFFFFFFFFFFFFFFFFFFFFFFFFFFFFFFFFF AND DUP2 MSTORE PUSH1 0x20 ADD SWAP1 DUP2 MSTORE PUSH1 0x20 ADD PUSH0 KECCAK256 PUSH0 PUSH2 0x100 EXP DUP2 SLOAD DUP2 PUSH1 0xFF MUL NOT AND SWAP1 DUP4 ISZERO ISZERO MUL OR SWAP1 SSTORE POP DUP2 PUSH20 0xFFFFFFFFFFFFFFFFFFFFFFFFFFFFFFFFFFFFFFFF AND DUP4 PUSH20 0xFFFFFFFFFFFFFFFFFFFFFFFFFFFFFFFFFFFFFFFF AND PUSH32 0x17307EAB39AB6107E8899845AD3D59BD9653F200F220920489CA2B5937696C31 DUP4 PUSH1 0x40 MLOAD PUSH2 0x112A SWAP2 SWAP1 PUSH2 0x1D09 JUMP JUMPDEST PUSH1 0x40 MLOAD DUP1 SWAP2 SUB SWAP1 LOG3 POP POP POP JUMP JUMPDEST PUSH0 DUP4 PUSH20 0xFFFFFFFFFFFFFFFFFFFFFFFFFFFFFFFFFFFFFFFF AND EXTCODESIZE GT ISZERO PUSH2 0x12E3 JUMPI DUP3 PUSH20 0xFFFFFFFFFFFFFFFFFFFFFFFFFFFFFFFFFFFFFFFF AND PUSH4 0x150B7A02 PUSH2 0x117A PUSH2 0xC85 JUMP JUMPDEST DUP7 DUP6 DUP6 PUSH1 0x40 MLOAD DUP6 PUSH4 0xFFFFFFFF AND PUSH1 0xE0 SHL DUP2 MSTORE PUSH1 0x4 ADD PUSH2 0x119C SWAP5 SWAP4 SWAP3 SWAP2 SWAP1 PUSH2 0x2818 JUMP JUMPDEST PUSH1 0x20 PUSH1 0x40 MLOAD DUP1 DUP4 SUB DUP2 PUSH0 DUP8 GAS CALL SWAP3 POP POP POP DUP1 ISZERO PUSH2 0x11D7 JUMPI POP PUSH1 0x40 MLOAD RETURNDATASIZE PUSH1 0x1F NOT PUSH1 0x1F DUP3 ADD AND DUP3 ADD DUP1 PUSH1 0x40 MSTORE POP DUP2 ADD SWAP1 PUSH2 0x11D4 SWAP2 SWAP1 PUSH2 0x2876 JUMP JUMPDEST PUSH1 0x1 JUMPDEST PUSH2 0x1258 JUMPI RETURNDATASIZE DUP1 PUSH0 DUP2 EQ PUSH2 0x1205 JUMPI PUSH1 0x40 MLOAD SWAP2 POP PUSH1 0x1F NOT PUSH1 0x3F RETURNDATASIZE ADD AND DUP3 ADD PUSH1 0x40 MSTORE RETURNDATASIZE DUP3 MSTORE RETURNDATASIZE PUSH0 PUSH1 0x20 DUP5 ADD RETURNDATACOPY PUSH2 0x120A JUMP JUMPDEST PUSH1 0x60 SWAP2 POP JUMPDEST POP PUSH0 DUP2 MLOAD SUB PUSH2 0x1250 JUMPI DUP4 PUSH1 0x40 MLOAD PUSH32 0x64A0AE9200000000000000000000000000000000000000000000000000000000 DUP2 MSTORE PUSH1 0x4 ADD PUSH2 0x1247 SWAP2 SWAP1 PUSH2 0x1E69 JUMP JUMPDEST PUSH1 0x40 MLOAD DUP1 SWAP2 SUB SWAP1 REVERT JUMPDEST DUP1 MLOAD DUP2 PUSH1 0x20 ADD REVERT JUMPDEST PUSH4 0x150B7A02 PUSH1 0xE0 SHL PUSH28 0xFFFFFFFFFFFFFFFFFFFFFFFFFFFFFFFFFFFFFFFFFFFFFFFFFFFFFFFF NOT AND DUP2 PUSH28 0xFFFFFFFFFFFFFFFFFFFFFFFFFFFFFFFFFFFFFFFFFFFFFFFFFFFFFFFF NOT AND EQ PUSH2 0x12E1 JUMPI DUP4 PUSH1 0x40 MLOAD PUSH32 0x64A0AE9200000000000000000000000000000000000000000000000000000000 DUP2 MSTORE PUSH1 0x4 ADD PUSH2 0x12D8 SWAP2 SWAP1 PUSH2 0x1E69 JUMP JUMPDEST PUSH1 0x40 MLOAD DUP1 SWAP2 SUB SWAP1 REVERT JUMPDEST POP JUMPDEST POP POP POP POP JUMP JUMPDEST PUSH1 0x60 PUSH2 0x12F4 DUP3 PUSH2 0xBC6 JUMP JUMPDEST POP PUSH0 PUSH1 0x6 PUSH0 DUP5 DUP2 MSTORE PUSH1 0x20 ADD SWAP1 DUP2 MSTORE PUSH1 0x20 ADD PUSH0 KECCAK256 DUP1 SLOAD PUSH2 0x1312 SWAP1 PUSH2 0x235D JUMP JUMPDEST DUP1 PUSH1 0x1F ADD PUSH1 0x20 DUP1 SWAP2 DIV MUL PUSH1 0x20 ADD PUSH1 0x40 MLOAD SWAP1 DUP2 ADD PUSH1 0x40 MSTORE DUP1 SWAP3 SWAP2 SWAP1 DUP2 DUP2 MSTORE PUSH1 0x20 ADD DUP3 DUP1 SLOAD PUSH2 0x133E SWAP1 PUSH2 0x235D JUMP JUMPDEST DUP1 ISZERO PUSH2 0x1389 JUMPI DUP1 PUSH1 0x1F LT PUSH2 0x1360 JUMPI PUSH2 0x100 DUP1 DUP4 SLOAD DIV MUL DUP4 MSTORE SWAP2 PUSH1 0x20 ADD SWAP2 PUSH2 0x1389 JUMP JUMPDEST DUP3 ADD SWAP2 SWAP1 PUSH0 MSTORE PUSH1 0x20 PUSH0 KECCAK256 SWAP1 JUMPDEST DUP2 SLOAD DUP2 MSTORE SWAP1 PUSH1 0x1 ADD SWAP1 PUSH1 0x20 ADD DUP1 DUP4 GT PUSH2 0x136C JUMPI DUP3 SWAP1 SUB PUSH1 0x1F AND DUP3 ADD SWAP2 JUMPDEST POP POP POP POP POP SWAP1 POP PUSH0 PUSH2 0x1399 PUSH2 0x17AB JUMP JUMPDEST SWAP1 POP PUSH0 DUP2 MLOAD SUB PUSH2 0x13AD JUMPI DUP2 SWAP3 POP POP POP PUSH2 0x13EF JUMP JUMPDEST PUSH0 DUP3 MLOAD GT ISZERO PUSH2 0x13E1 JUMPI DUP1 DUP3 PUSH1 0x40 MLOAD PUSH1 0x20 ADD PUSH2 0x13C9 SWAP3 SWAP2 SWAP1 PUSH2 0x28DB JUMP JUMPDEST PUSH1 0x40 MLOAD PUSH1 0x20 DUP2 DUP4 SUB SUB DUP2 MSTORE SWAP1 PUSH1 0x40 MSTORE SWAP3 POP POP POP PUSH2 0x13EF JUMP JUMPDEST PUSH2 0x13EA DUP5 PUSH2 0x17C1 JUMP JUMPDEST SWAP3 POP POP POP JUMPDEST SWAP2 SWAP1 POP JUMP JUMPDEST PUSH0 PUSH32 0x80AC58CD00000000000000000000000000000000000000000000000000000000 PUSH28 0xFFFFFFFFFFFFFFFFFFFFFFFFFFFFFFFFFFFFFFFFFFFFFFFFFFFFFFFF NOT AND DUP3 PUSH28 0xFFFFFFFFFFFFFFFFFFFFFFFFFFFFFFFFFFFFFFFFFFFFFFFFFFFFFFFF NOT AND EQ DUP1 PUSH2 0x14BE JUMPI POP PUSH32 0x5B5E139F00000000000000000000000000000000000000000000000000000000 PUSH28 0xFFFFFFFFFFFFFFFFFFFFFFFFFFFFFFFFFFFFFFFFFFFFFFFFFFFFFFFF NOT AND DUP3 PUSH28 0xFFFFFFFFFFFFFFFFFFFFFFFFFFFFFFFFFFFFFFFFFFFFFFFFFFFFFFFF NOT AND EQ JUMPDEST DUP1 PUSH2 0x14CE JUMPI POP PUSH2 0x14CD DUP3 PUSH2 0x1827 JUMP JUMPDEST JUMPDEST SWAP1 POP SWAP2 SWAP1 POP JUMP JUMPDEST PUSH0 PUSH1 0x2 PUSH0 DUP4 DUP2 MSTORE PUSH1 0x20 ADD SWAP1 DUP2 MSTORE PUSH1 0x20 ADD PUSH0 KECCAK256 PUSH0 SWAP1 SLOAD SWAP1 PUSH2 0x100 EXP SWAP1 DIV PUSH20 0xFFFFFFFFFFFFFFFFFFFFFFFFFFFFFFFFFFFFFFFF AND SWAP1 POP SWAP2 SWAP1 POP JUMP JUMPDEST DUP1 DUP1 PUSH2 0x1546 JUMPI POP PUSH0 PUSH20 0xFFFFFFFFFFFFFFFFFFFFFFFFFFFFFFFFFFFFFFFF AND DUP3 PUSH20 0xFFFFFFFFFFFFFFFFFFFFFFFFFFFFFFFFFFFFFFFF AND EQ ISZERO JUMPDEST ISZERO PUSH2 0x1678 JUMPI PUSH0 PUSH2 0x1555 DUP5 PUSH2 0xBC6 JUMP JUMPDEST SWAP1 POP PUSH0 PUSH20 0xFFFFFFFFFFFFFFFFFFFFFFFFFFFFFFFFFFFFFFFF AND DUP4 PUSH20 0xFFFFFFFFFFFFFFFFFFFFFFFFFFFFFFFFFFFFFFFF AND EQ ISZERO DUP1 ISZERO PUSH2 0x15BF JUMPI POP DUP3 PUSH20 0xFFFFFFFFFFFFFFFFFFFFFFFFFFFFFFFFFFFFFFFF AND DUP2 PUSH20 0xFFFFFFFFFFFFFFFFFFFFFFFFFFFFFFFFFFFFFFFF AND EQ ISZERO JUMPDEST DUP1 ISZERO PUSH2 0x15D2 JUMPI POP PUSH2 0x15D0 DUP2 DUP5 PUSH2 0xACE JUMP JUMPDEST ISZERO JUMPDEST ISZERO PUSH2 0x1614 JUMPI DUP3 PUSH1 0x40 MLOAD PUSH32 0xA9FBF51F00000000000000000000000000000000000000000000000000000000 DUP2 MSTORE PUSH1 0x4 ADD PUSH2 0x160B SWAP2 SWAP1 PUSH2 0x1E69 JUMP JUMPDEST PUSH1 0x40 MLOAD DUP1 SWAP2 SUB SWAP1 REVERT JUMPDEST DUP2 ISZERO PUSH2 0x1676 JUMPI DUP4 DUP6 PUSH20 0xFFFFFFFFFFFFFFFFFFFFFFFFFFFFFFFFFFFFFFFF AND DUP3 PUSH20 0xFFFFFFFFFFFFFFFFFFFFFFFFFFFFFFFFFFFFFFFF AND PUSH32 0x8C5BE1E5EBEC7D5BD14F71427D1E84F3DD0314C0F7B2291E5B200AC8C7C3B925 PUSH1 0x40 MLOAD PUSH1 0x40 MLOAD DUP1 SWAP2 SUB SWAP1 LOG4 JUMPDEST POP JUMPDEST DUP4 PUSH1 0x4 PUSH0 DUP6 DUP2 MSTORE PUSH1 0x20 ADD SWAP1 DUP2 MSTORE PUSH1 0x20 ADD PUSH0 KECCAK256 PUSH0 PUSH2 0x100 EXP DUP2 SLOAD DUP2 PUSH20 0xFFFFFFFFFFFFFFFFFFFFFFFFFFFFFFFFFFFFFFFF MUL NOT AND SWAP1 DUP4 PUSH20 0xFFFFFFFFFFFFFFFFFFFFFFFFFFFFFFFFFFFFFFFF AND MUL OR SWAP1 SSTORE POP POP POP POP POP JUMP JUMPDEST PUSH2 0x16D7 DUP4 DUP4 PUSH2 0x1890 JUMP JUMPDEST PUSH2 0x16E3 PUSH0 DUP5 DUP5 DUP5 PUSH2 0x1137 JUMP JUMPDEST POP POP POP JUMP JUMPDEST PUSH2 0x16F3 DUP4 DUP4 DUP4 PUSH2 0x1983 JUMP JUMPDEST PUSH2 0x17A6 JUMPI PUSH0 PUSH20 0xFFFFFFFFFFFFFFFFFFFFFFFFFFFFFFFFFFFFFFFF AND DUP4 PUSH20 0xFFFFFFFFFFFFFFFFFFFFFFFFFFFFFFFFFFFFFFFF AND SUB PUSH2 0x1767 JUMPI DUP1 PUSH1 0x40 MLOAD PUSH32 0x7E27328900000000000000000000000000000000000000000000000000000000 DUP2 MSTORE PUSH1 0x4 ADD PUSH2 0x175E SWAP2 SWAP1 PUSH2 0x1EF9 JUMP JUMPDEST PUSH1 0x40 MLOAD DUP1 SWAP2 SUB SWAP1 REVERT JUMPDEST DUP2 DUP2 PUSH1 0x40 MLOAD PUSH32 0x177E802F00000000000000000000000000000000000000000000000000000000 DUP2 MSTORE PUSH1 0x4 ADD PUSH2 0x179D SWAP3 SWAP2 SWAP1 PUSH2 0x28FE JUMP JUMPDEST PUSH1 0x40 MLOAD DUP1 SWAP2 SUB SWAP1 REVERT JUMPDEST POP POP POP JUMP JUMPDEST PUSH1 0x60 PUSH1 0x40 MLOAD DUP1 PUSH1 0x20 ADD PUSH1 0x40 MSTORE DUP1 PUSH0 DUP2 MSTORE POP SWAP1 POP SWAP1 JUMP JUMPDEST PUSH1 0x60 PUSH2 0x17CC DUP3 PUSH2 0xBC6 JUMP JUMPDEST POP PUSH0 PUSH2 0x17D6 PUSH2 0x17AB JUMP JUMPDEST SWAP1 POP PUSH0 DUP2 MLOAD GT PUSH2 0x17F4 JUMPI PUSH1 0x40 MLOAD DUP1 PUSH1 0x20 ADD PUSH1 0x40 MSTORE DUP1 PUSH0 DUP2 MSTORE POP PUSH2 0x181F JUMP JUMPDEST DUP1 PUSH2 0x17FE DUP5 PUSH2 0x1A43 JUMP JUMPDEST PUSH1 0x40 MLOAD PUSH1 0x20 ADD PUSH2 0x180F SWAP3 SWAP2 SWAP1 PUSH2 0x28DB JUMP JUMPDEST PUSH1 0x40 MLOAD PUSH1 0x20 DUP2 DUP4 SUB SUB DUP2 MSTORE SWAP1 PUSH1 0x40 MSTORE JUMPDEST SWAP2 POP POP SWAP2 SWAP1 POP JUMP JUMPDEST PUSH0 PUSH32 0x1FFC9A700000000000000000000000000000000000000000000000000000000 PUSH28 0xFFFFFFFFFFFFFFFFFFFFFFFFFFFFFFFFFFFFFFFFFFFFFFFFFFFFFFFF NOT AND DUP3 PUSH28 0xFFFFFFFFFFFFFFFFFFFFFFFFFFFFFFFFFFFFFFFFFFFFFFFFFFFFFFFF NOT AND EQ SWAP1 POP SWAP2 SWAP1 POP JUMP JUMPDEST PUSH0 PUSH20 0xFFFFFFFFFFFFFFFFFFFFFFFFFFFFFFFFFFFFFFFF AND DUP3 PUSH20 0xFFFFFFFFFFFFFFFFFFFFFFFFFFFFFFFFFFFFFFFF AND SUB PUSH2 0x1900 JUMPI PUSH0 PUSH1 0x40 MLOAD PUSH32 0x64A0AE9200000000000000000000000000000000000000000000000000000000 DUP2 MSTORE PUSH1 0x4 ADD PUSH2 0x18F7 SWAP2 SWAP1 PUSH2 0x1E69 JUMP JUMPDEST PUSH1 0x40 MLOAD DUP1 SWAP2 SUB SWAP1 REVERT JUMPDEST PUSH0 PUSH2 0x190C DUP4 DUP4 PUSH0 PUSH2 0xD41 JUMP JUMPDEST SWAP1 POP PUSH0 PUSH20 0xFFFFFFFFFFFFFFFFFFFFFFFFFFFFFFFFFFFFFFFF AND DUP2 PUSH20 0xFFFFFFFFFFFFFFFFFFFFFFFFFFFFFFFFFFFFFFFF AND EQ PUSH2 0x197E JUMPI PUSH0 PUSH1 0x40 MLOAD PUSH32 0x73C6AC6E00000000000000000000000000000000000000000000000000000000 DUP2 MSTORE PUSH1 0x4 ADD PUSH2 0x1975 SWAP2 SWAP1 PUSH2 0x1E69 JUMP JUMPDEST PUSH1 0x40 MLOAD DUP1 SWAP2 SUB SWAP1 REVERT JUMPDEST POP POP POP JUMP JUMPDEST PUSH0 DUP1 PUSH20 0xFFFFFFFFFFFFFFFFFFFFFFFFFFFFFFFFFFFFFFFF AND DUP4 PUSH20 0xFFFFFFFFFFFFFFFFFFFFFFFFFFFFFFFFFFFFFFFF AND EQ ISZERO DUP1 ISZERO PUSH2 0x1A3A JUMPI POP DUP3 PUSH20 0xFFFFFFFFFFFFFFFFFFFFFFFFFFFFFFFFFFFFFFFF AND DUP5 PUSH20 0xFFFFFFFFFFFFFFFFFFFFFFFFFFFFFFFFFFFFFFFF AND EQ DUP1 PUSH2 0x19FB JUMPI POP PUSH2 0x19FA DUP5 DUP5 PUSH2 0xACE JUMP JUMPDEST JUMPDEST DUP1 PUSH2 0x1A39 JUMPI POP DUP3 PUSH20 0xFFFFFFFFFFFFFFFFFFFFFFFFFFFFFFFFFFFFFFFF AND PUSH2 0x1A21 DUP4 PUSH2 0xC4C JUMP JUMPDEST PUSH20 0xFFFFFFFFFFFFFFFFFFFFFFFFFFFFFFFFFFFFFFFF AND EQ JUMPDEST JUMPDEST SWAP1 POP SWAP4 SWAP3 POP POP POP JUMP JUMPDEST PUSH1 0x60 PUSH0 PUSH1 0x1 PUSH2 0x1A51 DUP5 PUSH2 0x1B0D JUMP JUMPDEST ADD SWAP1 POP PUSH0 DUP2 PUSH8 0xFFFFFFFFFFFFFFFF DUP2 GT ISZERO PUSH2 0x1A6F JUMPI PUSH2 0x1A6E PUSH2 0x1F1A JUMP JUMPDEST JUMPDEST PUSH1 0x40 MLOAD SWAP1 DUP1 DUP3 MSTORE DUP1 PUSH1 0x1F ADD PUSH1 0x1F NOT AND PUSH1 0x20 ADD DUP3 ADD PUSH1 0x40 MSTORE DUP1 ISZERO PUSH2 0x1AA1 JUMPI DUP2 PUSH1 0x20 ADD PUSH1 0x1 DUP3 MUL DUP1 CALLDATASIZE DUP4 CALLDATACOPY DUP1 DUP3 ADD SWAP2 POP POP SWAP1 POP JUMPDEST POP SWAP1 POP PUSH0 DUP3 PUSH1 0x20 ADD DUP3 ADD SWAP1 POP JUMPDEST PUSH1 0x1 ISZERO PUSH2 0x1B02 JUMPI DUP1 DUP1 PUSH1 0x1 SWAP1 SUB SWAP2 POP POP PUSH32 0x3031323334353637383961626364656600000000000000000000000000000000 PUSH1 0xA DUP7 MOD BYTE DUP2 MSTORE8 PUSH1 0xA DUP6 DUP2 PUSH2 0x1AF7 JUMPI PUSH2 0x1AF6 PUSH2 0x2925 JUMP JUMPDEST JUMPDEST DIV SWAP5 POP PUSH0 DUP6 SUB PUSH2 0x1AAE JUMPI JUMPDEST DUP2 SWAP4 POP POP POP POP SWAP2 SWAP1 POP JUMP JUMPDEST PUSH0 DUP1 PUSH0 SWAP1 POP PUSH27 0x184F03E93FF9F4DAA797ED6E38ED64BF6A1F010000000000000000 DUP4 LT PUSH2 0x1B69 JUMPI PUSH27 0x184F03E93FF9F4DAA797ED6E38ED64BF6A1F010000000000000000 DUP4 DUP2 PUSH2 0x1B5F JUMPI PUSH2 0x1B5E PUSH2 0x2925 JUMP JUMPDEST JUMPDEST DIV SWAP3 POP PUSH1 0x40 DUP2 ADD SWAP1 POP JUMPDEST PUSH14 0x4EE2D6D415B85ACEF8100000000 DUP4 LT PUSH2 0x1BA6 JUMPI PUSH14 0x4EE2D6D415B85ACEF8100000000 DUP4 DUP2 PUSH2 0x1B9C JUMPI PUSH2 0x1B9B PUSH2 0x2925 JUMP JUMPDEST JUMPDEST DIV SWAP3 POP PUSH1 0x20 DUP2 ADD SWAP1 POP JUMPDEST PUSH7 0x2386F26FC10000 DUP4 LT PUSH2 0x1BD5 JUMPI PUSH7 0x2386F26FC10000 DUP4 DUP2 PUSH2 0x1BCB JUMPI PUSH2 0x1BCA PUSH2 0x2925 JUMP JUMPDEST JUMPDEST DIV SWAP3 POP PUSH1 0x10 DUP2 ADD SWAP1 POP JUMPDEST PUSH4 0x5F5E100 DUP4 LT PUSH2 0x1BFE JUMPI PUSH4 0x5F5E100 DUP4 DUP2 PUSH2 0x1BF4 JUMPI PUSH2 0x1BF3 PUSH2 0x2925 JUMP JUMPDEST JUMPDEST DIV SWAP3 POP PUSH1 0x8 DUP2 ADD SWAP1 POP JUMPDEST PUSH2 0x2710 DUP4 LT PUSH2 0x1C23 JUMPI PUSH2 0x2710 DUP4 DUP2 PUSH2 0x1C19 JUMPI PUSH2 0x1C18 PUSH2 0x2925 JUMP JUMPDEST JUMPDEST DIV SWAP3 POP PUSH1 0x4 DUP2 ADD SWAP1 POP JUMPDEST PUSH1 0x64 DUP4 LT PUSH2 0x1C46 JUMPI PUSH1 0x64 DUP4 DUP2 PUSH2 0x1C3C JUMPI PUSH2 0x1C3B PUSH2 0x2925 JUMP JUMPDEST JUMPDEST DIV SWAP3 POP PUSH1 0x2 DUP2 ADD SWAP1 POP JUMPDEST PUSH1 0xA DUP4 LT PUSH2 0x1C55 JUMPI PUSH1 0x1 DUP2 ADD SWAP1 POP JUMPDEST DUP1 SWAP2 POP POP SWAP2 SWAP1 POP JUMP JUMPDEST PUSH0 PUSH1 0x40 MLOAD SWAP1 POP SWAP1 JUMP JUMPDEST PUSH0 DUP1 REVERT JUMPDEST PUSH0 DUP1 REVERT JUMPDEST PUSH0 PUSH32 0xFFFFFFFF00000000000000000000000000000000000000000000000000000000 DUP3 AND SWAP1 POP SWAP2 SWAP1 POP JUMP JUMPDEST PUSH2 0x1CA3 DUP2 PUSH2 0x1C6F JUMP JUMPDEST DUP2 EQ PUSH2 0x1CAD JUMPI PUSH0 DUP1 REVERT JUMPDEST POP JUMP JUMPDEST PUSH0 DUP2 CALLDATALOAD SWAP1 POP PUSH2 0x1CBE DUP2 PUSH2 0x1C9A JUMP JUMPDEST SWAP3 SWAP2 POP POP JUMP JUMPDEST PUSH0 PUSH1 0x20 DUP3 DUP5 SUB SLT ISZERO PUSH2 0x1CD9 JUMPI PUSH2 0x1CD8 PUSH2 0x1C67 JUMP JUMPDEST JUMPDEST PUSH0 PUSH2 0x1CE6 DUP5 DUP3 DUP6 ADD PUSH2 0x1CB0 JUMP JUMPDEST SWAP2 POP POP SWAP3 SWAP2 POP POP JUMP JUMPDEST PUSH0 DUP2 ISZERO ISZERO SWAP1 POP SWAP2 SWAP1 POP JUMP JUMPDEST PUSH2 0x1D03 DUP2 PUSH2 0x1CEF JUMP JUMPDEST DUP3 MSTORE POP POP JUMP JUMPDEST PUSH0 PUSH1 0x20 DUP3 ADD SWAP1 POP PUSH2 0x1D1C PUSH0 DUP4 ADD DUP5 PUSH2 0x1CFA JUMP JUMPDEST SWAP3 SWAP2 POP POP JUMP JUMPDEST PUSH0 DUP2 MLOAD SWAP1 POP SWAP2 SWAP1 POP JUMP JUMPDEST PUSH0 DUP3 DUP3 MSTORE PUSH1 0x20 DUP3 ADD SWAP1 POP SWAP3 SWAP2 POP POP JUMP JUMPDEST PUSH0 JUMPDEST DUP4 DUP2 LT ISZERO PUSH2 0x1D59 JUMPI DUP1 DUP3 ADD MLOAD DUP2 DUP5 ADD MSTORE PUSH1 0x20 DUP2 ADD SWAP1 POP PUSH2 0x1D3E JUMP JUMPDEST PUSH0 DUP5 DUP5 ADD MSTORE POP POP POP POP JUMP JUMPDEST PUSH0 PUSH1 0x1F NOT PUSH1 0x1F DUP4 ADD AND SWAP1 POP SWAP2 SWAP1 POP JUMP JUMPDEST PUSH0 PUSH2 0x1D7E DUP3 PUSH2 0x1D22 JUMP JUMPDEST PUSH2 0x1D88 DUP2 DUP6 PUSH2 0x1D2C JUMP JUMPDEST SWAP4 POP PUSH2 0x1D98 DUP2 DUP6 PUSH1 0x20 DUP7 ADD PUSH2 0x1D3C JUMP JUMPDEST PUSH2 0x1DA1 DUP2 PUSH2 0x1D64 JUMP JUMPDEST DUP5 ADD SWAP2 POP POP SWAP3 SWAP2 POP POP JUMP JUMPDEST PUSH0 PUSH1 0x20 DUP3 ADD SWAP1 POP DUP2 DUP2 SUB PUSH0 DUP4 ADD MSTORE PUSH2 0x1DC4 DUP2 DUP5 PUSH2 0x1D74 JUMP JUMPDEST SWAP1 POP SWAP3 SWAP2 POP POP JUMP JUMPDEST PUSH0 DUP2 SWAP1 POP SWAP2 SWAP1 POP JUMP JUMPDEST PUSH2 0x1DDE DUP2 PUSH2 0x1DCC JUMP JUMPDEST DUP2 EQ PUSH2 0x1DE8 JUMPI PUSH0 DUP1 REVERT JUMPDEST POP JUMP JUMPDEST PUSH0 DUP2 CALLDATALOAD SWAP1 POP PUSH2 0x1DF9 DUP2 PUSH2 0x1DD5 JUMP JUMPDEST SWAP3 SWAP2 POP POP JUMP JUMPDEST PUSH0 PUSH1 0x20 DUP3 DUP5 SUB SLT ISZERO PUSH2 0x1E14 JUMPI PUSH2 0x1E13 PUSH2 0x1C67 JUMP JUMPDEST JUMPDEST PUSH0 PUSH2 0x1E21 DUP5 DUP3 DUP6 ADD PUSH2 0x1DEB JUMP JUMPDEST SWAP2 POP POP SWAP3 SWAP2 POP POP JUMP JUMPDEST PUSH0 PUSH20 0xFFFFFFFFFFFFFFFFFFFFFFFFFFFFFFFFFFFFFFFF DUP3 AND SWAP1 POP SWAP2 SWAP1 POP JUMP JUMPDEST PUSH0 PUSH2 0x1E53 DUP3 PUSH2 0x1E2A JUMP JUMPDEST SWAP1 POP SWAP2 SWAP1 POP JUMP JUMPDEST PUSH2 0x1E63 DUP2 PUSH2 0x1E49 JUMP JUMPDEST DUP3 MSTORE POP POP JUMP JUMPDEST PUSH0 PUSH1 0x20 DUP3 ADD SWAP1 POP PUSH2 0x1E7C PUSH0 DUP4 ADD DUP5 PUSH2 0x1E5A JUMP JUMPDEST SWAP3 SWAP2 POP POP JUMP JUMPDEST PUSH2 0x1E8B DUP2 PUSH2 0x1E49 JUMP JUMPDEST DUP2 EQ PUSH2 0x1E95 JUMPI PUSH0 DUP1 REVERT JUMPDEST POP JUMP JUMPDEST PUSH0 DUP2 CALLDATALOAD SWAP1 POP PUSH2 0x1EA6 DUP2 PUSH2 0x1E82 JUMP JUMPDEST SWAP3 SWAP2 POP POP JUMP JUMPDEST PUSH0 DUP1 PUSH1 0x40 DUP4 DUP6 SUB SLT ISZERO PUSH2 0x1EC2 JUMPI PUSH2 0x1EC1 PUSH2 0x1C67 JUMP JUMPDEST JUMPDEST PUSH0 PUSH2 0x1ECF DUP6 DUP3 DUP7 ADD PUSH2 0x1E98 JUMP JUMPDEST SWAP3 POP POP PUSH1 0x20 PUSH2 0x1EE0 DUP6 DUP3 DUP7 ADD PUSH2 0x1DEB JUMP JUMPDEST SWAP2 POP POP SWAP3 POP SWAP3 SWAP1 POP JUMP JUMPDEST PUSH2 0x1EF3 DUP2 PUSH2 0x1DCC JUMP JUMPDEST DUP3 MSTORE POP POP JUMP JUMPDEST PUSH0 PUSH1 0x20 DUP3 ADD SWAP1 POP PUSH2 0x1F0C PUSH0 DUP4 ADD DUP5 PUSH2 0x1EEA JUMP JUMPDEST SWAP3 SWAP2 POP POP JUMP JUMPDEST PUSH0 DUP1 REVERT JUMPDEST PUSH0 DUP1 REVERT JUMPDEST PUSH32 0x4E487B7100000000000000000000000000000000000000000000000000000000 PUSH0 MSTORE PUSH1 0x41 PUSH1 0x4 MSTORE PUSH1 0x24 PUSH0 REVERT JUMPDEST PUSH2 0x1F50 DUP3 PUSH2 0x1D64 JUMP JUMPDEST DUP2 ADD DUP2 DUP2 LT PUSH8 0xFFFFFFFFFFFFFFFF DUP3 GT OR ISZERO PUSH2 0x1F6F JUMPI PUSH2 0x1F6E PUSH2 0x1F1A JUMP JUMPDEST JUMPDEST DUP1 PUSH1 0x40 MSTORE POP POP POP JUMP JUMPDEST PUSH0 PUSH2 0x1F81 PUSH2 0x1C5E JUMP JUMPDEST SWAP1 POP PUSH2 0x1F8D DUP3 DUP3 PUSH2 0x1F47 JUMP JUMPDEST SWAP2 SWAP1 POP JUMP JUMPDEST PUSH0 PUSH8 0xFFFFFFFFFFFFFFFF DUP3 GT ISZERO PUSH2 0x1FAC JUMPI PUSH2 0x1FAB PUSH2 0x1F1A JUMP JUMPDEST JUMPDEST PUSH2 0x1FB5 DUP3 PUSH2 0x1D64 JUMP JUMPDEST SWAP1 POP PUSH1 0x20 DUP2 ADD SWAP1 POP SWAP2 SWAP1 POP JUMP JUMPDEST DUP3 DUP2 DUP4 CALLDATACOPY PUSH0 DUP4 DUP4 ADD MSTORE POP POP POP JUMP JUMPDEST PUSH0 PUSH2 0x1FE2 PUSH2 0x1FDD DUP5 PUSH2 0x1F92 JUMP JUMPDEST PUSH2 0x1F78 JUMP JUMPDEST SWAP1 POP DUP3 DUP2 MSTORE PUSH1 0x20 DUP2 ADD DUP5 DUP5 DUP5 ADD GT ISZERO PUSH2 0x1FFE JUMPI PUSH2 0x1FFD PUSH2 0x1F16 JUMP JUMPDEST JUMPDEST PUSH2 0x2009 DUP5 DUP3 DUP6 PUSH2 0x1FC2 JUMP JUMPDEST POP SWAP4 SWAP3 POP POP POP JUMP JUMPDEST PUSH0 DUP3 PUSH1 0x1F DUP4 ADD SLT PUSH2 0x2025 JUMPI PUSH2 0x2024 PUSH2 0x1F12 JUMP JUMPDEST JUMPDEST DUP2 CALLDATALOAD PUSH2 0x2035 DUP5 DUP3 PUSH1 0x20 DUP7 ADD PUSH2 0x1FD0 JUMP JUMPDEST SWAP2 POP POP SWAP3 SWAP2 POP POP JUMP JUMPDEST PUSH0 DUP1 PUSH0 PUSH1 0x60 DUP5 DUP7 SUB SLT ISZERO PUSH2 0x2055 JUMPI PUSH2 0x2054 PUSH2 0x1C67 JUMP JUMPDEST JUMPDEST PUSH0 PUSH2 0x2062 DUP7 DUP3 DUP8 ADD PUSH2 0x1E98 JUMP JUMPDEST SWAP4 POP POP PUSH1 0x20 PUSH2 0x2073 DUP7 DUP3 DUP8 ADD PUSH2 0x1DEB JUMP JUMPDEST SWAP3 POP POP PUSH1 0x40 DUP5 ADD CALLDATALOAD PUSH8 0xFFFFFFFFFFFFFFFF DUP2 GT ISZERO PUSH2 0x2094 JUMPI PUSH2 0x2093 PUSH2 0x1C6B JUMP JUMPDEST JUMPDEST PUSH2 0x20A0 DUP7 DUP3 DUP8 ADD PUSH2 0x2011 JUMP JUMPDEST SWAP2 POP POP SWAP3 POP SWAP3 POP SWAP3 JUMP JUMPDEST PUSH0 DUP1 PUSH0 PUSH1 0x60 DUP5 DUP7 SUB SLT ISZERO PUSH2 0x20C1 JUMPI PUSH2 0x20C0 PUSH2 0x1C67 JUMP JUMPDEST JUMPDEST PUSH0 PUSH2 0x20CE DUP7 DUP3 DUP8 ADD PUSH2 0x1E98 JUMP JUMPDEST SWAP4 POP POP PUSH1 0x20 PUSH2 0x20DF DUP7 DUP3 DUP8 ADD PUSH2 0x1E98 JUMP JUMPDEST SWAP3 POP POP PUSH1 0x40 PUSH2 0x20F0 DUP7 DUP3 DUP8 ADD PUSH2 0x1DEB JUMP JUMPDEST SWAP2 POP POP SWAP3 POP SWAP3 POP SWAP3 JUMP JUMPDEST PUSH0 PUSH1 0x20 DUP3 DUP5 SUB SLT ISZERO PUSH2 0x210F JUMPI PUSH2 0x210E PUSH2 0x1C67 JUMP JUMPDEST JUMPDEST PUSH0 DUP3 ADD CALLDATALOAD PUSH8 0xFFFFFFFFFFFFFFFF DUP2 GT ISZERO PUSH2 0x212C JUMPI PUSH2 0x212B PUSH2 0x1C6B JUMP JUMPDEST JUMPDEST PUSH2 0x2138 DUP5 DUP3 DUP6 ADD PUSH2 0x2011 JUMP JUMPDEST SWAP2 POP POP SWAP3 SWAP2 POP POP JUMP JUMPDEST PUSH0 PUSH1 0x20 DUP3 DUP5 SUB SLT ISZERO PUSH2 0x2156 JUMPI PUSH2 0x2155 PUSH2 0x1C67 JUMP JUMPDEST JUMPDEST PUSH0 PUSH2 0x2163 DUP5 DUP3 DUP6 ADD PUSH2 0x1E98 JUMP JUMPDEST SWAP2 POP POP SWAP3 SWAP2 POP POP JUMP JUMPDEST PUSH2 0x2175 DUP2 PUSH2 0x1CEF JUMP JUMPDEST DUP2 EQ PUSH2 0x217F JUMPI PUSH0 DUP1 REVERT JUMPDEST POP JUMP JUMPDEST PUSH0 DUP2 CALLDATALOAD SWAP1 POP PUSH2 0x2190 DUP2 PUSH2 0x216C JUMP JUMPDEST SWAP3 SWAP2 POP POP JUMP JUMPDEST PUSH0 DUP1 PUSH1 0x40 DUP4 DUP6 SUB SLT ISZERO PUSH2 0x21AC JUMPI PUSH2 0x21AB PUSH2 0x1C67 JUMP JUMPDEST JUMPDEST PUSH0 PUSH2 0x21B9 DUP6 DUP3 DUP7 ADD PUSH2 0x1E98 JUMP JUMPDEST SWAP3 POP POP PUSH1 0x20 PUSH2 0x21CA DUP6 DUP3 DUP7 ADD PUSH2 0x2182 JUMP JUMPDEST SWAP2 POP POP SWAP3 POP SWAP3 SWAP1 POP JUMP JUMPDEST PUSH0 PUSH8 0xFFFFFFFFFFFFFFFF DUP3 GT ISZERO PUSH2 0x21EE JUMPI PUSH2 0x21ED PUSH2 0x1F1A JUMP JUMPDEST JUMPDEST PUSH2 0x21F7 DUP3 PUSH2 0x1D64 JUMP JUMPDEST SWAP1 POP PUSH1 0x20 DUP2 ADD SWAP1 POP SWAP2 SWAP1 POP JUMP JUMPDEST PUSH0 PUSH2 0x2216 PUSH2 0x2211 DUP5 PUSH2 0x21D4 JUMP JUMPDEST PUSH2 0x1F78 JUMP JUMPDEST SWAP1 POP DUP3 DUP2 MSTORE PUSH1 0x20 DUP2 ADD DUP5 DUP5 DUP5 ADD GT ISZERO PUSH2 0x2232 JUMPI PUSH2 0x2231 PUSH2 0x1F16 JUMP JUMPDEST JUMPDEST PUSH2 0x223D DUP5 DUP3 DUP6 PUSH2 0x1FC2 JUMP JUMPDEST POP SWAP4 SWAP3 POP POP POP JUMP JUMPDEST PUSH0 DUP3 PUSH1 0x1F DUP4 ADD SLT PUSH2 0x2259 JUMPI PUSH2 0x2258 PUSH2 0x1F12 JUMP JUMPDEST JUMPDEST DUP2 CALLDATALOAD PUSH2 0x2269 DUP5 DUP3 PUSH1 0x20 DUP7 ADD PUSH2 0x2204 JUMP JUMPDEST SWAP2 POP POP SWAP3 SWAP2 POP POP JUMP JUMPDEST PUSH0 DUP1 PUSH0 DUP1 PUSH1 0x80 DUP6 DUP8 SUB SLT ISZERO PUSH2 0x228A JUMPI PUSH2 0x2289 PUSH2 0x1C67 JUMP JUMPDEST JUMPDEST PUSH0 PUSH2 0x2297 DUP8 DUP3 DUP9 ADD PUSH2 0x1E98 JUMP JUMPDEST SWAP5 POP POP PUSH1 0x20 PUSH2 0x22A8 DUP8 DUP3 DUP9 ADD PUSH2 0x1E98 JUMP JUMPDEST SWAP4 POP POP PUSH1 0x40 PUSH2 0x22B9 DUP8 DUP3 DUP9 ADD PUSH2 0x1DEB JUMP JUMPDEST SWAP3 POP POP PUSH1 0x60 DUP6 ADD CALLDATALOAD PUSH8 0xFFFFFFFFFFFFFFFF DUP2 GT ISZERO PUSH2 0x22DA JUMPI PUSH2 0x22D9 PUSH2 0x1C6B JUMP JUMPDEST JUMPDEST PUSH2 0x22E6 DUP8 DUP3 DUP9 ADD PUSH2 0x2245 JUMP JUMPDEST SWAP2 POP POP SWAP3 SWAP6 SWAP2 SWAP5 POP SWAP3 POP JUMP JUMPDEST PUSH0 DUP1 PUSH1 0x40 DUP4 DUP6 SUB SLT ISZERO PUSH2 0x2308 JUMPI PUSH2 0x2307 PUSH2 0x1C67 JUMP JUMPDEST JUMPDEST PUSH0 PUSH2 0x2315 DUP6 DUP3 DUP7 ADD PUSH2 0x1E98 JUMP JUMPDEST SWAP3 POP POP PUSH1 0x20 PUSH2 0x2326 DUP6 DUP3 DUP7 ADD PUSH2 0x1E98 JUMP JUMPDEST SWAP2 POP POP SWAP3 POP SWAP3 SWAP1 POP JUMP JUMPDEST PUSH32 0x4E487B7100000000000000000000000000000000000000000000000000000000 PUSH0 MSTORE PUSH1 0x22 PUSH1 0x4 MSTORE PUSH1 0x24 PUSH0 REVERT JUMPDEST PUSH0 PUSH1 0x2 DUP3 DIV SWAP1 POP PUSH1 0x1 DUP3 AND DUP1 PUSH2 0x2374 JUMPI PUSH1 0x7F DUP3 AND SWAP2 POP JUMPDEST PUSH1 0x20 DUP3 LT DUP2 SUB PUSH2 0x2387 JUMPI PUSH2 0x2386 PUSH2 0x2330 JUMP JUMPDEST JUMPDEST POP SWAP2 SWAP1 POP JUMP JUMPDEST PUSH32 0x496E73756666696369656E74207061796D656E74000000000000000000000000 PUSH0 DUP3 ADD MSTORE POP JUMP JUMPDEST PUSH0 PUSH2 0x23C1 PUSH1 0x14 DUP4 PUSH2 0x1D2C JUMP JUMPDEST SWAP2 POP PUSH2 0x23CC DUP3 PUSH2 0x238D JUMP JUMPDEST PUSH1 0x20 DUP3 ADD SWAP1 POP SWAP2 SWAP1 POP JUMP JUMPDEST PUSH0 PUSH1 0x20 DUP3 ADD SWAP1 POP DUP2 DUP2 SUB PUSH0 DUP4 ADD MSTORE PUSH2 0x23EE DUP2 PUSH2 0x23B5 JUMP JUMPDEST SWAP1 POP SWAP2 SWAP1 POP JUMP JUMPDEST PUSH0 PUSH1 0x60 DUP3 ADD SWAP1 POP PUSH2 0x2408 PUSH0 DUP4 ADD DUP7 PUSH2 0x1E5A JUMP JUMPDEST PUSH2 0x2415 PUSH1 0x20 DUP4 ADD DUP6 PUSH2 0x1EEA JUMP JUMPDEST PUSH2 0x2422 PUSH1 0x40 DUP4 ADD DUP5 PUSH2 0x1E5A JUMP JUMPDEST SWAP5 SWAP4 POP POP POP POP JUMP JUMPDEST PUSH32 0x596F7520646F6E2774206F776E2074686973204E465400000000000000000000 PUSH0 DUP3 ADD MSTORE POP JUMP JUMPDEST PUSH0 PUSH2 0x245E PUSH1 0x16 DUP4 PUSH2 0x1D2C JUMP JUMPDEST SWAP2 POP PUSH2 0x2469 DUP3 PUSH2 0x242A JUMP JUMPDEST PUSH1 0x20 DUP3 ADD SWAP1 POP SWAP2 SWAP1 POP JUMP JUMPDEST PUSH0 PUSH1 0x20 DUP3 ADD SWAP1 POP DUP2 DUP2 SUB PUSH0 DUP4 ADD MSTORE PUSH2 0x248B DUP2 PUSH2 0x2452 JUMP JUMPDEST SWAP1 POP SWAP2 SWAP1 POP JUMP JUMPDEST PUSH32 0x4E46542063616E6E6F74206265206275726E6564207965740000000000000000 PUSH0 DUP3 ADD MSTORE POP JUMP JUMPDEST PUSH0 PUSH2 0x24C6 PUSH1 0x18 DUP4 PUSH2 0x1D2C JUMP JUMPDEST SWAP2 POP PUSH2 0x24D1 DUP3 PUSH2 0x2492 JUMP JUMPDEST PUSH1 0x20 DUP3 ADD SWAP1 POP SWAP2 SWAP1 POP JUMP JUMPDEST PUSH0 PUSH1 0x20 DUP3 ADD SWAP1 POP DUP2 DUP2 SUB PUSH0 DUP4 ADD MSTORE PUSH2 0x24F3 DUP2 PUSH2 0x24BA JUMP JUMPDEST SWAP1 POP SWAP2 SWAP1 POP JUMP JUMPDEST PUSH0 DUP2 SWAP1 POP DUP2 PUSH0 MSTORE PUSH1 0x20 PUSH0 KECCAK256 SWAP1 POP SWAP2 SWAP1 POP JUMP JUMPDEST PUSH0 PUSH1 0x20 PUSH1 0x1F DUP4 ADD DIV SWAP1 POP SWAP2 SWAP1 POP JUMP JUMPDEST PUSH0 DUP3 DUP3 SHL SWAP1 POP SWAP3 SWAP2 POP POP JUMP JUMPDEST PUSH0 PUSH1 0x8 DUP4 MUL PUSH2 0x2556 PUSH32 0xFFFFFFFFFFFFFFFFFFFFFFFFFFFFFFFFFFFFFFFFFFFFFFFFFFFFFFFFFFFFFFFF DUP3 PUSH2 0x251B JUMP JUMPDEST PUSH2 0x2560 DUP7 DUP4 PUSH2 0x251B JUMP JUMPDEST SWAP6 POP DUP1 NOT DUP5 AND SWAP4 POP DUP1 DUP7 AND DUP5 OR SWAP3 POP POP POP SWAP4 SWAP3 POP POP POP JUMP JUMPDEST PUSH0 DUP2 SWAP1 POP SWAP2 SWAP1 POP JUMP JUMPDEST PUSH0 PUSH2 0x259B PUSH2 0x2596 PUSH2 0x2591 DUP5 PUSH2 0x1DCC JUMP JUMPDEST PUSH2 0x2578 JUMP JUMPDEST PUSH2 0x1DCC JUMP JUMPDEST SWAP1 POP SWAP2 SWAP1 POP JUMP JUMPDEST PUSH0 DUP2 SWAP1 POP SWAP2 SWAP1 POP JUMP JUMPDEST PUSH2 0x25B4 DUP4 PUSH2 0x2581 JUMP JUMPDEST PUSH2 0x25C8 PUSH2 0x25C0 DUP3 PUSH2 0x25A2 JUMP JUMPDEST DUP5 DUP5 SLOAD PUSH2 0x2527 JUMP JUMPDEST DUP3 SSTORE POP POP POP POP JUMP JUMPDEST PUSH0 SWAP1 JUMP JUMPDEST PUSH2 0x25DC PUSH2 0x25D0 JUMP JUMPDEST PUSH2 0x25E7 DUP2 DUP5 DUP5 PUSH2 0x25AB JUMP JUMPDEST POP POP POP JUMP JUMPDEST JUMPDEST DUP2 DUP2 LT ISZERO PUSH2 0x260A JUMPI PUSH2 0x25FF PUSH0 DUP3 PUSH2 0x25D4 JUMP JUMPDEST PUSH1 0x1 DUP2 ADD SWAP1 POP PUSH2 0x25ED JUMP JUMPDEST POP POP JUMP JUMPDEST PUSH1 0x1F DUP3 GT ISZERO PUSH2 0x264F JUMPI PUSH2 0x2620 DUP2 PUSH2 0x24FA JUMP JUMPDEST PUSH2 0x2629 DUP5 PUSH2 0x250C JUMP JUMPDEST DUP2 ADD PUSH1 0x20 DUP6 LT ISZERO PUSH2 0x2638 JUMPI DUP2 SWAP1 POP JUMPDEST PUSH2 0x264C PUSH2 0x2644 DUP6 PUSH2 0x250C JUMP JUMPDEST DUP4 ADD DUP3 PUSH2 0x25EC JUMP JUMPDEST POP POP JUMPDEST POP POP POP JUMP JUMPDEST PUSH0 DUP3 DUP3 SHR SWAP1 POP SWAP3 SWAP2 POP POP JUMP JUMPDEST PUSH0 PUSH2 0x266F PUSH0 NOT DUP5 PUSH1 0x8 MUL PUSH2 0x2654 JUMP JUMPDEST NOT DUP1 DUP4 AND SWAP2 POP POP SWAP3 SWAP2 POP POP JUMP JUMPDEST PUSH0 PUSH2 0x2687 DUP4 DUP4 PUSH2 0x2660 JUMP JUMPDEST SWAP2 POP DUP3 PUSH1 0x2 MUL DUP3 OR SWAP1 POP SWAP3 SWAP2 POP POP JUMP JUMPDEST PUSH2 0x26A0 DUP3 PUSH2 0x1D22 JUMP JUMPDEST PUSH8 0xFFFFFFFFFFFFFFFF DUP2 GT ISZERO PUSH2 0x26B9 JUMPI PUSH2 0x26B8 PUSH2 0x1F1A JUMP JUMPDEST JUMPDEST PUSH2 0x26C3 DUP3 SLOAD PUSH2 0x235D JUMP JUMPDEST PUSH2 0x26CE DUP3 DUP3 DUP6 PUSH2 0x260E JUMP JUMPDEST PUSH0 PUSH1 0x20 SWAP1 POP PUSH1 0x1F DUP4 GT PUSH1 0x1 DUP2 EQ PUSH2 0x26FF JUMPI PUSH0 DUP5 ISZERO PUSH2 0x26ED JUMPI DUP3 DUP8 ADD MLOAD SWAP1 POP JUMPDEST PUSH2 0x26F7 DUP6 DUP3 PUSH2 0x267C JUMP JUMPDEST DUP7 SSTORE POP PUSH2 0x275E JUMP JUMPDEST PUSH1 0x1F NOT DUP5 AND PUSH2 0x270D DUP7 PUSH2 0x24FA JUMP JUMPDEST PUSH0 JUMPDEST DUP3 DUP2 LT ISZERO PUSH2 0x2734 JUMPI DUP5 DUP10 ADD MLOAD DUP3 SSTORE PUSH1 0x1 DUP3 ADD SWAP2 POP PUSH1 0x20 DUP6 ADD SWAP5 POP PUSH1 0x20 DUP2 ADD SWAP1 POP PUSH2 0x270F JUMP JUMPDEST DUP7 DUP4 LT ISZERO PUSH2 0x2751 JUMPI DUP5 DUP10 ADD MLOAD PUSH2 0x274D PUSH1 0x1F DUP10 AND DUP3 PUSH2 0x2660 JUMP JUMPDEST DUP4 SSTORE POP JUMPDEST PUSH1 0x1 PUSH1 0x2 DUP9 MUL ADD DUP9 SSTORE POP POP POP JUMPDEST POP POP POP POP POP POP JUMP JUMPDEST PUSH32 0x4E487B7100000000000000000000000000000000000000000000000000000000 PUSH0 MSTORE PUSH1 0x11 PUSH1 0x4 MSTORE PUSH1 0x24 PUSH0 REVERT JUMPDEST PUSH0 PUSH2 0x279D DUP3 PUSH2 0x1DCC JUMP JUMPDEST SWAP2 POP PUSH2 0x27A8 DUP4 PUSH2 0x1DCC JUMP JUMPDEST SWAP3 POP DUP3 DUP3 ADD SWAP1 POP DUP1 DUP3 GT ISZERO PUSH2 0x27C0 JUMPI PUSH2 0x27BF PUSH2 0x2766 JUMP JUMPDEST JUMPDEST SWAP3 SWAP2 POP POP JUMP JUMPDEST PUSH0 DUP2 MLOAD SWAP1 POP SWAP2 SWAP1 POP JUMP JUMPDEST PUSH0 DUP3 DUP3 MSTORE PUSH1 0x20 DUP3 ADD SWAP1 POP SWAP3 SWAP2 POP POP JUMP JUMPDEST PUSH0 PUSH2 0x27EA DUP3 PUSH2 0x27C6 JUMP JUMPDEST PUSH2 0x27F4 DUP2 DUP6 PUSH2 0x27D0 JUMP JUMPDEST SWAP4 POP PUSH2 0x2804 DUP2 DUP6 PUSH1 0x20 DUP7 ADD PUSH2 0x1D3C JUMP JUMPDEST PUSH2 0x280D DUP2 PUSH2 0x1D64 JUMP JUMPDEST DUP5 ADD SWAP2 POP POP SWAP3 SWAP2 POP POP JUMP JUMPDEST PUSH0 PUSH1 0x80 DUP3 ADD SWAP1 POP PUSH2 0x282B PUSH0 DUP4 ADD DUP8 PUSH2 0x1E5A JUMP JUMPDEST PUSH2 0x2838 PUSH1 0x20 DUP4 ADD DUP7 PUSH2 0x1E5A JUMP JUMPDEST PUSH2 0x2845 PUSH1 0x40 DUP4 ADD DUP6 PUSH2 0x1EEA JUMP JUMPDEST DUP2 DUP2 SUB PUSH1 0x60 DUP4 ADD MSTORE PUSH2 0x2857 DUP2 DUP5 PUSH2 0x27E0 JUMP JUMPDEST SWAP1 POP SWAP6 SWAP5 POP POP POP POP POP JUMP JUMPDEST PUSH0 DUP2 MLOAD SWAP1 POP PUSH2 0x2870 DUP2 PUSH2 0x1C9A JUMP JUMPDEST SWAP3 SWAP2 POP POP JUMP JUMPDEST PUSH0 PUSH1 0x20 DUP3 DUP5 SUB SLT ISZERO PUSH2 0x288B JUMPI PUSH2 0x288A PUSH2 0x1C67 JUMP JUMPDEST JUMPDEST PUSH0 PUSH2 0x2898 DUP5 DUP3 DUP6 ADD PUSH2 0x2862 JUMP JUMPDEST SWAP2 POP POP SWAP3 SWAP2 POP POP JUMP JUMPDEST PUSH0 DUP2 SWAP1 POP SWAP3 SWAP2 POP POP JUMP JUMPDEST PUSH0 PUSH2 0x28B5 DUP3 PUSH2 0x1D22 JUMP JUMPDEST PUSH2 0x28BF DUP2 DUP6 PUSH2 0x28A1 JUMP JUMPDEST SWAP4 POP PUSH2 0x28CF DUP2 DUP6 PUSH1 0x20 DUP7 ADD PUSH2 0x1D3C JUMP JUMPDEST DUP1 DUP5 ADD SWAP2 POP POP SWAP3 SWAP2 POP POP JUMP JUMPDEST PUSH0 PUSH2 0x28E6 DUP3 DUP6 PUSH2 0x28AB JUMP JUMPDEST SWAP2 POP PUSH2 0x28F2 DUP3 DUP5 PUSH2 0x28AB JUMP JUMPDEST SWAP2 POP DUP2 SWAP1 POP SWAP4 SWAP3 POP POP POP JUMP JUMPDEST PUSH0 PUSH1 0x40 DUP3 ADD SWAP1 POP PUSH2 0x2911 PUSH0 DUP4 ADD DUP6 PUSH2 0x1E5A JUMP JUMPDEST PUSH2 0x291E PUSH1 0x20 DUP4 ADD DUP5 PUSH2 0x1EEA JUMP JUMPDEST SWAP4 SWAP3 POP POP POP JUMP JUMPDEST PUSH32 0x4E487B7100000000000000000000000000000000000000000000000000000000 PUSH0 MSTORE PUSH1 0x12 PUSH1 0x4 MSTORE PUSH1 0x24 PUSH0 REVERT INVALID LOG2 PUSH5 0x6970667358 0x22 SLT KECCAK256 EXTCODECOPY 0x27 JUMPI 0xCC ADD RETURN OR PUSH22 0x7597D8471E9860BD495EAC826F71672205C0F56266EB 0xD7 0xAA PUSH5 0x736F6C6343 STOP ADDMOD EQ STOP CALLER PUSH9 0x747470733A2F2F6761 PUSH21 0x657761792E70696E6174612E636C6F75642F697066 PUSH20 0x2F516D6238684B534B616B4771566B3768383737 PUSH25 0x64797A564A686E6236636D7A666A70566653367843464C714E PUSH8 0x2F302E6A70670000 "
				},
				"gasEstimates": {
					"creation": {
						"codeDepositCost": "2126400",
						"executionCost": "infinite",
						"totalCost": "infinite"
					},
					"external": {
						"approve(address,uint256)": "infinite",
						"balanceOf(address)": "infinite",
						"burn(uint256)": "infinite",
						"burnNFT(uint256)": "infinite",
						"fixedImageURI()": "infinite",
						"getApproved(uint256)": "infinite",
						"isApprovedForAll(address,address)": "infinite",
						"mintFee()": "2537",
						"mintNFT(address,uint256,string)": "infinite",
						"mintTimeout()": "2447",
						"name()": "infinite",
						"ownerOf(uint256)": "infinite",
						"safeTransferFrom(address,address,uint256)": "infinite",
						"safeTransferFrom(address,address,uint256,bytes)": "infinite",
						"setApprovalForAll(address,bool)": "infinite",
						"setFixedImageURI(string)": "infinite",
						"setMintFee(uint256)": "22647",
						"setMintTimeout(uint256)": "22604",
						"supportsInterface(bytes4)": "923",
						"symbol()": "infinite",
						"tokenURI(uint256)": "infinite",
						"transferFrom(address,address,uint256)": "infinite"
					},
					"internal": {
						"_burnAfterTimeout(address,uint256)": "infinite"
					}
				},
				"methodIdentifiers": {
					"approve(address,uint256)": "095ea7b3",
					"balanceOf(address)": "70a08231",
					"burn(uint256)": "42966c68",
					"burnNFT(uint256)": "2890e0d7",
					"fixedImageURI()": "65870789",
					"getApproved(uint256)": "081812fc",
					"isApprovedForAll(address,address)": "e985e9c5",
					"mintFee()": "13966db5",
					"mintNFT(address,uint256,string)": "1e576912",
					"mintTimeout()": "994dddcd",
					"name()": "06fdde03",
					"ownerOf(uint256)": "6352211e",
					"safeTransferFrom(address,address,uint256)": "42842e0e",
					"safeTransferFrom(address,address,uint256,bytes)": "b88d4fde",
					"setApprovalForAll(address,bool)": "a22cb465",
					"setFixedImageURI(string)": "474ebdea",
					"setMintFee(uint256)": "eddd0d9c",
					"setMintTimeout(uint256)": "30959643",
					"supportsInterface(bytes4)": "01ffc9a7",
					"symbol()": "95d89b41",
					"tokenURI(uint256)": "c87b56dd",
					"transferFrom(address,address,uint256)": "23b872dd"
				}
			},
			"storageLayout": {
				"storage": [
					{
						"astId": 201,
						"contract": "contracts/MyToken.sol:MyToken",
						"label": "_name",
						"offset": 0,
						"slot": "0",
						"type": "t_string_storage"
					},
					{
						"astId": 203,
						"contract": "contracts/MyToken.sol:MyToken",
						"label": "_symbol",
						"offset": 0,
						"slot": "1",
						"type": "t_string_storage"
					},
					{
						"astId": 207,
						"contract": "contracts/MyToken.sol:MyToken",
						"label": "_owners",
						"offset": 0,
						"slot": "2",
						"type": "t_mapping(t_uint256,t_address)"
					},
					{
						"astId": 211,
						"contract": "contracts/MyToken.sol:MyToken",
						"label": "_balances",
						"offset": 0,
						"slot": "3",
						"type": "t_mapping(t_address,t_uint256)"
					},
					{
						"astId": 215,
						"contract": "contracts/MyToken.sol:MyToken",
						"label": "_tokenApprovals",
						"offset": 0,
						"slot": "4",
						"type": "t_mapping(t_uint256,t_address)"
					},
					{
						"astId": 221,
						"contract": "contracts/MyToken.sol:MyToken",
						"label": "_operatorApprovals",
						"offset": 0,
						"slot": "5",
						"type": "t_mapping(t_address,t_mapping(t_address,t_bool))"
					},
					{
						"astId": 1369,
						"contract": "contracts/MyToken.sol:MyToken",
						"label": "_tokenURIs",
						"offset": 0,
						"slot": "6",
						"type": "t_mapping(t_uint256,t_string_storage)"
					},
					{
						"astId": 2980,
						"contract": "contracts/MyToken.sol:MyToken",
						"label": "mintFee",
						"offset": 0,
						"slot": "7",
						"type": "t_uint256"
					},
					{
						"astId": 2982,
						"contract": "contracts/MyToken.sol:MyToken",
						"label": "mintTimeout",
						"offset": 0,
						"slot": "8",
						"type": "t_uint256"
					},
					{
						"astId": 2985,
						"contract": "contracts/MyToken.sol:MyToken",
						"label": "fixedImageURI",
						"offset": 0,
						"slot": "9",
						"type": "t_string_storage"
					},
					{
						"astId": 3161,
						"contract": "contracts/MyToken.sol:MyToken",
						"label": "_mintTimeouts",
						"offset": 0,
						"slot": "10",
						"type": "t_mapping(t_uint256,t_uint256)"
					}
				],
				"types": {
					"t_address": {
						"encoding": "inplace",
						"label": "address",
						"numberOfBytes": "20"
					},
					"t_bool": {
						"encoding": "inplace",
						"label": "bool",
						"numberOfBytes": "1"
					},
					"t_mapping(t_address,t_bool)": {
						"encoding": "mapping",
						"key": "t_address",
						"label": "mapping(address => bool)",
						"numberOfBytes": "32",
						"value": "t_bool"
					},
					"t_mapping(t_address,t_mapping(t_address,t_bool))": {
						"encoding": "mapping",
						"key": "t_address",
						"label": "mapping(address => mapping(address => bool))",
						"numberOfBytes": "32",
						"value": "t_mapping(t_address,t_bool)"
					},
					"t_mapping(t_address,t_uint256)": {
						"encoding": "mapping",
						"key": "t_address",
						"label": "mapping(address => uint256)",
						"numberOfBytes": "32",
						"value": "t_uint256"
					},
					"t_mapping(t_uint256,t_address)": {
						"encoding": "mapping",
						"key": "t_uint256",
						"label": "mapping(uint256 => address)",
						"numberOfBytes": "32",
						"value": "t_address"
					},
					"t_mapping(t_uint256,t_string_storage)": {
						"encoding": "mapping",
						"key": "t_uint256",
						"label": "mapping(uint256 => string)",
						"numberOfBytes": "32",
						"value": "t_string_storage"
					},
					"t_mapping(t_uint256,t_uint256)": {
						"encoding": "mapping",
						"key": "t_uint256",
						"label": "mapping(uint256 => uint256)",
						"numberOfBytes": "32",
						"value": "t_uint256"
					},
					"t_string_storage": {
						"encoding": "bytes",
						"label": "string",
						"numberOfBytes": "32"
					},
					"t_uint256": {
						"encoding": "inplace",
						"label": "uint256",
						"numberOfBytes": "32"
					}
				}
			},
			"userdoc": {
				"kind": "user",
				"methods": {},
				"version": 1
			}
		}
	}
}